:020000040800F2
:10000000F8080020050100084D1D0008C71B000866
:10001000491D0008A9060008492600080000000044
:10002000000000000000000000000000E1230008C4
:100030008907000800000000B7230008E323000838
:100040001F0100081F0100081F0100081F01000810
:100050001F0100081F0100081F0100081F01000800
:100060001F0100081F0100081F0100081F010008F0
:100070001F0100081F0100081F0100081F010008E0
:100080001F0100081F0100081F0100081F010008D0
:100090001F0100081F0100081F0100081F010008C0
:1000A0001F0100081F0100081F0100081F010008B0
:1000B0001F0100081F0100081F0100081F010008A0
:1000C0001F0100081F0100081F0100081F01000890
:1000D0001F0100081F0100081F0100081F01000880
:1000E0001F0100081F0100081F010008DFF810D0E1
:1000F00000F0C8FA00480047E52F0008AFF3008081
:10010000F80800200648804706480047FEE7FEE75B
:10011000FEE7FEE7FEE7FEE7FEE7FEE7FEE7FEE7B7
:1001200051240008ED000008202A04DB203A21FABF
:1001300002F00021704721FA02F3D040C2F1200200
:100140009140084319467047D2B201E000F8012BF4
:10015000491EFBD270470022F6E710B513460A4647
:1001600004461946FFF7F0FF204610BD10B50022E7
:1001700000E0521C835C8C5CA34201D1002BF8D1BF
:10018000D8B2E1B2401A10BD2DE9FE4F804681EA97
:100190000300C00F0C46009021F0004123F0004501
:1001A000B8EB0200A94105D24046214690461C46C4
:1001B0000B46024623F00040104347D0270DC7F3FB
:1001C0000A00C3F30A510290401A019040286BDAEA
:1001D000C3F3130040F4801B0098924620B1002323
:1001E000D2EB030A63EB0B0B01985946C0F14002B6
:1001F000504600F0B0F906460D4650465946019A61
:1002000000F0B8F910EB08006141002487EA1152B0
:1002100084EAE7731A4340D0009A62B3019A012A34
:100220004FEA075215DC001B61EB02014FF0004260
:1002300002EA0752CDE90042001C41F58011324626
:100240002B4600F0B8F903B0BDE8F08F40462146D8
:10025000F9E7001B61EB0201001C41F58013001857
:100260005B412018A2F5001747EB030140EAD57067
:10027000B6196D4111E06D084FEA360645EAC075C2
:100280004FEA0752001B61EB0201001C41F580118F
:1002900049084FEA30000019514132462B4603B05D
:1002A000BDE8F04F00F078B900980122400000232B
:1002B000D0EB020263EBE073009821464FEAE07452
:1002C000B8EB000061EB0401E9E783F000435BE772
:1002D00081F0004158E72DE9FE4F81EA030404F064
:1002E000004421F0004100944FF0000B23F0004344
:1002F00050EA01045ED052EA03045BD0C3F30A540F
:10030000C1F30A552C44A4F2F3340194A0FB025427
:10031000C1F3130141F48011C3F3130343F48013B9
:1003200001FB024400FB034E840A970A44EA81540D
:1003300047EA8357A4FB076802958D0A05FB0785EA
:100340004FEA932C04FB0C542705029D4FEA0658F4
:1003500047EA1637B5EB08056EEB070C870E920ED1
:1003600047EA811742EA8312A7FB0201B6EB0B01B1
:1003700064EB00042B0D43EA0C335E1844EB1C5075
:10038000DA465146E7FB0201C5F313044FEA0B338B
:1003900043EA14534FEA0432019C43EA0603A4F1F2
:1003A0000C040294009CCDE900B400F004F903B001
:1003B000BDE8F08F00200146F9E72DE9F04D81EA14
:1003C000030404F0004B21F0004514464FF0000AEE
:1003D00023F0004150EA050220D054EA01021DD06A
:1003E000C5F30A570246C5F31303C1F31300C1F363
:1003F0000A5640F4801543F48013A7EB0608101B3F
:10040000D64608F2FD3873EB050002D308F1010867
:1004100001E092185B41B8F1000F03DA00200146B9
:10042000BDE8F08D00204FF48011064684460EE0B2
:10043000171B73EB050705D3121B63EB050306437C
:100440004CEA010C49084FEA300092185B4150EA2F
:100450000107EDD152EA030012D082EA040083EAD8
:100460000501084305D0101BAB4106D20122002331
:1004700006E000224FF0004302E06FF0010253104B
:100480001AEB06004CEB085110EB0A0041EB0B0194
:10049000BDE8F04D00F080B830B5041E71F10004E5
:1004A00004DB4FF00044404264EB0101141E73F181
:1004B000000405DB1C464FF00043524263EB04038B
:1004C000994208BF904230BD30B50B46014600202E
:1004D0002022012409E021FA02F59D4205D303FA06
:1004E00002F5491B04FA02F52844151EA2F1010287
:1004F000F1DC30BD2DE9F05F0546002092469B46B9
:1005000088460646814640241BE028464146474629
:100510002246FFF709FE53465A46C01A914110D3AE
:1005200011461846224600F016F82D1A67EB01080E
:100530004F4622460120002100F00DF817EB00097C
:100540004E41201EA4F10104DFDC484631462A4614
:100550004346BDE8F09F202A04DB203A00FA02F16E
:10056000002070479140C2F1200320FA03F31943A1
:1005700090407047202A06DBCB17203A41FA02F060
:1005800043EAE07306E041FA02F3D040C2F12002F0
:10059000914008431946704710B5141E73F10004CA
:1005A00008DA401C41F1000192185B411A4301D165
:1005B00020F0010010BD2DE9F04D92469B4611B18F
:1005C000B1FA81F202E0B0FA80F220329046FFF7F1
:1005D000C2FF04460F4640EA0A0041EA0B015346B7
:1005E0005A46084313D0114653EA010019D0C8F106
:1005F00040025046FFF798FD05460E4650465946C4
:100600004246FFF7A8FF084305D0012004E020463A
:100610003946BDE8F08D0020054346EAE0762C43DC
:1006200037430A986305E40AA0EB08000022FD0A9C
:1006300044EA47540A3002D500200146E9E70105A3
:1006400010196941DDE9084500196941BDE8F04D1F
:10065000A2E7C1F30A52C1F3130140F2FF3341F4A0
:1006600080119A4202DA00200146704740F233437B
:100670009A42A2F2334202DC5242FFF755BDFFF725
:100680006ABF0000064C074D06E0E06840F0010339
:1006900094E8070098471034AC42F6D3FFF72AFDE0
:1006A000F03B0008103C000800BFFEE700B58BB02F
:1006B0000020059006900790012008904FF2E0700E
:1006C0000190002002904FF6E0700390002004900B
:1006D0000120099001A9024800F0FFF80BB000BD0D
:1006E0008400002010B50021034800F07BF908B118
:1006F000012010BD0020FCE78400002010B5044656
:1007000004F11C0322460021014800F07FF910BDCE
:100710008400002070B504466FF07F4500BF144888
:1007200000F03EFA18B9281EA5F10105F7D11DB950
:1007300010A001F08BFF70BD04F118031A1D2146B3
:100740000B4800F025F86FF07F4500BF08480068AF
:100750008068C0F3400018B9281EA5F10105F5D145
:100760001DB904A001F072FFE5E700BFE3E7000058
:100770008400002043414E2053656E642054696D0F
:10078000656F7574210D0A00704772B600BFFEE7F1
:10079000F0B504460D461E4694F820702068836824
:1007A000A86800B900E000BF012F01D0022F7DD161
:1007B00003F0806030B903F0006018B903F0805096
:1007C00000287ED0C3F30161012088403060A86812
:1007D00060B9B5F800C0E86840EA4C5C206800F5F4
:1007E000C07000EB0110C0F800C00FE0D5E901C0F7
:1007F00040EACC00D5F80CC040EA0C00D4F800C0A8
:100800000CF5C07C0CEB011CCCF80000D5F810C036
:10081000206800F5C07000EB0110C0F804C0287D0E
:1008200001280ED1206800F5C07000EB011040686F
:1008300040F4807C206800F5C07000EB0110C0F827
:1008400004C0D079000692F806C040EA0C4092F845
:1008500005C040EA0C2092F804C040EA0C00D4F82D
:1008600000C00CF5C07C0CEB011CCCF80C00D0785F
:10087000000692F802C040EA0C4092F801C040EA3B
:100880000C2092F800C040EA0C00D4F800C00CF52F
:10089000C07C0CEB011CCCF80800206800F5C0708F
:1008A00000EB0110006840F0010C01E00FE008E0EF
:1008B000206800F5C07000EB0110C0F800C00020F7
:1008C000F0BD606A40F4001060620120F8E7606AE1
:1008D00040F4802060620120F2E7F0B504460A4649
:1008E000216894F82050012D01D0022D74D1D1F847
:1008F000000240F00100C1F80002107D00F01F0668
:10090000012000FA06F3D1F81C029843C1F81C023A
:10091000D069C8B9D1F80C029843C1F80C0290888C
:1009200080B2968940EA064601F51070576940F892
:100930003760108880B2168940EA064601F51070CB
:10094000576900EBC7004660D069012819D1D1F87A
:100950000C021843C1F80C02908880B2168840EA55
:10096000064601F51070576940F83760908980B2EB
:10097000168940EA064601F51070576900EBC7007A
:100980004660906928B9D1F804029843C1F804027E
:1009900004E0D1F804021843C1F80402106928B930
:1009A000D1F814029843C1F8140204E0D1F81402FB
:1009B0001843C1F81402106A012804D1D1F81C02AE
:1009C0001843C1F81C02D1F8000220F00100C1F860
:1009D00000020020F0BDFFE7606A40F48020606202
:1009E0000120F7E710B50246002092F82030012BD5
:1009F00001D0022B09D121B91468E46804F0030086
:100A000003E01468246904F0030010BD70B50446C7
:100A100094F82050012D01D0022D7DD151B92068CC
:100A2000C06800F0030080B9606A40F400106062A2
:100A3000012070BD2068006900F0030028B9606AD9
:100A400040F4001060620120F3E7206800F5D870E0
:100A500000EB0110006800F004009060906840B95D
:100A6000206800F5D87000EB01100068400D1060A0
:100A700007E0206800F5D87000EB01100068C0089E
:100A80005060206800F5D87000EB0110006800F09D
:100A90000200D060206800F5D87000EB01104068BB
:100AA00000F00F00082802D30820106108E0206839
:100AB00000F5D87000EB0110406800F00F001061E5
:100AC000206800F5D87000EB0110406800F47F400A
:100AD000000A9061206800F5D87000EB01104068B2
:100AE000000C5061206800F5D87000EB01108068A0
:100AF0001870206800F5D87000EB0110806800F4D1
:100B00007F40000A5870206800F5D87000EB011093
:100B1000806800F47F0000E03CE0000C98702068E2
:100B200000F5D87000EB01108068000ED8702068C6
:100B300000F5D87000EB0110C0681871206800F54E
:100B4000D87000EB0110C06800F47F40000A5871B3
:100B5000206800F5D87000EB0110C06800F47F0039
:100B6000000C9871206800F5D87000EB0110C06887
:100B7000000ED87131B92068C06840F020002668A6
:100B8000F06005E02068006940F0200026683061D0
:100B900000204EE7606A40F480206062012048E750
:100BA0000146002091F82020012A01D0022A11D10B
:100BB0000B689B6803F0806303B1401C0B689B6863
:100BC00003F0006303B1401C0B689B6803F0805383
:100BD00003B1401C704770B504460CB9012070BDCC
:100BE00094F8200010B9204600F0B0F820680068A2
:100BF00040F001002168086000F0CEFA05460DE0E3
:100C000000F0CAFA401B0A2808D9606A40F4003094
:100C10006062052084F820000120E0E72068406839
:100C200000F001000028EBD02068006820F00200EE
:100C30002168086000F0B0FA05460DE000F0ACFA5B
:100C4000401B0A2808D9606A40F400306062052021
:100C500084F820000120C2E72068406800F002000C
:100C60000028EBD1207E012806D12068006840F0E2
:100C700080002168086005E02068006820F080009E
:100C800021680860607E012806D12068006840F075
:100C900040002168086005E02068006820F04000FE
:100CA00021680860A07E012806D12068006840F015
:100CB00020002168086005E02068006820F020001E
:100CC00021680860E07E012806D12068006820F0D5
:100CD00010002168086005E02068006840F01000FE
:100CE00021680860207F012806D12068006840F054
:100CF00008002168086005E02068006820F008000E
:100D000021680860607F012806D12068006840F0F3
:100D100004002168086005E02068006820F00400F5
:100D200021680860D4E90201084321690843616928
:100D300008436168491E08432168C8610020606259
:100D4000012084F82000002049E7000010B586B09B
:100D50000446002002900390049005901A492068F0
:100D600088422ED100BF1948C06940F00070174971
:100D7000C8610846C06900F00070019000BF00BF64
:100D800000BF0846806940F0040088610846806919
:100D900000F00400019000BF00BFC81402900020C2
:100DA0000390049002A90A4800F058F84FF48050CC
:100DB0000290022003900320059002A9044800F04D
:100DC0004DF806B010BD0000006400400010024065
:100DD0000008014070B5044694F82000012822D193
:100DE000022084F820002068006820F001002168BB
:100DF000086000F0D1F905460DE000F0CDF9401B88
:100E00000A2808D9606A40F400306062052084F83E
:100E10002000012070BD2068406800F0010000281B
:100E2000EBD16062F6E7606A40F400206062012066
:100E3000F0E7000070B5044600F0AEF9064625461E
:100E4000681C10B104480078054400BF00F0A4F904
:100E5000801BA842FAD370BD540000202DE9F8474A
:100E60000346002294466EE14FF0010808FA02F4AE
:100E7000D1F8008008EA0400A0427DD1DFF8DCA2AE
:100E8000D1F80480A8EB0A09D0453AD014DCB8F1B7
:100E9000030F50D009DCB8F1000F31D0B8F1010FC9
:100EA0001CD0B8F1020F49D120E0B8F1110F18D0D1
:100EB000B8F1120F42D11EE0B9F5881F25D006DC2B
:100EC000B9F5803F20D0B9F5801F37D11AE0B9F5C8
:100ED000001F18D0B9F5041F30D117E0D1F80CC0AD
:100EE0002DE0D1F80C8008F1040C28E0D1F80C803A
:100EF00008F1080C23E0D1F80C8008F10C0C1EE07E
:100F000000BF00BF00BF00BF00BF00BFD1F8088016
:100F1000B8F1000F02D14FF0040C0BE0D1F80880BB
:100F2000B8F1010F03D14FF0080C1C6102E04FF043
:100F3000080C5C6103E04FF0000C00E000BF00BF54
:100F4000FF2801D8984601E003F104084646FF282F
:100F500002D84FEA820803E0A2F108084FEA8808A5
:100F60004746D6F800804FF00F0909FA07F928EA3A
:100F700009080CFA07F900E088E048EA0908C6F811
:100F80000080D1F8048008F08058B8F1805F7DD1EE
:100F900000BFDFF8CC81D8F8188048F00108DFF8EE
:100FA000C091C9F81880C846D8F8188008F0010820
:100FB000CDF8008000BF00BF4FEAB9384FEA920970
:100FC00058F829504FEA82784FEA18794FF00F0805
:100FD00008FA09F825EA0805DFF88881434502D1B7
:100FE0004FF0000816E0DFF88081434502D14FF052
:100FF00001080FE0DFF87481434502D14FF0020889
:1010000008E0DFF86C81434502D14FF0030801E0AE
:101010004FF004084FEA82794FEA197908FA09F883
:1010200048EA0505DFF84C814FEA920948F8295053
:10103000D1F8048008F48018B8F5801F0AD1DFF8D1
:101040003881D8F8008048EA0008DFF82C91C9F808
:10105000008009E0DFF82081D8F8008028EA000845
:10106000DFF81491C9F80080D1F8048008F4001862
:10107000B8F5001F10D1DFF8008108F10408D8F896
:10108000008048EA0008DFF8F09000E05AE009F13B
:101090000409C9F800800DE0DFF8DC8008F10408DD
:1010A000D8F8008028EA0008DFF8CC9009F104099C
:1010B000C9F80080D1F8048008F40038B8F5003F82
:1010C0000ED1DFF8B480A8F10408D8F8008048EA0F
:1010D0000008DFF8A490A9F10409C9F800800DE028
:1010E000DFF89480A8F10408D8F8008028EA000806
:1010F000DFF88490A9F10409C9F80080D1F80480D0
:1011000008F48038B8F5803F0ED1DFF86C80A8F184
:101110000808D8F8008048EA0008DFF85C90A9F1D8
:101120000809C9F800800DE0DFF84C80A8F1080834
:10113000D8F8008028EA0008DFF83C90A9F10809F7
:10114000C9F80080521CD1F8008028FA02F8B8F1E2
:10115000000F7FF489AEBDE8F88700000000111091
:101160000010024000080140000C01400010014046
:101170000014014008000140080401400246936841
:101180000B400BB1012000E0002070470AB1016163
:1011900001E00B04036170470148006870470000DC
:1011A0004C000020034800680349097808440149BD
:1011B000086070474C0000205400002010B508481B
:1011C000006840F0100006490860032000F098F81D
:1011D0000F2000F007F800F02BF8002010BD0000F1
:1011E0000020024070B504460E4800784FF47A7132
:1011F000B1FBF0F00C490968B1FBF0F5284600F0AE
:10120000E9FB08B1012070BD102C07D20022214655
:10121000501E00F037F80548046001E00120F2E7B5
:101220000020F0E75400002058000020500000206B
:1012300008B500BF1148806940F001000F4988617E
:101240000846806900F00100009000BF00BF00BFA9
:101250000846C06940F08050C8610846C06900F087
:101260008050009000BF00BF00BF0549486820F0D3
:10127000E06040F00070486000BF08BD0010024010
:10128000000001402DE9F05F80460D46164600271C
:1012900001F0FEF9074639462A46334601F00700B9
:1012A000C0F1070ABAF1040F02D94FF0040A01E0B5
:1012B000C0F1070AD14600F1040ABAF1070F02D2C1
:1012C0004FF0000A01E0A0F1030AD4464FF0010AF2
:1012D0000AFA09FAAAF1010A0AEA020A0AFA0CFA57
:1012E0004FF0010B0BFA0CFBABF1010B0BEA030BFC
:1012F0004AEA0B042146404601F0D2F9BDE8F09FCE
:1013000000BF00F00702064B19684FF6FF031940B3
:10131000044B0B4343EA0221014B196000BF7047A5
:101320000CED00E00000FA0570B504460D460CB95E
:10133000012070BD5A48006800F00700A8420ED294
:101340005748006820F007002843554908600846C0
:10135000006800F00700A84201D00120E9E72078EA
:1013600000F0020002281DD1207800F004000428BB
:1013700005D14C48406840F4E0604A494860207814
:1013800000F00800082805D14648406840F4605045
:10139000444948604348406820F0F000A168084391
:1013A00040494860207800F0010078B36068012867
:1013B00006D13C48006800F4003090B90120B8E73D
:1013C0006068022806D13748006800F0007040B914
:1013D0000120AEE73348006800F0020008B90120A0
:1013E000A7E73048406820F00300616808432D49B2
:1013F0004860FFF7D1FE064609E0FFF7CDFE801BEF
:1014000041F28831884202D9032092E707E025485B
:10141000406800F00C006168B0EB810FEDD120480E
:10142000006800F00700A8420ED91D48006820F0AF
:10143000070028431A4908600846006800F00700C2
:10144000A84201D0012074E7207800F004000428AD
:1014500007D11448406820F4E060E168084311496E
:101460004860207800F00800082808D10D4840683E
:1014700020F46050216940EAC1000A49486000F048
:101480003FF808494968C1F30311074A515CC84055
:101490000649086006480068FFF7A4FE002048E7F8
:1014A0000020024000100240623100085800002075
:1014B00050000020014800687047000058000020DC
:1014C00000B5FFF7F7FF04494968C1F30221034A59
:1014D000515CC84000BD000000100240723100089D
:1014E00000B5FFF7E7FF04494968C1F3C221034A89
:1014F000515CC84000BD000000100240723100087D
:1015000070B500210022002400230020134D6968DB
:1015100001F00C05F5B1042D02D0082D19D101E020
:101520000F4819E00F4DC1F38346AB5D01F48035E0
:1015300055B10A4D6D68C5F340450B4E725D084DBF
:101540005D43B5FBF2F402E0084D03FB05F42046D1
:1015500002E000BF024800BF00BF70BD00100240A3
:1015600000127A00503100086031000800093D0087
:10157000F8B504460CB90120F8BD207800F0010050
:10158000002878D0F848406800F00C0004280CD0FF
:10159000F548406800F00C00082811D1F248406876
:1015A00000F48030B0F5803F0AD1EF48006800F4C5
:1015B000003000285FD0606800285CD10120DBE7A4
:1015C00000BF6068B0F5803F06D1E748006840F48E
:1015D0008030E549086028E0606858B9E248006852
:1015E00020F48030E04908600846006820F480203C
:1015F00008601AE06068B0F5A02F0BD1DA480068E7
:1016000040F48020D84908600846006840F48030E3
:1016100008600AE0D448006820F48030D2490860AD
:101620000846006820F48020086000BF606888B128
:10163000FFF7B2FD054606E0FFF7AEFD401B64284C
:1016400001D9032098E7C848006800F4003000285A
:10165000F2D010E0FFF7A0FD054606E0FFF79CFD85
:10166000401B642801D9032086E7BF48006800F4C6
:1016700000300028F2D1207800F00200022857D173
:10168000B948406800F00C0050B1B748406800F01D
:101690000C00082818D1B448406800F4803098B98C
:1016A000B148006800F0020020B12069012801D093
:1016B000012061E7AC48006820F0F800616940EA69
:1016C000C100A949086033E02069E8B10120A749B9
:1016D0000860FFF761FD054606E0FFF75DFD401B72
:1016E000022801D9032047E79F48006800F0020064
:1016F0000028F2D09C48006820F0F800616940EAB8
:10170000C1009949086013E0002098490860FFF77C
:1017100043FD054606E0FFF73FFD401B022801D9C7
:10172000032029E79048006800F002000028F2D169
:10173000207800F0080008282DD1A069B8B1012058
:101740008B490860FFF728FD054606E0FFF724FDFA
:10175000401B022801D903200EE78348406A00F0AD
:1017600002000028F2D0012000F026FE13E0002045
:101770007F490860FFF710FD054606E0FFF70CFD06
:10178000401B022801D90320F6E67748406A00F0A2
:1017900002000028F2D1207800F00400042873D160
:1017A00000277148C06900F0805070B900BF6E48D2
:1017B000C06940F080506C49C8610846C06900F0BB
:1017C0008050009000BF00BF01276A48006800F405
:1017D0008070B0B96748006840F48070654908605F
:1017E000FFF7DAFC054606E0FFF7D6FC401B64284D
:1017F00001D90320C0E65F48006800F4807000282B
:10180000F2D000BFE068012806D15748006A40F0D6
:1018100001005549086227E0E06858B95248006A5B
:1018200020F00100504908620846006A20F00400D8
:10183000086219E0E06805280BD14B48006A40F0C7
:101840000400494908620846006A40F00100086245
:101850000AE04548006A20F0010043490862084652
:10186000006A20F00400086200BFE068A0B1FFF742
:1018700093FC054609E0FFF78FFC401B41F28831DD
:10188000884202D9032077E622E03748006A00F058
:1018900002000028EFD012E0FFF77EFC054608E0CA
:1018A000FFF77AFC401B41F28831884201D90320BE
:1018B00062E62D48006A00F002000028F0D1012FF6
:1018C00005D12948C06920F080502749C86100BF70
:1018D000E069C8B32448406800F00C00082860D0D4
:1018E000E069022848D1002020490866FFF754FC2F
:1018F000054606E0FFF750FC401B022801D90320F3
:101900003AE61948006800F000700028F2D1206A19
:10191000B0F5803F07D11448406820F40030A1683A
:10192000084311494860D4E9080108430E49496851
:1019300021F4741108430C49486001200B490866E2
:10194000FFF72AFC054607E03DE0FFF725FC401BBA
:10195000022801D903200FE60348006800F0007058
:101960000028F2D02FE000000010024000004242A8
:101970008004424200700040002014490866FFF7CE
:101980000BFC054606E0FFF707FC401B022801D9C7
:101990000320F1E50E48006800F000700028F2D145
:1019A00011E0E069012800D1E6E50948466806F43F
:1019B0008031206A814204D106F47011606A81424C
:1019C00001D00120D8E50020D6E500000000424209
:1019D0000010024070B504462546681EB0F1807FB5
:1019E00001D301200FE0681E4FF0E02148610F2174
:1019F0004FF0FF3000F054FE00204FF0E0218861EE
:101A000007200861002070BD10B504460CB9012004
:101A100010BDA06900B100E000BF94F8410028B9F2
:101A2000002084F84000204600F02AF8242084F8A2
:101A300041002068C06820F400502168C86020463A
:101A400000F03EFD2068006920F4904021680861A4
:101A50002068406920F02A00216848612068C06839
:101A600040F400502168C86000206064202084F8A1
:101A7000410084F842000020606300BFC8E7000016
:101A800010B586B0044600200290039004900590A3
:101A90001A49206888422ED100BF1948806940F455
:101AA0008040174988610846806900F480400190B1
:101AB00000BF00BF00BF0846806940F00400886195
:101AC0000846806900F00400019000BF00BF48157F
:101AD0000290022003900320059002A90948FFF715
:101AE000BDF94FF48060029000200390049002A999
:101AF0000448FFF7B3F906B010BD000000380140FC
:101B000000100240000801402DE9F84F04460E463F
:101B1000174699464FF0000A94F84100202850D10A
:101B200006B117B90120BDE8F88F002060642120BC
:101B300084F84100FFF730FB8246A784E784A06861
:101B4000B0F5805F04D1206910B90025B04602E0ED
:101B500035464FF000081EE0534600228021204603
:101B6000CDF8009000F02AFD20B1202084F841003B
:101B70000320D8E745B9B8F80000C0F30800216891
:101B8000486008F1020803E02878216848606D1C6D
:101B9000E08C401EE084E08C0028DDD1534600221A
:101BA00040212046CDF8009000F008FD20B1202013
:101BB00084F841000320B6E7202084F8410000208B
:101BC000B1E70220AFE700BFFEE7000010B50E4806
:101BD0000E4908602420486000210C488160C160E3
:101BE0004FF48031016149014161002101760121F9
:101BF000417681760021C17601774177FEF7EBFFD0
:101C000008B1FEF7C2FD10BD006400408400002052
:101C100000B585B00020019002900390049000BFB1
:101C20003848806940F0100036498861084680696C
:101C300000F01000009000BF00BF00BF08468069A0
:101C400040F0200088610846806900F02000009084
:101C500000BF00BF00BF0846806940F008008861EF
:101C60000846806900F00800009000BF00BF00BF78
:101C70000846806940F0040088610846806900F0E9
:101C80000400009000BF00BF012251031E48FFF76F
:101C90007DFA002220211D48FFF778FA0122C02199
:101CA0001A48FFF773FA4FF4005001900120029098
:101CB00003900220049001A91348FFF7CFF84FF4D6
:101CC0008040019000200290039001A90F48FFF787
:101CD000C5F820200190012002900220039004907A
:101CE00001A90A48FFF7BAF8C0200190112002901C
:101CF000012003900320049001A90448FFF7AEF8E7
:101D000005B000BD0010024000100140000C014071
:101D100010B50B480B4908604FF4E13048600021D2
:101D200008488160C16001610C214161002181612D
:101D3000C161FFF769FE08B1FEF727FD10BD000085
:101D400000380140AC00002000BFFEE700BFFEE706
:101D500000200CE0002106E00022064B03EBC0133C
:101D60005A544A1CD1B28029F6DB421CD0B2082852
:101D7000F0DB7047F40000202DE9F04304460D46E7
:101D800016461F46284638E0224631E0002A2DDB61
:101D90007F2A2BDC002829DB3F2827DC4FEAE07C68
:101DA00000EB5C7C4FEAEC0CDFF8588008EBCC1CB5
:101DB0001CF802C003464FEAE07800EB58784FEA7F
:101DC000E808A0EBC8094FF0010808FA09F82CEA66
:101DD000080C01464FEAE07800EB58784FEAE80833
:101DE000DFF8209009EBC81808F802C0511C0AB2AD
:101DF000A1199142CADC411C08B2E9198142C3DC35
:101E0000BDE8F083F400002070B50546002411E021
:101E100080212141294009B1012100E0002108462B
:101E200000F090FA012000F07BFA002000F078FA30
:101E3000601CC4B2082CEBDB012000F071FA00201A
:101E400000F06EFA70BD10B5012000F07BFA0120A1
:101E500000F066FA002000F075FA002000F060FA49
:101E600010BD10B5002000F06DFA012000F058FA06
:101E7000012000F067FA10BD10B50122C0212648EC
:101E8000FFF784F9AE2000F06FFAD52000F06CFA6D
:101E9000802000F069FAA82000F066FA3F2000F0E8
:101EA00063FAD32000F060FA002000F05DFA4020D1
:101EB00000F05AFAA12000F057FAC82000F054FAB6
:101EC000DA2000F051FA122000F04EFA812000F0E2
:101ED0004BFACF2000F048FAD92000F045FAF12063
:101EE00000F042FADB2000F03FFA302000F03CFA2C
:101EF000A42000F039FAA62000F036FA8D2000F078
:101F000033FA142000F030FAAF2000F02DFAFFF77A
:101F10001FFF00F0F1F910BD000C014010B50246A2
:101F2000012000E050430B1EA1F10101FAD110BDC8
:101F30000FB470B5C2B005460E4614464AA80190CB
:101F400002A8019A499900F091FB002001902346D4
:101F500002AA3146284600F0EDF842B070BC5DF8A8
:101F600014FB70B505460C4645F0B00000F0FCF9D6
:101F7000102141EA141000F0F7F904F00F0000F00E
:101F8000F3F970BDF8B506460F4614461D46082DF8
:101F90000CD1A4F120000E4901EB001010230822FF
:101FA00039460090304600F047F80FE0062D0DD17D
:101FB000A4F1200000EB4000064901EB400008239B
:101FC000062239460090304600F036F8F8BD000091
:101FD0007A3100086A3700082DE9F04706468A463C
:101FE00091461F46DDF82080002421E0381B411E69
:101FF0001020FFF793FFB9FBF0F000F00F050A2D5A
:102000000ADA05F13001CAB204FB086108B243469E
:102010005146FFF7B7FF09E005F13701CAB204FBEB
:10202000086108B243465146FFF7ACFF601CC4B2DA
:10203000BC42DBDBBDE8F0872DE9FF4F80460E4652
:102040009146DDF834B0002500244A46314640462A
:10205000039BFFF791FE00BF5EE0002558E008EB10
:102060000500002852DB08EB05007F284EDC3046D7
:10207000F11706EB5171C9100FB2F11706EB517150
:10208000C910A6EBC10A002E05DA781E07B20AF1C4
:1020900008000FFA80FA3819002817DB38190728CA
:1020A00014DC3819224901EBC01008EB0501405C33
:1020B00004FB09511BF8011001FA0AF10843391910
:1020C0001B4A02EBC11108EB050288543819401C69
:1020D00000281BDB3819401C072817DC3819401C66
:1020E000134901EBC01008EB0501405C04FB0951EA
:1020F0001BF80110CAF10802114108433919491CA3
:102100000B4A02EBC11108EB05028854681CC5B2EA
:102110004D45A4DB601CC4B20399481EC11700EBF7
:102120005171012202EBE101A14296DCBDE8FF8F73
:10213000F40000202DE9FE4F07468A4614469846D3
:102140000025AB460026CBE0605D00F0800058B96A
:102150004FF0010B2846691C8DB2205C8DF80400FD
:1021600000208DF805006BE0605D00F0E000C02805
:1021700014D14FF0020B2846691C8DB2205C8DF8FB
:102180000400605D00B9AFE02846691C8DB2205C98
:102190008DF8050000208DF8060051E0605D00F02C
:1021A000F000E0281DD14FF0030B2846691C8DB2CA
:1021B000205C8DF80400605D00B995E02846691C3C
:1021C0008DB2205C8DF80500605D00B98CE028467A
:1021D000691C8DB2205C8DF8060000208DF8070088
:1021E0002EE0605D00F0F800F02826D14FF0040BDF
:1021F0002846691C8DB2205C8DF80400605D00B932
:1022000072E02846691C8DB2205C8DF80500605D87
:1022100000B969E02846691C8DB2205C8DF8060083
:10222000605D00B960E02846691C8DB2205C8DF8C5
:10223000070000208DF8080002E0681C85B24FE01E
:10224000BBF1010F0BD19DF80420B91908B2434628
:102250005146FFF797FE06EB080086B23FE04FF0CD
:1022600000090EE009EB890101EB4911204A8818A9
:1022700001A9FDF77BFF00B90EE009F101001FFA8B
:1022800080F909EB890101EB4911194A881819A154
:10229000FDF76CFF0028E5D100BFB8F1080F12D19F
:1022A00009EB890000EB491011490844401DB91998
:1022B000009008B210231A465146FFF7BDFE06F102
:1022C000100086B20BE0B8F1060F08D1B91908B2B8
:1022D00006233F225146FFF755FEB01D86B200BFD0
:1022E000605D00287FF430AF00BFBDE8FE8F0000C6
:1022F000A43900080000000010B500240BE0002104
:102300002046FFF72EFE054901EBC410802100F0A6
:102310003BF8601CC4B2082CF1DB10BDF4000020B7
:1023200010B504462CB9002240210548FEF72EFFC7
:1023300004E0012240210248FEF728FF10BD000002
:10234000000C014010B504462CB90022802105483C
:10235000FEF71CFF04E0012280210248FEF716FF71
:1023600010BD0000000C014010B50446FFF76BFDE6
:102370007820FFF749FD0020FFF746FD2046FFF7D4
:1023800043FDFFF76EFD10BD70B505460E46FFF725
:102390005AFD7820FFF738FD4020FFF735FD002477
:1023A00004E0285DFFF730FD601CC4B2B442F8DBE6
:1023B000FFF757FD70BD704708B508490968C9089F
:1023C0004FF47A72B1FBF2F14143009100BF00BFBC
:1023D00000994A1E00920029F9D108BD580000203A
:1023E000704710B5FEF7DEFE10BD00B58FB0282196
:1023F00005A8FDF7B0FE14216846FDF7ACFE0120EC
:10240000059000040690002007900120099002200A
:102410000C90C1030D914FF4E0110E9105A8FFF748
:10242000A7F808B1FEF7B1F90F2000900220019043
:10243000002002904FF4806003900020049002215D
:102440006846FEF771FF08B1FEF79FF90FB000BDB7
:10245000704700BF00BF02680C3252E8002F22F420
:10246000907102680C3242E80013002BF3D100BFD8
:1024700000BF00BF0268143252E8002F22F00101B1
:102480000268143242E80013002BF3D100BF016B45
:1024900001290ED100BF00BF02680C3252E8002FA4
:1024A00022F0100102680C3242E80013002BF3D135
:1024B00000BF202180F84210002101637047000016
:1024C00070B504462168096921F44051E26811435E
:1024D000226811612269A1681143626941EA02051B
:1024E0002168C96841F20C62914329432268D16096
:1024F0002168496921F44071A26911432268516140
:102500002D4A2168914202D1FEF7EAFF01E0FEF771
:10251000D7FF00EBC00101EB001162689200B1FB34
:10252000F2F100EBC00202EB001263689B00B2FB09
:10253000F3F26423B2FBF3F202EBC20303EB0212E9
:10254000A1EB8201322202EB01116422B1FBF2F114
:1025500001F0F00100EBC00202EB001263689B0087
:10256000B2FBF3F26423B2FBF3F201EB021200EBD5
:10257000C00101EB001163689B00B1FBF3F100EBBC
:10258000C00303EB00136668B600B3FBF6F36426E2
:10259000B3FBF6F303EBC30606EB0313A1EB8301D6
:1025A000322303EB01116423B1FBF3F101F00F01BE
:1025B00011442268916070BD003801402DE9F84354
:1025C00004460D4617469846089E31E0701C70B3CD
:1025D000FEF7E2FDA0EB0800B04200D816B90320D8
:1025E000BDE8F8832068C06800F00400F8B1802DD1
:1025F0001ED0402D1CD020680068C0F3C000B0B1D0
:1026000000BF0020009020680068009020684068AB
:10261000009000BF00BF2046FFF71BFF082060644A
:1026200000BF002084F8400000BF0120D8E7FFE78A
:10263000206800682840A84201D1012000E0002065
:10264000B842C3D00020CBE700BFFEE70FB4054B74
:1026500010B503A9044A029800F008F910BC5DF80F
:1026600014FB00007D2F00085C00002037B51446E5
:102670000846064B6A46214600F0F8F804466946CB
:10268000002000F076FC20463EBD0000732F0008BD
:1026900002480068C0F30220704700000CED00E023
:1026A00010B5002804DB0A07130E054A135406E090
:1026B0000A07140E034A00F00F031B1FD45410BD69
:1026C00000E400E018ED00E002E008C8121F08C1B5
:1026D000002AFAD170477047002001E001C1121FA3
:1026E000002AFBD1704700002DE9FF5F82B0002176
:1026F000DDE90430020DDDF840B0034318D044F6A4
:102700001050A2F2FF3242431514119801281FD035
:10271000A5EB0B00401C5FEA000A4FF000064E4F8D
:10272000DFF83891B046504615D5CAF1000413E0E1
:10273000119801244AA3012801D16FEA0B010298E4
:10274000119AC0E90031C0E9024206B0BDE8F09F2D
:10275000CBF10000DFE704460021404A491842EB74
:102760000450CDE9001012E0E00707D032463B46A6
:1027700040464946FDF7AFFD8046894632463B4616
:1027800010461946FDF7A7FD06460F466410002CBB
:10279000EAD1DDE90401DDE90023BAF1000F06DA30
:1027A000FDF799FD42464B46FDF795FD05E0FDF727
:1027B00004FE42464B46FDF700FE04460E4600224C
:1027C000284BFDF769FE03D84FF0FF30014607E0C4
:1027D0000022254B20463146FDF7D6FCFDF739FF98
:1027E000102409E0002C0ADB0A220023FDF782FEF8
:1027F000039B30321A55641E50EA0102F2D1641C68
:10280000039AC4F111031444119A012A03D001223E
:1028100008430DD10AE0084304D000204FF0110B0B
:10282000119072E7A3EB0B056D1E0DE05B4504DD17
:102830004FF0000205F1010504E003DA4FF0000259
:10284000A5F10105002AECD002981199C0E90231E6
:10285000C0E9004579E70000000014400000F03FA7
:10286000300000000000F0430000E03F2DE9FF4F82
:1028700095B09A46884606460025EEE1252877D190
:1028800000242746F94A0121039400E0044316F886
:10289000013F203B01FA03F01042F7D130782A289B
:1028A00011D06FF02F033078A0F13002092A16D82A
:1028B000039A44F0020402EB820203EB420210444A
:1028C000761C0390EFE758F8042B0392002A03DAF2
:1028D000504244F40054039044F00204761C3078D3
:1028E0002E2816D116F8010F44F004042A280DD022
:1028F0006FF02F023078A0F13003092B09D807EBD5
:10290000870302EB4303C718761CF3E758F8047BF0
:10291000761C30786C280FD006DC4C2817D068283D
:102920000DD06A2814D104E0742810D07A280FD171
:102930000DE044F400140AE044F4801401E044F48F
:1029400040147278824202D104F58014761C761C01
:10295000307866280BD013DC582877D009DC0028A3
:1029600075D04528F6D04628F4D047281AD193E1EF
:1029700018E0632835D0642879D0652812D18BE11E
:10298000702873D008DC6728F1D069286FD06E28D2
:102990000DD06F2806D1ACE073282CD0752874D0E8
:1029A000782853D05246179990476D1C54E1C4F3D0
:1029B0000250022809D003280DD0D8F800100428AE
:1029C0000DD00D6008F1040846E1D8F80010EA17B0
:1029D000C1E90052F6E7D8F800100D80F2E70D705B
:1029E000F0E718F8041B8DF8001000208DF80100A6
:1029F000EB46012003E058F804BB4FF0FF306107BD
:102A00004FF0000102D40DE009F101018946B942FD
:102A10000FDA8145F8DB1BF809100029F4D108E032
:102A200009F1010189468142FADB1BF809100029EE
:102A3000F6D103985346A0EB090721463846179A6A
:102A400000F080FA284400EB090507E044E008E1C3
:102A50000DE01BF8010B524617999047B9F1010997
:102A6000F7D2534621463846179AF2E039E00A2158
:102A7000C4F302524FF0000B0091022A06D058F81E
:102A8000040BC117032A09D00AE023E008F107006C
:102A900020F00702F2E80201904605E000B2C117FB
:102AA000042A01D140B2C117002906DA0A460021E2
:102AB000404261EB02012D2202E0220504D52B22C7
:102AC0008DF80420012203E0E20701D02022F7E77D
:102AD000914657E00A2100E010214FF0000B0091D1
:102AE0000BE010214FF0000B44F004040827009184
:102AF00003E008204FF0000B0090C4F30252022ABA
:102B000005D058F8040B0021032A08D008E008F18A
:102B1000070020F00702F2E80201904603E080B2CD
:102B2000042A00D1C0B24FF0000922072AD532781A
:102B3000702A07D0DDF800C08CF0100C5CEA0B0C9A
:102B400005D00EE040228DF80420012208E050EA72
:102B5000010306D030238DF804308DF805200222C1
:102B60009146009B83F0080353EA0B030AD150EA15
:102B7000010201D1620705D530228DF804204FF003
:102B800001097F1E3278582A04D039A20C920CAA6F
:102B900002920BE03BA2F9E75B46009AFDF7AAFC24
:102BA0000C9B9B5C029A521E0292137050EA010227
:102BB000F2D1029804A9081A00F1200B600702D58F
:102BC00024F4803400E001275F4502DDA7EB0B0011
:102BD00000E0002000EB0B01009003984944401AEC
:102BE0000390E00306D453462146179A039800F059
:102BF000A9F90544002706E001A85246C05D1799CF
:102C000090476D1C7F1C4F45F6DBE0030CD5534607
:102C10002146179A039800F095F9054404E0302006
:102C20005246179990476D1C0099481E0090002944
:102C3000F5DC08E00298029952460078491C02919E
:102C4000179990476D1CBBF10001ABF1010BF1DC52
:102C50005BE100F065F90544761C307800287FF4CC
:102C60000DAE19B02846BDE8F08F0000092801001C
:102C700030313233343536373839616263646566F2
:102C800000000000303132333435363738394142B4
:102C90004344454600000000600700D4062708F1C1
:102CA000070020F00700F0E80223804603F0004C04
:102CB0005FEA0C0001D097A009E0200501D596A09D
:102CC00005E0E00701D095A001E0AFF24C001390C1
:102CD000307823F0004365280CD006DC452809D065
:102CE00046281DD047287FD13BE0662818D06728AA
:102CF0007AD136E00021112F01DB112000E0781C91
:102D0000CDE9000104A90CA8FFF7EEFCDDE90D01F7
:102D10000C9A4FF0000B07F10109109200914EE060
:102D20004FF000400097CDE9011004A90CA8FFF76F
:102D3000DBFCDDE90D020C9B0F994FF0000B914677
:102D40001093009211B9791C00EB0109B7EB09004F
:102D500003D4C0F1FF3B07F10109A9EB0700019083
:102D600042E0012F00DA01270021112F01DD11209F
:102D700000E03846CDE9000104A90CA8FFF7B4FC37
:102D8000DDE90D010C9A00914FF0000BB94610924D
:102D900021070FD4009A4A4503DA914601E0A9F1D0
:102DA0000109B9F1010F05DD109AA9F10101515C8A
:102DB0003029F4D0B84202DA10F1040F03DA01210D
:102DC000CDE9011010E0002803DC8344A9EB0001E9
:102DD00002E0411C494500DD8946A0EB0B00401C88
:102DE00001904FF000400290200705D4019848451B
:102DF00002DB4FF0FF30019000208DF84B0002986D
:102E00000DF14B07B0F1004F25D002200C902B2084
:102E10000D90029800280CDA404202902D200D906F
:102E200007E00A210298FDF74FFB3031029007F8C6
:102E3000011D0C99481E0C900029F2DC0298002814
:102E4000EFD1791E0D980870307800F0200040F026
:102E5000450007F8020D11A8C01BC01D0290139871
:102E6000007800B1012000EB0901019801EBE0714D
:102E7000029801440398401A401E0390E00306D4D0
:102E800053462146179A039800F05CF805441398BE
:102E9000007818B15246179990476D1CE00323D56E
:102EA00053462146179A039800F04CF805441BE05E
:102EB000BBF1000F07DB0098584504DD1098179907
:102EC00010F80B0001E01799302052469047019806
:102ED0000BF1010B401E05F10105019004D12E20DC
:102EE0005246179990476D1CB9F10001A9F10109EB
:102EF000DEDC05E017F8010B5246179990476D1C70
:102F00000299481E02900029F4DC53462146179A84
:102F100003989EE62D0000002B000000200000001A
:102F20002DE9F041044600251E461746880404D4C6
:102F300005E039462020B0476D1C641EF9D52846AF
:102F4000BDE8F0812DE9F041044600251E4690467B
:102F5000C80301D5302700E02027880404D505E008
:102F600041463846B0476D1C641EF9D52846BDE879
:102F7000F0810A68531C0B601070704713B50C4643
:102F80006423012269460248FEF7BEFD00981CBD7D
:102F9000AC00002010B5FF244FF480410F48FEF72D
:102FA000EDF878B90E48007860B10F20FDF742FFC8
:102FB0004FF480410948FEF7E1F818B901240020D8
:102FC000074908704FF480410448FEF7D7F810B164
:102FD000012003490870204610BD0000000C01408C
:102FE0004800002008B5FEF7E9F8FFF7FEF9FEF704
:102FF0000FFEFEF7EBFDFEF78BFE4B48FDF7EAFEFA
:10300000FDF754FBFEF738FF00224FF4005147480C
:10301000FEF7BCF846A3082200210846FEF788FF09
:10302000FFF76AF944A0FFF711FB00257BE0FFF7EB
:10303000B1FF0446012C14D185F0010545B10122F0
:1030400020213E48FEF7A2F83D48FDF763FB08E06B
:10305000002220213948FEF799F839482430FDF73D
:1030600059FBFDF73FFB00285DD03648FDF746FBD6
:103070003448007FAA2821D13248407F11281DD131
:103080003048807F072802D0082815D109E00122A6
:1030900020212A48FEF77AF801252948FDF73AFB56
:1030A0000BE0002220212548FEF770F80025244877
:1030B0002430FDF72FFB00E000BF00BF082322A251
:1030C00000210846FFF736F8082000901D4803232A
:1030D000002102685020FEF77FFF08200090194869
:1030E000027F022310210020FEF776FF08200090C7
:1030F0001448427F022310211420FEF76DFF0820A0
:1031000000901048827F022310212820FEF764FFE0
:10311000082000900B48C27F022310213C20FEF7BC
:103120005BFFFFF7E9F882E7840000200010014010
:10313000E4BDA0E5A5BD000061000000000C014059
:103140000000002060000020535449443A00000071
:1031500002030405060708090A0B0C0D0E0F1010D8
:103160000102000000000000000001020304060745
:103170000809000000000102030400000000000034
:1031800000000000000000000000000000F8000047
:103190000000000000333000000000160E00160E84
:1031A0000000000000000000000040C07840C0782F
:1031B0004000043F04043F040400007088FC083011
:1031C0000000001820FF211E0000F008F000E018A9
:1031D000000000211C031E211E0000F00888700062
:1031E00000001E21232419272110000000160E00C4
:1031F00000000000000000000000000000E01804D3
:103200000200000000071820400000020418E0003F
:1032100000000040201807000000404080F080407F
:1032200040000202010F01020200000000F0000055
:1032300000000101011F0101010000000000000069
:10324000000000B07000000000000000000000005E
:103250000000000101010101010100000000000067
:10326000000000303000000000000000000080601E
:103270001804006018060100000000E010080810A3
:10328000E000000F102020100F00001010F80000C8
:1032900000000020203F202000000070080808885F
:1032A000700000302824222130000030088888482F
:1032B00030000018202020110E000000C02010F85F
:1032C000000000070424243F240000F80888880830
:1032D00008000019212020110E0000E01088881835
:1032E0000000000F112020110E0000380808C83817
:1032F00008000000003F00000000007088080888F7
:103300007000001C222121221C0000E0100808107F
:10331000E0000000312222110F00000000C0C000B8
:1033200000000000003030000000000000C0C000BD
:103330000000000080B070000000000080402010FD
:1033400008000001020408102000404040404040B6
:103350004000040404040404040000081020408019
:10336000000000201008040201000070480808084E
:10337000F0000000003036010000C030C828E8101E
:10338000E0000718272423140B000000C038E000D9
:103390000000203C23020227382008F88888887023
:1033A0000000203F202020110E00C030080808082F
:1033B0003800071820202010080008F80808081016
:1033C000E000203F202020100F0008F88888E8083F
:1033D0001000203F20202320180008F88888E808E3
:1033E0001000203F200003000000C030080808380B
:1033F000000007182020221E020008F8080000081C
:10340000F808203F210101213F20000808F80808A2
:1034100000000020203F2020000000000808F808DD
:103420000800C08080807F00000008F888C028184D
:103430000800203F20012638200008F8080000007E
:103440000000203F20202020300008F8F800F8F885
:103450000800203F003F003F200008F830C000086F
:10346000F808203F200007183F00E0100808081067
:10347000E0000F10202020100F0008F808080808AE
:10348000F000203F210101010000E01008080810B1
:10349000E0000F18242438504F0008F888888888E6
:1034A0007000203F2000030C3020007088080808BE
:1034B00038000038202121221C00180808F80808CC
:1034C00018000000203F2000000008F80800000855
:1034D000F808001F202020201F000878880000C85E
:1034E0003808000007380E010000F80800F800084E
:1034F000F800033C0700073C030008186880806858
:10350000180820302C03032C30200838C800C83895
:1035100008000000203F2000000010080808C838FC
:1035200008002038262120201800000000FE02029A
:1035300002000000007F40404000000C30C000004E
:103540000000000000010638C00000020202FE0078
:103550000000004040407F000000002010080408E8
:10356000102000000000000000000000000000002B
:10357000000080808080808080800002040800003D
:10358000000000000000000000000000808080803B
:1035900000000019242222223F2008F80080800029
:1035A0000000003F112020110E00000000808080EC
:1035B0000000000E112020201100000000808088F3
:1035C000F800000E112020103F2000008080808035
:1035D0000000001F222222221300008080F0888831
:1035E00088180020203F202000000000808080807C
:1035F0008000006B94949493600008F800808080B1
:103600000000203F210000203F200080989800000B
:1036100000000020203F202000000000008098983B
:10362000000000C08080807F000008F800008080DB
:103630008000203F24022D302000000808F8000000
:1036400000000020203F20200000808080808080BB
:103650008000203F20003F20003F008080008080CD
:10366000000000203F2100203F200000808080805B
:103670000000001F202020201F008080008080008C
:10368000000080FFA12020110E000000008080803B
:103690008000000E112020A0FF80808080008080AC
:1036A000800020203F2120000100000080808080D9
:1036B00080000033242424241900008080E08080CE
:1036C00000000000001F202000008080000000801B
:1036D0008000001F202020103F208080800000807C
:1036E000808000010E30080601008080008000808C
:1036F00080800F300C030C300F0000808000808031
:1037000080000020312E0E3120008080800000805B
:10371000808080818E70180601000080808080800B
:1037200080000021302C2221300000000000807C2D
:10373000020200000000003F404000000000FF00C7
:10374000000000000000FF0000000002027C80007A
:1037500000000040403F000000000080404080002A
:1037600000800000000000010100000000000000D7
:103770000000002F000000000700070000147F1465
:103780007F1400242A7F2A12002313086462003663
:103790004955225000000007000000001C22410093
:1037A000000041221C000014083E08140008083ED6
:1037B0000808000000A060000008080808080000D1
:1037C00060600000002010080402003E5149453EA0
:1037D0000000427F400000426151494600214145BE
:1037E0004B31001814127F10002745454539003C25
:1037F0004A494930000171090503003649494936F3
:1038000000064949291E00003636000000005636E1
:1038100000000008142241000014141414140000C5
:1038200041221408000201510906003E4955592E53
:10383000007C1211127C007F49494936003E41410B
:103840004122007F4141221C007F49494941007FBC
:1038500009090901003E4149497A007F0808087FAB
:103860000000417F4100002040413F01007F0814DB
:103870002241007F40404040007F020C027F007FD9
:103880000408107F003E4141413E007F09090906BE
:10389000003E4151215E007F0919294600464949F1
:1038A00049310001017F0101003F4040403F001FBE
:1038B0002040201F003F4038403F0063140814633D
:1038C00000070870080700615149454300007F4127
:1038D0004100000204081020000041417F00000464
:1038E0000201020400404040404000000102040088
:1038F000002054545478007F4844443800384444ED
:10390000442000384444487F003854545418000878
:103910007E0901020018A4A4A47C007F0804047896
:103920000000447D4000004080847D00007F10281E
:1039300044000000417F4000007C04180478007CB3
:103940000804047800384444443800FC2424241833
:103950000018242418FC007C08040408004854546F
:10396000542000043F444020003C4040207C001C88
:103970002040201C003C4030403C0044281028449B
:10398000001CA0A0A07C004464544C440000087FAC
:1039900041000000007F00000000417F0800000897
:1039A00004081008EFBC8C000000000000000000BC
:1039B0000000000000000000000000583800000077
:1039C000000000000000000000E380820000000012
:1039D00000000000000000000000000000000000E7
:1039E0001824241800000000000000000000E4BDBE
:1039F000A00000008060F8074020180F08C80808E1
:103A0000281800010000FF00100C0340807F000117
:103A1000061800E5A5BD00001010F01F10F0008092
:103A20008282E2928A868000402215081661000098
:103A300040807F0000000000E4B8960000202020B5
:103A4000FE2020FF202020FF20202020000000005A
:103A50007F404047444444474040400000E7958C45
:103A60000000000000FE929292FE929292FE0000F0
:103A7000000008080484621E010001FE020404081C
:103A80000800E8BDA600000008884828180FE808CC
:103A90000808080808000008080909090909FF09B9
:103AA00009090909080800E7AA970000100CC45486
:103AB0004C64D54644444C54C4140C000000FF40F0
:103AC0004462554955434040FF000000E997A80073
:103AD0000000F80106000002020202020202FE00DB
:103AE0000000FF00000000000000000040807F0098
:103AF00000E781AF0000807000FF20100404040480
:103B0000FC040404040080601807083000004080B2
:103B10007F0000000000E5BC80000080828282FE01
:103B20008282828282FE8282828000008040300F08
:103B30000000000000FF0000000000E590AF000062
:103B4000000000FC4444444546444444447C000096
:103B50004020180700FC44444444444444FC000012
:103B6000E585B3000000001011161010F0101014BD
:103B700013100000008181414121110D030D11211D
:103B80004141818100E997AD000000F80122202227
:103B900022A2FA22222202FE000000FF00080402F4
:103BA00011201F000040807F00000000000000FF87
:103BB0000101013109090909897101010101FFFFB1
:103BC0008080808080809681808080808080FFFFE0
:103BD00001818181FD8991A1C1FD81818101FFFF69
:103BE000808080809F888482819F80808080FF0089
:103BF000103C00080000002060000000C8260008FB
:103C0000703C00086000002098080000D8260008DA
:103C1000550500000000000000000000000000004A
:103C20000400000000000000000000001324074012
:103C3000000000005505000000000000000000002A
:103C40000000000004000000000000000000000070
:103C500013240840000000000100000000000000E4
:103C6000100000000100000000127A0000000000B7
:04000005080000ED02
:00000001FF
