:020000040800F2
:10C000008807002045C10008E5F4000867EC000837
:10C01000E1F4000825C30008F1FA00080000000060
:10C02000000000000000000000000000A9F6000869
:10C0300039C3000800000000E9F40008ABF600086E
:10C040005FC100085FC100085FC100085FC1000850
:10C050005FC100085FC100085FC100085FC1000840
:10C060005FC100085FC100085FC100085FC1000830
:10C070005FC100085FC100085FC100085FC1000820
:10C080005FC100085FC100085FC100085FC1000810
:10C090005FC1000829C300085FC100085FC1000834
:10C0A0005FC100085FC100085FC100085FC10008F0
:10C0B0005FC100085FC100085FC100085FC10008E0
:10C0C0005FC100085FC100085FC100085FC10008D0
:10C0D0005FC10008E1FA00085FC100085FC1000805
:10C0E0005FC100085FC100085FC100085FC10008B0
:10C0F0005FC100085FC100085FC100085FC10008A0
:10C100005FC100085FC100085FC100085FC100088F
:10C110005FC100085FC100085FC100085FC100087F
:10C120005FC100085FC100085FC100085FC100086F
:10C13000DFF80CD000F07EF800480047DD0201086F
:10C14000880700200648804706480047FEE7FEE7CC
:10C15000FEE7FEE7FEE7FEE7FEE7FEE7FEE7FEE7B7
:10C1600019F7000831C10008202A04DB203A21FA1F
:10C1700002F00021704721FA02F3D040C2F1200200
:10C180009140084319467047D2B201E000F8012BF4
:10C19000491EFBD270470022F6E710B513460A4647
:10C1A00004461946FFF7F0FF204610BD30B505469E
:10C1B0002A460B4612F8010B13F8014B08B1A042B6
:10C1C000F8D01CB1002802D06D1CF1E7284630BD24
:10C1D0002DE9F05F0546002092469B4688460646BC
:10C1E000814640241BE02846414647462246FFF749
:10C1F000BBFF53465A46C01A914110D31146184608
:10C20000224600F029F82D1A67EB01084F46224616
:10C210000120002100F020F817EB00094E41201EFC
:10C22000A4F10104DFDC484631462A464346BDE816
:10C23000F09F0000064C074D06E0E06840F0010367
:10C2400094E8070098471034AC42F6D3FFF774FF28
:10C250004804010868040108202A04DB203A00FA97
:10C2600002F1002070479140C2F1200320FA03F34D
:10C27000194390407047000008B500BF00200090AF
:10C2800010480068006800900E4800684068009000
:10C2900000BF00BF00BF002000900A48006800688F
:10C2A0000090084800684068009000BF00BF20224E
:10C2B0000549044802F004FA03F097FE0020034900
:10C2C000087008BD2001002068030020180000202D
:10C2D00010B51248007806281CD2DFE800F00304ED
:10C2E000070A0D1017E003F08BFF14E003F036FF90
:10C2F00011E003F0AFFE0EE003F094FE0BE001F05E
:10C3000039F807490968401AB0F57A7F01D301F07E
:10C31000DDFA00E000BF00BF10BD000018000020E3
:10C320003C00002000BFFEE710B5024800F02DFAE7
:10C3300010BD00004C000020704772B600BFFEE741
:10C3400010B5024692F82030012B01D0022B06D105
:10C3500010684069084314686061002010BD506A8D
:10C3600040F4802050620120F8E7F0B504460D4605
:10C370001E4694F8207020688368A86800B900E021
:10C3800000BF012F01D0022F7DD103F0806030B9B2
:10C3900003F0006018B903F0805000287ED0C3F38A
:10C3A0000161012088403060A86860B9B5F800C01C
:10C3B000E86840EA4C5C206800F5C07000EB0110B2
:10C3C000C0F800C00FE0D5E901C040EACC00D5F8C4
:10C3D0000CC040EA0C00D4F800C00CF5C07C0CEB9B
:10C3E000011CCCF80000D5F810C0206800F5C07022
:10C3F00000EB0110C0F804C0287D01280ED1206890
:10C4000000F5C07000EB0110406840F4807C2068AB
:10C4100000F5C07000EB0110C0F804C0D079000630
:10C4200092F806C040EA0C4092F805C040EA0C20A1
:10C4300092F804C040EA0C00D4F800C00CF5C07CAF
:10C440000CEB011CCCF80C00D078000692F802C06E
:10C4500040EA0C4092F801C040EA0C2092F800C07B
:10C4600040EA0C00D4F800C00CF5C07C0CEB011CB9
:10C47000CCF80800206800F5C07000EB01100068DF
:10C4800040F0010C01E00FE008E0206800F5C0700A
:10C4900000EB0110C0F800C00020F0BD606A40F45D
:10C4A000001060620120F8E7606A40F4802060625A
:10C4B0000120F2E7F0B504460A46216894F82050BE
:10C4C000012D01D0022D74D1D1F8000240F00100FD
:10C4D000C1F80002107D00F01F06012000FA06F3EB
:10C4E000D1F81C029843C1F81C02D069C8B9D1F830
:10C4F0000C029843C1F80C02908880B2968940EAF9
:10C50000064601F51070576940F83760108880B210
:10C51000168940EA064601F51070576900EBC7001E
:10C520004660D069012819D1D1F80C021843C1F82E
:10C530000C02908880B2168840EA064601F5107019
:10C54000576940F83760908980B2168940EA0646FC
:10C5500001F51070576900EBC7004660906928B973
:10C56000D1F804029843C1F8040204E0D1F80402AF
:10C570001843C1F80402106928B9D1F8140298438D
:10C58000C1F8140204E0D1F814021843C1F81402EF
:10C59000106A012804D1D1F81C021843C1F81C020A
:10C5A000D1F8000220F00100C1F800020020F0BD27
:10C5B000FFE7606A40F4802060620120F7E770477F
:10C5C00070B5044694F82050012D01D0022D7DD184
:10C5D00051B92068C06800F0030080B9606A40F477
:10C5E00000106062012070BD2068006900F0030047
:10C5F00028B9606A40F4001060620120F3E7206807
:10C6000000F5D87000EB0110006800F004009060A5
:10C61000906840B9206800F5D87000EB0110006800
:10C62000400D106007E0206800F5D87000EB0110A5
:10C630000068C0085060206800F5D87000EB011059
:10C64000006800F00200D060206800F5D87000EBB0
:10C650000110406800F00F00082802D30820106184
:10C6600008E0206800F5D87000EB0110406800F089
:10C670000F001061206800F5D87000EB01104068D1
:10C6800000F47F40000A9061206800F5D87000EB4C
:10C6900001104068000C5061206800F5D87000EB74
:10C6A000011080681870206800F5D87000EB011048
:10C6B000806800F47F40000A5870206800F5D87048
:10C6C00000EB0110806800F47F0000E03CE0000C0B
:10C6D0009870206800F5D87000EB01108068000E9B
:10C6E000D870206800F5D87000EB0110C068187190
:10C6F000206800F5D87000EB0110C06800F47F409E
:10C70000000A5871206800F5D87000EB0110C0686D
:10C7100000F47F00000C9871206800F5D87000EBE1
:10C720000110C068000ED87131B92068C06840F0AF
:10C7300020002668F06005E02068006940F02000D5
:10C740002668306100204EE7606A40F48020606215
:10C75000012048E70146002091F82020012A01D05D
:10C76000022A11D10B689B6803F0806303B1401C5F
:10C770000B689B6803F0006303B1401C0B689B6867
:10C7800003F0805303B1401C70472DE9F05F04466D
:10C790000025206846692068D0F8049020688768E2
:10C7A0002068D0F80CA02068D0F810B02068D0F82D
:10C7B000188006F00100002855D007F00100C0B134
:10C7C00001202168886007F0020018B1204600F0BF
:10C7D000D4FA0EE007F0040010B145F4006508E05B
:10C7E00007F0080010B145F4805502E0204600F043
:10C7F000C3FA07F48070C8B14FF480702168886074
:10C8000007F4007018B1204600F0B9FA0EE007F402
:10C81000806010B145F4005508E007F4006010B1E5
:10C8200045F4804502E0204600F0A8FA07F4803085
:10C83000C8B14FF480302168886007F4003018B127
:10C84000204600F09EFA0EE007F4802010B145F477
:10C85000004508E007F4002010B145F4803502E0FF
:10C86000204600F08DFA06F0080038B10AF01000FA
:10C8700020B145F4007510202168C86006F004005E
:10C8800040B10AF0080028B108202168C86020469D
:10C8900000F0A8F906F0020038B12068C06800F086
:10C8A000030010B1204600F09EF906F0400038B1B8
:10C8B0000BF0100020B145F480651020216808615C
:10C8C00006F0200040B10BF0080028B108202168D4
:10C8D0000861204600F088F906F0100038B12068A1
:10C8E000006900F0030010B1204600F07FF906F463
:10C8F000003040B109F0100028B1102021684860D4
:10C90000204600F009FA06F4803040B109F0080032
:10C9100028B1082021684860204600F033FA06F468
:10C92000004088B309F0040078B306F4807020B1A9
:10C9300008F0010008B145F0010506F4007020B1CF
:10C9400008F0020008B145F0020506F4806020B14D
:10C9500008F0040008B145F0040506F40060A0B139
:10C9600008F0700088B108F07000402817D006DC8D
:10C9700010280BD020280CD0302819D10CE05028DA
:10C9800010D0602814D110E01DE019E045F0080532
:10C990000FE045F010050CE045F0200509E045F0FA
:10C9A000400506E045F0800503E045F4807500E0B1
:10C9B00000BF00BF2068806920F070002168886196
:10C9C0000420216848602DB1606A284360622046D7
:10C9D000FFF7F5FDBDE8F09F70B504460CB90120E6
:10C9E00070BD94F8200010B9204600F0AFF8206820
:10C9F000006840F001002168086000F0BBFC0546BB
:10CA00000DE000F0B7FC401B0A2808D9606A40F42A
:10CA100000306062052084F820000120E0E72068F3
:10CA2000406800F001000028EBD02068006820F08A
:10CA300002002168086000F09DFC05460DE000F052
:10CA400099FC401B0A2808D9606A40F400306062F3
:10CA5000052084F820000120C2E72068406800F02B
:10CA600002000028EBD1207E012806D12068006852
:10CA700040F080002168086005E02068006820F030
:10CA8000800021680860607E012806D12068006867
:10CA900040F040002168086005E02068006820F050
:10CAA000400021680860A07E012806D12068006847
:10CAB00040F020002168086005E02068006820F050
:10CAC000200021680860E07E012806D12068006807
:10CAD00020F010002168086005E02068006840F040
:10CAE000100021680860207F012806D120680068B6
:10CAF00040F008002168086005E02068006820F028
:10CB0000080021680860607F012806D1206800685D
:10CB100040F004002168086005E02068006820F00B
:10CB2000040021680860D4E9020108432169084330
:10CB3000616908436168491E08432168C861002093
:10CB40006062012084F82000002049E710B586B01B
:10CB50000446002002900390049005901E4920682E
:10CB6000884236D100BF1D48C06940F000701B49A3
:10CB7000C8610846C06900F00070019000BF00BFA6
:10CB800000BF0846806940F004008861084680695B
:10CB900000F00400019000BF00BFC8140290002004
:10CBA0000390049002A90E4800F03EFA4FF4805022
:10CBB0000290022003900320059002A9084800F08B
:10CBC00033FA00220421152000F02EFE152000F07B
:10CBD0001BFE06B010BD00000064004000100240C3
:10CBE00000080140704770477047000030B589B0B9
:10CBF00005466B4602AA01212846FFF7E1FC3248B0
:10CC0000007802284AD1002028E01DF800302F4A81
:10CC100011884A1C2D4C22802D4A126853542D49EC
:10CC20000968491C2B4A116021460988FF2913DD38
:10CC300027490968284A116025490968274A91420D
:10CC400001D1274900E02549214A116000211F4AEE
:10CC500011800121234A1170411CC8B206998142FA
:10CC6000D3D821480068401C1F4908600846007856
:10CC700000F01F0068B900F07DFB04461B48006807
:10CC8000221A144801681AA002F034FF1748046001
:10CC900000BF00F06FFB1D49086013E00A480078F0
:10CCA00003280FD1002005E01DF80010184A115488
:10CCB000411CC8B20699814201D90428F4DB012045
:10CCC0001449087009B030BD18000020240000206D
:10CCD0001C00002028000020200000206801002007
:10CCE00068020020340000204400002040000020A2
:10CCF0006672616D652025642C20696E746572769C
:10CD0000616C3D256C646D730D0A000030000020DD
:10CD10003600002035000020704770B5044694F8B6
:10CD20002000012822D1022084F820002068006819
:10CD300020F001002168086000F01CFB05460DE0B2
:10CD400000F018FB401B0A2808D9606A40F4003044
:10CD50006062052084F82000012070BD20684068D2
:10CD600000F001000028EBD16062F6E7606A40F451
:10CD7000002060620120F0E77047704770477047FD
:10CD800070477047704770B503460C460020022577
:10CD90005D71002104E054F821501E683560491C83
:10CDA0009142F8D31D68286801255D7170BD10B5EA
:10CDB00004460CB9012010BD607920B90020207113
:10CDC000204600F005F8012060710020F3E7000024
:10CDD00008B5094A016891420DD100BF0749496968
:10CDE00041F04001054A51611146496901F0400195
:10CDF000009100BF00BF08BD00300240001002409B
:10CE00000146002291F82100022808D004208863FE
:10CE100000BF002081F8200000BF01207047086893
:10CE2000006820F00E000B6818600868006820F0A9
:10CE300001000B68186091F8403001209840CB6BDE
:10CE40005860012081F8210000BF002081F82000F7
:10CE500000BF1046E2E7000070B50446002594F8D4
:10CE60002100022803D00420A0630125C1E020682E
:10CE7000006820F00E00216808602068006820F03B
:10CE80000100216808605C492068884252D95A49EB
:10CE900078392068884201D1012047E05649643939
:10CEA0002068884201D1102040E053495039206861
:10CEB000884201D1801539E04F493C3920688842C9
:10CEC00001D1801432E04C4928392068884202D1CF
:10CED0004FF480302AE0484914392068884202D152
:10CEE0004FF4801022E044492068884201D1400478
:10CEF0001CE042492068884201D1012016E03F49E8
:10CF000014312068884201D110200FE03B492831BC
:10CF10002068884201D1801508E038493C312068FA
:10CF2000884201D1801401E04FF480303349091F59
:10CF3000086051E0304978392068884201D10120E9
:10CF400047E02D4964392068884201D1102040E033
:10CF5000294950392068884201D1801539E0264995
:10CF60003C392068884201D1801432E022492839B6
:10CF70002068884202D14FF480302AE01E491439DB
:10CF80002068884202D14FF4801022E01A492068BC
:10CF9000884201D140041CE018492068884201D130
:10CFA000012016E0154914312068884201D1102073
:10CFB0000FE0124928312068884201D1801508E02D
:10CFC0000E493C312068884201D1801401E04FF4C1
:10CFD0008030094980394860012084F8210000BF71
:10CFE000002084F8200000BF606B10B12046616B08
:10CFF0008847284670BD00008000024008040240B7
:10D0000070B5044600F0B6F906462546681C10B116
:10D0100004480078054400BF00F0ACF9801BA8422A
:10D02000FAD370BD100000202DE9F8470246002316
:10D030009C467BE14FF0010808FA03F4D1F8008028
:10D0400008EA0400A0427DD1DFF8F4A2D1F8048000
:10D05000A8EB0A09D0453AD014DCB8F1030F50D040
:10D0600009DCB8F1000F31D0B8F1010F1CD0B8F1D4
:10D07000020F49D120E0B8F1110F18D0B8F1120F0A
:10D0800042D11EE0B9F5881F25D006DCB9F5803FF6
:10D0900020D0B9F5801F37D11AE0B9F5001F18D09C
:10D0A000B9F5041F30D117E0D1F80CC02DE0D1F84C
:10D0B0000C8008F1040C28E0D1F80C8008F1080C71
:10D0C00023E0D1F80C8008F10C0C1EE000BF00BF7B
:10D0D00000BF00BF00BF00BFD1F80880B8F1000F4B
:10D0E00002D14FF0040C0BE0D1F80880B8F1010F29
:10D0F00003D14FF0080C146102E04FF0080C5461AA
:10D1000003E04FF0000C00E000BF00BFFF2801D893
:10D11000904601E002F104084646FF2802D84FEA93
:10D12000830803E0A3F108084FEA88084746D6F8C9
:10D1300000804FF00F0909FA07F928EA09080CFAEC
:10D1400007F900E07AE048EA0908C6F80080D1F85B
:10D15000048008F08058B8F1805F6FD100BFDFF81D
:10D16000E481D8F8188048F00108DFF8D891C9F8B0
:10D170001880C846D8F8188008F00108CDF800805B
:10D1800000BF00BF4FEAB9384FEA930958F8295059
:10D190004FEA83784FEA18794FF00F0808FA09F838
:10D1A00025EA0805DFF8A081424502D14FF00008CA
:10D1B00024E0DFF89881424502D14FF001081DE0DC
:10D1C000DFF88C81424502D14FF0020816E0DFF80B
:10D1D0008481424502D14FF003080FE0DFF87881E7
:10D1E000424502D14FF0040808E0DFF87081424563
:10D1F00002D14FF0050801E04FF006084FEA8379AD
:10D200004FEA197908FA09F848EA0505DFF850816C
:10D210004FEA930948F82950D1F8048008F480189F
:10D22000B8F5801F0BD1DFF83C81D8F8008048EAC0
:10D230000008DFF83091C9F800800AE075E0DFF8F7
:10D240002481D8F8008028EA0008DFF81891C9F88E
:10D250000080D1F8048008F40018B8F5001F0ED142
:10D26000DFF8008108F10408D8F8008048EA0008D7
:10D27000DFF8F09009F10409C9F800800DE0DFF84B
:10D28000E48008F10408D8F8008028EA0008DFF8F4
:10D29000D49009F10409C9F80080D1F8048008F499
:10D2A0000038B8F5003F0ED1DFF8B880A8F10408C7
:10D2B000D8F8008048EA0008DFF8A890A9F104092E
:10D2C000C9F800800DE0DFF89C80A8F10408D8F8C8
:10D2D000008028EA0008DFF88C90A9F10409C9F859
:10D2E0000080D1F8048008F48038B8F5803F0ED172
:10D2F000DFF87080A8F10808D8F8008048EA000834
:10D30000DFF86090A9F10809C9F800800DE0DFF8A6
:10D310005480A8F10808D8F8008028EA0008DFF84F
:10D320004490A9F10809C9F800805B1CD1F800807D
:10D3300028FA03F8B8F1000F7FF47CAEBDE8F88757
:10D34000000011100010024000080140000C0140D4
:10D35000001001400014014000180140001C014071
:10D3600008000140080401400AB1016101E00B041A
:10D370000361704701480068704700000800002002
:10D3800070B504460CB9012070BD94F83D0028B971
:10D39000002084F83C00204600F08CF9242084F81A
:10D3A0003D002068006820F00100216808602068C6
:10D3B000006840F40040216808602068006820F49C
:10D3C00000402168086000F06FFB05465C4960681A
:10D3D000884206D85B48854201D2012007E0002040
:10D3E00005E05948854201D2012000E000200128D3
:10D3F00000D1C9E75548B5FBF0F62068406820F039
:10D400003F003043216848604D496068884201D838
:10D41000701C07E04FF4967070434FF47A71B0FBC4
:10D42000F1F0401C2168096A21F03F01084321689E
:10D43000086243496068884214D8681E61684900E0
:10D44000B0FBF1F0401CC0F30B00042801D2042013
:10D450003DE0681E61684900B0FBF1F0401CC0F37C
:10D460000B0034E0A06838B9681E616801EB410127
:10D47000B0FBF1F0401C0AE0681E616801EBC102DC
:10D4800002EB0111B0FBF1F0401C40F48040C0F30E
:10D490000B0008B901201AE0A06848B9681E61684D
:10D4A00001EB4101B0FBF1F0401CC0F30B000CE0BC
:10D4B000681E616801EBC10202EB0111B0FBF1F0E3
:10D4C000401CC0F30B0040F4804040F40040216851
:10D4D000C9694CF6FF72914308432168C861D4E9D9
:10D4E000070108432168096821F0C0010843216849
:10D4F0000860D4E9031008432168896848F2FF32C4
:10D500009143084321688860D4E9050108432168F4
:10D51000C96821F0FF0108432168C86020680068DD
:10D5200040F001002168086000202064202084F879
:10D530003D000020206384F83E0000BF24E7000087
:10D54000A086010080841E0000093D0040420F00BB
:10D550002DE9FC5F04460F4690469946DDE90CAB89
:10D560000E9EFFF707FF054694F83D0020287DD169
:10D57000192301224D492046009501F038FC10B1D5
:10D580000220BDE8FC9F00BF94F83C00012801D1B7
:10D590000220F6E7012084F83C0000BF2068006804
:10D5A00000F0010028B92068006840F001002168FF
:10D5B00008602068006820F400602168086021206D
:10D5C00084F83D00402084F83E0000202064C4F828
:10D5D00024A0A4F82AB0608D20853548E0624B462F
:10D5E000424639462046CDE9006501F05DFB08B1B1
:10D5F0000120C6E731E02A463146204601F0D3FC3F
:10D6000050B1206C042805D12068006840F40070F7
:10D61000216808600120B4E7606A00782168086129
:10D62000606A401C6062208D401E2085608D401E17
:10D63000608520684069C0F3800070B1208D60B1C2
:10D64000606A007821680861606A401C6062208D11
:10D65000401E2085608D401E6085208D0028CAD127
:10D660002A463146204601F08FFB00E01CE050B115
:10D67000206C042805D12068006840F400702168FF
:10D68000086001207DE72068006840F40070216890
:10D690000860202084F83D00002084F83E0000BF90
:10D6A00084F83C0000BF6CE702206AE7020010002B
:10D6B0000000FFFF10B586B00446002002900390E2
:10D6C0000490059015492068884225D100BF144870
:10D6D000806940F00800124988610846806900F0BE
:10D6E0000800019000BF00BFC020029012200390EC
:10D6F0000320059002A90B48FFF796FC00BF0848DD
:10D70000C06940F400100649C8610846C06900F4C9
:10D710000010019000BF00BF06B010BD00540040D3
:10D7200000100240000C01400348006803490978DA
:10D7300008440149086070470800002010000020DC
:10D7400010B50848006840F0100006490860032042
:10D7500000F0A8F80F2000F007F800F02BF80020E8
:10D7600010BD00000020024070B504460E4800784D
:10D770004FF47A71B1FBF0F00C490968B1FBF0F598
:10D78000284600F083FF08B1012070BD102C07D29D
:10D7900000222146501E00F047F80548046001E0D1
:10D7A0000120F2E70020F0E7100000201400002024
:10D7B0000C00002008B500BF1148806940F001004E
:10D7C0000F4988610846806900F00100009000BFA1
:10D7D00000BF00BF0846C06940F08050C8610846DD
:10D7E000C06900F08050009000BF00BF00BF054935
:10D7F000486820F0E06040F00070486000BF08BD5D
:10D80000001002400000014001460846002809DBE4
:10D8100000F01F0301229A4043099B0003F1E0231B
:10D82000C3F8002100BF70472DE9F05F80460D4628
:10D830001646002702F06EF9074639462A46334657
:10D8400001F00700C0F1070ABAF1040F02D94FF046
:10D85000040A01E0C0F1070AD14600F1040ABAF156
:10D86000070F02D24FF0000A01E0A0F1030AD446EC
:10D870004FF0010A0AFA09FAAAF1010A0AEA020AB1
:10D880000AFA0CFA4FF0010B0BFA0CFBABF1010B8F
:10D890000BEA030B4AEA0B042146404602F042F928
:10D8A000BDE8F09F00BF00F00702064B19684FF675
:10D8B000FF031940044B0B4343EA0221014B19605B
:10D8C00000BF70470CED00E00000FA0500BF00BF8C
:10D8D00000BF00BF00BFBFF34F8F00BF00BF00BF3E
:10D8E0000948006800F4E06008490843001D064943
:10D8F000086000BF00BF00BFBFF34F8F00BF00BF75
:10D9000000BF00BF00BFFDE70CED00E00000FA051E
:10D9100070B504460D460CB9012070BD5A48006828
:10D9200000F00700A8420ED25748006820F0070018
:10D930002843554908600846006800F00700A842DF
:10D9400001D00120E9E7207800F0020002281DD173
:10D95000207800F00400042805D14C48406840F4C9
:10D96000E0604A494860207800F00800082805D1A6
:10D970004648406840F46050444948604348406825
:10D9800020F0F000A168084340494860207800F08A
:10D99000010078B36068012806D13C48006800F4B3
:10D9A000003090B90120B8E76068022806D13748F6
:10D9B000006800F0007040B90120AEE7334800680D
:10D9C00000F0020008B90120A7E73048406820F0C5
:10D9D0000300616808432D494860FFF7CBFC064609
:10D9E00009E0FFF7C7FC801B41F28831884202D969
:10D9F000032092E707E02548406800F00C006168CA
:10DA0000B0EB810FEDD12048006800F00700A8427C
:10DA10000ED91D48006820F0070028431A49086005
:10DA20000846006800F00700A84201D0012074E712
:10DA3000207800F00400042807D11448406820F43E
:10DA4000E060E168084311494860207800F0080070
:10DA5000082808D10D48406820F46050216940EA48
:10DA6000C1000A49486000F03FF808494968C1F31D
:10DA70000311074A515CC84006490860064800681F
:10DA8000FFF772FE002048E700200240001002402D
:10DA90002E040108140000200C000020014800683A
:10DAA000704700001400002000B5FFF7F7FF04499D
:10DAB0004968C1F30221034A515CC84000BD00001F
:10DAC000001002403E04010800B5FFF7E7FF0449DB
:10DAD0004968C1F3C221034A515CC84000BD00003F
:10DAE000001002403E04010870B50021002200240D
:10DAF00000230020134D696801F00C05F5B1042DD9
:10DB000002D0082D19D101E00F4819E00F4DC1F3E3
:10DB10008346AB5D01F4803555B10A4D6D68C5F3A0
:10DB200040450B4E725D084D5D43B5FBF2F402E0DB
:10DB3000084D03FB05F4204602E000BF024800BF89
:10DB400000BF70BD0010024000127A001C040108E2
:10DB50002C04010800093D00F8B504460CB9012069
:10DB6000F8BD207800F00100002878D0F84840681F
:10DB700000F00C0004280CD0F548406800F00C00C0
:10DB8000082811D1F248406800F48030B0F5803F99
:10DB90000AD1EF48006800F4003000285FD06068C8
:10DBA00000285CD10120DBE700BF6068B0F5803F52
:10DBB00006D1E748006840F48030E549086028E075
:10DBC000606858B9E248006820F48030E049086095
:10DBD0000846006820F4802008601AE06068B0F50C
:10DBE000A02F0BD1DA48006840F48020D8490860A3
:10DBF0000846006840F4803008600AE0D4480068B5
:10DC000020F48030D24908600846006820F4802063
:10DC1000086000BF606888B1FFF7ACFB054606E00E
:10DC2000FFF7A8FB401B642801D9032098E7C848E8
:10DC3000006800F400300028F2D010E0FFF79AFBF3
:10DC4000054606E0FFF796FB401B642801D9032038
:10DC500086E7BF48006800F400300028F2D1207841
:10DC600000F00200022857D1B948406800F00C00CB
:10DC700050B1B748406800F00C00082818D1B448EB
:10DC8000406800F4803098B9B148006800F00200A4
:10DC900020B12069012801D0012061E7AC4800686B
:10DCA00020F0F800616940EAC100A949086033E04A
:10DCB0002069E8B10120A7490860FFF75BFB054632
:10DCC00006E0FFF757FB401B022801D9032047E776
:10DCD0009F48006800F002000028F2D09C480068CD
:10DCE00020F0F800616940EAC1009949086013E03A
:10DCF000002098490860FFF73DFB054606E0FFF766
:10DD000039FB401B022801D9032029E7904800680D
:10DD100000F002000028F2D1207800F00800082866
:10DD20002DD1A069B8B101208B490860FFF722FB13
:10DD3000054606E0FFF71EFB401B022801D9032021
:10DD40000EE78348406A00F002000028F2D001206C
:10DD500001F0CCFB13E000207F490860FFF70AFBCD
:10DD6000054606E0FFF706FB401B022801D9032009
:10DD7000F6E67748406A00F002000028F2D12078E9
:10DD800000F00400042873D100277148C06900F036
:10DD9000805070B900BF6E48C06940F080506C4937
:10DDA000C8610846C06900F08050009000BF00BF05
:10DDB00001276A48006800F48070B0B967480068BD
:10DDC00040F4807065490860FFF7D4FA054606E024
:10DDD000FFF7D0FA401B642801D90320C0E65F4852
:10DDE000006800F480700028F2D000BFE0680128CD
:10DDF00006D15748006A40F001005549086227E003
:10DE0000E06858B95248006A20F0010050490862A1
:10DE10000846006A20F00400086219E0E06805285E
:10DE20000BD14B48006A40F004004949086208469B
:10DE3000006A40F0010008620AE04548006A20F0EC
:10DE40000100434908620846006A20F004000862A5
:10DE500000BFE068A0B1FFF78DFA054609E0FFF7C3
:10DE600089FA401B41F28831884202D9032077E6C3
:10DE700022E03748006A00F002000028EFD012E0EC
:10DE8000FFF778FA054608E0FFF774FA401B41F205
:10DE90008831884201D9032062E62D48006A00F0EB
:10DEA00002000028F0D1012F05D12948C06920F0D7
:10DEB00080502749C86100BFE069C8B32448406862
:10DEC00000F00C00082860D0E069022848D100204A
:10DED00020490866FFF74EFA054606E0FFF74AFAC2
:10DEE000401B022801D903203AE61948006800F0D7
:10DEF00000700028F2D1206AB0F5803F07D11448A5
:10DF0000406820F40030A168084311494860D4E912
:10DF1000080108430E49496821F4741108430C496B
:10DF2000486001200B490866FFF724FA054607E020
:10DF30003DE0FFF71FFA401B022801D903200FE63E
:10DF40000348006800F000700028F2D02FE00000C5
:10DF50000010024000004242800442420070004033
:10DF6000002014490866FFF705FA054606E0FFF7AA
:10DF700001FA401B022801D90320F1E50E48006890
:10DF800000F000700028F2D111E0E069012800D112
:10DF9000E6E50948466806F48031206A814204D1EA
:10DFA00006F47011606A814201D00120D8E500209A
:10DFB000D6E50000000042420010024010B50446C1
:10DFC0000CB9012010BD606A38B96068B0F5827F75
:10DFD00000D105E00021E16102E0002121616161E1
:10DFE0000021A16294F8510028B9002084F8500063
:10DFF000204600F043F8022084F8510020680068B1
:10E0000020F0400021680860A08800F48270218917
:10E0100001F404410843A18901F400610843217C13
:10E0200001F002010843217D01F001010843218B29
:10E0300001F400710843217F01F0380108432021D9
:10E04000095D01F080010843218D01F4005108436E
:10E05000216808600421A06901EA10402168486035
:10E060002068C06920F400602168C86100206065F4
:10E07000012084F851000020A4E7000010B586B00C
:10E080000446002002900390049005901A492068ED
:10E0900088422FD100BF1948C06940F48040174919
:10E0A000C8610846C06900F48040019000BF00BF0D
:10E0B00000BF0846806940F0080088610846806912
:10E0C00000F00800019000BF00BF4FF42040029014
:10E0D000022003900320059002A90948FEF7A4FF3F
:10E0E0004FF48040029000200390049002A904485D
:10E0F000FEF79AFF06B010BD003800400010024045
:10E10000000C01402DE9F8430446884616461D469A
:10E1100094F85100012802D00220BDE8F88360681D
:10E12000B0F5827F0CD1A06850B9042084F851006A
:10E130003346424641462046009500F083F9ECE71D
:10E14000FFF718F90746B8F1000F00D00EB901200B
:10E15000E3E700BF94F85000012801D10220DCE77A
:10E16000012084F8500000BF042084F851000020F2
:10E170006065C4F83880A687E6872063A086E086BD
:10E1800020646064A068B0F5004F0BD1206800687F
:10E1900020F04000216808602068006820F480407A
:10E1A000216808602068006800F04000402805D021
:10E1B0002068006840F0400021680860E06830BBDB
:10E1C00021E02068806800F0010050B12068007BE9
:10E1D000A16B0870A06B401CA063E08F401EE0871D
:10E1E00011E0FFF7C7F8C01BA84201D3681C00B9B3
:10E1F0004DB9012084F8510000BF002084F8500080
:10E2000000BF032089E7E08F0028DAD125E021E074
:10E210002068806800F0010050B12068C068A16BE0
:10E220000880A06B801CA063E08F401EE08711E097
:10E23000FFF7A0F8C01BA84201D3681C00B94DB974
:10E24000012084F8510000BF002084F8500000BF76
:10E25000032062E7E08F0028DAD13A4629462046BB
:10E2600001F058F908B120206065012084F85100C0
:10E2700000BF002084F8500000BF606D08B101208D
:10E280004BE7002049E72DE9F84304460F461646C0
:10E290001D46FFF76FF88046B14694F851000128FB
:10E2A00002D00220BDE8F88307B10EB90120F9E7DA
:10E2B00000BF94F85000012801D10220F2E70120AC
:10E2C00084F8500000BF032084F8510000206065EE
:10E2D0002763A686E686A063A087E0876064206443
:10E2E000A068B0F5004F0BD12068006820F0400016
:10E2F000216808602068006840F480402168086058
:10E300002068006800F04000402805D020680068C0
:10E3100040F0400021680860E068B0F5006F37D138
:10E32000606810B1B9F1010F09D1206B0088216834
:10E33000C860206B801C2063E08E401EE08623E0D6
:10E340002068806800F0020002280AD1206B008853
:10E350002168C860206B801C2063E08E401EE08630
:10E3600012E0FFF707F8A0EB0800A84201D3681CF1
:10E3700000B94DB9012084F8510000BF002084F895
:10E38000500000BF03208DE7E08E0028D8D136E092
:10E39000606810B1B9F1010F09D1206B00782168D4
:10E3A0000873206B401C2063E08E401EE08623E053
:10E3B0002068806800F0020002280AD1206B0078F3
:10E3C00021680873206B401C2063E08E401EE086AD
:10E3D00012E0FEF7CFFFA0EB0800A84201D3681CB3
:10E3E00000B94DB9012084F8510000BF002084F825
:10E3F000500000BF032055E7E08E0028D8D14246E8
:10E400002946204601F0C2F808B120206065A068C6
:10E4100050B900BF002000902068C06800902068BC
:10E420008068009000BF00BF012084F8510000BF49
:10E43000002084F8500000BF606D08B1012031E772
:10E4400000202FE72DE9FE4F04460F4690461D465B
:10E450000C9E01200190FEF78DFF814694F851B08B
:10E4600060680290AA46BBF1010F0BD00298B0F58C
:10E47000827F04D1A06810B9BBF1040F02D0022042
:10E48000BDE8FE8F1FB1B8F1000F00D00DB901201B
:10E49000F6E700BF94F85000012801D10220EFE711
:10E4A000012084F8500000BF94F85100042802D0E5
:10E4B000052084F8510000206065C4F83880E587A5
:10E4C000A5872763E586A5862064606420680068C8
:10E4D00000F04000402805D02068006840F040006F
:10E4E00021680860E068B0F5006F52D1606810B133
:10E4F000BAF1010F09D1206B00882168C860206B38
:10E50000801C2063E08E401EE0863BE0206880682F
:10E5100000F00200022810D1E08E70B101980128AD
:10E520000BD1206B00882168C860206B801C2063A1
:10E53000E08E401EE086002001902068806800F098
:10E54000010068B1E08F58B12068C068A16B0880F5
:10E55000A06B801CA063E08F401EE087012001902B
:10E56000FEF708FFA0EB0900B0420BD3701C48B1C6
:10E57000012084F8510000BF002084F8500000BF43
:10E5800003207DE7E08E0028C0D1E08F0028BDD1B8
:10E5900052E0606810B1BAF1010F09D1206B007828
:10E5A00021680873206B401C2063E08E401EE086CB
:10E5B0003CE02068806800F00200022810D1E08E64
:10E5C00070B1019801280BD1206B00782168087385
:10E5D000206B401C2063E08E401EE08600200190EE
:10E5E0002068806800F0010068B1E08F58B12068B1
:10E5F000C068A16B0870A06B401CA063E08F401E38
:10E60000E08701200190FEF7B5FEA0EB0900B042C3
:10E6100001D3701C00B94EB9012084F8510000BF2D
:10E62000002084F8500000BF032029E7E08E002876
:10E63000BFD1E08F0028BCD14A463146204600F0C9
:10E64000A5FF40B12020606500BF002084F8500085
:10E6500000BF012014E7A06850B900BF002000905F
:10E660002068C068009020688068009000BF00BFEC
:10E67000012084F8510000BF002084F8500000BF42
:10E68000606D08B10120FBE60020F9E670B5044694
:10E690002546681EB0F1807F01D301200FE0681E7F
:10E6A0004FF0E02148610F214FF0FF3001F03AFABE
:10E6B00000204FF0E021886107200861002070BD34
:10E6C000F8B504460E46174694F8420020282ED18D
:10E6D00006B10FB90120F8BD01202063002060635E
:10E6E0003A463146204601F065F90546EDB9206B02
:10E6F000012819D100BF0020009020680068009018
:10E7000020684068009000BF00BF00BF00BF2168C4
:10E710000C3151E8001F41F0100021680C3141E834
:10E720000002002AF3D100E001252846D3E70220A9
:10E73000D1E7000038B504460D46174920688842E5
:10E7400029D11648007830BB15A11648FDF72EFDDB
:10E7500010B101201149087000BF0020009012483C
:10E76000006800680090104800684068009000BF92
:10E7700000BF00BF002000900B48006800680090B8
:10E78000094800684068009000BF00BF202205498A
:10E790000548FFF795FF38BD0038014018000020FC
:10E7A000636D6400680300202001002070470000B2
:10E7B0002DE9F84F0446206805682068C66820687F
:10E7C00047694FF00009CA4605F00F09B9F1000F7B
:10E7D0000AD105F0200038B106F0200020B1204613
:10E7E00000F0EBFFBDE8F88FB9F1000F7BD007F028
:10E7F000010018B906F49070002874D005F00100EB
:10E8000030B106F4807018B1606C40F001006064B3
:10E8100005F0040030B107F0010018B1606C40F061
:10E820000200606405F0020030B107F0010018B189
:10E83000606C40F00400606405F0080048B106F028
:10E84000200010B907F0010018B1606C40F008001A
:10E850006064606C002845D005F0200028B106F007
:10E86000200010B1204600F0A8FF20684069C0F3E6
:10E87000801A606C00F0080010B9BAF1000F2CD0BB
:10E88000204600F054FF2068406900F0400000B3CB
:10E8900000BF00BF2168143151E8001F21F0400083
:10E8A0002168143141E80002002AF3D100BFE06B77
:10E8B00050B17748E16B4863E06BFEF7CDFA88B161
:10E8C000E06B416B88470DE02046FFF76FFF09E0E2
:10E8D00009E02046FFF76AFF04E02046FFF766FFE5
:10E8E000002060647EE7206B012877D105F01000DE
:10E8F000002873D006F010000028FAD000BF0020D6
:10E90000009020680068009020684068009000BF78
:10E9100000BF2068406900F0400000285FD0E06B35
:10E92000006840681FFA80F8B8F1000F55D0A08D3C
:10E93000404552DDA4F82E80E06B8069202843D04A
:10E9400000BF00BF21680C3151E8001F21F4807026
:10E9500021680C3141E80002002AF3D100BF00BF5A
:10E9600000BF2168143151E8001F21F00100216827
:10E97000143141E80002002AF3D100BF00BF00BFFC
:10E980002168143151E8001F21F040002168143142
:10E9900041E80002002AF3D100BF202084F84200A1
:10E9A0000020206300BF00BF21680C3151E8001F28
:10E9B00021F0100021680C3141E80002002AF3D157
:10E9C00000BFE06BFEF71CFA02206063A08DE28DB1
:10E9D000801A81B22046FFF7ADFE03E742E0A08D2A
:10E9E000E18D401A1FFA80F8E08DD0B3B8F1000F26
:10E9F00037D000BF00BF21680C3151E8001F21F45F
:10EA0000907021680C3141E80002002AF3D100BF68
:10EA100000BF00BF2168143151E8001F21F0010040
:10EA20002168143141E80002002AF3D100BF202000
:10EA300084F842000020206300BF00BF21680C3131
:10EA400051E8001F21F0100021680C3141E800025C
:10EA5000002AF3D100BF0220606341462046FFF741
:10EA600069FEBFE605F0800030B106F0800018B105
:10EA7000204600F0BFFFB5E605F0400030B106F0DB
:10EA8000400018B1204600F088FEABE600BFA9E6C2
:10EA90001BF7000810B504460CB9012010BDA06991
:10EAA00000B100E000BF94F8410028B9002084F8CC
:10EAB0004000204600F02AF8242084F84100206815
:10EAC000C06820F400502168C860204600F0F4FEC1
:10EAD0002068006920F4904021680861206840693E
:10EAE00020F02A00216848612068C06840F4005086
:10EAF0002168C86000206064202084F8410084F808
:10EB000042000020606300BFC8E7000010B586B077
:10EB10000446002002900390049005901E4920684E
:10EB2000884236D100BF1D48806940F480401B49AF
:10EB300088610846806900F48040019000BF00BFF2
:10EB400000BF0846806940F004008861084680697B
:10EB500000F00400019000BF00BF481502900220A1
:10EB600003900320059002A90D48FEF75DFA4FF4CB
:10EB70008060029000200390049002A90848FEF7EC
:10EB800053FA002205212520FEF74EFE2520FEF730
:10EB90003BFE06B010BD00000038014000100240EE
:10EBA0000008014070472DE9F84F04460E4617460D
:10EBB00099464FF0000A94F84100202850D106B140
:10EBC00017B90120BDE8F88F00206064212084F887
:10EBD0004100FEF7CFFB8246A784E784A068B0F52A
:10EBE000805F04D1206910B90025B04602E03546A7
:10EBF0004FF000081EE05346002280212046CDF849
:10EC0000009000F027FF20B1202084F8410003206D
:10EC1000D8E745B9B8F80000C0F30800216848609B
:10EC200008F1020803E02878216848606D1CE08C38
:10EC3000401EE084E08C0028DDD1534600224021B4
:10EC40002046CDF8009000F005FF20B1202084F888
:10EC500041000320B6E7202084F841000020B1E7FE
:10EC60000220AFE7704700BFFEE701460868406931
:10EC7000C0F38020B0B16FF480600A68506100205A
:10EC80000863202081F83D00002081F83E00086CD8
:10EC900040F00400086400BF002081F83C0000BF81
:10ECA000012070470020FCE72DE9F8430446884620
:10ECB00015469946DDE908672068006840F48070D1
:10ECC00021680860334600224FF00111204600976A
:10ECD00000F08DF860B12068006800F48070B0F535
:10ECE000807F02D14FF4007020640320BDE8F883D8
:10ECF00008F0FE00216808613B4632462149204663
:10ED000000F0D4F808B10120F0E700BF0020009027
:10ED100020684069009020688069009000BF00BFB3
:10ED20003A463146204600F03EF950B1206C0428A6
:10ED300005D12068006840F4007021680860012057
:10ED4000D4E7B9F1010F03D1E8B22168086117E0F7
:10ED5000C5F30720216808613A463146204600F095
:10ED600022F950B1206C042805D12068006840F4D5
:10ED70000070216808600120B8E7E8B221680861E6
:10ED80000020B3E70200010070B504460D461646A8
:10ED900025E02046FFF769FF08B1012070BD681C1F
:10EDA000E8B1FEF7E7FA801BA84200D8BDB9206899
:10EDB0004069C0F3800090B900202063202084F8CF
:10EDC0003D00002084F83E00206C40F020002064CC
:10EDD00000BF002084F83C0000BF0120DEE720686F
:10EDE0004069C0F380000028D3D00020D6E72DE989
:10EDF000F04104460D4617461E46DDF8188038E0FF
:10EE0000701CA8B3FEF7B6FAA0EB0800B04200D819
:10EE100076BBC5F3074001280AD120684069A9B232
:10EE20000840A9B2884201D101200BE0002009E08E
:10EE300020688069A9B20840A9B2884201D10120A6
:10EE400000E00020B84214D100202063202084F884
:10EE50003D00002084F83E00206C40F0200020643B
:10EE600000BF002084F83C0000BF0120BDE8F08115
:10EE7000FFE7C5F3074001280AD120684069A9B21D
:10EE80000840A9B2884201D101200BE0002009E02E
:10EE900020688069A9B20840A9B2884201D1012046
:10EEA00000E00020B842ABD00020DFE72DE9F041C0
:10EEB00004460D4616461F4658E020684069C0F3D8
:10EEC0008020E8B12068006840F400702168086084
:10EED0006FF480602168486100202063202084F85E
:10EEE0003D00002084F83E00206C40F004002064C7
:10EEF00000BF002084F83C0000BF0120BDE8F08185
:10EF0000701C90B3FEF736FAC01BB04200D866BB47
:10EF1000C5F3074001280AD120684069A9B208401A
:10EF2000A9B2884201D101200BE0002009E020684D
:10EF30008069A9B20840A9B2884201D1012000E04D
:10EF4000002090B900202063202084F83D0000209C
:10EF500084F83E00206C40F02000206400BF0020B8
:10EF600084F83C0000BF0120C8E7FFE7C5F3074075
:10EF700001280AD120684069A9B20840A9B2884294
:10EF800001D101200BE0002009E020688069A9B2CE
:10EF90000840A9B2884201D1012000E000200028E9
:10EFA0008BD00020AAE770B504460D46164625E032
:10EFB0002046FFF75AFE08B1012070BD681CE8B179
:10EFC000FEF7D8F9801BA84200D8BDB92068406977
:10EFD000C0F3C01090B900202063202084F83D00C9
:10EFE000002084F83E00206C40F02000206400BF28
:10EFF000002084F83C0000BF0120DEE72068406963
:10F00000C0F3C0100028D3D00020D6E710B58AB0D6
:10F01000044628216846FDF7BEF8002005900690BA
:10F020000120079020200090002001904FF6E07012
:10F030000290002003900494012008906946024841
:10F04000FDF738FA0AB010BD4C00002010B50120C1
:10F05000FFF7DCFF10210748FDF772F900220121BC
:10F060001520FEF7E1FB1520FEF7CEFB0148FDF76A
:10F0700054FE10BD4C00002070B588B004460D460B
:10F08000164600BF0B48FDF765FB0028FAD0182193
:10F0900002A8FDF780F802940020049005900696DF
:10F0A000019001AB2A4602A90248FDF75EF908B0BB
:10F0B00070BD00004C0000202DE9FE430446884648
:10F0C00015466019FF2804DD25A000F013FDBDE8FA
:10F0D000FE832046E11704EB11710911A4EB011125
:10F0E000C1F11001CEB2B5420BDC4FF47A700123AE
:10F0F0002246A021CDE9008502902148FEF728FA9A
:10F100002CE0A146002718E04FF47A7108EB0710B5
:10F1100001234A46CDE901610090A0211848FEF77D
:10F1200017FA781CC7B209EB060000F0FF09A81B0C
:10F1300085B210260A20FDF763FFB542E4DC65B115
:10F140004FF47A7108EB071001234A46CDE90151CB
:10F150000090A0210A48FEF7FBF900BF00BFB6E708
:10F16000D0B4C8EBB5C4B5D8D6B7D6B5B3ACB9FD35
:10F17000454550524F4DB5C4B5D8D6B7D6B50A009F
:10F180007400002070B506460C4600F09DF800F0B3
:10F1900045F8300400EB0435202000F067F8C5F393
:10F1A000074000F063F8C5F3072000F05FF8E8B20D
:10F1B00000F05CF800F03CF870BD000008B5642376
:10F1C000012269460248FEF79DFF9DF8000008BD38
:10F1D000C80000202DE9F04104460E46174600F015
:10F1E00031F800F01BF8032000F040F8C4F30740AA
:10F1F00000F03CF8C4F3072000F038F8E0B200F06B
:10F2000035F8002504E0FFF7D9FF7055681C85B27A
:10F21000BD42F8DB00F00CF8BDE8F08110B500222B
:10F220004FF480510148FEF79FF810BD000C0140DB
:10F2300010B5012211030248FEF796F810BD000038
:10F24000000C014010B5FFF7E9FF0AE0052000F0CF
:10F250000DF8FFF7B3FF044604F0010000B901E028
:10F2600000BFF3E700BFFFF7E3FF10BD01B5642364
:10F27000012269460148FFF706F808BDC8000020D2
:10F280002DE9F04104460E46174600F01DF8FFF741
:10F29000C5FF0220FFF7EAFFC4F30740FFF7E6FFD0
:10F2A000C4F30720FFF7E2FFE0B2FFF7DFFF00251E
:10F2B00004E0705DFFF7DAFF681C85B2BD42F8DB41
:10F2C000FFF7B6FFBDE8F08110B5FFF7BBFFFFF712
:10F2D000A5FF0620FFF7CAFFFFF7AAFF10BD000039
:10F2E00010B50E480E4908602420486000210C48E3
:10F2F0008160C1604FF400310161C90041610021AA
:10F3000001760121417681760021C176017741772E
:10F31000FDF762FB08B1FDF710F810BD0064004076
:10F320004C00002010B50548054908600846FDF767
:10F330003EFD08B1FDF701F810BD000000300240AD
:10F340000000002000B585B00020019002900390DD
:10F35000049000BF3148806940F040002F49886127
:10F360000846806900F04000009000BF00BF00BF69
:10F370000846806940F0100088610846806900F006
:10F380001000009000BF00BF00BF0846806940F039
:10F39000080088610846806900F00800009000BFFE
:10F3A00000BF00BF0846806940F00400886108463D
:10F3B000806900F00400009000BF00BF01222021FE
:10F3C0001748FDF7D1FF01224FF481511548FDF791
:10F3D000CBFF202001900120029003900220049096
:10F3E00001A90F48FDF720FE4FF480500190012045
:10F3F0000290002003900320049001A90948FDF722
:10F4000013FE20200190012002900390022004901E
:10F4100001A90448FDF708FE05B000BD0010024038
:10F4200000180140000C014010B50B480B49086062
:10F430000B484860002109488160C1604FF4804159
:10F440000161002141618161C1610162FDF798FFA5
:10F4500008B1FCF772FF10BD00540040740000209A
:10F46000A086010010B50E480E4908604FF4827066
:10F47000486000210B488160C160016141614FF427
:10F48000007181610821C1610021016241628162D4
:10F490000A21C162FEF792FD08B1FCF74EFF10BDD4
:10F4A00000380040C800002010B50B480B49086028
:10F4B0004FF416504860002108488160C160016126
:10F4C0000C21416100218161C161FFF7E3FA08B1BC
:10F4D000FCF733FF10BD0000003801402001002080
:10F4E00000BFFEE700BFFEE77047000008B508490F
:10F4F0000968C9084FF47A72B1FBF2F141430091F7
:10F5000000BF00BF00994A1E00920029F9D108BD32
:10F5100014000020F8B504460E4615466068B0F5A4
:10F52000827F0DD1A068B0F5004F03D0A068B0F580
:10F53000806F05D12068006820F0400021680860D5
:10F540006068B0F5827F11D1A068B0F5806F0DD1F1
:10F550003346002201212046009500F039F898B189
:10F56000606D40F0200060650320F8BD3346002246
:10F5700080212046009500F02BF828B1606D40F006
:10F58000200060650320F0E70020EEE7F8B50446B0
:10F590000E4615463346012202212046009500F012
:10F5A00017F828B1606D40F0200060650320F8BDB9
:10F5B0003346002280212046009500F009F828B14A
:10F5C000606D40F0200060650320F0E70020EEE76A
:10F5D0002DE9F84F04460D4690461E46DDF828906A
:10F5E000FDF7C8FEA0EB0900371AFDF7C3FE8246FF
:10F5F0002C480068C0F3CB307843009045E0701C85
:10F60000002842D0FDF7B6FEA0EB0A00B84200D2B7
:10F61000A7BB2068406820F0E0002168486060686F
:10F62000B0F5827F0DD1A068B0F5004F03D0A0687F
:10F63000B0F5806F05D12068006820F04000216897
:10F640000860A06AB0F5005F0DD100BF20680068B7
:10F6500020F40050216808602068006840F40050E1
:10F660002168086000BF012084F8510000BF00201D
:10F6700084F8500000BF0320BDE8F88FFFE7009832
:10F6800000B900270098401E00902068806828403C
:10F69000A84201D1012000E000204045AFD1002068
:10F6A000EAE7000014000020704710B5FEF73CF8B0
:10F6B00010BD00B58FB0282105A8FCF76CFD142102
:10F6C0006846FCF768FD01200590000406900020C4
:10F6D00007900120099002200C90C1030D914FF476
:10F6E000E0110E9105A8FEF737FA08B1FCF725FEE8
:10F6F0000F20009002200190002002904FF48060C3
:10F7000003900020049002216846FEF701F908B139
:10F71000FCF713FE0FB000BD704770B505466C6A6C
:10F720000020E085E0842046FFF740F870BD00BF70
:10F7300000BF02680C3252E8002F22F49071026878
:10F740000C3242E80013002BF3D100BF00BF00BF12
:10F750000268143252E8002F22F0010102681432CC
:10F7600042E80013002BF3D100BF016B01290ED139
:10F7700000BF00BF02680C3252E8002F22F01001D7
:10F7800002680C3242E80013002BF3D100BF2021A5
:10F7900080F8421000210163704710B504462068CC
:10F7A000C06820F040002168C860202084F8410033
:10F7B0002046FFF757FA002010BDF8B5044694F82C
:10F7C0004200222875D1A068B0F5805F0CD1206975
:10F7D00050B90025A66A20684068C0F30800308050
:10F7E000A06A801CA06215E0A56A0026A068B0F59A
:10F7F000805F03D0A06828B9206918B920684068E4
:10F80000287004E02068406800F07F002870A06A3B
:10F81000401CA062E08D401E80B2E085002846D1E9
:10F820002068C06820F020002168C8602068C06897
:10F8300020F480702168C8602068406920F00100D1
:10F8400021684861202084F8420000206063206B1A
:10F85000012826D10020206300BF00BF21680C31A1
:10F8600051E8001F21F0100021680C3141E800022E
:10F87000002AF3D100BF2068006800F010001028B3
:10F880000AD100BF00200090206800680090206826
:10F890004068009000BF00BFA18D2046FEF74AFFE0
:10F8A00002E02046FFF77EF90020F8BD01E00020CD
:10F8B000FBE70220F9E7000070B5044621680969FA
:10F8C00021F44051E2681143226811612269A16864
:10F8D0001143626941EA02052168C96841F20C627C
:10F8E000914329432268D1602168496921F440711C
:10F8F000A2691143226851612D4A2168914202D1C7
:10F90000FEF7E2F801E0FEF7CFF800EBC00101EBF3
:10F91000001162689200B1FBF2F100EBC00202EB51
:10F92000001263689B00B2FBF3F26423B2FBF3F2B4
:10F9300002EBC20303EB0212A1EB8201322202EBC3
:10F9400001116422B1FBF2F101F0F00100EBC00201
:10F9500002EB001263689B00B2FBF3F26423B2FB7C
:10F96000F3F201EB021200EBC00101EB001163683E
:10F970009B00B1FBF3F100EBC00303EB00136668DF
:10F98000B600B3FBF6F36426B3FBF6F303EBC30652
:10F9900006EB0313A1EB8301322303EB0111642374
:10F9A000B1FBF3F101F00F0111442268916070BDC9
:10F9B0000038014010B5034699629A85DA85002027
:10F9C0005864222083F84200186928B11868C0687A
:10F9D00040F480701C68E0601868406940F00100E5
:10F9E0001C6860611868C06840F020001C68E06016
:10F9F000002010BD014691F84100212828D18868D7
:10FA0000B0F5805F0BD1086948B90A6A1088C0F365
:10FA100008000B685860086A801C086205E00B6AE1
:10FA2000581C086218780B685860C88C401E80B259
:10FA3000C88458B90868C06820F080000B68D86096
:10FA40000868C06840F040000B68D860002070472C
:10FA50000220FCE72DE9F84304460D461746984678
:10FA6000089E31E0701C70B3FDF784FCA0EB080029
:10FA7000B04200D816B90320BDE8F8832068C068FA
:10FA800000F00400F8B1802D1ED0402D1CD020685D
:10FA90000068C0F3C000B0B100BF00200090206833
:10FAA0000068009020684068009000BF00BF2046BA
:10FAB000FFF73DFE0820606400BF002084F840008E
:10FAC00000BF0120D8E7FFE7206800682840A8426F
:10FAD00001D1012000E00020B842C3D00020CBE7D4
:10FAE00010B50248FEF764FE10BD000020010020A2
:10FAF00000BFFEE70FB4054B10B503A9044A0298F6
:10FB000000F034F810BC5DF814FB00000900010897
:10FB10004800002002480068C0F30220704700003F
:10FB20000CED00E010B5002804DB0A07130E054AAF
:10FB3000135406E00A07140E034A00F00F031B1FBC
:10FB4000D45410BD00E400E018ED00E002E008C865
:10FB5000121F08C1002AFAD170477047002001E047
:10FB600001C1121F002AFBD1704700002DE9FF4F91
:10FB70008DB00F460546002606E025280BD0DDE9AE
:10FB80000F1290476D1C761C28780028F5D111B013
:10FB90003046BDE8F08F0024A246A1460122EC4980
:10FBA00000E0044315F8013F203B02FA03F008424D
:10FBB000F7D128782A2810D06FF02F022878A0F1EA
:10FBC0003001092914D80AEB8A0102EB410144F003
:10FBD000020400EB010A6D1CF0E701CF5FEA000AA6
:10FBE00003D544F40054CAF1000A44F002046D1C29
:10FBF00028782E2817D115F8010F44F004042A287C
:10FC00000ED06FF02F022878A0F1300109290AD810
:10FC100009EB890102EB410100EB01096D1CF2E7E0
:10FC200057F8049B6D1C28786C280FD006DC4C28F4
:10FC300017D068280DD06A2814D104E0742810D099
:10FC40007A280FD10DE044F400140AE044F4801443
:10FC500001E044F440146978814202D104F5801433
:10FC60006D1C6D1C2A786E2A1FD00CDC632A31D0E3
:10FC700004DC002A8BD0582A11D1A3E0642A68D072
:10FC8000692A0CD165E0732A2ED004DC6F2A73D068
:10FC9000702A04D19BE0752A6FD0782A6ED0104666
:10FCA000DDE90F129047761C50E1C4F302500228A0
:10FCB00006D0032809D0042801CF09D0066045E109
:10FCC00001CFF117C0E9006140E101CF06803DE1BD
:10FCD00006703BE117F8040B8DF8000000208DF84A
:10FCE0000100EB46012003E057F804BB4FF0FF3062
:10FCF00061074FF0000102D40DE008F101018846D0
:10FD000049450FDA8045F8DB1BF808100029F4D1CB
:10FD100008E008F1010188468142FADB1BF808106F
:10FD20000029F6D1DDE90F23AAEB08008146214620
:10FD300000F036F9304400EB080604E0DDE90F126C
:10FD40001BF8010B9047B8F10108F7D2214648464D
:10FD5000F7E00A21C4F302534FF0000B0891022B85
:10FD600004D001CFC117032B09D00AE0FF1D27F0F3
:10FD70000707F7E8020108E032E01FE020E000B2E8
:10FD8000C117042B01D140B2C117031E71F100034A
:10FD900007DA4FF0000CD0EB0C006CEB01012D23C7
:10FDA00002E0230504D52B238DF82430012303E042
:10FDB000E30701D02023F7E7984658E00A2110E036
:10FDC00010210EE010204FF0000B08900CE01021E5
:10FDD0004FF0000B44F004044FF00809089103E0D1
:10FDE00008214FF0000B0891C4F30253022B04D0FA
:10FDF00001CF0021032B06D006E0FF1D27F00707E7
:10FE0000F7E8020103E080B2042B00D1C0B24FF04A
:10FE1000000823072BD5702A07D0DDF820C08CF00E
:10FE2000100C5CEA0B0C05D00EE040238DF824305A
:10FE3000012308E050EA010306D030238DF8243076
:10FE40008DF8252002239846DDF820C08CF0080CA0
:10FE50005CEA0B0C0BD150EA010301D1630706D514
:10FE600030238DF824304FF00108A9F10109582AF8
:10FE700004D038A20B9208AA0A920BE03AA2F9E742
:10FE80005B46089AFCF7A4F90B9B9B5C0A9A521EEE
:10FE90000A92137050EA0102F2D10A98ADEB000009
:10FEA00000F1200B600702D524F4803401E04FF00C
:10FEB0000109D94502DDA9EB0B0000E0002000EBB1
:10FEC0000B0141440890AAEB010AE00306D4DDE9E6
:10FED0000F232146504600F063F806444FF0000916
:10FEE00008E009A911F80900DDE90F12904709F1AE
:10FEF0000109761CC145F4DBE0030CD5DDE90F23D5
:10FF00002146504600F04CF8064404E0DDE90F12AB
:10FF100030209047761C0899481E08900029F5DC8F
:10FF200008E00A980A990078491C0A91DDE90F1245
:10FF30009047761CBBF10001ABF1010BF1DC2146CF
:10FF40005046DDE90F2300F019F806446D1C1BE64E
:10FF5000092801003031323334353637383961629F
:10FF60006364656600000000303132333435363763
:10FF70003839414243444546000000002DE9F04134
:10FF8000044600251E461746880404D405E0394679
:10FF90002020B0476D1C641EF9D52846BDE8F081CD
:10FFA0002DE9F041044600251E469046C80301D5C0
:10FFB000302700E02027880404D505E04146384674
:10FFC000B0476D1C641EF9D52846BDE8F08110B518
:10FFD000FFF73CF810BD70B504460D461646324694
:10FFE00029462046FFF748F870BD10B5FFF7EFFF30
:10FFF00010BD70B504460D461646324629462046C9
:020000040801F1
:10000000FFF7E9FF70BD000013B50C464FF6FF7314
:10001000012269460248FEF7C6FD00981CBD00009B
:100020002001002010B5084801684FF4805000F00E
:10003000CDF900F0AFF9FDF79DF9044908600520FE
:100040000349087010BD0000280000203C0000207B
:10005000180000202DE9F041C0B02B48007810B9FD
:1000600040B0BDE8F081002027490870274800789B
:100070002649497840EA01202449897840EA01402C
:100080002249C97840EA016621480068806840F04A
:1000900001001F49096888601E480068C01C850867
:1000A0004FF4805714E02C46402C00D940244FF6E2
:1000B000FF7000EA84026946384600F061F9224682
:1000C00069461348FCF75FFE07EB84072D1B00BF52
:1000D000002DE8D10E480068D0F80080464506D1D2
:1000E0000DA0FFF707FD04201049087009E009483A
:1000F0000368424631460EA0FFF7FCFC00200B4986
:10010000087000BFACE7000035000020360000207A
:10011000000000202800002063726320636865638C
:100120006B20706173730D0A00000000180000203E
:1001300063726320636865636B206661696C3A2053
:100140007265633D253038582063616C633D25300E
:100150003858206C656E3D25640D0A0010B51B48AB
:10016000007890B11A4804680020184908704FF4CC
:10017000807221461748006800F01EF91548006893
:1001800000F580701349086000BF13480068D8B1BB
:10019000FDF7F0F810490968401AB0F57A7F13D9D5
:1001A0000E480088002807DD0C4802880C480168CA
:1001B0000848006800F000F90A4801680AA0FFF743
:1001C00099FC03200D49087010BD00003400002088
:1001D000200000202C0000203000002024000020FF
:1001E0001C0000202800002063616E5F7265635F61
:1001F0006D73675F6C656E3A25640A001800002015
:1002000010B51AA0FFF776FC1BA0FFF773FC00F0F7
:10021000ABF81EA0FFF76EFC0020204908802049A3
:1002200008604FF480501F49086000201E49086094
:100230001E4908701E4908701E481F4908600020AA
:100240001E4908601E480068806840F001001C4993
:100250000968886003221BA10020FFF7CAFE022064
:100260001949087019A0FFF745FC10BD7265637647
:1002700020636D640D0A000065726173696E67200A
:10028000666C6173682E2E2E0D0A00006572617314
:100290006520646F6E650D0A0000000024000020D8
:1002A000280000202C000020300000203400002016
:1002B00035000020680100201C00002020000020E4
:1002C00000000020736767001800002073656E64EB
:1002D00020636D6420646F6E650D0A0072B60D4870
:1002E0000D49086062B6FDF72BFAFFF7E2F9FFF758
:1002F00029F8FEF7F5FFFFF7D7F8FFF713F8FFF738
:1003000093F8FFF7AFF8FBF7B7FF01E0FBF7E0FF6B
:10031000FCE7000000C0000808ED00E070B50446EE
:100320000D4629462046FEF72DFF70BD70B50446E8
:100330000D461646324629462046FEF74BFF70BD55
:1003400070B504460D461646324629462046FEF74D
:10035000B3FE70BD70B504460D46164632462946BA
:100360002046FEF78DFF70BD10B5012405E0214643
:100370000020FFF7D3FF601CC4B21E2CF7DD10BDB8
:1003800070B504460D461646324629462046FFF70C
:10039000CDFF70BD08B50020009001208DF8000051
:1003A0005A208DF801006B208DF802000322694667
:1003B0001020FFF7C5FF08BD70B504460D46164670
:1003C000324629462046FFF7C5FF70BD7CB504467E
:1003D0000D4600210846FFF7A1FF00200090019084
:1003E000E0B28DF80000200A8DF80100200C8DF895
:1003F0000200200E8DF80300E8B28DF80400280AF0
:100400008DF80500280C8DF80600280E8DF80700E1
:10041000082269460020FFF79DFF7CBD020304050A
:10042000060708090A0B0C0D0E0F10100102000040
:100430000000000000000102030406070809000094
:10044000000001020304000068040108000000200D
:100450004C0000004CFB0008B40401084C000020D4
:100460003C0700005CFB00080000000000000000EA
:1004700000000000100000000100000000127A00DF
:1004800000000000680100200000000000000000E3
:10049000000000000010000000000000000000004C
:1004A000000000000000000000000000000000004C
:0404B0000000000048
:040000050800C131FD
:00000001FF
