S31508000000C8220020DD010008EB1E0008311D00088B
S31508000010E91E0008B5070008B1270008000000001F
S315080000200000000000000000000000004501000874
S315080000307508000800000000890100080525000869
S31508000040F7010008F7010008F7010008F7010008A2
S31508000050F7010008F7010008F7010008F701000892
S31508000060F7010008F7010008F7010008F701000882
S31508000070F7010008F7010008F7010008F701000872
S31508000080F7010008F7010008F7010008F701000862
S31508000090A5270008F7010008F7010008F70100087E
S315080000A0F7010008F7010008F7010008F701000842
S315080000B0F7010008F701000881250008F701000884
S315080000C0F7010008F7010008F7010008F701000822
S315080000D0F7010008F7010008F7010008F701000812
S315080000E0F7010008F7010008F7010008F701000802
S315080000F0F7010008F7010008F7010008F7010008F2
S31508000100F7010008F7010008F7010008F7010008E1
S31508000110F7010008F7010008F7010008F7010008D1
S31508000120F7010008F7010008F7010008F7010008C1
S31508000130DFF80CD000F02CFB004800477D310008A2
S31508000140C8220020224B19680868B0E8F00F80F32F
S315080001500988BFF36F8F4FF0000080F311884EF0C7
S315080001600D0E70470000000006480068006880F31E
S31508000170088862B661B6BFF34F8FBFF36F8F00DF93
S3150800018000BF00BF08ED00E0EFF30980BFF36F8FF3
S315080001900F4B1A6820E9F00F106008B54FF05000B1
S315080001A080F31188BFF34F8FBFF36F8F03F06CFF97
S315080001B04FF0000080F31188BDE808401968086808
S315080001C0B0E8F00F80F30988BFF36F8F704700BF60
S315080001D058000020EFF30580704700000648804766
S315080001E006480047FEE7FEE7FEE7FEE7FEE7FEE70E
S315080001F0FEE7FEE7FEE7FEE77D2500083101000879
S31508000200202A04DB203A21FA02F00021704721FA5D
S3150800021002F3D040C2F120029140084319467047C4
S3150800022040EA01039B0703D009E008C9121F08C06A
S31508000230042AFAD203E011F8013B00F8013B521EEA
S31508000240F9D27047D2B201E000F8012B491EFBD261
S3150800025070470022F6E710B513460A4604461946C3
S31508000260FFF7F0FF204610BD421C10F8011B0029BD
S31508000270FBD1801A704710B5002200E0521C835C3F
S315080002808C5CA34201D1002BF8D1D8B2E1B2401A56
S3150800029010BD2DE9FE4F804681EA0300C00F0C46CB
S315080002A0009021F0004123F00045B8EB0200A94177
S315080002B005D24046214690461C460B46024623F088
S315080002C00040104347D0270DC7F30A00C3F30A516D
S315080002D00290401A019040286BDAC3F3130040F4E9
S315080002E0801B0098924620B10023D2EB030A63EBE9
S315080002F00B0B01985946C0F14002504600F0B1F97F
S3150800030006460D4650465946019A00F0B9F910EBD3
S3150800031008006141002487EA115284EAE7731A4308
S3150800032040D0009A62B3019A012A4FEA075215DCB7
S31508000330001B61EB02014FF0004202EA0752CDE9C9
S315080003400042001C41F5801132462B4600F0B9F9EF
S3150800035003B0BDE8F08F40462146F9E7001B61EB84
S315080003600201001C41F5801300185B412018A2F514
S31508000370001747EB030140EAD570B6196D4111E045
S315080003806D084FEA360645EAC0754FEA0752001B64
S3150800039061EB0201001C41F5801149084FEA300063
S315080003A00019514132462B4603B0BDE8F04F00F024
S315080003B079B90098012240000023D0EB020263EBD2
S315080003C0E073009821464FEAE074B8EB000061EB51
S315080003D00401E9E783F000435BE781F0004158E751
S315080003E02DE9FE4F81EA030404F0004421F00041A0
S315080003F000944FF0000B23F0004350EA01045ED04E
S3150800040052EA03045BD0C3F30A54C1F30A552C44D9
S31508000410A4F2F3340194A0FB0254C1F3130141F48E
S315080004208011C3F3130343F4801301FB024400FB5A
S31508000430034E840A970A44EA815447EA8357A4FB81
S31508000440076802958D0A05FB07854FEA932C04FB7E
S315080004500C542705029D4FEA065847EA1637B5EBAE
S3150800046008056EEB070C870E920E47EA811742EADB
S315080004708312A7FB0201B6EB0B0164EB00042B0DFC
S3150800048043EA0C335E1844EB1C50DA465146E7FB48
S315080004900201C5F313044FEA0B3343EA14534FEA38
S315080004A00432019C43EA0603A4F10C040294009C5E
S315080004B0CDE900B400F005F903B0BDE8F08F0020DF
S315080004C00146F9E72DE9F04D81EA030404F0004BF3
S315080004D021F0004514464FF0000A23F0004150EA87
S315080004E0050220D054EA01021DD0C5F30A57024678
S315080004F0C5F31303C1F31300C1F30A5640F480157C
S3150800050043F48013A7EB0608101BD64608F2FD38FD
S3150800051073EB050002D308F1010801E092185B416C
S31508000520B8F1000F03DA00200146BDE8F08D00207F
S315080005304FF48011064684460EE0171B73EB050739
S3150800054005D3121B63EB050306434CEA010C490865
S315080005504FEA300092185B4150EA0107EDD152EAA2
S31508000560030012D082EA040083EA0501084305D095
S31508000570101BAB4106D20122002306E000224FF0F1
S31508000580004302E06FF0010253101AEB06004CEB31
S31508000590085110EB0A0041EB0B01BDE8F04D00F0E5
S315080005A081B8000030B5041E71F1000404DB4FF079
S315080005B00044404264EB0101141E73F1000405DB9C
S315080005C01C464FF00043524263EB0403994208BFAE
S315080005D0904230BD30B50B4601460020202201244A
S315080005E009E021FA02F59D4205D303FA02F5491BF3
S315080005F004FA02F52844151EA2F10102F1DC30BD09
S315080006002DE9F05F0546002092469B468846064639
S31508000610814640241BE02846414647462246FFF7C6
S31508000620EFFD53465A46C01A914110D31146184653
S31508000630224600F016F82D1A67EB01084F462246A7
S315080006400120002100F00DF817EB00094E41201E8D
S31508000650A4F10104DFDC484631462A464346BDE894
S31508000660F09F202A04DB203A00FA02F100207047A6
S315080006709140C2F1200320FA03F3194390407047D2
S31508000680202A06DBCB17203A41FA02F043EAE07348
S3150800069006E041FA02F3D040C2F120029140084335
S315080006A01946704710B5141E73F1000408DA401C89
S315080006B041F1000192185B411A4301D120F0010073
S315080006C010BD2DE9F04D92469B4611B1B1FA81F263
S315080006D002E0B0FA80F220329046FFF7C2FF0446E5
S315080006E00F4640EA0A0041EA0B0153465A460843B8
S315080006F013D0114653EA010019D0C8F140025046FA
S31508000700FFF77EFD05460E46504659464246FFF718
S31508000710A8FF084305D0012004E020463946BDE875
S31508000720F08D0020054346EAE0762C4337430A98C5
S315080007306305E40AA0EB08000022FD0A44EA4754D0
S315080007400A3002D500200146E9E70105101969417A
S31508000750DDE9084500196941BDE8F04DA2E7C1F396
S315080007600A52C1F3130140F2FF3341F480119A4251
S3150800077002DA00200146704740F233439A42A2F259
S31508000780334202DC5242FFF73BBDFFF76ABF000067
S31508000790064C074D06E0E06840F0010394E80700C0
S315080007A098471034AC42F6D3FFF7C6FCB05500089C
S315080007B0D0550008FEE7000000B58BB000200121E7
S315080007C0CDE90601089105900490009001900290E9
S315080007D003906946024800F0C1F80BB000BD00005E
S315080007E0AC0000202DE9F0410D46064688B00021F0
S315080007F00F4800F02BF92870002412E004EB440798
S3150800080006EB870808F102036A460021084800F04B
S315080008102EF9009826F827000498641C88F80A0020
S31508000820E4B22878A042E9D808B0BDE8F081000013
S31508000830AC00002070B588B014460E4605460C4834
S3150800084000F08FF90028FAD0002000950290CDE933
S31508000850030406AB32466946054800F020F804480A
S3150800086000688168C9438907FBD408B070BD0000D9
S31508000870AC000020704772B6FEE790F82020012AE7
S3150800088007D0022A05D0416A41F48021416201203D
S315080008907047006842690A43426100207047F0B514
S315080008A090F820500468A468012D05D0022D03D0C5
S315080008B0416A41F480214DE014F0406F01D1E50012
S315080008C045D5C4F301640125A5401D608D684FF424
S315080008D0C0739DB1CE6835434E6845EAC6050668BD
S315080008E003EB0417F5514FF4C275076805EB0415B9
S315080008F00E697E51097D012905D009E00E88CD686B
S3150800090045EA4655EBE701684E5946F480764E515E
S315080009101179D2F805504FF4C67641EA05210568E3
S3150800092006EB0416A9511178D2F801204FF4C475C4
S3150800093041EA0221026805EB04155151006803EBF0
S315080009400411425842F0010242500020F0BD416AAB
S3150800095041F4001141620120F0BD000010B590F885
S3150800096020300268012B07D0022B05D0416A41F4DA
S3150800097080214162012010BDD2F8000240F001003A
S31508000980C2F80002087D00F01F0301209840D2F843
S315080009901C328343C2F81C32CB69B3B9D2F80C3285
S315080009A08343C2F80C328C894B6864F31F434C6945
S315080009B002EBC404C4F840320C890B6864F31F4385
S315080009C04C6902EBC404C4F84432CB69012B16D136
S315080009D0D2F80C320343C2F80C320C884B6864F325
S315080009E01F434C6902EBC404C4F840320C89CB6837
S315080009F064F31F434C6902EBC404C4F844328B69A0
S31508000A00002BD2F804320FD053EA0003C2F804329E
S31508000A100B69002BD2F8143208D00343C2F81432FB
S31508000A20096A012904D008E08343EFE78343F5E721
S31508000A30D2F81C120143C2F81C12D2F8000220F0A8
S31508000A400100C2F80002002010BD704702460020CF
S31508000A5092F82030012B01D0022B05D1106821B164
S31508000A60D0F8100000F003007047C068FAE770B5C8
S31508000A7090F82040012C05D0022C03D0416A41F49D
S31508000A80802128E0046809B32469A40720D04FF41C
S31508000A90D874056804EB01142D5915F00405956002
S31508000AA005682D591AD0ED08556005682C5904F0CB
S31508000AB00204D4604FF4DA74056804EB01142E5965
S31508000AC006F00F06082E0CD308250DE0E468DCE7CF
S31508000AD0416A41F400114162012070BD6D0D156037
S31508000AE0E3E72D5905F00F05156105682D59C5F37E
S31508000AF00725956105682C59240C54614FF4DC725E
S31508000B00046802EB0112A4581C700468A458240A4D
S31508000B105C700468A458240C9C700468A258120ED1
S31508000B20DA704FF4DE72046802EB0112A4581C71E5
S31508000B300468A458240A5C710468A458240C9C719F
S31508000B400468A258120EDA71006829B1016941F0E9
S31508000B5020010161002070BDC16841F02001C1601B
S31508000B60F8E70246002092F82010012901D0022950
S31508000B700CD111688A68520100D501208A681201D1
S31508000B8000D5401C8968C90000D5401C70472DE96E
S31508000B90F05F0546006800244669D0F80490876827
S31508000BA0D0F80CB0D0F810A0D0F81880F10748D0CB
S31508000BB0F90714D001218160B80703D5284600F04B
S31508000BC022FA0CE0780702D54FF4006407E03807EC
S31508000BD002D54FF4805402E0284600F013FAF805CF
S31508000BE016D529684FF480708860B80503D528465D
S31508000BF000F00BFA0CE0780502D544F4005407E03F
S31508000C00380502D544F4804402E0284600F0FCF991
S31508000C10F80316D529684FF480308860B80303D5E1
S31508000C20284600F0F4F90CE0780302D544F40044B1
S31508000C3007E0380302D544F4803402E0284600F081
S31508000C40E5F9300707D55FEACB6004D52968102097
S31508000C5044F40074C86070074FF0080707D55FEAC8
S31508000C600B7004D52868C760284600F059F9B00704
S31508000C7006D52868C068800702D0284600F052F9D1
S31508000C80700607D55FEACA6004D52968102044F4BF
S31508000C9080640861B00607D55FEA0A7004D528683B
S31508000CA00761284600F07EF9F00606D5286800692F
S31508000CB0800702D0284600F076F9B00308D55FEA27
S31508000CC0C96005D5296810204860284600F06CF9E7
S31508000CD0F00307D55FEA097004D5286847602846F7
S31508000CE000F096F9300446D55FEA497040D5F0051C
S31508000CF004D55FEAC87001D044F00104B00504D5F4
S31508000D005FEA887001D544F00204700504D55FEAED
S31508000D10487001D544F00404300529D518F0700F41
S31508000D2026D008F07000402815D006DC102809D017
S31508000D3020280AD0302816D10AE050280ED060287C
S31508000D4011D10EE044F008040DE044F010040AE066
S31508000D5044F0200407E044F0400404E044F0800432
S31508000D6001E044F480742868816921F0700181618A
S31508000D70296804204860002C05D0686A2043686208
S31508000D802846FFF762FEBDE8F09F70B5040003D061
S31508000D9094F8200010B104E0012070BD204600F050
S31508000DA081F82068016841F00101016000F03CFA11
S31508000DB00546052604E000F037FA401B0A2811D834
S31508000DC020684068C007F6D02068016821F0020153
S31508000DD0016000F029FA05460BE000F025FA401BF1
S31508000DE00A2806D9606A40F40030606284F82060F8
S31508000DF0D2E7206840688007EFD4207E0128206863
S31508000E0001683DD021F080010160607E01282068DC
S31508000E10016838D021F040010160A07E01282068D1
S31508000E20016833D021F020010160E07E01282068A6
S31508000E3001682ED041F010010160207F012820684A
S31508000E40016829D021F008010160607F0128206827
S31508000E50016824D021F004010160D4E902010843A5
S31508000E60D4E90412114308436168491E08432168FE
S31508000E70C86100206062012084F82000002070BD4F
S31508000E8041F08001C0E741F04001C5E741F020018B
S31508000E90CAE721F01001CFE741F00801D4E741F095
S31508000EA00401D9E710B586B000210091019102919D
S31508000EB003910068174988422AD11748C16941F049
S31508000EC00071C161C16901F000710491816941F045
S31508000ED0040181618069114C00F0040004904FF40C
S31508000EE0006000906946204600F094F8A01400902F
S31508000EF002200190032003906946204600F08AF8F4
S31508000F0000220521142000F02DFA142000F01CFA06
S31508000F1006B010BD00640040001002400008014001
S31508000F20704700002DE9F04391B000268DF8346033
S31508000F300DA96846FFF756FC00246D46174F4FF07B
S31508000F408058DFF85C9022E004EB4400002335F873
S31508000F50201005EB8000ADF83810817A8DF83A102C
S31508000F6050F8021FCDF83B104068CDF83F000C96AC
S31508000F700CAA0EA9386803F07FFA0C9828B1C9F8AC
S31508000F800080BFF34F8FBFF36F8F641CE4B29DF8E8
S31508000F9034008442D8D311B0BDE8F0831000002095
S31508000FA004ED00E0704770477047000070B50446CE
S31508000FB090F82000012804D0606A40F4002060629E
S31508000FC018E0022084F820002068016821F0010159
S31508000FD0016000F029F905460EE000BF00F024F98B
S31508000FE0401B0A2808D9606A40F400306062052070
S31508000FF084F82000012070BD20684068C007EDD144
S31508001000606270BD70477047704770477047704799
S31508001010704700002DE9F84FDFF8C8910024A9F1C0
S31508001020040B23460F2709F1040AABF1040ED1E09D
S315080010300125A54006EA0502AA4276D1DFF8A8C12D
S315080010404E68A6EB0C0866452BD00DDC032E34D073
S3150800105005DC36B3012E19D0022E2FD11BE0112E36
S3150800106016D0122E2AD119E0B8F5881F19D006DC39
S31508001070B8F5803F15D0B8F5801F1FD111E0B8F537
S31508001080001F0ED0B8F5041F18D10AE0CB6815E08A
S31508001090CB681B1D12E0CB6808330FE0CB680C3316
S315080010A00CE08B682BB1012B4FF0080303D0456188
S315080010B004E0042302E0056100E00023FF2A01D8CA
S315080010C0064601E000F104064FEA840501D9A5F1B8
S315080010D02005D6F8008007FA05FC28EA0C0803FA6A
S315080010E005F548EA0508C6F800804D68ED0070D594
S315080010F03E4DAE6946F00106AE61AD6924F00306C1
S3150800110005F0010500953A4D06EB050CDCF808508C
S31508001110A607360F07FA06F825EA0805DFF8D48089
S31508001120404503D14FF0000825E052E0DFF8C880BB
S31508001130404502D14FF001081DE0DFF8C080404568
S3150800114002D14FF0020816E0DFF8B480404502D11C
S315080011504FF003080FE0DFF8AC80404502D14FF0AE
S31508001160040808E0DFF8A080404502D14FF00508E2
S3150800117001E04FF0060808FA06F848EA0508CCF830
S3150800118008804D68D9F80060ED024D4601D5164332
S3150800119000E096432E604D68DAF80060AD025546C9
S315080011A001D5164300E096432E604D68DBF80060D3
S315080011B0AD035D4601D5164300E096432E604D68A3
S315080011C0DEF80060ED03754601D5164300E0964348
S315080011D02E60641C0A681646E2407FF429AFBDE813
S315080011E0F88F0000080401400000111000100240AA
S315080011F00000014000080140000C014000100140B9
S315080012000014014000180140001C0140C26821EA90
S3150800121002030A4043EA0241016170470AB10161CB
S3150800122070470904FBE70000014880687047000022
S315080012301C000020024881680278114481607047CA
S315080012401C000020074810B5016841F01001016034
S31508001250032000F0A7F80F2000F006F800F050F879
S31508001260002010BD0020024030B505461F4887B053
S31508001270C16941F00401C161C06906A900F0040012
S31508001280009001A800F036F90498B0B100F052F9C0
S3150800129040001749174AB0FBF1F11748491E02608A
S315080012A0416040F2E7320021C0E903218160816193
S315080012B000F018FB040003D015E000F03BF9E8E75E
S315080012C00D4800F03DFB04000DD11E2000F03CF84F
S315080012D0102D07D2002229461E2000F043F80748A1
S315080012E0056000E0012407B0204630BD001002402A
S315080012F040420F0000080040D400002020000020D3
S315080013000F4808B5816941F001018161816901F0E1
S3150800131001010091C16941F08051C161C069002293
S3150800132000F0805000900F21901E00F01BF8054831
S31508001330416821F0E06141F00071416008BD00009C
S315080013400010024000000140002809DB00F01F02DF
S31508001350012191404009800000F1E020C0F8001109
S3150800136070470000F0B40E4B1B680C46C3F302230B
S31508001370C3F10705042D00D90425191D072901D233
S31508001380002300E0DB1E012606FA05F1491E21406E
S3150800139099409E40761E16403143F0BC01F02CBAA7
S315080013A00CED00E0064900F0070208684FF6FF0357
S315080013B0184040EA0220034A1043086070470000BC
S315080013C00CED00E00000FA052DE9F0470F46050090
S315080013D061D0434E306800F00700B84209D2306841
S315080013E020F0070038433060306800F00700B84244
S315080013F051D128683B4C810712D5400703D5606850
S3150800140040F4E06060602878000703D5606840F41F
S31508001410605060606068A96820F0F000084360606A
S315080014202878C00728D06868012810D021680228C3
S3150800143010D0890700292EDA616821F003010143DB
S315080014406160FFF7F1FE804641F288390DE02168B8
S315080014508903EFE78901EDE7FFF7E6FEA0EB080150
S31508001460494502D90320BDE8F0876068696800F03D
S315080014700C00B0EB810FEFD1306800F00700B842DE
S315080014800BD9306820F0070038433060306800F028
S315080014900700B84201D00120E5E72878400705D5BE
S315080014A06068E96820F4E06008436060287800070F
S315080014B006D56068296920F4605040EAC10060607A
S315080014C000F058F86168084AC1F30311515CC84036
S315080014D00649086006480068FFF7C6FE0020C2E70E
S315080014E00020024000100240244B0008180000208B
S315080014F0200000200F2202600C4A536803F0030301
S315080015004360536803F0F0038360536803F4E063B1
S31508001510C36052684FF4E06303EAD20202610448EA
S31508001520006800F0070008607047000000100240DD
S31508001530002002400448054900684968044AC1F386
S315080015400221515CC8407047180000200010024074
S31508001550344B00080448054900684968044AC1F341
S31508001560C221515CC8407047180000200010024094
S31508001570344B00080E4A51680E4801F00C03042B40
S3150800158011D0082B0FD10C48C1F38343C903C05CA3
S315080015900AD55168084AC1F34041921E515C054A72
S315080015A05043B0FBF1F070470449484370470000C8
S315080015B00010024000127A003E4B000800093D0068
S315080015C02DE9F84F040070D02078C04DC00749D0E7
S315080015D06868C0F38100012807D06868C0F38100F5
S315080015E0022809D16868C00306D52868800339D55A
S315080015F060680028E7D035E06068B0F5803F0BD01A
S3150800160010B1B0F5A02F11D0286820F480302860DA
S31508001610286820F4802002E0286840F4803028609A
S31508001620606890B1FFF700FE06460AE0286840F4B5
S3150800163080202860F0E700BFFFF7F6FD801B6428CE
S3150800164073D828688003F7D50CE0FFF7EDFD06464A
S3150800165005E000BFFFF7E8FD801B6428F0D828687E
S315080016608003F7D420789A4E80074FF001094FF08F
S31508001670000839D5686810F00C0F07D06868C0F301
S315080016808100022809D16868C00306D42868800743
S3150800169014D52069012808D110E02069B0B1C6F830
S315080016A00090FFF7C1FD074605E00AE1FFF7BCFD1C
S315080016B0C01B0228C4D828688007F7D5286861693E
S315080016C020F0F80040EAC10028600DE0C6F8008066
S315080016D0FFF7AAFD074604E0FFF7A6FDC01B022890
S315080016E023D828688007F7D4207800072CD57948AE
S315080016F0A169D9B1C0F80090FFF796FD074604E046
S31508001700FFF792FDC01B02280FD8686A8007F7D535
S3150800171071484FF4FA510068B0FBF1F0009000BF31
S315080017200098411E0091FAD20EE080E0C0F80080D1
S31508001730FFF77AFD074604E0FFF776FDC01B02288F
S3150800174075D8686A8007F7D42078400760D5E869B5
S315080017500027C00008D4E86940F08050E861E869CD
S31508001760012700F0805000905C480168C90513D431
S315080017700168834641F480710160FFF755FD824692
S3150800178006E000BFFFF750FDA0EB0A0064284ED81C
S31508001790DBF80000C005F5D5E06801280AD008B1D5
S315080017A0052813D0286A20F001002862286A20F04C
S315080017B0040002E0286A40F001002862E06841F26D
S315080017C0883B98B1FFF730FD82460BE0286A40F067
S315080017D004002862EEE700BFFFF726FDA0EB0A012A
S315080017E059455AD8286A8007F6D50CE0FFF71CFD3C
S315080017F0824605E0FFF718FDA0EB0A0159454CD8CB
S31508001800286A8007F6D41FB1E86920F08050E8619D
S31508001810E06988B36968C1F38101022944D00228C6
S31508001820C6F8608004D0FFF7FFFC044638E034E0D1
S31508001830FFF7FAFC074604E0FFF7F6FCC01B022890
S315080018402BD828688001F7D4206AB0F5803F05D1E7
S315080018506868A16820F4003008436860D4E9080184
S315080018600843696821F4741108436860C6F86090F3
S31508001870FFF7DAFC044606E025E000BFFFF7D4FCD4
S31508001880001B022809D828688001F7D51BE000BF8D
S31508001890FFF7CAFC001B022802D90320BDE8F88F0F
S315080018A028688001F4D40EE00128F7D06868226A17
S315080018B000F48031914204D1616A00F470108842C4
S315080018C001D00120EAE70020E8E700000010024006
S315080018D00000424280044242180000200070004086
S315080018E07047704710B5040003D094F83D0010B156
S315080018F007E0012010BD002084F83C00204600F0D7
S315080019001EF8022084F83D00211D206800F03EFEE6
S31508001910012084F8460084F83E0084F83F0084F8E5
S31508001920400084F8410084F8420084F8430084F8B3
S31508001930440084F8450084F83D00002010BD704737
S3150800194090F83D10012901D001207047022180F846
S315080019503D100168CA6842F00102CA6000680E4973
S3150800196088420ED00D4988420BD0B0F1804F08D07E
S315080019700B49884205D00B49884202D00A49884259
S3150800198004D1816801F00701062903D0016841F0F6
S315080019900101016000207047002C0140003401401D
S315080019A00004004000080040000C004070472DE984
S315080019B0F04104460068C66805694FF00007A907A4
S315080019C013D5B10711D5F91E0161012020772068CA
S315080019D080698007204602D0FFF7E8FF04E000F0A0
S315080019E07EF8204600F07CF82777680716D570073A
S315080019F014D521686FF0040008610220207720685A
S31508001A00806910F4407F204602D0FFF7CFFF04E03C
S31508001A1000F065F8204600F063F82777280715D503
S31508001A20300713D521686FF0080008610420207775
S31508001A302068C0698007204602D0FFF7B7FF04E098
S31508001A4000F04DF8204600F04BF82777E80616D543
S31508001A50F00614D521686FF0100008610820207779
S31508001A602068C06910F4407F204602D0FFF79EFF29
S31508001A7004E000F034F8204600F032F82777E8074B
S31508001A8008D0F00706D021686FF0010008612046EB
S31508001A9000F028F8280608D5300606D521686FF024
S31508001AA0800008612046FFF71BFF680608D5700608
S31508001AB006D521686FF040000861204600F01CF842
S31508001AC0A8060AD5B00608D521686FF02000086177
S31508001AD02046BDE8F041FFF704BFBDE8F081704736
S31508001AE07047000000680349884201D1FFF7A2BB8E
S31508001AF07047000000080040704770B5040004D025
S31508001B0094F84100002510B106E0012070BD84F864
S31508001B104050204600F024F8242084F8410020682C
S31508001B20C16821F40051C160204600F0A5FD206877
S31508001B30016921F4904101612068416921F02A0177
S31508001B4041612068C16841F40051C1606564202084
S31508001B5084F8410084F842006563002070BD0000E7
S31508001B60F0B585B0002400940194029403940368A8
S31508001B704148404D471502210322AB4221D18369D2
S31508001B8043F480438361836903F480430493836940
S31508001B9043F0040383618069CDE9007100F0040015
S31508001BA0CDE90320354D69462846FFF733FA28154F
S31508001BB0CDE90004694628460294FFF72BFA05B0DA
S31508001BC0F0BDDFF8BCC02F4E2F4D634525D1C36944
S31508001BD043F40033C361C36903F400330493836990
S31508001BE043F0200383618069039200F0200004908B
S31508001BF02020CDE9000169463046FFF70BFA402060
S31508001C00CDE90004694630460294FFF703FA68688E
S31508001C1040F0E06040F008002AE0DFF870C0634555
S31508001C20CDD1C36943F48023C361C36903F4802318
S31508001C300493836943F0200383618069039200F06B
S31508001C40200004904FF48070CDE9000169463046C3
S31508001C50FFF7E0F9CDE90074694630460294FFF7CC
S31508001C60D9F9686820F0300040F0E06040F03000B4
S31508001C706860A4E7003801400010024000080140EF
S31508001C8000440040001401400000014000480040A4
S31508001C902DE9F843044690F84100984616460D4645
S31508001CA0202802D00220BDE8F88385B17EB1002045
S31508001CB06064212084F84100FFF7B6FAA6848146BD
S31508001CC0E684A0682027B0F5805F02D003E00120F3
S31508001CD0E9E7206910B12E4600250EE000260CE043
S31508001CE08021204600F024FDA8B9C6B116F8010BDC
S31508001CF021684860E08C401EE084E08C4B464FF03B
S31508001D000002CDF800800028EAD14FF040012046B5
S31508001D1000F00EFD40B184F841700320C3E735F8A2
S31508001D20020BC0F30800E3E784F841700020BAE725
S31508001D30FEE70000104810B50E49016024214160F5
S31508001D4000214FF480328160C0E9031252014261DA
S31508001D500176012242768276C17601774177FFF7CE
S31508001D6014F808B1FEF787FDBDE8104002210248C5
S31508001D70FEF783BD00640040AC00002010B5044A9D
S31508001D800021044801F0BCFA0349486110BD00006F
S31508001D90004B0008452400080000002030B585B037
S31508001DA0002000900190029003902348816941F039
S31508001DB010018161816901F010010491816941F086
S31508001DC008018161816901F008010491816941F086
S31508001DD020018161816901F020010491816941F046
S31508001DE0040181618069154D00F004000490012208
S31508001DF04FF484612846FFF711FA0022E9142846B1
S31508001E00FFF70CFA4FF44060009011200124CDE949
S31508001E1001040320039069462846FFF7FBF82020B3
S31508001E2000900221CDE90141039169462846FFF752
S31508001E30F1F805B030BD000000100240000C01406A
S31508001E400C4810B50A4901604FF4E13141600021A0
S31508001E5081600C22C160C0E904128161C161FFF78B
S31508001E604CFE002803D0BDE81040FEF704BD10BDA7
S31508001E70003801401C0100200C4810B50A490160D1
S31508001E804FF4E1314160002181600C22C160C0E954
S31508001E9004128161C161FFF730FE002803D0BDE856
S31508001EA01040FEF7E8BC10BD004400406401002065
S31508001EB00C4810B50A4901604FF4E1314160002130
S31508001EC081600C22C160C0E904128161C161FFF71B
S31508001ED014FE002803D0BDE81040FEF7CCBC10BDA8
S31508001EE000480040AC010020FEE7FEE710B50021DF
S31508001EF0074C0A46002004EBC1131A54401CC0B212
S31508001F008028FAD3491CC9B20829F3D310BD0000AA
S31508001F10F4010020F0B50B4424E0044685181DE0C2
S31508001F207F2C19D8002917DB3F2915DCCE1701EBC2
S31508001F3056764FEAE60C0D4F26F0070607EBCC1748
S31508001F402744A1EB060E97F800C0012606FA0EF6FE
S31508001F502CEA060C87F800C0641C24B2A542DFDC14
S31508001F60491C09B28B42D8DCF0BD0000F401002000
S31508001F7070B500240646802525FA04F0304000D0C6
S31508001F80012000F029FA012000F01AFA002000F0DA
S31508001F9017FA641CE4B2082CEED3012000F010FAFC
S31508001FA0BDE87040002000F00BBA10B5012000F023
S31508001FB013FA012000F004FA002000F00DFABDE83B
S31508001FC01040002000F0FCB910B5002000F004FA1B
S31508001FD0012000F0F5F9BDE81040012000F0FCB939
S31508001FE010B501224FF440612648FFF717F9AE20D5
S31508001FF000F0FEF9D52000F0FBF9802000F0F8F992
S31508002000A82000F0F5F93F2000F0F2F9D32000F0FF
S31508002010EFF9002000F0ECF9402000F0E9F9A120E2
S3150800202000F0E6F9C82000F0E3F9DA2000F0E0F95C
S31508002030122000F0DDF9812000F0DAF9CF2000F057
S31508002040D7F9D92000F0D4F9F12000F0D1F9DB2036
S3150800205000F0CEF9302000F0CBF9A42000F0C8F942
S31508002060A62000F0C5F98D2000F0C2F9142000F072
S31508002070BFF9AF2000F0BCF9FFF738FFBDE8104004
S3150800208000F05AB9000C01400FB470B5C0B0144640
S315080020900D46064648AA6846479900F09BFB234624
S315080020A06A462946304600F091F840B070BC5DF8A3
S315080020B014FB10B50C4640F0B00000F099F910205A
S315080020C040EA141000F094F904F00F00BDE810403F
S315080020D000F08EB908B5082B0DD0062B0AD10A4B8D
S315080020E002EB420203EB4202C03A009208230622A0
S315080020F000F00EF808BD054B03EB0212A2F50072BC
S31508002100102300920822F3E73E5100084E4B0008C0
S315080021102DE9F04F1F4616460D4682460024FFF766
S31508002120F9FE7F1EF81707EB50700121DFF898B00B
S3150800213001EBE00743E000203DE000BF0AEB0003A7
S315080021407F2B36D8E91705EB5171CA1021F0070124
S31508002150691A002D03DA521E083112B209B202EBCF
S315080021600409B9F1070F0ED8099A04FB06F80244C8
S315080021700BEBC91E18F802201EF803C08A404CEA69
S31508002180020C0EF803C009F10102072A11D80BEB5D
S31508002190C91202EB0308099A04FB06FC024498F8E4
S315080021A080301CF80220C1F10801CA40134388F8A0
S315080021B08030401CC0B2B042C0D3641CE4B2A7420F
S315080021C0B9DCBDE8F08F0000F40100202DE9FF4FCF
S315080021D0002483B09B4690462546A246DFF85091D8
S315080021E09EE0100610D403988DF80420641C284439
S315080021F0A4B28DF805A000B25B460499FFF76AFF02
S3150800220005EB0B0085B28BE00620B0EB521F0ED112
S31508002210641CA0B28DF8042018F80010002974D0A8
S315080022208DF80510401C84B28DF806A03CE00E20FF
S31508002230B0EB121F16D1641CA0B28DF8042018F852
S315080022400010002971D0401C80B28DF8051018F8CE
S315080022500010002969D08DF80610401C84B28DF84C
S3150800226007A021E01E20B0EBD20F1FD1641CA0B23C
S315080022708DF8042018F80010002956D0401C80B2AA
S315080022808DF8051018F8001000294ED0401C80B2B1
S315080022908DF8061018F80010002946D0401C8DF855
S315080022A0071084B28DF808A0002609E0641CA4B2C1
S315080022B036E0384601A9FDF7DEFF68B1761CB6B2EE
S315080022C006EB860000EB461101EB0900074619A14B
S315080022D0FDF7D1FF0028ECD1BBF1080F03D0BBF105
S315080022E0060F1DD112E006EB860000EB461101EB46
S315080022F00900401D009003981023284400B21A468E
S315080023000499FFF705FF103509E00EE00398062348
S31508002310284400B23F220499FFF7DCFEAD1DADB29A
S3150800232018F80420002A7FF45CAF07B0BDE8F08FE8
S31508002330785300080000000070B5084D00240021FD
S315080023402046FFF7B6FE05EBC410802100F061F8C1
S31508002350641CE4B2082CF2D370BD0000F40100201E
S315080023602DE9F0410646C81701EB5070C410C8188D
S315080023709046401EC21700EB5270012202EBE000A5
S3150800238005B2002902DA6D1E2DB2641E0B4F11E04C
S315080023907F2E0DD8002C0BDB072C09DCF1B2E0B23E
S315080023A0FFF787FE07EBC4103044414600F031F8CA
S315080023B0641C24B2AC42EBDBBDE8F081F4010020DA
S315080023C0044B4FF4806118B101221846FEF726BF68
S315080023D00022FAE7000C0140044B4FF4006118B1E3
S315080023E001221846FEF71ABF0022FAE7000C014040
S315080023F010B50446FFF7D9FD7820FFF7B9FD002090
S31508002400FFF7B6FD2046FFF7B3FDBDE81040FFF71E
S31508002410DBBD70B50D460646FFF7C7FD7820FFF70A
S31508002420A7FD4020FFF7A4FD002404E0305DFFF778
S315080024309FFD641CE4B2AC42F8D3BDE87040FFF7D8
S31508002440C3BD00001CB501F04BFC1D490420CDE9B5
S315080024500001002380221BA11D4802F043F91848F9
S315080024600324001DCDE900400023802219A11C4841
S3150800247002F038F9124800230830CDE900408022DE
S3150800248018A11B4802F02EF90D4901200C31CDE99F
S3150800249000010023802217A1194802F023F900221F
S315080024A00C21052001F0A0FE0549086101F038FC61
S315080024B0002001F013FD012000F0E6FEFBE7000016
S315080024C0000000206F6C65645F7461736B00000028
S315080024D0B931000863616E5F7461736B00000000B8
S315080024E0F5300008776966695F7461736B000000F0
S315080024F0F9400008766F6963655F7461736B000065
S31508002500ED40000810B54FF0E020006902F042F9EE
S31508002510012803D0BDE8104001F050BE10BD30B50B
S315080025208FB028216846FDF794FE14210AA8FDF706
S3150800253090FE01210804CDE900100024029402252A
S315080025400491CDE907504FF4E01009906846FFF76B
S3150800255037F808B172B6FEE70F20CDE90A054FF441
S315080025608060CDE90C4002210AA80E94FEF72CFFE4
S31508002570002801D072B6FEE70FB030BD70470000E4
S315080025800148FFF714BA0000D4000020F0B502682D
S31508002590204C214D214E224F224B4FF0804CA04219
S315080025A009D0984207D0604505D0A84203D0B0426A
S315080025B001D0B84204D122F0700E4A6842EA0E02EF
S315080025C0A04209D0984207D0604505D0A84203D05A
S315080025D0B04201D0B84203D122F44075CA682A43F2
S315080025E04D6922F080022A4302608A68C2620A683C
S315080025F08262A04201D0984201D109690163012192
S3150800260041610169C90703D0016921F0010101612E
S31508002610F0BD0000002C0140000400400008004006
S31508002620000C00400034014001680C3151E8002FCD
S3150800263022F4907241E80023002BF5D10168143189
S3150800264051E8002F22F0010241E80023002BF5D1C2
S31508002650016B012909D101680C3151E8002F22F0DC
S31508002660100241E80023002BF5D1202180F8421002
S31508002670002101637047000070B5044600680169CF
S31508002680E26821F44051114301612169A0680843B9
S31508002690616908432168CA6841F20C639A43024398
S315080026A0CA6020684169A26921F4407111434161F9
S315080026B01E492068884202D1FEF74CFF01E0FEF76A
S315080026C039FF00EBC00101EB00126068642180004D
S315080026D0B2FBF0F3B3FBF1F36FF018067343B2FBEA
S315080026E0F0F5B2FBF0F605EB8305322303EB05158F
S315080026F0B5FBF1F5B6FBF1F605F0F00505EB0615A9
S31508002700B2FBF0F6B2FBF0F0B0FBF1F06FF0180296
S31508002710504306EB800003EB0010B0FBF1F0216894
S3150800272000F00F002844886070BD000000380140A2
S315080027302DE9F843984617460D460446089E24E0B8
S31508002740701C22D0FEF770FDA0EB0800B0421AD824
S31508002750CEB12068C168490717D5802D15D0402D00
S3150800276013D00168C94309070FD4016800254068DA
S3150800277000902046FFF758FF0820606484F8405010
S315080027800120BDE8F8830320FBE72068006835EAE6
S31508002790000004D00020B842D2D00020F1E7012082
S315080027A0F9E700000148FEF7F2B90000AC00002086
S315080027B0FEE700000FB4054B10B503A9044A0298BA
S315080027C000F0FCF810BC5DF814FB00006531000849
S315080027D0A800002037B514460846064B6A46214627
S315080027E000F0ECF804466946002000F07EFC20461E
S315080027F03EBD0000EB3000080907090E002804DB7F
S3150800280000F1E02080F80014704700F00F0000F196
S31508002810E02080F8141D704702E008C8121F08C19E
S31508002820002AFAD170477047002001E001C1121F43
S31508002830002AFBD1704700002DE9FF5F82B0002116
S31508002840DDE90430020DDDF840B0034318D044F644
S315080028501050A2F2FF3242431514119801281FD0D6
S31508002860A5EB0B00401C5FEA000A4FF000064E4F2E
S31508002870DFF83891B046504615D5CAF1000413E082
S31508002880119801244AA3012801D16FEA0B01029885
S31508002890119AC0E90031C0E9024206B0BDE8F09FCE
S315080028A0CBF10000DFE704460021404A491842EB15
S315080028B00450CDE9001012E0E00707D032463B4647
S315080028C040464946FDF78CFD8046894632463B46DA
S315080028D010461946FDF784FD06460F466410002C7F
S315080028E0EAD1DDE90401DDE90023BAF1000F06DAD1
S315080028F0FDF776FD42464B46FDF772FD05E0FDF70E
S31508002900E1FD42464B46FDF7DDFD04460E46002234
S31508002910284BFDF747FE03D84FF0FF30014607E086
S315080029200022254B20463146FDF7B3FCFDF717FF7D
S31508002930102409E0002C0ADB0A220023FDF760FEBA
S31508002940039B30321A55641E50EA0102F2D1641C08
S31508002950039AC4F111031444119A012A03D00122DF
S3150800296008430DD10AE0084304D000204FF0110BAC
S31508002970119072E7A3EB0B056D1E0DE05B4504DDB8
S315080029804FF0000205F1010504E003DA4FF00002FA
S31508002990A5F10105002AECD002981199C0E9023187
S315080029A0C0E9004579E70000000014400000F03F48
S315080029B0300000000000F0430000E03F2DE9FF4F23
S315080029C095B09B468946064600250FE2252877D10D
S315080029D000242746F84A0121059400E0044316F826
S315080029E0013F203B01FA03F01042F7D130782A283C
S315080029F011D06FF02F033078A0F13002092A16D8CB
S31508002A00059A44F0020402EB820203EB42021044E8
S31508002A10761C0590EFE759F8042B0592002A03DA8D
S31508002A20504244F40054059044F00204761C307871
S31508002A302E2816D116F8010F44F004042A280DD0C2
S31508002A406FF02F023078A0F13003092B09D807EB75
S31508002A50870302EB4303C718761CF3E759F8047B90
S31508002A60761C30786C280FD006DC4C2817D06828DE
S31508002A700DD06A2814D104E0742810D07A280FD112
S31508002A800DE044F400140AE044F4801401E044F430
S31508002A9040147278824202D104F58014761C761CA2
S31508002AA0307866280BD013DC582877D009DC002844
S31508002AB075D04528F6D04628F4D047281AD19DE186
S31508002AC018E0632835D0642879D0652812D195E1B5
S31508002AD0702873D008DC6728F1D069286FD06E2873
S31508002AE00DD06F2806D1B5E073282CD0752875D07F
S31508002AF0782874D05A46179990476D1C75E1C4F327
S31508002B000250022809D003280DD0D9F8001004284D
S31508002B100DD00D6009F1040967E1D9F80010EA172C
S31508002B20C1E90052F6E7D9F800100D80F2E70D70FA
S31508002B30F0E719F8041B8DF8001000208DF8010045
S31508002B40EA46012003E059F804AB4FF0FF3061076D
S31508002B504FF0000102D40DE008F101018846B942A0
S31508002B600FDA8045F8DB1AF808100029F4D108E0D6
S31508002B7008F1010188468142FADB1AF80810002993
S31508002B80F6D105985B46A0EB080721463846179A02
S31508002B9000F094FA284400EB080507E04DE029E127
S31508002BA00DE01AF8010B5A4617999047B8F1010833
S31508002BB0F7D25B4621463846179A13E142E00A22C5
S31508002BC00092C4F302524FF0000A022A08D059F8BC
S31508002BD004CB032A4FEAEC710AD00DE029E02AE07B
S31508002BE009F1070121F00702F2E802C1914609E05E
S31508002BF00FFA8CFC4FEAEC71042A03D14FFA8CFCCD
S31508002C004FEAEC71002907DA0A460021DCF1000CCC
S31508002C1061EB02012D2202E0220504D52B228DF854
S31508002C200420012203E0E20701D02022F7E79046BC
S31508002C3059E00A2102E010220DE010214FF0000AA7
S31508002C4000910BE010224FF0000A44F00404082714
S31508002C50009203E008224FF0000A0092C4F30252E1
S31508002C60022A05D059F804CB0021032A08D009E026
S31508002C7009F1070121F00702F2E802C1914605E0D1
S31508002C801FFA8CFC042A01D10CF0FF0C4FF0000847
S31508002C90220728D5702806D0009B83F0100353EA34
S31508002CA00A0305D00EE040228DF80420012208E030
S31508002CB05CEA010206D030228DF804208DF8050062
S31508002CC002229046009B83F0080353EA0A030AD1BE
S31508002CD05CEA010201D1620705D530228DF804208D
S31508002CE04FF001087F1E582804D034A003900EA880
S31508002CF002900DE036A0F9E753466046009AFDF7C4
S31508002D007FFC84460398825C0298401E02900270FB
S31508002D105CEA0100F0D1029806A9081A00F1200A17
S31508002D20600702D524F4803400E00127574502DD08
S31508002D30A7EB0A0000E0002000EB0A0100900598C6
S31508002D404144401A0590E00306D45B462146179A8B
S31508002D50059800F0B3F90544002706E001A85A468D
S31508002D60C05D179990476D1C7F1C4745F6DBE0034D
S31508002D700CD55B462146179A059800F09FF905443D
S31508002D8004E030205A46179990476D1C0099481E52
S31508002D9000900029F5DC08E0029802995A46007866
S31508002DA0491C0291179990476D1CBAF10001AAF1C6
S31508002DB0010AF1DC65E100000928010030313233EF
S31508002DC03435363738396162636465660000000059
S31508002DD03031323334353637383941424344454643
S31508002DE00000000000F058F90544761C30780028E9
S31508002DF07FF4ECAD19B02846BDE8F08F620700D421
S31508002E00062709F1070222F0070CFCE80223E1462F
S31508002E1003F000485FEA080C02D00FF2702C0DE0B0
S31508002E205FEA045C02D50FF2682C07E05FEAC47C0F
S31508002E3002D00FF2602C01E0AFF2700C4FF0FF38B1
S31508002E4023F00043CDF850C065280CD006DC452891
S31508002E5009D046281DD047283DD13DE0662818D020
S31508002E6067287ED138E00021112F01DB112000E010
S31508002E70781CCDE9000106A90EA8FFF7DDFCDDE9FF
S31508002E800F010E9A03910021009207F1010A04919D
S31508002E904DE04FF000400097CDE9011006A90EA8B5
S31508002EA0FFF7CAFCDDE90F0203920E9B1199002277
S31508002EB0DDF80CA00093049211B9791C00EB010A05
S31508002EC0B7EB0A0004D4C0F1FF3007F1010A0490F9
S31508002ED0AAEB0700019044E0012F00DA0127002140
S31508002EE0112F01DD112000E03846CDE9000106A9C1
S31508002EF00EA8FFF7A1FCDDE90F010E9A0391002148
S31508002F0004910092BA4621070CD40399514500DA78
S31508002F108A46BAF1010F05DD009AAAF10101515C52
S31508002F20302908D0B84202DA10F1040F06DA012176
S31508002F30CDE9011015E0AAF10101E9E7002805DC51
S31508002F40049901440491AAEB000102E0411C514591
S31508002F5000DD8A460499401A401C01904FF0004053
S31508002F600290200704D40198504501DBCDF804806F
S31508002F7000208DF84F0002980DF14F07B0F1004F71
S31508002F8025D02B200E9002984FF0020800280CDA64
S31508002F90404202902D200E9007E00A210298FDF784
S31508002FA019FB3031029007F8011DB8F10001A8F1AC
S31508002FB00108F2DC02980028EFD1791E0E980870F5
S31508002FC0307800F0200040F0450007F8020D12A8FE
S31508002FD0C01B00F107081498007800B1012000EB27
S31508002FE00A01019801EBE07105984144401A401E18
S31508002FF00590E00306D45B462146179A059800F02B
S315080030005DF805441498007818B15A461799904700
S315080030106D1CE00324D55B462146179A059800F0F7
S315080030204DF805441CE00498002807DBDDE9030198
S31508003030884203DD0098405C179901E01799302013
S315080030405A469047049805F10105401C04900198DA
S31508003050401E019004D12E205A46179990476D1CA0
S31508003060BAF10001AAF1010ADDDC05E017F8010B47
S315080030705A46179990476D1CB8F10001A8F1010846
S31508003080F4DC5B462146179A0598ABE62D0000004E
S315080030902B000000200000002DE9F0410446002521
S315080030A01E461746880404D405E039462020B04752
S315080030B06D1C641EF9D52846BDE8F0812DE9F0415E
S315080030C0044600251E469046C80301D5302700E071
S315080030D02027880404D505E041463846B0476D1CCC
S315080030E0641EF9D52846BDE8F0810A68531C0B60B2
S315080030F01070704710A0FFF75DFB40F27F744FF425
S31508003100ED6711A612A54FF47A783046FDF7ACF8AC
S31508003110C2B220463146FDF78DFB2846FDF7A4F8D6
S31508003120C2B229463846FDF785FB0AA0FFF742FBDF
S31508003130404600F0ADFEE8E773656E64207465737B
S3150800314074202E2E2E0A00006162646300000000BF
S315080031503131310073656E64206F6B2E2E2E0D0A89
S315080031600000000013B56423012269460248FEF7F1
S315080031708FFD00981CBD00001C010020FEF762F8B8
S31508003180FFF7CDF9FEF70AFEFEF7D4FDFEF790FE2F
S31508003190FEF756FEFEF770FEFEF722FF0548FDF71E
S315080031A005FFFDF709FB00F07DF8FEF7E7FD00F0E7
S315080031B08BF8FEE7AC0000201FB5002120A30822EB
S315080031C00846FEF761FF20A3082210210020FEF71B
S315080031D05BFF1FA3082220210020FEF755FFFFF7FB
S315080031E0ABF81E4C4FF0FF352A4601A9206901F0BD
S315080031F0A3F90128F8D120231A4600212820FEF732
S3150800320089FE17A3082200212820FEF73DFF16A3F2
S31508003210082210212820FEF737FF20231A4600210E
S315080032202820FFF79DF89DF80A0000909DF80930C0
S315080032309DF808209DF807100DA0FFF7BBFAD3E705
S31508003240E8BDA6E7AA973A00E8BDA6E997A83A0016
S31508003250E8BDA6E781AF3A31000000000000002073
S31508003260E585B3E997AD0000E5BC80E590AF0000C1
S3150800327025303278202530327820253032782025BE
S3150800328032780D0A0000000010B5EFF3058111B180
S315080032906FF0050403E0002408B100F0F9FD2046AC
S315080032A010BD0000EFF3058010B16FF00500704700
S315080032B00448016811B14FF0FF30704701210160E1
S315080032C0002070472800002010B5EFF3058010B1E4
S315080032D06FF0050010BD08480168012902D04FF0BB
S315080032E0FF3010BD054A002182F8141D0221016035
S315080032F000F07EFE002010BD280000200BE000E054
S315080033002DE9FF414FEA01034FF00005EFF3058170
S31508003310039549BB40B38027182100244AB3166891
S3150800332006B1344696691EB13146761E382E02D24B
S315080033301679F60703D0002004B0BDE8F081566977
S3150800334006B1B708D2F808C0BCF1000F0DD0D56891
S315080033505C2D18D312693AB136B18DE806103A4693
S31508003360214601F0ECF903900DE0D6685EB91269C2
S315080033704AB903AACDE90012BAB2214601F0B2F958
S31508003380012800D003950398D6E700002DE9F041FF
S31508003390134C0F460546E6682068001D00F042FCFF
S315080033A0681C07D137B12168BDE8F0410D48091DF1
S315080033B000F089BC20683544B5424560216805D2CD
S315080033C0A06BBDE8F041091D00F065BC606B091DE6
S315080033D000F061FCA06A854200D2A562BDE8F081D2
S315080033E0580000209C1D00202DE9F041054600F0FC
S315080033F077FC2D4CA068401CA06020682B4F10B1AC
S31508003400606930B32BE02560A068012827D1002623
S3150800341006EB860007EB800000F02FFC761C382EA2
S31508003420F6D3234800F029FC2148143000F025FC87
S315080034301F48283000F021FC1D483C3000F01DFCD8
S315080034401B48503000F019FC194860631430A0631B
S3150800345005E02068E96AC06A884200D82560606A83
S31508003460401C60626864E86A2169884200D9206164
S3150800347000EB800007EB8000291D00F024FC00F01B
S315080034804FFC606900280CD02068E96AC06A884247
S3150800349007D208494FF080500860BFF34F8FBFF33B
S315080034A06F8FBDE8F081000058000020EC1800205E
S315080034B04C1D002004ED00E038B500F011FC104C5E
S315080034C02068C8B90F4800F0D8FB0E48143000F041
S315080034D0D4FB0C48E060143020610A4B0020F03B16
S315080034E0009003F1500210210A2000F09EFE206091
S315080034F010B105A100F096FCBDE8384000F010BCFC
S3150800350094000020A01E0020546D72510000000097
S3150800351030B4026C0B46002A0BD0C1681144C16056
S315080035208468A14201D30168C16030BC1846FCF723
S3150800353077BE30BC70472DE9F041856B17460446C7
S315080035400026026C82B1C7B1E068FCF769FEE16843
S31508003550206C091AE1602268914202D2A168081A11
S31508003560E060022F16D017E02068A8B9A06801F01D
S3150800357089F906460020A0600EE06068FCF750FE58
S31508003580216C606808446060A168884204D320689A
S31508003590606001E005B16D1E6D1CA5633046BDE88F
S315080035A0F08110B5044690F8590058B101280CD09E
S315080035B002280FD0502080F31188BFF34F8FBFF336
S315080035C06F8FFEE7206B00F0BFFB2046BDE810407A
S315080035D000F0BABB10BD000010484FF44061420726
S315080035E006D0C01D0D4920F00700411AC1F54061FB
S315080035F00B4A00230144C2E900030839183A21F0AE
S31508003600070111604B600B600B1AC0E90013936049
S315080036104FF000405360506170470000AC0C00202A
S3150800362044000020154E164CA6F29C474FF08058D1
S31508003630DFF8509012E000BF00F052FBF068C56852
S31508003640281D00F0EFFAA068401EA0606068401EC2
S31508003650606000F065FB2846FFF7A3FF6068002856
S31508003660EAD13868012805D9C9F80080BFF34F8F19
S31508003670BFF36F8F00F000FBF0E70000881D002005
S315080036805800002004ED00E070B51D46049C51B1B9
S31508003690C4F80020C4E90F010121204600F0F8FD16
S315080036A084F84C5070BD2460F4E700002DE9F05F03
S315080036B08846DDE90B941546834691009A460A9E8C
S315080036C0A522206BFCF7BEFD6FF00301206B01EB12
S315080036D08501084420F00707780707D0502080F3B3
S315080036E01188BFF34F8FBFF36F8FFEE70025B8F140
S315080036F0000F0FD05FF00000221818F8001082F8AB
S31508003700341018F8001011B1401C1028F4D384F8AE
S31508003710435001E084F83450382E00D33726E66249
S31508003720C4E91365201D00F0B3FA04F1180000F08F
S31508003730AFFA2461C6F138006462A061656584F851
S31508003740585052465946384600F05AFA2060B9F1A0
S31508003750000F01D0C9F80040BDE8F09F30B5114907
S3150800376000E011460A688242FBD34B685C18844223
S3150800377003D1406818444860084643681C189442B8
S3150800378009D1084C183C2468A24209D052681A4448
S3150800379042600A6812680260814200D0086030BD43
S315080037A00460F9E74400002070B5002441600B4D21
S315080037B00061914206D8D11A8269914206D2011D4A
S315080037C0286907E09A4203D2994201D3012403E00B
S315080037D0011DE86800F05FFA204670BD94000020DD
S315080037E010B5044600F07CFAA06B28B15FF000041F
S315080037F000F096FA204610BD0124F9E730B589B0E5
S315080038003C4D6EE00498002806DADDE90601059AC3
S3150800381090470498002864DB069C606910B1201D57
S3150800382000F000FA03A800F0D7F8024604980A2820
S3150800383057D2DFE800F00505052D334A05052D3377
S3150800384094F8280040F0010084F828000599A0693A
S31508003850059B01442046FFF7A7FF68B3216A204667
S31508003860884794F8280040073BD500200090059823
S31508003870A169002342181946204601F00DF9D8B966
S31508003880502080F31188BFF34F8FBFF36F8FFEE789
S3150800389014F8280F20F00100207022E094F8280080
S315080038A040F0010084F828000598A06128B1811825
S315080038B013462046FFF778FF13E0502080F311885F
S315080038C0BFF34F8FBFF36F8FFEE794F82800810789
S315080038D003D4204600F038FA03E020F0010084F80B
S315080038E02800002204A9286800F026FE002889D1AD
S315080038F009B030BD940000202DE9FC410F4605466D
S3150800390000F0BAFB01A800F067F80446019818B160
S3150800391001F030F8BDE8FC81254EAFB1306900688A
S31508003920D0B30027291B3A46306800F08FFA01F019
S3150800393021F80028EED11F494FF080500860BFF3E8
S315080039404F8FBFF36F8FE5E7A542EBD801F012F86A
S31508003950F0682746C068C468201D00F063F994F82B
S315080039602800410719D5A0692B4641193A46204631
S31508003970FFF71AFFA8B100200346014600902A4621
S31508003980204601F089F860B9502080F31188BFF30A
S315080039904F8FBFF36F8FFEE707E020F0010084F832
S315080039A02800216A20468847B4E70127BAE70000BD
S315080039B09400002004ED00E00648416B096829B12F
S315080039C0416BC968C9684968816270474FF0FF3121
S315080039D0FAE700005800002070B5054600F0E8FE3A
S315080039E0064E0446B068844203D200F009F8012066
S315080039F000E0002028602046B46070BD94000020D6
S31508003A00F8B5194D20E0C068C4680668201D00F0A6
S31508003A1009F9216A2046884794F82800400713D5F3
S31508003A20A0693044B04206D924616060211DE86867
S31508003A3000F031F908E000200346014600903246BE
S31508003A40204601F029F838B1E86801680029DAD17A
S31508003A502969C5E90310F8BD502080F31188BFF322
S31508003A604F8FBFF36F8FFEE7940000200848406829
S31508003A70401C4FF0500080F3118804D0BFF34F8FDD
S31508003A80BFF36F8FFEE7BFF34F8FBFF36F8FFEE76E
S31508003A904C000020074CE068016841B1C06800216D
S31508003AA0D0F80000FFF728FFFFF7A8FEF3E701218B
S31508003AB00020F7E7940000202DE9F041044600F0C5
S31508003AC00FF994F9455004F1240609E0606A48B1F3
S31508003AD0304600F017FF08B100F050FA6D1E6DB2BF
S31508003AE0002DF3DC4FF0FF3684F8456000F018F936
S31508003AF000F0F6F894F9445004F1100709E020693B
S31508003B0048B1384600F0FEFE08B100F037FA6D1EDF
S31508003B106DB2002DF3DC84F84460BDE8F04100F096
S31508003B20FFB800002DE9F0410546002700F0A4FA89
S31508003B30324E306808B9FFF74FFD706905424ED11D
S31508003B40C5B3083568070ED005F00700C0F10800B0
S31508003B500544680707D0502080F31188BFF34F8FBC
S31508003B60BFF36F8FFEE72DB37068854237D82348B9
S31508003B70183001460C6801E020460C466168A942E7
S31508003B8002D221680029F7D131688C4227D007680C
S31508003B902168016060680837411B10290FD9601930
S31508003BA0420708D0502080F31188BFF34F8FBFF328
S31508003BB06F8FFEE713E041606560FFF7CFFD616830
S31508003BC07068401A7060B268904200D2B06070693E
S31508003BD001430020C4E90001F068401CF06000F0D1
S31508003BE0C9FE780707D0502080F31188BFF34F8F9E
S31508003BF0BFF36F8FFEE73846BDE8F0812C00002042
S31508003C0010B5031F4FF080741C601B1F21F00101C3
S31508003C101960191F024B0B60143940380A6010BD31
S31508003C206D3A0008D0E9013201699A60D0E90123AA
S31508003C305A604A68824201D182684A60002202615B
S31508003C400868401E0860086870470000034B036058
S31508003C5003F15C000860802010607047F4050020BE
S31508003C60044B036003F15C0008604FF48070106039
S31508003C707047000050080020704700F108014FF017
S31508003C80FF32C0E90112C16001610021016070477D
S31508003C9000210161704730B50B685A1C02D000F14B
S31508003CA0080202E0026904E02246546825689D423B
S31508003CB0FAD953684B6099608A6051600861016857
S31508003CC0491C016030BD42684A6093688B609368FE
S31508003CD05960916008610168491C016070470000DD
S31508003CE0502080F31188BFF34F8FBFF36F8F0A49B7
S31508003CF04868401C486001280CD10848006810F044
S31508003D00FF0F07D0502080F31188BFF34F8FBFF302
S31508003D106F8FFEE7704700004C00002004ED00E0BE
S31508003D200849486828B1401E486001D180F31188C7
S31508003D307047502080F31188BFF34F8FBFF36F8F02
S31508003D40FEE700004C00002070B500282AD0164D6A
S31508003D50A0F1080460686969084207D1502080F319
S31508003D601188BFF34F8FBFF36F8FFEE722683AB112
S31508003D70502080F31188BFF34F8FBFF36F8FFEE794
S31508003D808843606000F078F960686968084468608C
S31508003D902046FFF7E3FC2869401C2861BDE870400F
S31508003DA000F0E8BD70BD00002C0000204FF0E020B8
S31508003DB000210161816105494FF47A720968B1FBF6
S31508003DC0F2F1491E41610721016170471800002080
S31508003DD010B5FCF7FFF9114910280ED300F1E020C1
S31508003DE090F8F0030A78904207D2502080F31188A1
S31508003DF0BFF34F8FBFF36F8FFEE7094800688968E6
S31508003E0000F4E060884207D9502080F31188BFF398
S31508003E104F8FBFF36F8FFEE710BD00004C000020E8
S31508003E200CED00E010B5084B002200BF53F83240F5
S31508003E301CB1521C082AF9D310BD43F8321003EB03
S31508003E40C201486010BD0000AC18002070B51546C8
S31508003E500E460446FFF744FF94F944100020491C17
S31508003E6001D184F8440094F94510491C01D184F81D
S31508003E704500FFF755FFA06B28B92A46314604F1DD
S31508003E80240000F099F82046BDE87040FFF714BEFC
S31508003E9010B5020014D00F48006B38B1502080F3DB
S31508003EA01188BFF34F8FBFF36F8FFEE700F0E4F87A
S31508003EB000211046FFF76AFA00F05CFD002807D1DA
S31508003EC005494FF080500860BFF34F8FBFF36F8FDF
S31508003ED010BD00005800002004ED00E070B505464E
S31508003EE0FFF7FEFE1E4C05B92568281DFFF79AFE4A
S31508003EF0A86A18B105F11800FFF794FE606A401C1D
S31508003F0060622068854207D1291D1648FFF7DBFE47
S31508003F106068401C606007E0A068401EA0602846F4
S31508003F20FFF73FFBFFF748FDFFF7FAFE6069002839
S31508003F3014D02068854211D1206B38B1502080F307
S31508003F401188BFF34F8FBFF36F8FFEE706494FF017
S31508003F5080500860BFF34F8FBFF36F8F70BD0000AE
S31508003F6058000020881D002004ED00E002490A6A76
S31508003F700260C96841607047580000200149012065
S31508003F80C86170475800002010B50C4650B1094961
S31508003F9009681831FFF77FFE2046BDE81040012169
S31508003FA0FFF7F4B9502080F31188BFF34F8FBFF3A2
S31508003FB06F8FFEE75800002070B514460D4668B1AD
S31508003FC00A4909681831FFF77EFE0CB14FF0FF3534
S31508003FD021462846BDE87040FFF7D8B9502080F33F
S31508003FE01188BFF34F8FBFF36F8FFEE7580000208D
S31508003FF030B587B00024039405AA04A903A804943D
S31508004000FFF724FEDDE903010094CDE90110002342
S3150800401015A11748059A00F092FB164D0028E8628C
S315080040201FD000F009FD012809D0401C19D15020E5
S3150800403080F31188BFF34F8FBFF36F8FFEE75020D1
S3150800404080F31188BFF34F8FBFF36F8F4FF0FF30A8
S31508004050A86201206861EC6007B0BDE8304000F056
S3150800406059B807B030BD000049444C45000000006F
S3150800407025360008580000200248016B491C0163D8
S315080040807047000058000020164810B5016B11B1A2
S315080040900121C16110BD0021C1610169124A01E017
S315080040A0B9B1491E01EB810352F82330002BF7D032
S315080040B001EB810302EB830202F1080453685B6893
S315080040C05360A34201D15B685360DA6802600161FC
S315080040D010BD502080F31188BFF34F8FBFF36F8F49
S315080040E0FEE7000058000020EC1800204FF47A7410
S315080040F02046FFF7CDFEFBE7054C4FF4FA75202165
S315080041002046FDF783F82846FFF7C2FEF7E70000CA
S31508004110000C01401CB5264908780190FF2008705C
S3150800412008788DF800009DF800009DF8002000F042
S31508004130F000904207D0502080F31188BFF34F8FCC
S31508004140BFF36F8FFEE79DF800001A4C00F0500091
S3150800415020700720A06005E09DF8002052008DF829
S315080041600020401E9DF800201206F5D4A060032802
S3150800417007D0502080F31188BFF34F8FBFF36F8F9E
S31508004180FEE74FF44070A060019808700A4801687D
S3150800419041F470010160016841F070410160FFF768
S315080041A005FE00206060FBF7DFFF00201CBD000055
S315080041B000E400E04C00002020ED00E010B550209F
S315080041C080F31188BFF34F8FBFF36F8F00F0F6FAB5
S315080041D018B104494FF080500860002080F3118818
S315080041E010BD000004ED00E0F8B517460E460500C0
S315080041F013D005FB06F05030FFF794FC04000AD0F4
S31508004200002084F8460004F150023B463146284611
S315080042100094FFF739FA2046F8BD502080F311883C
S31508004220BFF34F8FBFF36F8FFEE738B5049D18B104
S3150800423053B1CAB181B120E0502080F31188BFF391
S315080042404F8FBFF36F8FFEE7502080F31188BFF3BF
S315080042504F8FBFF36F8FFEE7502080F31188BFF3AF
S315080042604F8FBFF36F8FFEE739B1502080F3118867
S31508004270BFF34F8FBFF36F8FFEE750241C46012311
S3150800428084F846302B460094FFF7FEF9204638BDE1
S3150800429070B50D46040025D0FFF722FDD4E90F209E
S315080042A0216802FB0011A1600021A16321686160F9
S315080042B00A46D4E90F01401E00FB0121E1602146B0
S315080042C04FF0FF3001F8440F487004F110008DB12B
S315080042D0FFF7D3FC04F12400FFF7CFFCFFF720FD1E
S315080042E0012070BD502080F31188BFF34F8FBFF3B4
S315080042F06F8FFEE721690029F0D000F003FB002844
S31508004300ECD004494FF080500860BFF34F8FBFF3DD
S315080043106F8FE3E704ED00E02DE9FF4782B01D4605
S315080043208A464FF00008040003D0BAF1000F08D0FF
S3150800433011E0502080F31188BFF34F8FBFF36F8FC2
S31508004340FEE7206C38B1502080F31188BFF34F8FF9
S31508004350BFF36F8FFEE7022D0AD1E06B012807D065
S31508004360502080F31188BFF34F8FBFF36F8FFEE79E
S3150800437000F010FA3F4F4FF000094FF0805648B949
S31508004380049838B1502080F31188BFF34F8FBFF3DC
S315080043906F8FFEE7FFF7A4FCA06BE16B884207D39B
S315080043A0022D05D00498D0B1B8F1000F1AD01EE03E
S315080043B02A4651462046FFF7BEF8616A19B104F14C
S315080043C0240000F09FFA20B13E60BFF34F8FBFF381
S315080043D06F8FFFF7A5FC012006B0BDE8F087FFF751
S315080043E09FFC22E06846FFF7C1FD4FF00108FFF782
S315080043F097FCFFF741FEFFF773FC94F94400401C55
S3150800440001D184F8449094F94500401C01D184F800
S315080044104590FFF785FC04A9684600F029F930B1F4
S315080044202046FFF749FB00F0A5FA0020D4E7FFF77E
S3150800443057FCA06BE16B884213D1FFF771FC04F1BE
S3150800444010000499FFF7A0FD2046FFF735FB00F0A2
S3150800445091FA00289ED13E60BFF34F8FBFF36F8F4E
S3150800446098E7FFF75DFC2046FFF726FB00F082FA87
S3150800447090E7000004ED00E02DE9F0471F4690465E
S315080044808946040003D0B9F1000F08D011E0502086
S3150800449080F31188BFF34F8FBFF36F8FFEE7206C51
S315080044A038B1502080F31188BFF34F8FBFF36F8F59
S315080044B0FEE7022F0AD1E06B012807D0502080F3CF
S315080044C01188BFF34F8FBFF36F8FFEE7FFF780FCAE
S315080044D05020EFF3118680F31188BFF34F8FBFF397
S315080044E06F8FA06BE16B884206D3022F04D00020A1
S315080044F086F31188BDE8F08794F94550A06B3A46D3
S3150800450049462046FFF717F8681C04D06D1C84F846
S3150800451045500120ECE7606A0028FAD004F124002F
S3150800452000F0F0F90028F4D0B8F1000FF1D001211D
S31508004530C8F80010EDE700002DE9F747002683B01C
S315080045408A46040003D0BAF1000F08D011E05020C3
S3150800455080F31188BFF34F8FBFF36F8FFEE7206C90
S3150800456038B1502080F31188BFF34F8FBFF36F8F98
S31508004570FEE700F00FF9DFF8F4804FF000094FF07E
S31508004580805748B9059838B1502080F31188BFF391
S315080045904F8FBFF36F8FFEE7FFF7A2FBA56BC5B181
S315080045A051462046FEF7B4FF6D1EA563206950B13B
S315080045B004F1100000F0A6F928B1C8F80070BFF39E
S315080045C04F8FBFF36F8FFFF7ABFB012006B0BDE837
S315080045D0F087059808B11EB106E0FFF7A1FB27E0B2
S315080045E06846FFF7C3FC0126FFF79AFBFFF744FD71
S315080045F0FFF776FB94F94400401C01D184F84490F7
S3150800460094F94500401C01D184F84590FFF788FBD2
S3150800461005A9684600F02CF8002820460AD0FFF7BE
S315080046204BFA00F0A7F92046FFF7DAF80028B3D0CE
S315080046300020CBE7FFF7D4F890B104F124000599E0
S31508004640FFF7A2FC2046FFF737FA00F093F9002897
S31508004650A2D1C8F80070BFF34F8FBFF36F8F9BE7E7
S315080046602046FFF729FA00F085F995E704ED00E002
S315080046702DE9F0410C46050011D0C4B1FFF730FB17
S31508004680174BDA686E682068911B471C17D02F688D
S315080046901B6A9F4219D0964217D8012410E0502071
S315080046A080F31188BFF34F8FBFF36F8FFEE750205B
S315080046B080F31188BFF34F8FBFF36F8FFEE7002497
S315080046C0FFF72EFB2046BDE8F081884205D9401A3F
S315080046D020602846FFF74AFCF1E700202060DCE767
S315080046E0580000202DE9FF5F8346DDE90E879946CD
S315080046F016468A469000FFF715FA05001CD05C207E
S31508004700FFF710FA040014D00020256384F8590036
S31508004710CDE90240CDE900874B4632465146584618
S31508004720FEF7C4FF2046FEF75FFE012004B0BDE891
S31508004730F09F2846FFF708FB4FF0FF30F6E7F0B585
S3150800474085B0DDE90B640A9DA6B1DCB15C2700974C
S315080047502663022684F85960002604AFCDE902468E
S31508004760CDE90057FEF7A2FF2046FEF73DFE049866
S3150800477005B0F0BD502080F31188BFF34F8FBFF30B
S315080047806F8FFEE7502080F31188BFF34F8FBFF37A
S315080047906F8FFEE70548416919B1006B18B1002013
S315080047A0704701207047022070470000580000201B
S315080047B00148C06870470000580000202DE9F04104
S315080047C02E4C0027206B28B1A069401CA0613846F2
S315080047D0BDE8F081E668761CE66013D1606B006878
S315080047E038B1502080F31188BFF34F8FBFF36F8F16
S315080047F0FEE7606BA16B6163A063206A401C2062C0
S31508004800FFF7DAF8A06ADFF87880864209D3606B8A
S315080048100068A0B1606BC068C5686868864211D236
S31508004820A0622068C06A00EB800158F821000128C0
S3150800483000D90127E0690028C9D00127C7E74FF04A
S31508004840FF30EDE7281DFFF7EDF9A86A18B105F165
S315080048501800FFF7E7F9E86A2169884200D920615C
S3150800486000EB800108EB8100291DFFF72CFAE86AA6
S315080048702168C96A8842CAD30127C8E758000020B8
S31508004880EC18002070B504004FF0000133D01B4D22
S315080048902868844207D0502080F31188BFF34F8FD1
S315080048A0BFF36F8FFEE7206D38B1401E2065E36CBD
S315080048B0E26A9A421FD040B11DE0502080F3118869
S315080048C0BFF34F8FBFF36F8FFEE7201DFFF7AAF9DF
S315080048D0E06CE062C0F13800A061E06A29698842AC
S315080048E000D92861064900EB800001EB8000211DF4
S315080048F0FFF7E9F90121084670BD000058000020BD
S31508004900EC18002070B5C068C46854B104F11800EA
S315080049100646FFF787F9144D286B50B13146134800
S3150800492015E0502080F31188BFF34F8FBFF36F8FC8
S31508004930FEE7201DFFF776F9E06A2969884200D963
S3150800494028610B4900EB800001EB8000211DFFF771
S31508004950BAF9E06A2968C96A884202D90120E86179
S3150800496070BD002070BD000058000020741D002096
S31508004970EC1800202DE9F0472C4D00242746286B1B
S3150800498038B1FFF7ADF9286B401E2863286B40B194
S3150800499046E0502080F31188BFF34F8FBFF36F8F27
S315080049A0FEE7A968224E0120D1B3A6F59169804693
S315080049B03068E0B1F068C46804F11800FFF732F90E
S315080049C0201DFFF72FF9E06A2969884200D9286176
S315080049D000EB800109EB8100211DFFF774F9E06AFD
S315080049E02968C96A8842E3D3C5F81C80E0E70CB198
S315080049F0FEF7E2FFAC694CB14FEA0806FFF7DEFEA8
S31508004A0000B1EE61641EF9D10020A861E86938B1E9
S31508004A100849012738070860BFF34F8FBFF36F8F28
S31508004A20FFF77EF93846BDE8F087000058000020F9
S31508004A30741D002004ED00E010B586B0FEF73CFDBD
S31508004A40114C2068B8B100200390049005AA04A967
S31508004A5003A8FFF705F9DDE9032102208DE8070021
S31508004A6000230AA10B48059AFFF769FE606010B19A
S31508004A7006B0012010BD502080F31188BFF34F8F78
S31508004A80BFF36F8FFEE7000094000020546D72207C
S31508004A9053766300953A00082DE9FF411E461346F2
S31508004AA002000A9D4FF0000016D0144C2768002F0C
S31508004AB00FD0CDE900130292062917DAFFF76AFE2E
S31508004AC002284FF000030FD0002269462068FFF73E
S31508004AD023FC04B0BDE8F081502080F31188BFF3B1
S31508004AE04F8FBFF36F8FFEE72A46EEE70023324665
S31508004AF069463846FFF7C0FCEBE700009400002043
S31508004B00A455000800000000000000000000000096
S31508004B10000000000002000018000000000000006D
S31508004B20000000000000000000000000010203046D
S31508004B300607080900000000010203040102020337
S31508004B400405060708090A0B0C0D0E0F10100000C5
S31508004B500000000000000000000000000000000047
S31508004B6000F80000000000000033300000000016C6
S31508004B700E00160E0000000000000000000040C0F5
S31508004B807840C0784000043F04043F0404000070E5
S31508004B9088FC08300000001820FF211E0000F008DD
S31508004BA0F000E018000000211C031E211E0000F082
S31508004BB00888700000001E212324192721100000F0
S31508004BC000160E00000000000000000000000000B3
S31508004BD000E0180402000000000718204000000248
S31508004BE00418E000000000402018070000004040BC
S31508004BF080F0804040000202010F0102020000001E
S31508004C0000F0000000000101011F01010100000081
S31508004C1000000000000000B0700000000000000066
S31508004C20000000000000000101010101010100006F
S31508004C300000000000000030300000000000000006
S31508004C40000080601804006018060100000000E0FB
S31508004C5010080810E000000F102020100F000010A8
S31508004C6010F8000000000020203F202000000070FF
S31508004C7008080888700000302824222130000030F7
S31508004C800888884830000018202020110E000000EF
S31508004C90C02010F8000000070424243F240000F870
S31508004CA00888880808000019212020110E0000E055
S31508004CB0108888180000000F112020110E000038F7
S31508004CC00808C83808000000003F0000000000700F
S31508004CD0880808887000001C222121221C0000E098
S31508004CE010080810E0000000312222110F00000011
S31508004CF000C0C000000000000030300000000000C6
S31508004D0000C0C0000000000080B070000000000075
S31508004D1080402010080000010204081020004040CE
S31508004D204040404040000404040404040400000811
S31508004D3010204080000000201008040201000070C6
S31508004D4048080808F0000000003036010000C030AE
S31508004D50C828E810E0000718272423140B000000D1
S31508004D60C038E0000000203C23020227382008F85B
S31508004D70888888700000203F202020110E00C0304F
S31508004D80080808083800071820202010080008F826
S31508004D9008080810E000203F202020100F0008F81F
S31508004DA08888E8081000203F20202320180008F8EB
S31508004DB08888E8081000203F200003000000C03063
S31508004DC008080838000007182020221E020008F8E4
S31508004DD008000008F808203F210101213F200008AB
S31508004DE008F8080800000020203F202000000000E6
S31508004DF00808F8080800C08080807F00000008F8CE
S31508004E0088C028180800203F20012638200008F806
S31508004E10080000000000203F20202020300008F86D
S31508004E20F800F8F80800203F003F003F200008F887
S31508004E3030C00008F808203F200007183F00E0109F
S31508004E4008080810E0000F10202020100F0008F8AE
S31508004E5008080808F000203F210101010000E010C1
S31508004E6008080810E0000F18242438504F0008F8E6
S31508004E70888888887000203F2000030C3020007046
S31508004E808808080838000038202121221C00180844
S31508004E9008F8080818000000203F2000000008F85D
S31508004EA008000008F808001F202020201F000878A6
S31508004EB0880000C83808000007380E010000F80806
S31508004EC000F80008F800033C0700073C0300081830
S31508004ED068808068180820302C03032C3020083896
S31508004EE0C800C83808000000203F2000000010084D
S31508004EF00808C83808002038262120201800000095
S31508004F0000FE020202000000007F40404000000C44
S31508004F1030C000000000000000010638C000000292
S31508004F200202FE000000004040407F000000002012
S31508004F30100804081020000000000000000000000F
S31508004F400000000000008080808080808080000251
S31508004F500408000000000000000000000000000037
S31508004F608080808000000019242222223F2008F831
S31508004F70008080000000003F112020110E00000074
S31508004F80008080800000000E112020201100000003
S31508004F9000808088F800000E112020103F200000B5
S31508004FA0808080800000001F2222222213000080B9
S31508004FB080F0888888180020203F20200000000004
S31508004FC0808080808000006B94949493600008F839
S31508004FD0008080800000203F210000203F200080C4
S31508004FE09898000000000020203F202000000000C4
S31508004FF000809898000000C08080807F000008F834
S31508005000000080808000203F24022D302000000808
S3150800501008F8000000000020203F202000008080C3
S31508005020808080808000203F20003F20003F008055
S3150800503080008080000000203F2100203F200000E3
S31508005040808080800000001F202020201F00808094
S3150800505000808000000080FFA12020110E000000C3
S31508005060008080808000000E112020A0FF808080B4
S3150800507080008080800020203F2120000100000061
S315080050808080808080000033242424241900008036
S3150800509080E0808000000000001F20200000808043
S315080050A0000000808000001F202020103F20808004
S315080050B080000080808000010E3008060100808094
S315080050C00080008080800F300C030C300F000080B9
S315080050D08000808080000020312E0E3120008080E4
S315080050E080000080808080818E7018060100008014
S315080050F08080808080000021302C22213000000032
S315080051000000807C020200000000003F40400000D2
S315080051100000FF00000000000000FF000000000281
S31508005120027C800000000040403F00000000008034
S3150800513040408000008000000000000101000000DF
S31508005140000000000000002F000000000700070014
S3150800515000147F147F1400242A7F2A1200231308C0
S31508005160646200364955225000000007000000001E
S315080051701C224100000041221C000014083E0814AD
S315080051800008083E0808000000A06000000808089B
S315080051900808000060600000002010080402003EB5
S315080051A05149453E0000427F400000426151494650
S315080051B0002141454B31001814127F100027454540
S315080051C04539003C4A494930000171090503003652
S315080051D04949493600064949291E00003636000065
S315080051E0000056360000000814224100001414146A
S315080051F01414000041221408000201510906003E59
S315080052004955592E007C1211127C007F49494936AE
S31508005210003E41414122007F4141221C007F49490D
S315080052204941007F09090901003E4149497A007F41
S315080052300808087F0000417F4100002040413F01E7
S31508005240007F08142241007F40404040007F020C46
S31508005250027F007F0408107F003E4141413E007FE7
S3150800526009090906003E4151215E007F09192946B0
S315080052700046494949310001017F0101003F40408C
S31508005280403F001F2040201F003F4038403F00633A
S31508005290140814630007087008070061514945435C
S315080052A000007F414100000204081020000041412F
S315080052B07F00000402010204004040404040000014
S315080052C001020400002054545478007F48444438AE
S315080052D000384444442000384444487F0038545435
S315080052E0541800087E0901020018A4A4A47C007FB3
S315080052F0080404780000447D4000004080847D0056
S31508005300007F102844000000417F4000007C0418FC
S315080053100478007C0804047800384444443800FCC7
S31508005320242424180018242418FC007C08040408E3
S3150800533000485454542000043F444020003C404058
S31508005340207C001C2040201C003C4030403C00448F
S3150800535028102844001CA0A0A07C004464544C4497
S315080053600000087F41000000007F00000000417F28
S315080053700800000804081008EFBC8C0000000000B4
S3150800538000000000000000000000000000000058B7
S3150800539038000000000000000000000000E38082E2
S315080053A000000000000000000000000000000000EF
S315080053B00000000018242418000000000000000067
S315080053C00000E4BDA00000008060F8074020180F28
S315080053D008C80808281800010000FF00100C034040
S315080053E0807F0001061800E5A5BD00001010F01F1B
S315080053F010F000808282E2928A8680004022150898
S315080054001661000040807F0000000000E4B89600A6
S3150800541000202020FE2020FF202020FF2020202002
S31508005420000000007F404047444444474040400055
S3150800543000E7958C0000000000FE929292FE929280
S3150800544092FE0000000008080484621E010001FEA6
S31508005450020404080800E8BDA600000008884828D9
S31508005460180FE808080808080800000808090909C4
S315080054700909FF0909090909080800E7AA970000A8
S31508005480100CC4544C64D54644444C54C4140C0003
S315080054900000FF404462554955434040FF00000064
S315080054A0E997A8000000F8010600000202020202BD
S315080054B00202FE000000FF000000000000000000DD
S315080054C040807F0000E781AF0000807000FF201059
S315080054D004040404FC04040404008060180708306B
S315080054E0000040807F0000000000E5BC80000080CE
S315080054F0828282FE8282828282FE8282828000008C
S315080055008040300F0000000000FF0000000000E5AA
