:020000040800F2
:10C00000A03C0020DDC10008CD0701084FFE00085C
:10C01000C907010885C80008AD1801080000000024
:10C0200000000000000000000000000045C1000802
:10C03000C9C900080000000089C1000855110108A5
:10C04000F7C10008F7C10008F7C10008F7C10008F0
:10C05000F7C10008F7C10008F7C10008F7C10008E0
:10C06000F7C10008F7C10008F7C10008F7C10008D0
:10C07000F7C100088DC90008F7C10008F7C1000822
:10C08000F7C10008F7C10008F7C10008F7C10008B0
:10C090009D18010889C80008F7C10008F7C1000809
:10C0A000F7C10008F7C10008F7C10008F7C1000890
:10C0B000F7C10008F7C10008D5110108F7C1000851
:10C0C000F7C10008F7C10008F7C10008F7C1000870
:10C0D000F7C100086D1801087D1801088D180108C6
:10C0E000F7C10008F7C10008F7C10008F7C1000850
:10C0F000F7C10008F7C10008F7C10008F7C1000840
:10C10000F7C10008F7C10008F7C10008F7C100082F
:10C11000F7C10008F7C10008F7C10008F7C100081F
:10C12000F7C10008F7C10008F7C10008F7C100080F
:10C13000DFF80CD000F03EFB004800477D250108E9
:10C14000A03C0020224B19680868B0E8F00F80F38B
:10C150000988BFF36F8F4FF0000080F311884EF015
:10C160000D0E70470000000006480068006880F36C
:10C17000088862B661B6BFF34F8FBFF36F8F00DFE1
:10C1800000BF00BF08ED00E0EFF30980BFF36F8F41
:10C190000F4B1A6820E9F00F106008B54FF05000FF
:10C1A00080F31188BFF34F8FBFF36F8F07F0F8FE56
:10C1B0004FF0000080F31188BDE808401968086856
:10C1C000B0E8F00F80F30988BFF36F8F704700BFAE
:10C1D0004C000020EFF305807047000006488047C0
:10C1E00006480047FEE7FEE7FEE7FEE7FEE7FEE75C
:10C1F000FEE7FEE7FEE7FEE7D111010831C10008C6
:10C20000202A04DB203A21FA02F00021704721FAAB
:10C2100002F3D040C2F12002914008431946704712
:10C2200040EA01039B0703D009E008C9121F08C0B8
:10C23000042AFAD203E011F8013B00F8013B521E38
:10C24000F9D27047D2B201E000F8012B491EFBD2AF
:10C2500070470022F6E710B513460A460446194611
:10C26000FFF7F0FF204610BD30B505462A460B46C5
:10C2700012F8010B13F8014B08B1A042F8D01CB121
:10C28000002802D06D1CF1E7284630BD421C10F892
:10C29000011B0029FBD1801A704710B5002200E075
:10C2A000521C835C8C5CA34201D1002BF8D1D8B224
:10C2B000E1B2401A10BD2DE9FE4F804681EA03002D
:10C2C000C00F0C46009021F0004123F00045B8EB70
:10C2D0000200A94105D24046214690461C460B4625
:10C2E000024623F00040104347D0270DC7F30A0051
:10C2F000C3F30A510290401A019040286BDAC3F34D
:10C30000130040F4801B0098924620B10023D2EB2A
:10C31000030A63EB0B0B01985946C0F140025046EB
:10C3200000F0B1F906460D4650465946019A00F014
:10C33000B9F910EB08006141002487EA115284EA40
:10C34000E7731A4340D0009A62B3019A012A4FEA78
:10C35000075215DC001B61EB02014FF0004202EABC
:10C360000752CDE90042001C41F5801132462B46B0
:10C3700000F0B9F903B0BDE8F08F40462146F9E777
:10C38000001B61EB0201001C41F5801300185B41AA
:10C390002018A2F5001747EB030140EAD570B61943
:10C3A0006D4111E06D084FEA360645EAC0754FEA67
:10C3B0000752001B61EB0201001C41F58011490886
:10C3C0004FEA30000019514132462B4603B0BDE818
:10C3D000F04F00F079B90098012240000023D0EB23
:10C3E000020263EBE073009821464FEAE074B8EB79
:10C3F000000061EB0401E9E783F000435BE781F0B3
:10C40000004158E72DE9FE4F81EA030404F000449F
:10C4100021F0004100944FF0000B23F0004350EA5C
:10C4200001045ED052EA03045BD0C3F30A54C1F3A3
:10C430000A552C44A4F2F3340194A0FB0254C1F336
:10C44000130141F48011C3F3130343F4801301FB80
:10C45000024400FB034E840A970A44EA815447EAE7
:10C460008357A4FB076802958D0A05FB07854FEAF1
:10C47000932C04FB0C542705029D4FEA065847EA0B
:10C480001637B5EB08056EEB070C870E920E47EAE0
:10C49000811742EA8312A7FB0201B6EB0B0164EBA2
:10C4A00000042B0D43EA0C335E1844EB1C50DA46B3
:10C4B0005146E7FB0201C5F313044FEA0B3343EA8D
:10C4C00014534FEA0432019C43EA0603A4F10C041E
:10C4D0000294009CCDE900B400F005F903B0BDE87A
:10C4E000F08F00200146F9E72DE9F04D81EA0304C1
:10C4F00004F0004B21F0004514464FF0000A23F0F1
:10C50000004150EA050220D054EA01021DD0C5F3D3
:10C510000A570246C5F31303C1F31300C1F30A56C9
:10C5200040F4801543F48013A7EB0608101BD64691
:10C5300008F2FD3873EB050002D308F1010801E0B1
:10C5400092185B41B8F1000F03DA00200146BDE804
:10C55000F08D00204FF48011064684460EE0171B34
:10C5600073EB050705D3121B63EB050306434CEA87
:10C57000010C49084FEA300092185B4150EA01076C
:10C58000EDD152EA030012D082EA040083EA0501E9
:10C59000084305D0101BAB4106D20122002306E060
:10C5A00000224FF0004302E06FF0010253101AEB3B
:10C5B00006004CEB085110EB0A0041EB0B01BDE803
:10C5C000F04D00F081B8000030B5041E71F1000498
:10C5D00004DB4FF00044404264EB0101141E73F190
:10C5E000000405DB1C464FF00043524263EB04039A
:10C5F000994208BF904230BD30B50B46014600203D
:10C600002022012409E021FA02F59D4205D303FA14
:10C6100002F5491B04FA02F52844151EA2F1010295
:10C62000F1DC30BD2DE9F05F0546002092469B46C7
:10C6300088460646814640241BE028464146474638
:10C640002246FFF7DDFD53465A46C01A914110D3EA
:10C6500011461846224600F016F82D1A67EB01081D
:10C660004F4622460120002100F00DF817EB00098B
:10C670004E41201EA4F10104DFDC484631462A4623
:10C680004346BDE8F09F202A04DB203A00FA02F17D
:10C69000002070479140C2F1200320FA03F31943B0
:10C6A00090407047202A06DBCB17203A41FA02F06F
:10C6B00043EAE07306E041FA02F3D040C2F12002FF
:10C6C000914008431946704710B5141E73F10004D9
:10C6D00008DA401C41F1000192185B411A4301D174
:10C6E00020F0010010BD2DE9F04D92469B4611B19E
:10C6F000B1FA81F202E0B0FA80F220329046FFF700
:10C70000C2FF04460F4640EA0A0041EA0B015346C5
:10C710005A46084313D0114653EA010019D0C8F114
:10C7200040025046FFF76CFD05460E4650465946FE
:10C730004246FFF7A8FF084305D0012004E0204649
:10C740003946BDE8F08D0020054346EAE0762C43EB
:10C7500037430A986305E40AA0EB08000022FD0AAB
:10C7600044EA47540A3002D500200146E9E70105B2
:10C7700010196941DDE9084500196941BDE8F04D2E
:10C78000A2E7C1F30A52C1F3130140F2FF3341F4AF
:10C7900080119A4202DA00200146704740F233438A
:10C7A0009A42A2F2334202DC5242FFF729BDFFF760
:10C7B0006ABF0000064C074D06E0E06840F0010348
:10C7C00094E8070098471034AC42F6D3FFF7B4FC66
:10C7D000B45C0108D45C010810B5012007F02EFDFF
:10C7E00009490860094806F03DF9084806F04AF989
:10C7F000074806F037F9064806F044F9054A802153
:10C80000054805F037FD10BDD4000020CC00002005
:10C81000D00000209C3500208C35002010B505F09C
:10C8200003FD01200149087010BD0000E400002054
:10C8300010B51248007806281CD2DFE800F0030487
:10C84000070A0D1017E005F02BFE14E005F0D6FDE9
:10C8500011E005F04FFD0EE005F034FD0BE001F0B6
:10C8600079FB07490968401AB0F57A7F01D301F0D6
:10C8700057FE00E000BF00BF10BD0000E400002034
:10C880000801002000BFFEE710B5024800F0D9FA09
:10C8900010BD00001001002000B58BB000200590F5
:10C8A00006900790012008904CF6C04001900020AF
:10C8B00002904FF6E0700390002004900120099050
:10C8C00001A90B4800F03EF9022006904AF6A0208C
:10C8D0000190002002904FF6E07003900020049039
:10C8E0000120099001A9024800F02CF90BB000BD0D
:10C8F0001001002070B588B005460E460021114891
:10C9000000F0A6F93070002416E004EB440005EBBB
:10C910008000831C01AA00210A4800F0ADF904EB55
:10C920004401019825F8210004EB440105EB810145
:10C9300005988872601CC4B23078A042E5DC08B06B
:10C9400070BD00001001002070B588B004460D468F
:10C95000164600BF0C4800F059FA0028FAD002949D
:10C96000002004900590069601AB2A4602A90648CD
:10C9700000F043F800BF044800688068C0F340003E
:10C980000028F8D008B070BD1001002010B5024892
:10C9900000F0BCFE10BD0000EC04002030B590F8A3
:10C9A00040500124AC40C56B6C600468636044680F
:10C9B000102C04D10468A2600468E16003E00468FC
:10C9C000A1600468E26030BD704772B600BFFEE748
:10C9D00010B5024692F82030012B01D0022B06D16F
:10C9E00010684069084314686061002010BD506AF7
:10C9F00040F4802050620120F8E7F0B504460D466F
:10CA00001E4694F8207020688368A86800B900E08A
:10CA100000BF012F01D0022F7DD103F0806030B91B
:10CA200003F0006018B903F0805000287ED0C3F3F3
:10CA30000161012088403060A86860B9B5F800C085
:10CA4000E86840EA4C5C206800F5C07000EB01101B
:10CA5000C0F800C00FE0D5E901C040EACC00D5F82D
:10CA60000CC040EA0C00D4F800C00CF5C07C0CEB04
:10CA7000011CCCF80000D5F810C0206800F5C0708B
:10CA800000EB0110C0F804C0287D01280ED12068F9
:10CA900000F5C07000EB0110406840F4807C206815
:10CAA00000F5C07000EB0110C0F804C0D07900069A
:10CAB00092F806C040EA0C4092F805C040EA0C200B
:10CAC00092F804C040EA0C00D4F800C00CF5C07C19
:10CAD0000CEB011CCCF80C00D078000692F802C0D8
:10CAE00040EA0C4092F801C040EA0C2092F800C0E5
:10CAF00040EA0C00D4F800C00CF5C07C0CEB011C23
:10CB0000CCF80800206800F5C07000EB0110006848
:10CB100040F0010C01E00FE008E0206800F5C07073
:10CB200000EB0110C0F800C00020F0BD606A40F4C6
:10CB3000001060620120F8E7606A40F480206062C3
:10CB40000120F2E7F0B504460A46216894F8205027
:10CB5000012D01D0022D74D1D1F8000240F0010066
:10CB6000C1F80002107D00F01F06012000FA06F354
:10CB7000D1F81C029843C1F81C02D069C8B9D1F899
:10CB80000C029843C1F80C02908880B2968940EA62
:10CB9000064601F51070576940F83760108880B27A
:10CBA000168940EA064601F51070576900EBC70088
:10CBB0004660D069012819D1D1F80C021843C1F898
:10CBC0000C02908880B2168840EA064601F5107083
:10CBD000576940F83760908980B2168940EA064666
:10CBE00001F51070576900EBC7004660906928B9DD
:10CBF000D1F804029843C1F8040204E0D1F8040219
:10CC00001843C1F80402106928B9D1F814029843F6
:10CC1000C1F8140204E0D1F814021843C1F8140258
:10CC2000106A012804D1D1F81C021843C1F81C0273
:10CC3000D1F8000220F00100C1F800020020F0BD90
:10CC4000FFE7606A40F4802060620120F7E77047E8
:10CC500010B50246002092F82030012B01D0022BA3
:10CC600009D121B91468E46804F0030003E01468F2
:10CC7000246904F0030010BD70B5044694F82050F8
:10CC8000012D01D0022D7DD151B92068C06800F07E
:10CC9000030080B9606A40F400106062012070BD3A
:10CCA0002068006900F0030028B9606A40F40010B1
:10CCB00060620120F3E7206800F5D87000EB0110F6
:10CCC000006800F004009060906840B9206800F5AA
:10CCD000D87000EB01100068400D106007E020687C
:10CCE00000F5D87000EB01100068C00850602068A3
:10CCF00000F5D87000EB0110006800F00200D06071
:10CD0000206800F5D87000EB0110406800F00F00BB
:10CD1000082802D30820106108E0206800F5D870C8
:10CD200000EB0110406800F00F001061206800F572
:10CD3000D87000EB0110406800F47F40000A906159
:10CD4000206800F5D87000EB01104068000C5061BD
:10CD5000206800F5D87000EB01108068187020681A
:10CD600000F5D87000EB0110806800F47F40000AE5
:10CD70005870206800F5D87000EB0110806800F44E
:10CD80007F0000E03CE0000C9870206800F5D8704F
:10CD900000EB01108068000ED870206800F5D87094
:10CDA00000EB0110C0681871206800F5D87000EB26
:10CDB0000110C06800F47F40000A5871206800F537
:10CDC000D87000EB0110C06800F47F00000C98716F
:10CDD000206800F5D87000EB0110C068000ED87113
:10CDE00031B92068C06840F020002668F06005E096
:10CDF0002068006940F020002668306100204EE77E
:10CE0000606A40F480206062012048E7014600200B
:10CE100091F82020012A01D0022A11D10B689B68C9
:10CE200003F0806303B1401C0B689B6803F0006350
:10CE300003B1401C0B689B6803F0805303B1401C96
:10CE400070472DE9F05F0446002520684669206898
:10CE5000D0F80490206887682068D0F80CA020687B
:10CE6000D0F810B02068D0F8188006F00100002833
:10CE700055D007F00100C0B101202168886007F09B
:10CE8000020018B1204600F0FEFA0EE007F00400A0
:10CE900010B145F4006508E007F0080010B145F452
:10CEA000805502E0204600F0EDFA07F48070C8B12A
:10CEB0004FF480702168886007F4007018B1204634
:10CEC00000F0E3FA0EE007F4806010B145F400557D
:10CED00008E007F4006010B145F4804502E0204608
:10CEE00000F0D2FA07F48030C8B14FF480302168E6
:10CEF000886007F4003018B1204600F0C8FA0EE050
:10CF000007F4802010B145F4004508E007F4002044
:10CF100010B145F4803502E0204600F0B7FA06F083
:10CF2000080038B10AF0100020B145F40075102057
:10CF30002168C86006F0040040B10AF0080028B17A
:10CF400008202168C860204600F0B0F906F0020011
:10CF500038B12068C06800F0030010B1204600F02E
:10CF6000A7F906F0400038B10BF0100020B145F4ED
:10CF7000806510202168086106F0200040B10BF0A8
:10CF8000080028B1082021680861204600F0DCF97B
:10CF900006F0100038B12068006900F0030010B1FD
:10CFA000204600F0D3F906F4003040B109F010003B
:10CFB00028B1102021684860204600F033FA06F4BA
:10CFC000803040B109F0080028B10820216848608D
:10CFD000204600F05DFA06F4004088B309F0040032
:10CFE00078B306F4807020B108F0010008B145F074
:10CFF000010506F4007020B108F0020008B145F008
:10D00000020506F4806020B108F0040008B145F084
:10D01000040506F40060A0B108F0700088B108F0C3
:10D020007000402817D006DC10280BD020280CD028
:10D03000302819D10CE0502810D0602814D110E00D
:10D040001DE019E045F008050FE045F010050CE083
:10D0500045F0200509E045F0400506E045F0800573
:10D0600003E045F4807500E000BF00BF20688069E0
:10D0700020F07000216888610420216848602DB18B
:10D08000606A284360622046FFF7E1FDBDE8F09F3B
:10D0900070B504460CB9012070BD94F8200010B999
:10D0A000204600F0AFF82068006840F001002168D9
:10D0B000086000F04FFF05460DE000F04BFF401BFD
:10D0C0000A2808D9606A40F400306062052084F8BC
:10D0D00020000120E0E72068406800F001000028FF
:10D0E000EBD02068006820F002002168086000F0A2
:10D0F00031FF05460DE000F02DFF401B0A2808D93E
:10D10000606A40F400306062052084F8200001204D
:10D11000C2E72068406800F002000028EBD1207EC2
:10D12000012806D12068006840F08000216808606E
:10D1300005E02068006820F0800021680860607EBB
:10D14000012806D12068006840F04000216808608E
:10D1500005E02068006820F0400021680860A07E9B
:10D16000012806D12068006840F02000216808608E
:10D1700005E02068006820F0200021680860E07E5B
:10D18000012806D12068006820F01000216808609E
:10D1900005E02068006840F0100021680860207FEA
:10D1A000012806D12068006840F008002168086066
:10D1B00005E02068006820F0080021680860607FB2
:10D1C000012806D12068006840F00400216808604A
:10D1D00005E02068006820F0040021680860D4E9B8
:10D1E0000201084321690843616908436168491ED7
:10D1F00008432168C86100206062012084F8200093
:10D20000002049E710B586B0044600200290039044
:10D21000049005902249206888423ED100BF2148F1
:10D22000C06940F000701F49C8610846C06900F03D
:10D230000070019000BF00BF00BF0846806940F049
:10D24000040088610846806900F00400019000BF76
:10D2500000BFC814029000200390049002A9124855
:10D2600000F0C8FC4FF4805002900220039003208D
:10D27000059002A90C4800F0BDFC002206211420F4
:10D2800001F0FCF8142001F0E9F800220621152035
:10D2900001F0F4F8152001F0E1F806B010BD00002F
:10D2A0000064004000100240000801407047000088
:10D2B00030B591B005460020049004A905A8FFF7F9
:10D2C00019FB002434E004EB440005A931F82000E8
:10D2D000ADF8040004EB440001EB8000807A8DF887
:10D2E000060004EB440001EB800050F8021FCDF86B
:10D2F00007104068CDF80B000020009000236A461C
:10D3000001A90E48006807F067F900236A4601A9E1
:10D310000B48006807F060F9009838B14FF0805072
:10D3200008490860BFF34F8FBFF36F8F601CC4B212
:10D330009DF810008442C6DB11B030BD1C000020F7
:10D340002000002004ED00E07047000030B589B0F7
:10D3500004466B4602AA01212046FFF78DFC2648B1
:10D360000078022832D1002028E01DF80030234A3E
:10D3700011884A1C214D2A80214A126853542149A0
:10D380000968491C1F4A116029460988FF2913DDD5
:10D390001B4909681C4A1160194909681B4A9142D6
:10D3A00001D11B4900E01949154A11600021134AB7
:10D3B00011800121174A1170411CC8B2069981429F
:10D3C000D3D800F0C7FD1449086013E00A4800787C
:10D3D00003280FD1002005E01DF800100F4A11545A
:10D3E000411CC8B20699814201D90428F4DB01200E
:10D3F0000B49087009B030BDE4000020F0000020A7
:10D40000E8000020F4000020EC0000209C36002002
:10D410009C37002000010020FC00002002010020B9
:10D4200001010020704770B5044694F820000128DF
:10D4300022D1022084F820002068006820F001003A
:10D440002168086000F086FD05460DE000F082FDD1
:10D45000401B0A2808D9606A40F400306062052049
:10D4600084F82000012070BD2068406800F00100B1
:10D470000028EBD16062F6E7606A40F40020606249
:10D480000120F0E77047704770477047704770475A
:10D49000704770B503460C46002002255D710021DF
:10D4A00004E054F821501E683560491C9142F8D3BD
:10D4B0001D68286801255D7170BD10B504460CB962
:10D4C000012010BD607920B900202071204600F0B5
:10D4D00005F8012060710020F3E7000008B5094A53
:10D4E000016891420DD100BF0749496941F04001EF
:10D4F000054A51611146496901F04001009100BFA0
:10D5000000BF08BD0030024000100240014600226A
:10D5100091F82100022808D00420886300BF002071
:10D5200081F8200000BF012070470868006820F0E3
:10D530000E000B6818600868006820F001000B6896
:10D54000186091F8403001209840CB6B5860012062
:10D5500081F8210000BF002081F8200000BF1046A4
:10D56000E2E7000070B50446002594F82100022887
:10D5700003D00420A0630125C1E02068006820F0EA
:10D580000E00216808602068006820F00100216812
:10D5900008605C492068884252D95A497839206825
:10D5A000884201D1012047E0564964392068884209
:10D5B00001D1102040E0534950392068884201D100
:10D5C000801539E04F493C392068884201D18014E8
:10D5D00032E04C4928392068884202D14FF480302B
:10D5E0002AE0484914392068884202D14FF480105B
:10D5F00022E044492068884201D140041CE04249AD
:10D600002068884201D1012016E03F49143120688A
:10D61000884201D110200FE03B4928312068884220
:10D6200001D1801508E038493C312068884201D199
:10D63000801401E04FF480303349091F086051E045
:10D64000304978392068884201D1012047E02D49CE
:10D6500064392068884201D1102040E029495039BE
:10D660002068884201D1801539E026493C3920687C
:10D67000884201D1801432E022492839206888424A
:10D6800002D14FF480302AE01E49143920688842C4
:10D6900002D14FF4801022E01A492068884201D15B
:10D6A00040041CE018492068884201D1012016E09E
:10D6B000154914312068884201D110200FE0124929
:10D6C00028312068884201D1801508E00E493C319C
:10D6D0002068884201D1801401E04FF4803009496C
:10D6E00080394860012084F8210000BF002084F8C0
:10D6F000200000BF606B10B12046616B8847284650
:10D7000070BD0000800002400804024070B504466D
:10D71000E06B05682068066894F840100420884093
:10D720002840002875D006F004000028FAD02068B0
:10D73000006800F0200028B92068006820F004008C
:10D7400021680860D5492068884254D9D34978397E
:10D750002068884201D1042049E0D049643920681A
:10D76000884201D1402042E0CC49503920688842AB
:10D7700001D100153BE0C9493C392068884202D1FB
:10D780004FF4804033E0C54928392068884202D1EF
:10D790004FF480202BE0C14914392068884202D11F
:10D7A0004FF4800023E0BD492068884201D1C004C5
:10D7B0001DE0BB492068884201D1042017E0B84928
:10D7C00014312068884201D1402010E0B44928314A
:10D7D0002068884201D1001509E0B1493C31206838
:10D7E000884202D14FF4804001E04FF48020AC49E0
:10D7F000091F086054E0A94978392068884201D19E
:10D8000004204AE0A54964392068884202D14020BA
:10D8100043E04CE0A14950392068884201D100150D
:10D820003BE09E493C392068884202D14FF4804059
:10D8300033E09A4928392068884202D14FF4802089
:10D840002BE0964914392068884202D14FF48000B9
:10D8500023E092492068884201D1C0041DE090492C
:10D860002068884201D1042017E08D4914312068D6
:10D87000884201D1402010E089492831206888423F
:10D8800001D1001509E086493C312068884202D167
:10D890004FF4804001E04FF4802080498039486097
:10D8A000E06A002802D02046E16A8847F4E094F854
:10D8B0004010022088402840002871D006F0020065
:10D8C0000028FAD02068006800F0200040B92068E5
:10D8D000006820F00A0021680860012084F8210017
:10D8E0006E492068884254D96C497839206888424A
:10D8F00001D1022049E0694964392068884201D198
:10D90000202042E0654950392068884201D1401505
:10D910003BE062493C392068884202D14FF4005014
:10D9200033E05E4928392068884202D14FF4003044
:10D930002BE05A4914392068884202D14FF4001074
:10D9400023E056492068884201D180041DE05449F3
:10D950002068884201D1022017E051491431206823
:10D96000884201D1202010E04D49283120688842AA
:10D9700001D1401509E04A493C312068884202D172
:10D980004FF4005001E04FF400304549091F086092
:10D9900054E0424978392068884202D102204AE0A6
:10D9A00057E03E4964392068884201D1202042E096
:10D9B0003A4950392068884201D140153BE0374947
:10D9C0003C392068884202D14FF4005033E033499B
:10D9D00028392068884202D14FF400302BE02F49CB
:10D9E00014392068884202D14FF4001023E02B49FB
:10D9F0002068884201D180041DE0294920688842BE
:10DA000001D1022017E0264914312068884201D153
:10DA1000202010E0224928312068884201D1401599
:10DA200009E01F493C312068884202D14FF4005080
:10DA300001E04FF4003019498039486000BF0020F0
:10DA400084F8200000BFA06A30B32046A16A88474E
:10DA500022E094F84010082088402840E0B106F009
:10DA60000800C8B12068006820F00E002168086036
:10DA700094F8401001208840E16B48600120A063C9
:10DA800084F8210000BF002084F8200000BF206B34
:10DA900010B12046216B884770BD00008000024015
:10DAA000080402400146002209B9012070471E4BBC
:10DAB000086898420BD21D4B0868C01A1423B0FBAB
:10DAC000F3F08000086419480838C8630AE0164B70
:10DAD0000868C01A1423B0FBF3F0800008641248F1
:10DAE0000838C863022081F821000868026843F6FC
:10DAF000F0708243D1E901031843CB6818430B69E6
:10DB000018434B6918438B691843CB691843024388
:10DB10000868026000208863012081F8210000204D
:10DB200081F8200000BFC1E708040240080002405D
:10DB30002DE9F04104460D4616461F464FF00008F9
:10DB400000BF94F82000012802D10220BDE8F08136
:10DB5000012084F8200000BF94F8210001282CD176
:10DB6000022084F821000020A0632068006820F0D3
:10DB70000100216808603B46324629462046FEF7F0
:10DB80000DFFE06A30B12068006840F00E002168A7
:10DB900008600BE02068006820F00400216808603D
:10DBA0002068006840F00A0021680860206800686A
:10DBB00040F001002168086006E000BF002084F802
:10DBC000200000BF4FF002084046BFE770B5044692
:10DBD00000F0C0F906462546681C10B104480078DC
:10DBE000054400BF00F0B6F9801BA842FAD370BD0F
:10DBF000440000202DE9F847024600239C467BE1C3
:10DC00004FF0010808FA03F4D1F8008008EA040094
:10DC1000A0427DD1DFF8F4A2D1F80480A8EB0A0974
:10DC2000D0453AD014DCB8F1030F50D009DCB8F17C
:10DC3000000F31D0B8F1010F1CD0B8F1020F49D15B
:10DC400020E0B8F1110F18D0B8F1120F42D11EE048
:10DC5000B9F5881F25D006DCB9F5803F20D0B9F58D
:10DC6000801F37D11AE0B9F5001F18D0B9F5041F8D
:10DC700030D117E0D1F80CC02DE0D1F80C8008F1BC
:10DC8000040C28E0D1F80C8008F1080C23E0D1F84E
:10DC90000C8008F10C0C1EE000BF00BF00BF00BFED
:10DCA00000BF00BFD1F80880B8F1000F02D14FF0DB
:10DCB000040C0BE0D1F80880B8F1010F03D14FF04C
:10DCC000080C146102E04FF0080C546103E04FF0BF
:10DCD000000C00E000BF00BFFF2801D8904601E023
:10DCE00002F104084646FF2802D84FEA830803E001
:10DCF000A3F108084FEA88084746D6F800804FF09D
:10DD00000F0909FA07F928EA09080CFA07F900E0EF
:10DD10007AE048EA0908C6F80080D1F8048008F0E3
:10DD20008058B8F1805F6FD100BFDFF8E481D8F888
:10DD3000188048F00108DFF8D891C9F81880C84663
:10DD4000D8F8188008F00108CDF8008000BF00BFA7
:10DD50004FEAB9384FEA930958F829504FEA8378C7
:10DD60004FEA18794FF00F0808FA09F825EA080574
:10DD7000DFF8A081424502D14FF0000824E0DFF82F
:10DD80009881424502D14FF001081DE0DFF88C81F7
:10DD9000424502D14FF0020816E0DFF88481424587
:10DDA00002D14FF003080FE0DFF87881424502D13D
:10DDB0004FF0040808E0DFF87081424502D14FF0CF
:10DDC000050801E04FF006084FEA83794FEA197918
:10DDD00008FA09F848EA0505DFF850814FEA930987
:10DDE00048F82950D1F8048008F48018B8F5801F4D
:10DDF0000BD1DFF83C81D8F8008048EA0008DFF852
:10DE00003091C9F800800AE075E0DFF82481D8F885
:10DE1000008028EA0008DFF81891C9F80080D1F8DE
:10DE2000048008F40018B8F5001F0ED1DFF8008157
:10DE300008F10408D8F8008048EA0008DFF8F090FC
:10DE400009F10409C9F800800DE0DFF8E48008F169
:10DE50000408D8F8008028EA0008DFF8D49009F117
:10DE60000409C9F80080D1F8048008F40038B8F536
:10DE7000003F0ED1DFF8B880A8F10408D8F8008080
:10DE800048EA0008DFF8A890A9F10409C9F8008061
:10DE90000DE0DFF89C80A8F10408D8F8008028EA9B
:10DEA0000008DFF88C90A9F10409C9F80080D1F8C6
:10DEB000048008F48038B8F5803F0ED1DFF8708018
:10DEC000A8F10808D8F8008048EA0008DFF8609058
:10DED000A9F10809C9F800800DE0DFF85480A8F125
:10DEE0000808D8F8008028EA0008DFF84490A9F173
:10DEF0000809C9F800805B1CD1F8008028FA03F8F3
:10DF0000B8F1000F7FF47CAEBDE8F8870000111077
:10DF10000010024000080140000C014000100140C8
:10DF20000014014000180140001C0140080001409D
:10DF30000804014010B5C26821EA020302EA0104A4
:10DF400043EA0443036110BD0AB1016101E00B041F
:10DF50000361704701480068704700003C000020E2
:10DF600070B504460CB9012070BD94F83D0028B985
:10DF7000002084F83C00204600F08CF9242084F82E
:10DF80003D002068006820F00100216808602068DA
:10DF9000006840F40040216808602068006820F4B0
:10DFA00000402168086000F0CBFB05465C496068D2
:10DFB000884206D85B48854201D2012007E0002054
:10DFC00005E05948854201D2012000E000200128E7
:10DFD00000D1C9E75548B5FBF0F62068406820F04D
:10DFE0003F003043216848604D496068884201D84D
:10DFF000701C07E04FF4967070434FF47A71B0FBD9
:10E00000F1F0401C2168096A21F03F0108432168B2
:10E01000086243496068884214D8681E61684900F4
:10E02000B0FBF1F0401CC0F30B00042801D2042027
:10E030003DE0681E61684900B0FBF1F0401CC0F390
:10E040000B0034E0A06838B9681E616801EB41013B
:10E05000B0FBF1F0401C0AE0681E616801EBC102F0
:10E0600002EB0111B0FBF1F0401C40F48040C0F322
:10E070000B0008B901201AE0A06848B9681E616861
:10E0800001EB4101B0FBF1F0401CC0F30B000CE0D0
:10E09000681E616801EBC10202EB0111B0FBF1F0F7
:10E0A000401CC0F30B0040F4804040F40040216865
:10E0B000C9694CF6FF72914308432168C861D4E9ED
:10E0C000070108432168096821F0C001084321685D
:10E0D0000860D4E9031008432168896848F2FF32D8
:10E0E0009143084321688860D4E905010843216809
:10E0F000C96821F0FF0108432168C86020680068F2
:10E1000040F001002168086000202064202084F88D
:10E110003D000020206384F83E0000BF24E700009B
:10E12000A086010080841E0000093D0040420F00CF
:10E130002DE9FC5F04460F4690469946DDE90CAB9D
:10E140000E9EFFF707FF054694F83D0020287DD17D
:10E15000192301224D492046009501F03CFF10B1E2
:10E160000220BDE8FC9F00BF94F83C00012801D1CB
:10E170000220F6E7012084F83C0000BF2068006818
:10E1800000F0010028B92068006840F00100216813
:10E1900008602068006820F4006021680860212081
:10E1A00084F83D00402084F83E0000202064C4F83C
:10E1B00024A0A4F82AB0608D20853548E0624B4643
:10E1C000424639462046CDE9006501F061FE08B1BE
:10E1D0000120C6E731E02A463146204601F0D7FF4C
:10E1E00050B1206C042805D12068006840F400700C
:10E1F000216808600120B4E7606A0078216808613E
:10E20000606A401C6062208D401E2085608D401E2B
:10E21000608520684069C0F3800070B1208D60B1D6
:10E22000606A007821680861606A401C6062208D25
:10E23000401E2085608D401E6085208D0028CAD13B
:10E240002A463146204601F093FE00E01CE050B122
:10E25000206C042805D12068006840F40070216813
:10E26000086001207DE72068006840F400702168A4
:10E270000860202084F83D00002084F83E0000BFA4
:10E2800084F83C0000BF6CE702206AE7020010003F
:10E290000000FFFF10B586B00446002002900390F6
:10E2A0000490059015492068884225D100BF144884
:10E2B000806940F00800124988610846806900F0D2
:10E2C0000800019000BF00BFC02002901220039000
:10E2D0000320059002A90B48FFF78CFC00BF0848FB
:10E2E000C06940F400100649C8610846C06900F4DE
:10E2F0000010019000BF00BF06B010BD00540040E8
:10E3000000100240000C01400348006803490978EE
:10E3100008440149086070473C0000204400002088
:10E3200010B50848006840F0100006490860032056
:10E3300000F0E2F80F2000F007F800F05FF800208E
:10E3400010BD0000002002402DE9F04188B00446D5
:10E350000027B846002600BF2348C06940F00400EB
:10E360002149C8610846C06900F00400019000BF5F
:10E3700000BF02A903A800F0BBF9069F1FB900F077
:10E38000DFF9054602E000F0DBF945001748B5FB70
:10E39000F0F0A0F1010816481649086040F2E73194
:10E3A0001448C160C0F8048000210161816081616E
:10E3B00000F0BAFF064696B90E4800F0E9FF06469F
:10E3C0006EB91E2000F04AF8102C07D20022214618
:10E3D0001E2000F053F80848046000E00126304693
:10E3E00008B0BDE8F08100000010024040420F007C
:10E3F00000080040300500204000002008B500BFA4
:10E400001448806940F0010012498861084680691B
:10E4100000F00100009000BF00BF00BF0846C069C7
:10E4200040F08050C8610846C06900F080500090FC
:10E4300000BF00BF00220F21901E00F01FF800BF98
:10E440000549486820F0E06040F00070486000BF77
:10E4500008BD0000001002400000014001460846CF
:10E46000002809DB00F01F0301229A4043099B00AA
:10E4700003F1E023C3F8002100BF70472DE9F05FEE
:10E4800080460D461646002703F034FA0746394603
:10E490002A46334601F00700C0F1070ABAF1040F1B
:10E4A00002D94FF0040A01E0C0F1070AD14600F199
:10E4B000040ABAF1070F02D24FF0000A01E0A0F1FE
:10E4C000030AD4464FF0010A0AFA09FAAAF1010A2E
:10E4D0000AEA020A0AFA0CFA4FF0010B0BFA0CFBDB
:10E4E000ABF1010B0BEA030B4AEA0B042146404651
:10E4F00003F008FABDE8F09F00BF00F00702064BEA
:10E5000019684FF6FF031940044B0B4343EA0221FD
:10E51000014B196000BF70470CED00E00000FA05E8
:10E5200000BF00BF00BF00BF00BFBFF34F8F00BFE1
:10E5300000BF00BF0948006800F4E06008490843D4
:10E54000001D0649086000BF00BF00BFBFF34F8F2A
:10E5500000BF00BF00BF00BF00BFFDE70CED00E043
:10E560000000FA0570B504460D460CB9012070BDD7
:10E570005A48006800F00700A8420ED257480068C9
:10E5800020F007002843554908600846006800F05D
:10E590000700A84201D00120E9E7207800F002003E
:10E5A00002281DD1207800F00400042805D14C4831
:10E5B000406840F4E0604A494860207800F0080074
:10E5C000082805D14648406840F4605044494860F6
:10E5D0004348406820F0F000A16808434049486083
:10E5E000207800F0010078B36068012806D13C482B
:10E5F000006800F4003090B90120B8E76068022894
:10E6000006D13748006800F0007040B90120AEE73D
:10E610003348006800F0020008B90120A7E730483D
:10E62000406820F00300616808432D494860FFF707
:10E6300091FC064609E0FFF78DFC801B41F2883112
:10E64000884202D9032092E707E02548406800F09D
:10E650000C006168B0EB810FEDD12048006800F03C
:10E660000700A8420ED91D48006820F00700284383
:10E670001A4908600846006800F00700A84201D067
:10E68000012074E7207800F00400042807D1144822
:10E69000406820F4E060E168084311494860207850
:10E6A00000F00800082808D10D48406820F46050A8
:10E6B000216940EAC1000A49486000F061F8084950
:10E6C0004968C1F30311074A515CC8400649086014
:10E6D00006480068FFF738FE002048E700200240A7
:10E6E000001002401852010848000020400000209D
:10E6F0000F2202600D4A526802F0030242600B4A88
:10E70000526802F0F0028260084A526802F4E06245
:10E71000C260064A526802F46052D2080261044A9A
:10E72000126802F007020A60704700000010024001
:10E7300000200240014800687047000048000020A7
:10E7400000B5FFF7F7FF04494968C1F30221034A06
:10E75000515CC84000BD0000001002402852010872
:10E7600000B5FFF7E7FF04494968C1F3C221034A36
:10E77000515CC84000BD0000001002402852010852
:10E7800070B500210022002400230020134D696889
:10E7900001F00C05F5B1042D02D0082D19D101E0CE
:10E7A0000F4819E00F4DC1F38346AB5D01F480358E
:10E7B00055B10A4D6D68C5F340450B4E725D084D6D
:10E7C0005D43B5FBF2F402E0084D03FB05F420467F
:10E7D00002E000BF024800BF00BF70BD0010024051
:10E7E00000127A00065201081652010800093D0085
:10E7F000F8B504460CB90120F8BD207800F00100FE
:10E80000002878D0F848406800F00C0004280CD0AC
:10E81000F548406800F00C00082811D1F248406823
:10E8200000F48030B0F5803F0AD1EF48006800F472
:10E83000003000285FD0606800285CD10120DBE751
:10E8400000BF6068B0F5803F06D1E748006840F43B
:10E850008030E549086028E0606858B9E2480068FF
:10E8600020F48030E04908600846006820F48020E9
:10E8700008601AE06068B0F5A02F0BD1DA48006894
:10E8800040F48020D84908600846006840F4803091
:10E8900008600AE0D448006820F48030D24908605B
:10E8A0000846006820F48020086000BF606888B1D6
:10E8B000FFF750FB054606E0FFF74CFB401B6428C2
:10E8C00001D9032098E7C848006800F40030002808
:10E8D000F2D010E0FFF73EFB054606E0FFF73AFBFB
:10E8E000401B642801D9032086E7BF48006800F474
:10E8F00000300028F2D1207800F00200022857D121
:10E90000B948406800F00C0050B1B748406800F0CA
:10E910000C00082818D1B448406800F4803098B939
:10E92000B148006800F0020020B12069012801D040
:10E93000012061E7AC48006820F0F800616940EA16
:10E94000C100A949086033E02069E8B10120A74966
:10E950000860FFF7FFFA054606E0FFF7FBFA401BE9
:10E96000022801D9032047E79F48006800F0020011
:10E970000028F2D09C48006820F0F800616940EA65
:10E98000C1009949086013E0002098490860FFF72A
:10E99000E1FA054606E0FFF7DDFA401B022801D93F
:10E9A000032029E79048006800F002000028F2D117
:10E9B000207800F0080008282DD1A069B8B1012006
:10E9C0008B490860FFF7C6FA054606E0FFF7C2FA72
:10E9D000401B022801D903200EE78348406A00F05B
:10E9E00002000028F2D0012002F02CFA13E00020EF
:10E9F0007F490860FFF7AEFA054606E0FFF7AAFA7E
:10EA0000401B022801D90320F6E67748406A00F04F
:10EA100002000028F2D1207800F00400042873D10D
:10EA200000277148C06900F0805070B900BF6E487F
:10EA3000C06940F080506C49C8610846C06900F068
:10EA40008050009000BF00BF01276A48006800F4B2
:10EA50008070B0B96748006840F48070654908600C
:10EA6000FFF778FA054606E0FFF774FA401B6428C2
:10EA700001D90320C0E65F48006800F480700028D8
:10EA8000F2D000BFE068012806D15748006A40F084
:10EA900001005549086227E0E06858B95248006A09
:10EAA00020F00100504908620846006A20F0040086
:10EAB000086219E0E06805280BD14B48006A40F075
:10EAC0000400494908620846006A40F001000862F3
:10EAD0000AE04548006A20F0010043490862084600
:10EAE000006A20F00400086200BFE068A0B1FFF7F0
:10EAF00031FA054609E0FFF72DFA401B41F2883153
:10EB0000884202D9032077E622E03748006A00F005
:10EB100002000028EFD012E0FFF71CFA054608E0DB
:10EB2000FFF718FA401B41F28831884201D90320CF
:10EB300062E62D48006A00F002000028F0D1012FA3
:10EB400005D12948C06920F080502749C86100BF1D
:10EB5000E069C8B32448406800F00C00082860D081
:10EB6000E069022848D1002020490866FFF7F2F941
:10EB7000054606E0FFF7EEF9401B022801D9032005
:10EB80003AE61948006800F000700028F2D1206AC7
:10EB9000B0F5803F07D11448406820F40030A168E8
:10EBA000084311494860D4E9080108430E494968FF
:10EBB00021F4741108430C49486001200B49086690
:10EBC000FFF7C8F9054607E03DE0FFF7C3F9401B32
:10EBD000022801D903200FE60348006800F0007006
:10EBE0000028F2D02FE00000001002400000424256
:10EBF0008004424200700040002014490866FFF77C
:10EC0000A9F9054606E0FFF7A5F9401B022801D93E
:10EC10000320F1E50E48006800F000700028F2D1F2
:10EC200011E0E069012800D1E6E50948466806F4EC
:10EC30008031206A814204D106F47011606A8142F9
:10EC400001D00120D8E50020D6E5000000004242B6
:10EC50000010024010B504460CB9012010BD606AD6
:10EC600038B96068B0F5827F00D105E00021E1612C
:10EC700002E00021216161610021A16294F851004C
:10EC800028B9002084F85000204600F043F8022004
:10EC900084F851002068006820F040002168086076
:10ECA000A08800F48270218901F404410843A189FD
:10ECB00001F400610843217C01F002010843217D39
:10ECC00001F001010843218B01F400710843217F09
:10ECD00001F0380108432021095D01F0800108435B
:10ECE000218D01F400510843216808600421A069C6
:10ECF00001EA1040216848602068C06920F4006083
:10ED00002168C86100206065012084F8510000205E
:10ED1000A4E7000010B586B00446002002900390DE
:10ED2000049005901A49206888422FD100BF1948E5
:10ED3000C06940F480401749C8610846C06900F4C2
:10ED40008040019000BF00BF00BF0846806940F0CE
:10ED5000080088610846806900F00800019000BF43
:10ED600000BF4FF420400290022003900320059042
:10ED700002A90948FEF73EFF4FF4804002900020B0
:10ED80000390049002A90448FEF734FF06B010BDBA
:10ED90000038004000100240000C01402DE9F8430B
:10EDA0000446884616461D4694F85100012802D0B4
:10EDB0000220BDE8F8836068B0F5827F0CD1A068BE
:10EDC00050B9042084F8510033464246414620465B
:10EDD000009500F083F9ECE7FFF7BCF80746B8F1BF
:10EDE000000F00D00EB90120E3E700BF94F85000F7
:10EDF000012801D10220DCE7012084F8500000BF87
:10EE0000042084F8510000206065C4F83880A6878B
:10EE1000E6872063A086E08620646064A068B0F581
:10EE2000004F0BD12068006820F040002168086086
:10EE30002068006820F4804021680860206800682D
:10EE400000F04000402805D02068006840F04000F5
:10EE500021680860E06830BB21E02068806800F02D
:10EE6000010050B12068007BA16B0870A06B401CB2
:10EE7000A063E08F401EE08711E0FFF76BF8C01B36
:10EE8000A84201D3681C00B94DB9012084F8510093
:10EE900000BF002084F8500000BF032089E7E08F06
:10EEA0000028DAD125E021E02068806800F0010028
:10EEB00050B12068C068A16B0880A06B801CA06363
:10EEC000E08F401EE08711E0FFF744F8C01BA84226
:10EED00001D3681C00B94DB9012084F8510000BF6E
:10EEE000002084F8500000BF032062E7E08F002874
:10EEF000DAD13A462946204601F0B8FF08B1202071
:10EF00006065012084F8510000BF002084F85000A3
:10EF100000BF606D08B101204BE7002049E72DE9F3
:10EF2000F84304460F4616461D46FFF713F8804681
:10EF3000B14694F85100012802D00220BDE8F883C0
:10EF400007B10EB90120F9E700BF94F8500001287D
:10EF500001D10220F2E7012084F8500000BF032015
:10EF600084F85100002060652763A686E686A063CA
:10EF7000A087E08760642064A068B0F5004F0BD1E3
:10EF80002068006820F04000216808602068006860
:10EF900040F48040216808602068006800F040006C
:10EFA000402805D02068006840F0400021680860D3
:10EFB000E068B0F5006F37D1606810B1B9F1010FAA
:10EFC00009D1206B00882168C860206B801C2063F9
:10EFD000E08E401EE08623E02068806800F002009A
:10EFE00002280AD1206B00882168C860206B801C31
:10EFF0002063E08E401EE08612E0FEF7ABFFA0EB40
:10F000000800A84201D3681C00B94DB9012084F85A
:10F01000510000BF002084F8500000BF03208DE79E
:10F02000E08E0028D8D136E0606810B1B9F1010F48
:10F0300009D1206B007821680873206B401C206385
:10F04000E08E401EE08623E02068806800F0020029
:10F0500002280AD1206B007821680873206B401CBD
:10F060002063E08E401EE08612E0FEF773FFA0EB07
:10F070000800A84201D3681C00B94DB9012084F8EA
:10F08000510000BF002084F8500000BF032055E766
:10F09000E08E0028D8D142462946204601F022FFC2
:10F0A00008B120206065A06850B900BF0020009022
:10F0B0002068C068009020688068009000BF00BF92
:10F0C000012084F8510000BF002084F8500000BFE8
:10F0D000606D08B1012031E700202FE72DE9FE4FD8
:10F0E00004460F4690461D460C9E01200190FEF7F7
:10F0F00031FF814694F851B060680290AA46BBF196
:10F10000010F0BD00298B0F5827F04D1A06810B92E
:10F11000BBF1040F02D00220BDE8FE8F1FB1B8F191
:10F12000000F00D00DB90120F6E700BF94F85000A1
:10F13000012801D10220EFE7012084F8500000BF30
:10F1400094F85100042802D0052084F851000020D2
:10F150006065C4F83880E587A5872763E586A586BE
:10F16000206460642068006800F04000402805D0FA
:10F170002068006840F0400021680860E068B0F551
:10F18000006F52D1606810B1BAF1010F09D1206B44
:10F1900000882168C860206B801C2063E08E401EC0
:10F1A000E0863BE02068806800F00200022810D171
:10F1B000E08E70B1019801280BD1206B0088216886
:10F1C000C860206B801C2063E08E401EE08600201B
:10F1D00001902068806800F0010068B1E08F58B1AC
:10F1E0002068C068A16B0880A06B801CA063E08FC2
:10F1F000401EE08701200190FEF7ACFEA0EB090065
:10F20000B0420BD3701C48B1012084F8510000BFFC
:10F21000002084F8500000BF03207DE7E08E002826
:10F22000C0D1E08F0028BDD152E0606810B1BAF1C2
:10F23000010F09D1206B007821680873206B401CF6
:10F240002063E08E401EE0863CE02068806800F08D
:10F250000200022810D1E08E70B1019801280BD174
:10F26000206B007821680873206B401C2063E08EBF
:10F27000401EE086002001902068806800F00100B8
:10F2800068B1E08F58B12068C068A16B0870A06BAE
:10F29000401CA063E08F401EE08701200190FEF734
:10F2A00059FEA0EB0900B04201D3701C00B94EB961
:10F2B000012084F8510000BF002084F8500000BFF6
:10F2C000032029E7E08E0028BFD1E08F0028BCD1C1
:10F2D0004A463146204601F005FE40B120206065D7
:10F2E00000BF002084F8500000BF012014E7A06890
:10F2F00050B900BF002000902068C06800902068CE
:10F300008068009000BF00BF012084F8510000BF5A
:10F31000002084F8500000BF606D08B10120FBE6BA
:10F320000020F9E67047704710B504460CB901207B
:10F3300010BD94F83D0028B9002084F83C00204618
:10F3400000F025F8022084F83D00211D206801F01E
:10F3500049FF012084F8460000BF84F83E000121E7
:10F360003F200155402001554120015500BF00BFFD
:10F37000012084F8420043200155442001554520D6
:10F38000015500BF012084F83D000020D0E7704700
:10F39000014691F83D00012801D00120704702206C
:10F3A00081F83D000868C06840F001000B68D86033
:10F3B000164B0868984213D0154B086898420FD036
:10F3C0000868B0F1804F0BD0124B0868984207D004
:10F3D000114B0868984203D0104B086898420CD132
:10F3E0000868806800F00702062A0CD008680068E8
:10F3F00040F001000B68186005E00868006840F004
:10F4000001000B6818600020C8E70000002C0140D4
:10F41000003401400004004000080040000C00409F
:10F42000704770B504462068C5682068066906F014
:10F430000200022819D105F00200022815D1401F50
:10F4400021680861012020772068806900F00300AE
:10F4500018B12046FFF7E4FF05E0204600F097F8DA
:10F46000204600F095F80020207706F004000428DC
:10F4700019D105F00400042815D1C04321680861A2
:10F48000022020772068806900F4407018B120467F
:10F49000FFF7C6FF05E0204600F079F8204600F0AF
:10F4A00077F80020207706F00800082819D105F029
:10F4B0000800082815D1C04321680861042020777E
:10F4C0002068C06900F0030018B12046FFF7A8FFCC
:10F4D00005E0204600F05BF8204600F059F80020D7
:10F4E000207706F01000102819D105F01000102820
:10F4F00015D1C04321680861082020772068C069C1
:10F5000000F4407018B12046FFF78AFF05E020465E
:10F5100000F03DF8204600F03BF80020207706F090
:10F52000010048B105F0010030B16FF00100216821
:10F530000861204600F02EF806F08000802809D1EE
:10F5400005F08000802805D1C0432168086120466D
:10F55000FFF7E8FE06F04000402809D105F0400022
:10F56000402805D1C04321680861204600F01EF8FC
:10F5700006F02000202809D105F02000202805D120
:10F58000C043216808612046FFF7CDFE70BD70477B
:10F590007047000010B5044603492068884201D135
:10F5A000FEF7B2FE10BD0000000800407047F8B53D
:10F5B00004460E46174694F8420020282ED106B184
:10F5C0000FB90120F8BD01202063002060633A4696
:10F5D0003146204602F0B4F80546EDB9206B01280B
:10F5E00019D100BF002000902068006800902068BA
:10F5F0004068009000BF00BF00BF00BF21680C3111
:10F6000051E8001F41F0100021680C3141E8000270
:10F61000002AF3D100E001252846D3E70220D1E7F4
:10F6200038B504460D461C49206888422DD1202D4E
:10F6300003D200201949485502E000201749C87735
:10F64000164A294616A002F033F91E480078B0B9D0
:10F650001DA11248FCF708FE88B100200090694601
:10F660001B48006805F036F8009838B14FF080501C
:10F6700018490860BFF34F8FBFF36F8F00BF202280
:10F6800006491548FFF793FF04E0144920688842B3
:10F6900000D000BF38BD000000380140F403002056
:10F6A0005553415254312052583A202564206279F2
:10F6B0007465732C20646174613A205B25735D0D61
:10F6C0000A000000E40000207570646174650000A9
:10F6D0001800002004ED00E0140400200044004065
:10F6E000704700002DE9F84F04462068056820683F
:10F6F000C668206847694FF00009CA4605F00F093F
:10F70000B9F1000F0AD105F0200038B106F0200051
:10F7100020B1204601F0B3FEBDE8F88FB9F1000F2B
:10F720007BD007F0010018B906F49070002874D05F
:10F7300005F0010030B106F4807018B1606C40F043
:10F740000100606405F0040030B107F0010018B159
:10F75000606C40F00200606405F0020030B107F018
:10F76000010018B1606C40F00400606405F008000E
:10F7700048B106F0200010B907F0010018B1606C24
:10F7800040F008006064606C002845D005F020005F
:10F7900028B106F0200010B1204601F070FE20686C
:10F7A0004069C0F3801A606C00F0080010B9BAF12B
:10F7B000000F2CD0204601F009FE2068406900F0BF
:10F7C000400000B300BF00BF2168143151E8001FA2
:10F7D00021F040002168143141E80002002AF3D1F1
:10F7E00000BFE06B50B17748E16B4863E06BFDF719
:10F7F000B9FE88B1E06B416B88470DE02046FFF70A
:10F800006FFF09E009E02046FFF76AFF04E02046A9
:10F81000FFF766FF002060647EE7206B012877D148
:10F8200005F01000002873D006F010000028FAD070
:10F8300000BF0020009020680068009020684068A9
:10F84000009000BF00BF2068406900F04000002821
:10F850005FD0E06B006840681FFA80F8B8F1000FD5
:10F8600055D0A08D404552DDA4F82E80E06B806914
:10F87000202843D000BF00BF21680C3151E8001F91
:10F8800021F4807021680C3141E80002002AF3D194
:10F8900000BF00BF00BF2168143151E8001F21F0F4
:10F8A00001002168143141E80002002AF3D100BFB1
:10F8B00000BF00BF2168143151E8001F21F0400053
:10F8C0002168143141E80002002AF3D100BF202052
:10F8D00084F842000020206300BF00BF21680C3183
:10F8E00051E8001F21F0100021680C3141E80002AE
:10F8F000002AF3D100BFE06BFDF708FE0220606331
:10F90000A08DE28D801A81B22046FFF789FE03E7C1
:10F9100042E0A08DE18D401A1FFA80F8E08DD0B34F
:10F92000B8F1000F37D000BF00BF21680C3151E89B
:10F93000001F21F4907021680C3141E80002002A78
:10F94000F3D100BF00BF00BF2168143151E8001F90
:10F9500021F001002168143141E80002002AF3D1AE
:10F9600000BF202084F842000020206300BF00BFB9
:10F9700021680C3151E8001F21F0100021680C3182
:10F9800041E80002002AF3D100BF02206063414633
:10F990002046FFF745FEBFE605F0800030B106F0D7
:10F9A000800018B1204601F0EBFEB5E605F04000FE
:10F9B00030B106F0400018B1204601F03DFDABE645
:10F9C00000BFA9E69112010810B504460CB9012048
:10F9D00010BDA06900B100E000BF94F8410028B953
:10F9E000002084F84000204600F02AF8242084F803
:10F9F00041002068C06820F400502168C86020469B
:10FA000001F0BCFD2068006920F490402168086185
:10FA10002068406920F02A00216848612068C06899
:10FA200040F400502168C86000206064202084F801
:10FA3000410084F842000020606300BFC8E7000076
:10FA400010B586B004460020029003900490059003
:10FA500070492068884237D100BF6F48806940F400
:10FA600080406D4988610846806900F480400190BB
:10FA700000BF00BF00BF0846806940F004008861F5
:10FA80000846806900F00400019000BF00BF4815DF
:10FA90000290022003900320059002A95F48FEF720
:10FAA000A9F84FF48060029000200390049002A90E
:10FAB0005A48FEF79FF8002208212520FEF7DEFCB9
:10FAC0002520FEF7CBFCA2E05549206888423FD1B3
:10FAD00000BF5148C06940F400304F49C861084632
:10FAE000C06900F40030019000BF00BF00BF0846AD
:10FAF000806940F0200088610846806900F020009D
:10FB0000019000BF00BF202002900220039003203C
:10FB1000059002A94348FEF76DF8402002900020AE
:10FB20000390049002A93F48FEF764F800BF3E49E5
:10FB3000486840F0E06040F00800486000BF0022E4
:10FB400009212620FEF79AFC2620FEF787FC5EE0BE
:10FB50003649206888425AD100BF2F48C06940F416
:10FB600080202D49C8610846C06900F480200190BA
:10FB700000BF00BF00BF0846806940F020008861D8
:10FB80000846806900F02000019000BF00BF881582
:10FB90000290022003900320059002A92148FEF75D
:10FBA00029F84FF40070029000200390049002A9FD
:10FBB0001C48FEF71FF800BF1B49486820F03000C2
:10FBC00040F0E06040F03000486000BF184819493C
:10FBD0000860002048600021164881608021C160D3
:10FBE0000021016141618161C161FDF75BFF08B1E5
:10FBF000FCF7EBFE00BF0F48E063446200BF002249
:10FC000006212720FEF73AFC2720FEF727FC06B046
:10FC100010BD000000380140001002400008014003
:10FC20000044004000140140000001400048004032
:10FC300030000240EC04002070B504460D46164624
:10FC400094F8420020280BD105B10EB9012070BDF7
:10FC50000020206332462946204601F00DFDF6E7DC
:10FC60000220F4E770B504460D46164694F84200AB
:10FC700020280BD105B10EB9012070BD00202063F2
:10FC800032462946204601F05BFDF6E70220F4E704
:10FC90001CB504460120019029492068884230D1D2
:10FCA0002848C0780090274883784278017826A0B9
:10FCB00001F0FEFD234800784A281CD121484078F5
:10FCC0005F2818D11F48C0788B2814D100200090DD
:10FCD00000236A461B49891C2448006804F07CFC08
:10FCE000009838B14FF0805021490860BFF34F8F22
:10FCF000BFF36F8F00BF042212491E48FFF7B2FF07
:10FD00001CE01D492068884218D11C4801781C4815
:10FD100002F0B6FA01A91B48006803F05FFF0198E2
:10FD200038B14FF0805012490860BFF34F8FBFF3D6
:10FD30006F8F012211491448FFF77EFF1CBD0000A0
:10FD400000440040340000205553415254322052A8
:10FD5000583A20253032582025303258202530326C
:10FD60005820253032580D0A0000000024000020E1
:10FD700004ED00E05C040020004800403800002052
:10FD8000E40300200C000020A404002070472DE9AB
:10FD9000F84F04460E46174699464FF0000A94F86D
:10FDA0004100202850D106B117B90120BDE8F88FD5
:10FDB00000206064212084F84100FEF7CBF88246E1
:10FDC000A784E784A068B0F5805F04D1206910B9EA
:10FDD0000025B04602E035464FF000081EE05346CD
:10FDE000002280212046CDF8009001F0F9FC20B1DE
:10FDF000202084F841000320D8E745B9B8F8000076
:10FE0000C0F308002168486008F1020803E0287880
:10FE1000216848606D1CE08C401EE084E08C002866
:10FE2000DDD15346002240212046CDF8009001F05C
:10FE3000D7FC20B1202084F841000320B6E7202021
:10FE400084F841000020B1E70220AFE7704700BF0F
:10FE5000FEE7014608684069C0F38020B0B16FF446
:10FE600080600A68506100200863202081F83D000E
:10FE7000002081F83E00086C40F00400086400BFD8
:10FE8000002081F83C0000BF012070470020FCE703
:10FE90002DE9F8430446884615469946DDE908678A
:10FEA0002068006840F480702168086033460022B2
:10FEB0004FF001112046009700F08DF860B12068E6
:10FEC000006800F48070B0F5807F02D14FF40070BC
:10FED00020640320BDE8F88308F0FE002168086173
:10FEE0003B4632462149204600F0D4F808B10120B3
:10FEF000F0E700BF00200090206840690090206873
:10FF00008069009000BF00BF3A463146204600F0AD
:10FF10003EF950B1206C042805D12068006840F4F7
:10FF20000070216808600120D4E7B9F1010F03D106
:10FF3000E8B22168086117E0C5F30720216808616D
:10FF40003A463146204600F022F950B1206C042890
:10FF500005D12068006840F4007021680860012025
:10FF6000B8E7E8B2216808610020B3E702000100A9
:10FF700070B504460D46164625E02046FFF769FF9A
:10FF800008B1012070BD681CE8B1FDF7E3FF801BDC
:10FF9000A84200D8BDB920684069C0F3800090B97C
:10FFA00000202063202084F83D00002084F83E00DB
:10FFB000206C40F02000206400BF002084F83C004A
:10FFC00000BF0120DEE720684069C0F38000002800
:10FFD000D3D00020D6E72DE9F04104460D46174660
:10FFE0001E46DDF8188038E0701CA8B3FDF7B2FF9C
:10FFF000A0EB0800B04200D876BBC5F3074001284B
:020000040801F1
:100000000AD120684069A9B20840A9B2884201D14A
:1000100001200BE0002009E020688069A9B20840B7
:10002000A9B2884201D1012000E00020B84214D1D9
:1000300000202063202084F83D00002084F83E004A
:10004000206C40F02000206400BF002084F83C00B9
:1000500000BF0120BDE8F081FFE7C5F3074001289C
:100060000AD120684069A9B20840A9B2884201D1EA
:1000700001200BE0002009E020688069A9B2084057
:10008000A9B2884201D1012000E00020B842ABD0E3
:100090000020DFE72DE9F04104460D4616461F46D5
:1000A00058E020684069C0F38020E8B1206800680B
:1000B00040F40070216808606FF480602168486136
:1000C00000202063202084F83D00002084F83E00BA
:1000D000206C40F00400206400BF002084F83C0045
:1000E00000BF0120BDE8F081701C90B3FDF732FF26
:1000F000C01BB04200D866BBC5F3074001280AD137
:1001000020684069A9B20840A9B2884201D1012003
:100110000BE0002009E020688069A9B20840A9B27C
:10012000884201D1012000E0002090B90020206326
:10013000202084F83D00002084F83E00206C40F030
:100140002000206400BF002084F83C0000BF012094
:10015000C8E7FFE7C5F3074001280AD120684069D6
:10016000A9B20840A9B2884201D101200BE00020C9
:1001700009E020688069A9B20840A9B2884201D18B
:10018000012000E0002000288BD00020AAE770B5F5
:1001900004460D46164625E02046FFF75AFE08B1F4
:1001A000012070BD681CE8B1FDF7D4FE801BA84299
:1001B00000D8BDB920684069C0F3C01090B90020D4
:1001C0002063202084F83D00002084F83E00206C4D
:1001D00040F02000206400BF002084F83C0000BFF5
:1001E0000120DEE720684069C0F3C0100028D3D0AA
:1001F0000020D6E710B58AB0044628216846FCF7EF
:1002000028F801200590002006900120079020206A
:100210000090002001904FF6E070029000200390C3
:1002200004940120089069460248FCF78BFC0AB050
:1002300010BD00001001002010B50120FFF7DAFF0B
:1002400010210648FCF7C4FB002206211520FEF70A
:1002500015F91520FEF702F910BD0000100100206D
:1002600070B588B004460D46164600BF0B48FCF733
:10027000CDFD0028FAD0182102A8FBF7EAFF02946E
:100280000020049005900696019001AB2A4602A931
:100290000248FCF7B2FB08B070BD0000100100205E
:1002A0002DE9FE430446884615466019FF2804DD03
:1002B00025A001F0FDFABDE8FE832046E11704EB1E
:1002C00011710911A4EB0111C1F11001CEB2B542B7
:1002D0000BDC4FF47A7001232246A021CDE9008582
:1002E00002902148FDF724FF2CE0A146002718E0EA
:1002F0004FF47A7108EB071001234A46CDE90161FA
:100300000090A0211848FDF713FF781CC7B209EB35
:10031000060000F0FF09A81B85B210260A20FDF791
:1003200055FCB542E4DC65B14FF47A7108EB071077
:1003300001234A46CDE901510090A0210A48FDF76A
:10034000F7FE00BF00BFB6E7D0B4C8EBB5C4B5D860
:10035000D6B7D6B5B3ACB9FD454550524F4DB5C42F
:10036000B5D8D6B7D6B50A003801002070B5064614
:100370000C4600F09DF800F045F8300400EB043521
:10038000202000F067F8C5F3074000F063F8C5F3DC
:10039000072000F05FF8E8B200F05CF800F03CF8ED
:1003A00070BD000008B56423012269460248FEF7CB
:1003B000F5FC9DF8000008BD8C0100202DE9F041FE
:1003C00004460E46174600F031F800F01BF80320F3
:1003D00000F040F8C4F3074000F03CF8C4F30720F5
:1003E00000F038F8E0B200F035F8002504E0FFF73F
:1003F000D9FF7055681C85B2BD42F8DB00F00CF8DF
:10040000BDE8F08110B500224FF480510148FDF79E
:100410009BFD10BD000C014010B5012211030248E4
:10042000FDF792FD10BD0000000C014010B5FFF774
:10043000E9FF0AE0052000F00DF8FFF7B3FF0446DE
:1004400004F0010000B901E000BFF3E700BFFFF7CF
:10045000E3FF10BD01B56423012269460148FEF7A0
:100460005EFD08BD8C0100202DE9F04104460E46DA
:10047000174600F01DF8FFF7C5FF0220FFF7EAFF5F
:10048000C4F30740FFF7E6FFC4F30720FFF7E2FFDE
:10049000E0B2FFF7DFFF002504E0705DFFF7DAFF51
:1004A000681C85B2BD42F8DBFFF7B6FFBDE8F081FE
:1004B00010B5FFF7BBFFFFF7A5FF0620FFF7CAFF48
:1004C000FFF7AAFF10BD000010B5104810490860E2
:1004D0002420486000210E488160C1604FF48031C3
:1004E0000161490141610021017601214176817656
:1004F0000021C17601774177FCF7CAFD08B1FCF70E
:1005000064FA02210248FCF763FA10BD006400405F
:100510001001002010B50548054908600846FCF7A1
:10052000CCFF08B1FCF751FA10BD000000300240CA
:100530002C00002008B500BF0A48406940F00100C7
:10054000084948610846406900F00100009000BF7A
:1005500000BF002205210D20FDF790FF0D20FDF7C3
:100560007DFF08BD0010024010B5FCF735F9044AC4
:100570000021044802F08EF90349086010BD000014
:10058000D0510108011001082800002000B585B0F5
:100590000020019002900390049000BF33488069CE
:1005A00040F01000314988610846806900F0100071
:1005B000009000BF00BF00BF0846806940F00800FF
:1005C00088610846806900F00800009000BF00BF05
:1005D00000BF0846806940F02000886108468069B5
:1005E00000F02000009000BF00BF00BF08468069F7
:1005F00040F0040088610846806900F00400009023
:1006000000BF00BF01224FF4A1511948FDF79CFC27
:1006100000224FF400611648FDF796FC4FF440604D
:10062000019011200290012003900320049001A961
:100630000F48FDF7DFFA4FF480500190012002903F
:10064000002003900320049001A90948FDF7D2FA85
:10065000202001900120029002200390049001A923
:100660000348FDF7C7FA05B000BD000000100240C6
:10067000000C014010B50B480B4908600B4848605E
:10068000002109488160C1604FF48041016100216F
:1006900041618161C1610162FDF762FC08B1FCF753
:1006A00094F910BD0054004038010020A0860100DC
:1006B00010B50E480E4908604FF482704860002162
:1006C0000B488160C160016141614FF4007181613B
:1006D0000821C16100210162416281620A21C16277
:1006E000FEF7B8FA08B1FCF770F910BD0038004009
:1006F0008C01002010B50D480D4908604FF4E13021
:10070000486000210A488160C16001610C2141619B
:1007100000218161C161FFF757F908B1FCF755F974
:10072000202204490248FEF742FF10BD0038014074
:1007300014040020F403002010B50D480D49086092
:100740004FF4E130486000210A488160C1600161D6
:100750000C21416100218161C161FFF735F908B1C8
:10076000FCF733F9042204490248FFF77BFA10BD75
:10077000004400405C0400203400002010B50E4A04
:100780004FF400710D4801F075FD0D480D490860EA
:100790004FF4E130486000210A488160C160016186
:1007A0000C21416100218161C161FFF70DF908B1A0
:1007B000FCF70BF910BD0000E4010020E403002069
:1007C00000480040A404002000BFFEE700BFFEE791
:1007D00000200CE0002106E00022064B03EBC013D2
:1007E0005A544A1CD1B28029F6DB421CD0B20828E8
:1007F000F0DB7047780500202DE9F04304460D46F4
:1008000016461F46284638E0224631E0002A2DDBF6
:100810007F2A2BDC002829DB3F2827DC4FEAE07CFD
:1008200000EB5C7C4FEAEC0CDFF8588008EBCC1C4A
:100830001CF802C003464FEAE07800EB58784FEA14
:10084000E808A0EBC8094FF0010808FA09F82CEAFB
:10085000080C01464FEAE07800EB58784FEAE808C8
:10086000DFF8209009EBC81808F802C0511C0AB242
:10087000A1199142CADC411C08B2E9198142C3DCCA
:10088000BDE8F0837805002070B50546002411E02E
:1008900080212141294009B1012100E000210846C1
:1008A00000F096FA012000F081FA002000F07EFAB4
:1008B000601CC4B2082CEBDB012000F077FA0020AA
:1008C00000F074FA70BD10B5012000F081FA01202B
:1008D00000F06CFA002000F07BFA002000F066FACD
:1008E00010BD10B5002000F073FA012000F05EFA90
:1008F000012000F06DFA10BD10B501224FF44061E7
:100900002648FDF721FBAE2000F074FAD52000F058
:1009100071FA802000F06EFAA82000F06BFA3F20F8
:1009200000F068FAD32000F065FA002000F062FAC7
:10093000402000F05FFAA12000F05CFAC82000F02F
:1009400059FADA2000F056FA122000F053FA81200A
:1009500000F050FACF2000F04DFAD92000F04AFA0A
:10096000F12000F047FADB2000F044FA302000F0DC
:1009700041FAA42000F03EFAA62000F03BFA8D20B8
:1009800000F038FA142000F035FAAF2000F032FA07
:10099000FFF71EFF00F0B8F910BD0000000C014089
:1009A0000FB470B5C2B005460E4614464AA8019071
:1009B00002A8019A499900F08BFF0020019023467C
:1009C00002AA3146284600F0BDF842B070BC5DF87E
:1009D00014FB70B505460C4645F0B00000F00AFA6D
:1009E000102141EA141000F005FA04F00F0000F0A5
:1009F00001FA70BDF8B506460F4614461D46082D8F
:100A00000CD1A4F120000E4901EB001010230822A4
:100A100039460090304600F017F80FE0062D0DD152
:100A2000A4F1200000EB4000064901EB4000082340
:100A3000062239460090304600F006F8F8BD000066
:100A400030520108205801082DE9FF4F80460E461C
:100A50009146DDF834B0002500244A463146404630
:100A6000039BFFF7C9FE00BF5EE0002558E008EBDE
:100A70000500002852DB08EB05007F284EDC3046DD
:100A8000F11706EB5171C9100FB2F11706EB517156
:100A9000C910A6EBC10A002E05DA781E07B20AF1CA
:100AA00008000FFA80FA3819002817DB38190728D0
:100AB00014DC3819224901EBC01008EB0501405C39
:100AC00004FB09511BF8011001FA0AF10843391916
:100AD0001B4A02EBC11108EB050288543819401C6F
:100AE00000281BDB3819401C072817DC3819401C6C
:100AF000134901EBC01008EB0501405C04FB0951F0
:100B00001BF80110CAF10802114108433919491CA8
:100B10000B4A02EBC11108EB05028854681CC5B2F0
:100B20004D45A4DB601CC4B20399481EC11700EBFD
:100B30005171012202EBE101A14296DCBDE8FF8F79
:100B4000780500202DE9FE4F07468A461446984650
:100B50000025AB460026CBE0605D00F0800058B970
:100B60004FF0010B2846691C8DB2205C8DF8040003
:100B700000208DF805006BE0605D00F0E000C0280B
:100B800014D14FF0020B2846691C8DB2205C8DF801
:100B90000400605D00B9AFE02846691C8DB2205C9E
:100BA0008DF8050000208DF8060051E0605D00F032
:100BB000F000E0281DD14FF0030B2846691C8DB2D0
:100BC000205C8DF80400605D00B995E02846691C42
:100BD0008DB2205C8DF80500605D00B98CE0284680
:100BE000691C8DB2205C8DF8060000208DF807008E
:100BF0002EE0605D00F0F800F02826D14FF0040BE5
:100C00002846691C8DB2205C8DF80400605D00B937
:100C100072E02846691C8DB2205C8DF80500605D8D
:100C200000B969E02846691C8DB2205C8DF8060089
:100C3000605D00B960E02846691C8DB2205C8DF8CB
:100C4000070000208DF8080002E0681C85B24FE024
:100C5000BBF1010F0BD19DF80420B91908B243462E
:100C60005146FFF7C7FE06EB080086B23FE04FF0A3
:100C700000090EE009EB890101EB4911204A8818AF
:100C800001A9FBF70AFB00B90EE009F101001FFA08
:100C900080F909EB890101EB4911194A881819A15A
:100CA000FBF7FBFA0028E5D100BFB8F1080F12D11D
:100CB00009EB890000EB491011490844401DB9199E
:100CC000009008B210231A465146FFF7BDFE06F108
:100CD000100086B20BE0B8F1060F08D1B91908B2BE
:100CE00006233F225146FFF785FEB01D86B200BFA6
:100CF000605D00287FF430AF00BFBDE8FE8F0000CC
:100D00005A5A01080000000010B500240BE0002131
:100D10002046FFF75EFE054901EBC410802100F07C
:100D200079F8601CC4B2082CF1DB10BD78050020F6
:100D30002DE9F04706460D46174698462846E9171E
:100D400005EB5171C9100FFA81F905EB0801481E36
:100D5000C11700EB5171C910491C0FFA81FA002D1F
:100D600007DAA9F101000FFA80F9AAF101000FFAE0
:100D700080FA4C4614E0002E10DB7F2E0EDC002C97
:100D80000CDB072C0ADCF1B2E0B2FFF722FE0649C9
:100D900001EBC4118819394600F03CF8601C04B21C
:100DA0005445E8DBBDE8F0877805002010B504461F
:100DB00034B900224FF480610448FDF7C5F804E01F
:100DC000012291020148FDF7BFF810BD000C01405F
:100DD00010B5044634B900224FF400610448FDF711
:100DE000B3F804E00122D1020148FDF7ADF810BDCF
:100DF000000C014010B50446FFF765FD7820FFF7B1
:100E000043FD0020FFF740FD2046FFF73DFDFFF7C3
:100E100068FD10BD70B505460E46FFF754FD7820FD
:100E2000FFF732FD4020FFF72FFD002404E0285D8E
:100E3000FFF72AFD601CC4B2B442F8DBFFF751FD96
:100E400070BD000008B508490968C9084FF47A72F6
:100E5000B1FBF2F14143009100BF00BF00994A1E6F
:100E600000920029F9D108BD48000020F8B50446D9
:100E70000E4615466068B0F5827F0DD1A068B0F5CA
:100E8000004F03D0A068B0F5806F05D120680068DE
:100E900020F04000216808606068B0F5827F11D1C1
:100EA000A068B0F5806F0DD13346002201212046A5
:100EB000009500F039F898B1606D40F02000606551
:100EC0000320F8BD3346002280212046009500F023
:100ED0002BF828B1606D40F0200060650320F0E73A
:100EE0000020EEE7F8B504460E46154633460122CB
:100EF00002212046009500F017F828B1606D40F0FF
:100F0000200060650320F8BD334600228021204682
:100F1000009500F009F828B1606D40F02000606590
:100F20000320F0E70020EEE72DE9F84F04460D46D8
:100F300090461E46DDF82890FDF70CF8A0EB09005E
:100F4000371AFDF707F882462C480068C0F3CB300B
:100F50007843009045E0701C002842D0FCF7FAFF6F
:100F6000A0EB0A00B84200D2A7BB2068406820F07E
:100F7000E000216848606068B0F5827F0DD1A0680C
:100F8000B0F5004F03D0A068B0F5806F05D12068A0
:100F9000006820F0400021680860A06AB0F5005F9A
:100FA0000DD100BF2068006820F40050216808605F
:100FB0002068006840F400502168086000BF0120EC
:100FC00084F8510000BF002084F8500000BF0320C7
:100FD000BDE8F88FFFE7009800B900270098401E91
:100FE0000090206880682840A84201D1012000E0DC
:100FF00000204045AFD10020EAE700004800002073
:101000001CB502F021FC2D480F210023C822CDE998
:1010100000102BA12D4803F0A3FD0446012C02D0A3
:101020002BA000F045FC31480D2100238022CDE9A2
:1010300000102FA1314803F093FD0446012C02D08B
:101040002FA000F035FC35480E2100238022CDE989
:10105000001033A1354803F083FD03220021012055
:1010600003F0FDF8324908603248142100234FF4A0
:101070008072CDE9001030A1324803F071FD0022EA
:101080000C21052003F0EBF82F49086000220C2109
:10109000052003F0E4F82D49086000220121052015
:1010A00003F0DDF82A49086002F0F8FB002002F0A6
:1010B0001FFD00BF012001F097FBFBE700000020AF
:1010C0006F6C65645F7461736B000000DD2501085F
:1010D0006F6C65645F7461736B20637265617465C6
:1010E000206661696C6564210D0A0000040000201F
:1010F00063616E5F7461736B00000000452201083C
:1011000063616E5F7461736B2063726561746520E7
:101110006661696C6564210D0A000000080000200A
:10112000766F6963655F7461736B0000314001081D
:1011300018000020100000206F74615F7461736BF1
:10114000000000004D2901081C00002020000020A4
:101150002400002010B54FF0E020006903F090FD5E
:10116000012801D003F050F810BD00B58FB0282140
:1011700005A8FBF76EF814216846FBF76AF8012012
:10118000059000040690002007900120099002209D
:101190000C90C1030D914FF4E0110E9105A8FDF7DD
:1011A00027FB08B1FBF711FC0F20009002200190F3
:1011B000002002904FF480600390002004900221F0
:1011C0006846FDF7CFF908B1FBF7FFFB0FB000BD94
:1011D0007047000010B50248FEF723F910BD00006B
:1011E0003005002010B50268244B98420ED0244BE5
:1011F00098420BD0B0F1804F08D0224B984205D0D6
:10120000214B984202D0214B984203D122F0700228
:101210004B681A43194B98420ED0194B98420BD089
:10122000B0F1804F08D0174B984205D0164B98422A
:1012300002D0164B984203D122F44072CB681A4375
:1012400022F080034C6943EA040202608B68C362A7
:101250000B688362094B984202D0094B984201D136
:101260000B69036301234361036903F001031BB1AD
:10127000036923F00103036110BD0000002C01404D
:10128000003401400004004000080040000C004011
:1012900070B505466C6A0020E085E0842046FEF7C4
:1012A0001FFA70BD70B506460025746A2068406953
:1012B000C0F3C01594F84100212805D125B10020C4
:1012C000E084204600F0C8F820684069C0F380152B
:1012D00094F84200222805D125B10020E08520465F
:1012E00000F074F8606C40F0100060642046FEF777
:1012F000F7F970BD70B505466C6A2868006800F0A3
:101300002000002842D1E08500BF00BF21680C31D9
:1013100051E8001F21F4807021680C3141E800027F
:10132000002AF3D100BF00BF00BF2168143151E88B
:10133000001F21F001002168143141E80002002A59
:10134000F3D100BF00BF00BF2168143151E8001F76
:1013500021F040002168143141E80002002AF3D155
:1013600000BF202084F84200206B01280ED100BF6E
:1013700000BF21680C3151E8001F21F010002168E6
:101380000C3141E80002002AF3D100BF0020606365
:10139000206B012804D1A18D2046FEF741F902E01F
:1013A0002046FEF775FC70BD70B505466C6A0120DD
:1013B0006063206B012805D1A08D41082046FEF70F
:1013C0002FF902E02046FEF7E1FC70BD00BF00BF30
:1013D00002680C3252E8002F22F4907102680C323D
:1013E00042E80013002BF3D100BF00BF00BF02682A
:1013F000143252E8002F22F001010268143242E850
:101400000013002BF3D100BF016B01290ED100BFE7
:1014100000BF02680C3252E8002F22F0100102686F
:101420000C3242E80013002BF3D100BF202180F8DA
:10143000421000210163704710B504462068C0685F
:1014400020F040002168C860202084F84100204638
:10145000FEF7FCFC002010BD00BF00BF02680C328C
:1014600052E8002F22F0C00102680C3242E800135B
:10147000002BF3D100BF202180F841107047F8B550
:10148000044694F84200222875D1A068B0F5805F28
:101490000CD1206950B90025A66A20684068C0F3C5
:1014A00008003080A06A801CA06215E0A56A0026B2
:1014B000A068B0F5805F03D0A06828B9206918B98A
:1014C00020684068287004E02068406800F07F00D1
:1014D0002870A06A401CA062E08D401E80B2E085AA
:1014E000002846D12068C06820F020002168C8602C
:1014F0002068C06820F480702168C8602068406956
:1015000020F0010021684861202084F8420000207A
:101510006063206B012826D10020206300BF00BF3C
:1015200021680C3151E8001F21F0100021680C31B6
:1015300041E80002002AF3D100BF2068006800F0F3
:10154000100010280AD100BF002000902068006819
:10155000009020684068009000BF00BFA18D204629
:10156000FEF75EF802E02046FEF792FB0020F8BD91
:1015700001E00020FBE70220F9E7000070B5044617
:101580002168096921F44051E26811432268116120
:101590002269A1681143626941EA02052168C968AC
:1015A00041F20C62914329432268D1602168496964
:1015B00021F44071A2691143226851612D4A2168CA
:1015C000914202D1FDF7CCF801E0FDF7B9F800EB4C
:1015D000C00101EB001162689200B1FBF2F100EB77
:1015E000C00202EB001263689B00B2FBF3F26423BB
:1015F000B2FBF3F202EBC20303EB0212A1EB820196
:10160000322202EB01116422B1FBF2F101F0F00190
:1016100000EBC00202EB001263689B00B2FBF3F226
:101620006423B2FBF3F201EB021200EBC00101EB09
:10163000001163689B00B1FBF3F100EBC00303EB07
:1016400000136668B600B3FBF6F36426B3FBF6F34B
:1016500003EBC30606EB0313A1EB8301322303EB79
:1016600001116423B1FBF3F101F00F011144226871
:10167000916070BD0038014077B581B004461546D1
:101680000298A062A58500206064222084F84200B0
:101690002848E16B88622848E16BC8622748E16B03
:1016A00008630020E16B486302AE32682368191DAD
:1016B0002B46E06BFCF73CFA00BF0020009020684E
:1016C0000068009020684068009000BF00BF20695B
:1016D00070B100BF00BF21680C3151E8001F41F418
:1016E000807021680C3141E80002002AF3D100BF6C
:1016F00000BF00BF2168143151E8001F41F0010014
:101700002168143141E80002002AF3D100BF00BF74
:1017100000BF2168143151E8001F41F040002168EA
:10172000143141E80002002AF3D100BF002004B0C8
:1017300070BD0000F5120108A9130108A5120108E7
:1017400010B5034699629A85DA85002058642220F4
:1017500083F84200186928B11868C06840F48070A6
:101760001C68E0601868406940F001001C68606116
:101770001868C06840F020001C68E060002010BDC0
:10178000014691F84100212828D18868B0F5805F92
:101790000BD1086948B90A6A1088C0F308000B68C1
:1017A0005860086A801C086205E00B6A581C0862D1
:1017B00018780B685860C88C401E80B2C88458B92D
:1017C0000868C06820F080000B68D8600868C068AE
:1017D00040F040000B68D860002070470220FCE712
:1017E0002DE9F84304460D4617469846089E31E019
:1017F000701C70B3FCF7AEFBA0EB0800B04200D841
:1018000016B90320BDE8F8832068C06800F0040022
:10181000F8B1802D1ED0402D1CD020680068C0F388
:10182000C000B0B100BF00200090206800680090A8
:1018300020684068009000BF00BF2046FFF7C6FD4B
:101840000820606400BF002084F8400000BF012031
:10185000D8E7FFE7206800682840A84201D10120AE
:1018600000E00020B842C3D00020CBE710B502480A
:10187000FDF738FF10BD00001404002010B5024829
:10188000FDF730FF10BD00005C04002010B50248D9
:10189000FDF728FF10BD0000A404002010B5024889
:1018A000FBF7CFFA10BD00001001002000BFFEE7DB
:1018B0000FB4054B10B503A9044A029800F00AF9C9
:1018C00010BC5DF814FB0000AD2201080C010020E3
:1018D00037B514460846064B6A46214600F0FAF82A
:1018E00004466946002000F08CFC20463EBD000006
:1018F0000322010802480068C0F30220704700007C
:101900000CED00E010B5002804DB0A07130E054AB1
:10191000135406E00A07140E034A00F00F031B1FBE
:10192000D45410BD00E400E018ED00E0EFF30580B2
:10193000704702E008C8121F08C1002AFAD1704798
:101940007047002001E001C1121F002AFBD170473F
:101950002DE9FF5F82B00021DDE90430020DDDF8E2
:1019600040B0034318D044F61050A2F2FF32424375
:101970001514119801281FD0A5EB0B00401C5FEA3D
:10198000000A4FF000064E4FDFF83891B04650463F
:1019900015D5CAF1000413E0119801244AA30128C7
:1019A00001D16FEA0B010298119AC0E90031C0E938
:1019B000024206B0BDE8F09FCBF10000DFE704462D
:1019C0000021404A491842EB0450CDE9001012E0D2
:1019D000E00707D032463B4640464946FAF712FD3B
:1019E0008046894632463B4610461946FAF70AFDBC
:1019F00006460F466410002CEAD1DDE90401DDE95A
:101A00000023BAF1000F06DAFAF7FCFC42464B4617
:101A1000FAF7F8FC05E0FAF767FD42464B46FAF79D
:101A200063FD04460E460022284BFAF7CDFD03D88D
:101A30004FF0FF30014607E00022254B204631469B
:101A4000FAF739FCFAF79DFE102409E0002C0ADBB6
:101A50000A220023FAF7E6FD039B30321A55641E72
:101A600050EA0102F2D1641C039AC4F11103144438
:101A7000119A012A03D0012208430DD10AE008433C
:101A800004D000204FF0110B119072E7A3EB0B056F
:101A90006D1E0DE05B4504DD4FF0000205F1010510
:101AA00004E003DA4FF00002A5F10105002AECD0B2
:101AB00002981199C0E90231C0E9004579E70000B8
:101AC000000014400000F03F300000000000F04330
