:020000040800F2
:10C00000F0FA0020E1C10008351E0108B50501085D
:10C01000311E010821CD00089D30010800000000FC
:10C0200000000000000000000000000049C10008FE
:10C0300065CE0008000000008DC1000845290108F8
:10C04000FBC10008FBC10008FBC10008FBC10008E0
:10C05000FBC10008FBC10008FBC10008FBC10008D0
:10C06000FBC10008FBC10008FBC10008FBC10008C0
:10C07000FBC1000829CE0008FBC10008FBC1000875
:10C08000FBC10008FBC10008FBC10008FBC10008A0
:10C090008D30010825CD0008FBC10008FBC1000858
:10C0A000FBC10008FBC10008FBC10008FBC1000880
:10C0B000FBC10008FBC10008C5290108FBC100083D
:10C0C000FBC10008FBC10008FBC10008FBC1000860
:10C0D000FBC100085D3001086D3001087D300108AA
:10C0E000FBC10008FBC10008FBC10008FBC1000840
:10C0F000FBC10008FBC10008FBC10008FBC1000830
:10C10000FBC10008FBC10008FBC10008FBC100081F
:10C11000FBC10008FBC10008FBC10008FBC100080F
:10C12000FBC10008FBC10008FBC10008FBC10008FF
:10C13000DFF810D000F084FC0048004711340508F7
:10C14000AFF30080F0FA0020224B19680868B0E8CD
:10C15000F00F80F30988BFF36F8F4FF0000080F37A
:10C1600011884EF00D0E7047000000000648006870
:10C17000006880F3088862B661B6BFF34F8FBFF3E3
:10C180006F8F00DF00BF00BF08ED00E0EFF3098014
:10C19000BFF36F8F0F4B1A6820E9F00F106008B5DE
:10C1A0004FF0500080F31188BFF34F8FBFF36F8FB4
:10C1B00059F046FA4FF0000080F31188BDE80840BE
:10C1C00019680868B0E8F00F80F30988BFF36F8F33
:10C1D000704700BF60000020EFF30580704700004B
:10C1E0000648804706480047FEE7FEE7FEE7FEE711
:10C1F000FEE7FEE7FEE7FEE7FEE7FEE7C1290108EE
:10C2000031C100082DE9F05F0546002092469B46AB
:10C2100088460646814640241BE02846414647465C
:10C22000224600F051F853465A46C01A914110D3A5
:10C2300011461846224600F035FB2D1A67EB01081F
:10C240004F4622460120002100F02CFB17EB00098D
:10C250004E41201EA4F10104DFDC484631462A4647
:10C260004346BDE8F09F2DE9F0410024061B25461A
:10C2700071F1000605DA01240027D0EB070067EB17
:10C280000101161E73F1000605DA0027D2EB070242
:10C29000012567EB0303FFF7B5FF86460E461746F9
:10C2A0009C46AC4204D00025D0EB050E65EB0106A0
:10C2B00024B10020D2EB000760EB030C704631463E
:10C2C0003A466346BDE8F081202A04DB203A21FA91
:10C2D00002F00021704721FA02F3D040C2F120029F
:10C2E00091400843194670470649074A0868504379
:10C2F00043F2390210440860400870470149086061
:10C3000070470000B00100206D4EC64140EA0103B5
:10C310009B0703D009E008C9121F08C0042AFAD2FB
:10C3200003E011F8013B00F8013B521EF9D27047BF
:10C33000D2B201E000F8012B491EFBD27047002267
:10C34000F6E710B513460A4604461946FFF7F0FF14
:10C35000204610BD30B505462A460B4612F8010BA3
:10C3600013F8014B08B1A042F8D01CB1002802D04C
:10C370006D1CF1E7284630BD421C10F8011B002956
:10C38000FBD1801A704710B5002200E0521C835C7C
:10C390008C5CA34201D1002BF8D1D8B2E1B2401A93
:10C3A00010BD034611F8012B00F8012B002AF9D12A
:10C3B0001846704730B505460020034600E05B1C78
:10C3C000934205D2EC5CC85C201A01D1002CF6D156
:10C3D00030BDF0B480EA0102D40F4200B2EB410F4D
:10C3E00002D20246084611464A0042D0C30DDDB2D1
:10C3F000C1F3C752AD1A202D35DAC1F3160141F44D
:10C40000000204B15242C5F1200602FA06F12A41A7
:10C410001044B3EBD05F23D0C4B1012DA0EBC350C7
:10C4200009DCF0BC4FF0004202EAC352DBB200F577
:10C43000000000F061BA400000F1807000EBC350D2
:10C44000A0F1807040EAD170490009E0490841EA52
:10C45000C071A0EBC35000F50000400800EBC350D2
:10C46000F0BC00F040BA6142012202EB4101001B26
:10C47000F6E7F0BC704781F00041AAE780F0004089
:10C48000A7E730B480EA010202F0004530F0004234
:10C4900021F0004013D090B1C30DD40DC2F31601AA
:10C4A000C0F31600E41A41F4000140F400027D34A8
:10C4B000914201D3641C00E04900002C02DA30BC38
:10C4C000002070474FF400000023914201D3891AE5
:10C4D000034340084FEA4101F7D151B1914202D1E3
:10C4E0004FF0004105E002D24FF0010101E06FF092
:10C4F000010103EBC450284430BC00F0F4B92DE92D
:10C50000FE4F804681EA0300C00F0C46009021F0E8
:10C51000004123F00045B8EB0200A94105D2404696
:10C52000214690461C460B46024623F0004010432D
:10C5300047D0270DC7F30A00C3F30A510290401AEF
:10C54000019040286BDAC3F3130040F4801B00987D
:10C55000924620B10023D2EB030A63EB0B0B019848
:10C560005946C0F14002504600F09CF906460D467F
:10C5700050465946019A00F0A4F910EB08006141B9
:10C58000002487EA115284EAE7731A4340D0009AE4
:10C5900062B3019A012A4FEA075215DC001B61EBD6
:10C5A00002014FF0004202EA0752CDE90042001CAE
:10C5B00041F5801132462B4600F0DBF903B0BDE8AF
:10C5C000F08F40462146F9E7001B61EB0201001C99
:10C5D00041F5801300185B412018A2F5001747EBC6
:10C5E000030140EAD570B6196D4111E06D084FEABC
:10C5F000360645EAC0754FEA0752001B61EB02019F
:10C60000001C41F5801149084FEA300000195141E2
:10C6100032462B4603B0BDE8F04F00F09BB90098BE
:10C62000012240000023D0EB020263EBE07300988C
:10C6300021464FEAE074B8EB000061EB0401E9E742
:10C6400083F000435BE781F0004158E72DE9FE4F9E
:10C6500081EA030404F0004421F0004100944FF00B
:10C66000000B23F0004350EA01045ED052EA0304B9
:10C670005BD0C3F30A54C1F30A552C44A4F2F3343B
:10C680000194A0FB0254C1F3130141F48011C3F3E0
:10C69000130343F4801301FB024400FB034E840A9E
:10C6A000970A44EA815447EA8357A4FB0768029536
:10C6B0008D0A05FB07854FEA932C04FB0C542705D4
:10C6C000029D4FEA065847EA1637B5EB08056EEBB0
:10C6D000070C870E920E47EA811742EA8312A7FBE6
:10C6E0000201B6EB0B0164EB00042B0D43EA0C33A3
:10C6F0005E1844EB1C50DA465146E7FB0201C5F3D5
:10C7000013044FEA0B3343EA14534FEA0432019CFB
:10C7100043EA0603A4F10C040294009CCDE900B4A2
:10C7200000F027F903B0BDE8F08F00200146F9E7DB
:10C730002DE9F04D81EA030404F0004B21F000459F
:10C7400014464FF0000A23F0004150EA050220D0C1
:10C7500054EA01021DD0C5F30A570246C5F313037C
:10C76000C1F31300C1F30A5640F4801543F480135B
:10C77000A7EB0608101BD64608F2FD3873EB050040
:10C7800002D308F1010801E092185B41B8F1000FF3
:10C7900003DA00200146BDE8F08D00204FF480113F
:10C7A000064684460EE0171B73EB050705D3121BE4
:10C7B00063EB050306434CEA010C49084FEA3000DD
:10C7C00092185B4150EA0107EDD152EA030012D002
:10C7D00082EA040083EA0501084305D0101BAB413F
:10C7E00006D20122002306E000224FF0004302E0BF
:10C7F0006FF0010253101AEB06004CEB085110EBDE
:10C800000A0041EB0B01BDE8F04D00F0A3B8C10FE9
:10C8100080EAE0700844CA079623002100F06CB853
:10C8200020F00040C10DC0F3160040F400007F2945
:10C8300001DA00207047962903DCC1F19601C84057
:10C84000704796398840704730B5041E71F1000476
:10C8500004DB4FF00044404264EB0101141E73F10D
:10C86000000405DB1C464FF00043524263EB040317
:10C87000994208BF904230BD30B50B4601460020BA
:10C880002022012409E021FA02F59D4205D303FA92
:10C8900002F5491B04FA02F52844151EA2F1010213
:10C8A000F1DC30BD202A04DB203A00FA02F100203E
:10C8B00070479140C2F1200320FA03F319439040DE
:10C8C0007047202A06DBCB17203A41FA02F043EAF0
:10C8D000E07306E041FA02F3D040C2F12002914039
:10C8E0000843194670470029A8BF7047401C4900FB
:10C8F00008BF20F00100704710B4B0FA80FC00FAC5
:10C900000CF050EA010404BF10BC704749B1CCF1EF
:10C91000200421FA04F411FA0CF118BF012121437B
:10C920000843A3EB0C01CB1D4FEA00614FEA102036
:10C9300042BF002010BC704700EBC35010440029D8
:10C94000A4BF10BC7047401C490008BF20F0010084
:10C9500010BC704710B5141E73F1000408DA401CB7
:10C9600041F1000192185B411A4301D120F001000E
:10C9700010BD2DE9F04D92469B4611B1B1FA81F2FE
:10C9800002E0B0FA80F220329046FFF78BFF0446B7
:10C990000F4640EA0A0041EA0B0153465A46084353
:10C9A00013D0114653EA010019D0C8F14002504695
:10C9B000FFF78AFC05460E46504659464246FFF7A9
:10C9C00071FF084305D0012004E020463946BDE848
:10C9D000F08D0020054346EAE0762C4337430A9861
:10C9E0006305E40AA0EB08000022FD0A44EA47546C
:10C9F0000A3002D500200146E9E701051019694116
:10CA0000DDE9084500196941BDE8F04DA2E7C1F331
:10CA10000A52C1F3130140F2FF3341F480119A42EC
:10CA200002DA00200146704740F233439A42A2F2F4
:10CA3000334202DC5242FFF747BCFFF733BF00002E
:10CA4000064C074D06E0E06840F0010394E807005B
:10CA500098471034AC42F6D3FFF76EFBD4090708B1
:10CA6000F409070870B58C1810F8015B15F007037E
:10CA700001D110F8013B2A1106D110F8012B03E077
:10CA800010F8016B01F8016B5B1EF9D12B0705D47F
:10CA90000023521E0DD401F8013BFAE710F8013BC8
:10CAA000CB1A921C03E013F8015B01F8015B521EE4
:10CAB000F9D5A142D8D3002070BD000010B50120E7
:10CAC00059F098F909490860094849F025FC0848D7
:10CAD00049F032FC074849F01FFC064849F02CFC9D
:10CAE000054A8021054811F0BEF810BDF000002075
:10CAF000E8000020EC000020549400204494002022
:10CB0000002463E0324908194FF0FF3100F07CFA4D
:10CB100000212F4A601C1154002C44D01046005DA7
:10CB20000A2840D1601E1146085C0D283BD129A17E
:10CB30001046FFF70FFCF8B1254800F017FA03285C
:10CB40000ED1002425A006F0ABFA002000F056FA22
:10CB500080211F48FFF7F3FB234849F0FDFB32E03B
:10CB60000024002000F04AFA80211948FFF7E7FB73
:10CB70001D4849F0F1FB26E01CA11548FFF7EAFB30
:10CB800058B10024601E00F039FA80211048FFF7E8
:10CB9000D6FB154849F0E0FB15E0002480210C4845
:10CBA000FFF7CDFB0FE00A4800F0E0F9012808D1BB
:10CBB000074805F07BFC002480210548FFF7BFFBF8
:10CBC00001E0601CC4B2802C00DB00249AE7000066
:10CBD000D49400204F4B0D0A0000000073656E6472
:10CBE00020627573790D0A00E80000204552524F0B
:10CBF000520D0A0070B504460D460EE02146074866
:10CC000011F037F808B9002070BD2946044849F0F2
:10CC10009BFB10B96FF00100F6E7EFE744940020AA
:10CC2000EC0000202DE9F04104460E4615462A4648
:10CC30003146204600F0FAF94FF47A7202210AA038
:10CC400000F0F4F9094804602946094849F07CFBE2
:10CC500007462FB100F084F980464046BDE8F081D8
:10CC60006FF00100FAE700000D0A0000F800002054
:10CC7000E80000202DE9F04104460E4615462A46FC
:10CC80003146204600F0D2F9084804602946084899
:10CC900049F05AFB07462FB100F062F98046404642
:10CCA000BDE8F0816FF00100FAE70000F800002015
:10CCB000E800002010B510F099FA01200249087030
:10CCC00052F0DAFC10BD00008001002010B51248BF
:10CCD000007806281CD2DFE800F00304070A0D10D4
:10CCE00017E018F081FB14E018F02CFB11E018F0AD
:10CCF000A5FA0EE018F08AFA0BE001F0C5FC07492E
:10CD00000968401AB0F57A7F01D301F0A3FF00E073
:10CD100000BF00BF10BD000080010020A401002062
:10CD200000BFFEE710B5024800F0D3FB10BD0000C5
:10CD3000B401002000B58BB000200590069007904C
:10CD4000012008904CF6C0400190002002904FF660
:10CD5000E0700390002004900120099001A90B4885
:10CD600000F038FA022006904AF6A0200190002038
:10CD700002904FF6E070039000200490012009908B
:10CD800001A9024800F026FA0BB000BDB401002052
:10CD900070B588B005460E460021114800F0A0FA93
:10CDA0003070002416E004EB440005EB8000831C87
:10CDB00001AA00210A4800F0A7FA04EB44010198F7
:10CDC00025F8210004EB440105EB810105988872E8
:10CDD000601CC4B23078A042E5DC08B070BD000031
:10CDE000B401002070B588B004460D46164600BF59
:10CDF0000C4800F053FB0028FAD002940020049065
:10CE00000590069601AB2A4602A9064800F03DF9B6
:10CE100000BF044800688068C0F340000028F8D0D4
:10CE200008B070BDB401002010B5024800F0B6FF94
:10CE300010BD00009005002030B590F8405001244E
:10CE4000AC40C56B6C60046863604468102C04D10E
:10CE50000468A2600468E16003E00468A1600468FB
:10CE6000E26030BD704772B600BFFEE770B50446A1
:10CE7000B3F5804F13D1D1E9000540EA05108D6864
:10CE800040EA05208D6928438D8940EA054054F821
:10CE90002250064E3540284344F8220003E06FF04C
:10CEA000704044F82200002070BD00000000F0CF68
:10CEB00070B50246086852F8200020F001000E68A4
:10CEC00042F826008868082801D1402300E00023AA
:10CED000486818438E683043CE6830430E6930434B
:10CEE0004E693043CE6930430E6A30434E6A304358
:10CEF0008E6A3043CE6A30430E6B40EA060488697E
:10CF00000443486B0443074D45F4806545F4E02530
:10CF1000086852F82000A84320430E6842F8260013
:10CF2000002070BD7FFB080010B50346D1E9000466
:10CF300040EA04108C6840EA04208C8940EA0444EA
:10CF4000088A401E44EA0054087D801E44EA0060BE
:10CF50008C692043541C43F82400002010BD0000BD
:10CF60000148006870470000F400002010B5044636
:10CF700017A12046FFF7EEF928B1012016490870E5
:10CF80000846007810BD1548006870B114A1134818
:10CF90000068FFF7DFF940B120783E2805D1022074
:10CFA0000D49087008460078ECE710A12046FFF70D
:10CFB000D1F950B10FA12046FFF7CCF928B10320D9
:10CFC0000549087008460078DCE70020DAE7000031
:10CFD0002B4950442C000000FC000020F8000020E9
:10CFE00041542B43495053454E443D00627573797B
:10CFF0000000000053454E44204F4B00014908609B
:10D0000070470000F400002070B504460D4609E0AA
:10D010002146054810F02DFE00B970BD29460120BB
:10D0200057F00AFAF4E700008804002070B50546BE
:10D030000C4616464FF0FF310848006859F06EFA6A
:10D04000A1B23246284657F04BF900231A4619463A
:10D050000248006858F0C8FF70BD0000F0000020D2
:10D0600010B5024692F82030012B01D0022B06D1D8
:10D0700010684069084314686061002010BD506A60
:10D0800040F4802050620120F8E7F0B504460D46D8
:10D090001E4694F8207020688368A86800B900E0F4
:10D0A00000BF012F01D0022F7DD103F0806030B985
:10D0B00003F0006018B903F0805000287ED0C3F35D
:10D0C0000161012088403060A86860B9B5F800C0EF
:10D0D000E86840EA4C5C206800F5C07000EB011085
:10D0E000C0F800C00FE0D5E901C040EACC00D5F897
:10D0F0000CC040EA0C00D4F800C00CF5C07C0CEB6E
:10D10000011CCCF80000D5F810C0206800F5C070F4
:10D1100000EB0110C0F804C0287D01280ED1206862
:10D1200000F5C07000EB0110406840F4807C20687E
:10D1300000F5C07000EB0110C0F804C0D079000603
:10D1400092F806C040EA0C4092F805C040EA0C2074
:10D1500092F804C040EA0C00D4F800C00CF5C07C82
:10D160000CEB011CCCF80C00D078000692F802C041
:10D1700040EA0C4092F801C040EA0C2092F800C04E
:10D1800040EA0C00D4F800C00CF5C07C0CEB011C8C
:10D19000CCF80800206800F5C07000EB01100068B2
:10D1A00040F0010C01E00FE008E0206800F5C070DD
:10D1B00000EB0110C0F800C00020F0BD606A40F430
:10D1C000001060620120F8E7606A40F4802060622D
:10D1D0000120F2E7F0B504460A46216894F8205091
:10D1E000012D01D0022D74D1D1F8000240F00100D0
:10D1F000C1F80002107D00F01F06012000FA06F3BE
:10D20000D1F81C029843C1F81C02D069C8B9D1F802
:10D210000C029843C1F80C02908880B2968940EACB
:10D22000064601F51070576940F83760108880B2E3
:10D23000168940EA064601F51070576900EBC700F1
:10D240004660D069012819D1D1F80C021843C1F801
:10D250000C02908880B2168840EA064601F51070EC
:10D26000576940F83760908980B2168940EA0646CF
:10D2700001F51070576900EBC7004660906928B946
:10D28000D1F804029843C1F8040204E0D1F8040282
:10D290001843C1F80402106928B9D1F81402984360
:10D2A000C1F8140204E0D1F814021843C1F81402C2
:10D2B000106A012804D1D1F81C021843C1F81C02DD
:10D2C000D1F8000220F00100C1F800020020F0BDFA
:10D2D000FFE7606A40F4802060620120F7E7704752
:10D2E00010B50246002092F82030012B01D0022B0D
:10D2F00009D121B91468E46804F0030003E014685C
:10D30000246904F0030010BD70B5044694F8205061
:10D31000012D01D0022D7DD151B92068C06800F0E7
:10D32000030080B9606A40F400106062012070BDA3
:10D330002068006900F0030028B9606A40F400101A
:10D3400060620120F3E7206800F5D87000EB01105F
:10D35000006800F004009060906840B9206800F513
:10D36000D87000EB01100068400D106007E02068E5
:10D3700000F5D87000EB01100068C008506020680C
:10D3800000F5D87000EB0110006800F00200D060DA
:10D39000206800F5D87000EB0110406800F00F0025
:10D3A000082802D30820106108E0206800F5D87032
:10D3B00000EB0110406800F00F001061206800F5DC
:10D3C000D87000EB0110406800F47F40000A9061C3
:10D3D000206800F5D87000EB01104068000C506127
:10D3E000206800F5D87000EB011080681870206884
:10D3F00000F5D87000EB0110806800F47F40000A4F
:10D400005870206800F5D87000EB0110806800F4B7
:10D410007F0000E03CE0000C9870206800F5D870B8
:10D4200000EB01108068000ED870206800F5D870FD
:10D4300000EB0110C0681871206800F5D87000EB8F
:10D440000110C06800F47F40000A5871206800F5A0
:10D45000D87000EB0110C06800F47F00000C9871D8
:10D46000206800F5D87000EB0110C068000ED8717C
:10D4700031B92068C06840F020002668F06005E0FF
:10D480002068006940F020002668306100204EE7E7
:10D49000606A40F480206062012048E70146002075
:10D4A00091F82020012A01D0022A11D10B689B6833
:10D4B00003F0806303B1401C0B689B6803F00063BA
:10D4C00003B1401C0B689B6803F0805303B1401C00
:10D4D00070472DE9F05F0446002520684669206802
:10D4E000D0F80490206887682068D0F80CA02068E5
:10D4F000D0F810B02068D0F8188006F0010000289D
:10D5000055D007F00100C0B101202168886007F004
:10D51000020018B1204600F0FEFA0EE007F0040009
:10D5200010B145F4006508E007F0080010B145F4BB
:10D53000805502E0204600F0EDFA07F48070C8B193
:10D540004FF480702168886007F4007018B120469D
:10D5500000F0E3FA0EE007F4806010B145F40055E6
:10D5600008E007F4006010B145F4804502E0204671
:10D5700000F0D2FA07F48030C8B14FF4803021684F
:10D58000886007F4003018B1204600F0C8FA0EE0B9
:10D5900007F4802010B145F4004508E007F40020AE
:10D5A00010B145F4803502E0204600F0B7FA06F0ED
:10D5B000080038B10AF0100020B145F400751020C1
:10D5C0002168C86006F0040040B10AF0080028B1E4
:10D5D00008202168C860204600F0B0F906F002007B
:10D5E00038B12068C06800F0030010B1204600F098
:10D5F000A7F906F0400038B10BF0100020B145F457
:10D60000806510202168086106F0200040B10BF011
:10D61000080028B1082021680861204600F0DCF9E4
:10D6200006F0100038B12068006900F0030010B166
:10D63000204600F0D3F906F4003040B109F01000A4
:10D6400028B1102021684860204600F033FA06F423
:10D65000803040B109F0080028B1082021684860F6
:10D66000204600F05DFA06F4004088B309F004009B
:10D6700078B306F4807020B108F0010008B145F0DD
:10D68000010506F4007020B108F0020008B145F071
:10D69000020506F4806020B108F0040008B145F0EE
:10D6A000040506F40060A0B108F0700088B108F02D
:10D6B0007000402817D006DC10280BD020280CD092
:10D6C000302819D10CE0502810D0602814D110E077
:10D6D0001DE019E045F008050FE045F010050CE0ED
:10D6E00045F0200509E045F0400506E045F08005DD
:10D6F00003E045F4807500E000BF00BF206880694A
:10D7000020F07000216888610420216848602DB1F4
:10D71000606A284360622046FFF7E1FDBDE8F09FA4
:10D7200070B504460CB9012070BD94F8200010B902
:10D73000204600F0AFF82068006840F00100216842
:10D74000086000F0A1FF05460DE000F09DFF401BC2
:10D750000A2808D9606A40F400306062052084F825
:10D7600020000120E0E72068406800F00100002868
:10D77000EBD02068006820F002002168086000F00B
:10D7800083FF05460DE000F07FFF401B0A2808D903
:10D79000606A40F400306062052084F820000120B7
:10D7A000C2E72068406800F002000028EBD1207E2C
:10D7B000012806D12068006840F0800021680860D8
:10D7C00005E02068006820F0800021680860607E25
:10D7D000012806D12068006840F0400021680860F8
:10D7E00005E02068006820F0400021680860A07E05
:10D7F000012806D12068006840F0200021680860F8
:10D8000005E02068006820F0200021680860E07EC4
:10D81000012806D12068006820F010002168086007
:10D8200005E02068006840F0100021680860207F53
:10D83000012806D12068006840F0080021680860CF
:10D8400005E02068006820F0080021680860607F1B
:10D85000012806D12068006840F0040021680860B3
:10D8600005E02068006820F0040021680860D4E921
:10D870000201084321690843616908436168491E40
:10D8800008432168C86100206062012084F82000FC
:10D89000002049E710B586B00446002002900390AE
:10D8A000049005902249206888423ED100BF21485B
:10D8B000C06940F000701F49C8610846C06900F0A7
:10D8C0000070019000BF00BF00BF0846806940F0B3
:10D8D000040088610846806900F00400019000BFE0
:10D8E00000BFC814029000200390049002A91248BF
:10D8F00000F012FD4FF480500290022003900320AC
:10D90000059002A90C4800F007FD00220621142012
:10D9100001F04EF9142001F03BF9002206211520F8
:10D9200001F046F9152001F033F906B010BD0000F2
:10D9300000640040001002400008014070470000F1
:10D9400030B591B005460020049004A905A8FFF762
:10D950001FFA002434E004EB440005A931F820004C
:10D96000ADF8040004EB440001EB8000807A8DF8F0
:10D97000060004EB440001EB800050F8021FCDF8D4
:10D9800007104068CDF80B000020009000236A4685
:10D9900001A90E48006858F0FBFB00236A4601A964
:10D9A0000B48006858F0F4FB009838B14FF08050F5
:10D9B00008490860BFF34F8FBFF36F8F601CC4B27C
:10D9C0009DF810008442C6DB11B030BD200000205D
:10D9D0002400002004ED00E07047000030B589B05D
:10D9E00004466B4602AA01212046FFF78DFC26481B
:10D9F0000078022832D1002028E01DF80030234AA8
:10DA000011884A1C214D2A80214A12685354214909
:10DA10000968491C1F4A116029460988FF2913DD3E
:10DA20001B4909681C4A1160194909681B4A91423F
:10DA300001D11B4900E01949154A11600021134A20
:10DA400011800121174A1170411CC8B20699814208
:10DA5000D3D800F019FE1449086013E00A48007892
:10DA600003280FD1002005E01DF800100F4A1154C3
:10DA7000411CC8B20699814201D90428F4DB012077
:10DA80000B49087009B030BD800100208C010020D6
:10DA9000840100209001002088010020ECF4002087
:10DAA000ECF500209C010020980100209E01002040
:10DAB0009D010020704770B5044694F820000128AD
:10DAC00022D1022084F820002068006820F00100A4
:10DAD0002168086000F0D8FD05460DE000F0D4FD97
:10DAE000401B0A2808D9606A40F4003060620520B3
:10DAF00084F82000012070BD2068406800F001001B
:10DB00000028EBD16062F6E7606A40F400206062B2
:10DB10000120F0E7704770477047704770477047C3
:10DB2000704770B503460C46002002255D71002148
:10DB300004E054F821501E683560491C9142F8D326
:10DB40001D68286801255D7170BD10B504460CB9CB
:10DB5000012010BD607920B900202071204600F01E
:10DB600005F8012060710020F3E7000008B5094ABC
:10DB7000016891420DD100BF0749496941F0400158
:10DB8000054A51611146496901F04001009100BF09
:10DB900000BF08BD003002400010024001460022D4
:10DBA00091F82100022808D00420886300BF0020DB
:10DBB00081F8200000BF012070470868006820F04D
:10DBC0000E000B6818600868006820F001000B6800
:10DBD000186091F8403001209840CB6B58600120CC
:10DBE00081F8210000BF002081F8200000BF10460E
:10DBF000E2E7000070B50446002594F821000228F1
:10DC000003D00420A0630125C1E02068006820F053
:10DC10000E00216808602068006820F0010021687B
:10DC200008605C492068884252D95A49783920688E
:10DC3000884201D1012047E0564964392068884272
:10DC400001D1102040E0534950392068884201D169
:10DC5000801539E04F493C392068884201D1801451
:10DC600032E04C4928392068884202D14FF4803094
:10DC70002AE0484914392068884202D14FF48010C4
:10DC800022E044492068884201D140041CE0424916
:10DC90002068884201D1012016E03F4914312068F4
:10DCA000884201D110200FE03B492831206888428A
:10DCB00001D1801508E038493C312068884201D103
:10DCC000801401E04FF480303349091F086051E0AF
:10DCD000304978392068884201D1012047E02D4938
:10DCE00064392068884201D1102040E02949503928
:10DCF0002068884201D1801539E026493C392068E6
:10DD0000884201D1801432E02249283920688842B3
:10DD100002D14FF480302AE01E491439206888422D
:10DD200002D14FF4801022E01A492068884201D1C4
:10DD300040041CE018492068884201D1012016E007
:10DD4000154914312068884201D110200FE0124992
:10DD500028312068884201D1801508E00E493C3105
:10DD60002068884201D1801401E04FF480300949D5
:10DD700080394860012084F8210000BF002084F829
:10DD8000200000BF606B10B12046616B88472846B9
:10DD900070BD0000800002400804024070B50446D7
:10DDA000E06B05682068066894F8401004208840FD
:10DDB0002840002875D006F004000028FAD020681A
:10DDC000006800F0200028B92068006820F00400F6
:10DDD00021680860D5492068884254D9D3497839E8
:10DDE0002068884201D1042049E0D0496439206884
:10DDF000884201D1402042E0CC4950392068884215
:10DE000001D100153BE0C9493C392068884202D164
:10DE10004FF4804033E0C54928392068884202D158
:10DE20004FF480202BE0C14914392068884202D188
:10DE30004FF4800023E0BD492068884201D1C0042E
:10DE40001DE0BB492068884201D1042017E0B84991
:10DE500014312068884201D1402010E0B4492831B3
:10DE60002068884201D1001509E0B1493C312068A1
:10DE7000884202D14FF4804001E04FF48020AC4949
:10DE8000091F086054E0A94978392068884201D107
:10DE900004204AE0A54964392068884202D1402024
:10DEA00043E04CE0A14950392068884201D1001577
:10DEB0003BE09E493C392068884202D14FF48040C3
:10DEC00033E09A4928392068884202D14FF48020F3
:10DED0002BE0964914392068884202D14FF4800023
:10DEE00023E092492068884201D1C0041DE0904996
:10DEF0002068884201D1042017E08D491431206840
:10DF0000884201D1402010E08949283120688842A8
:10DF100001D1001509E086493C312068884202D1D0
:10DF20004FF4804001E04FF4802080498039486000
:10DF3000E06A002802D02046E16A8847F4E094F8BD
:10DF40004010022088402840002871D006F00200CE
:10DF50000028FAD02068006800F0200040B920684E
:10DF6000006820F00A0021680860012084F8210080
:10DF70006E492068884254D96C49783920688842B3
:10DF800001D1022049E0694964392068884201D101
:10DF9000202042E0654950392068884201D140156F
:10DFA0003BE062493C392068884202D14FF400507E
:10DFB00033E05E4928392068884202D14FF40030AE
:10DFC0002BE05A4914392068884202D14FF40010DE
:10DFD00023E056492068884201D180041DE054495D
:10DFE0002068884201D1022017E05149143120688D
:10DFF000884201D1202010E04D4928312068884214
:10E0000001D1401509E04A493C312068884202D1DB
:10E010004FF4005001E04FF400304549091F0860FB
:10E0200054E0424978392068884202D102204AE00F
:10E0300057E03E4964392068884201D1202042E0FF
:10E040003A4950392068884201D140153BE03749B0
:10E050003C392068884202D14FF4005033E0334904
:10E0600028392068884202D14FF400302BE02F4934
:10E0700014392068884202D14FF4001023E02B4964
:10E080002068884201D180041DE029492068884227
:10E0900001D1022017E0264914312068884201D1BD
:10E0A000202010E0224928312068884201D1401503
:10E0B00009E01F493C312068884202D14FF40050EA
:10E0C00001E04FF4003019498039486000BF00205A
:10E0D00084F8200000BFA06A30B32046A16A8847B8
:10E0E00022E094F84010082088402840E0B106F073
:10E0F0000800C8B12068006820F00E0021680860A0
:10E1000094F8401001208840E16B48600120A06332
:10E1100084F8210000BF002084F8200000BF206B9D
:10E1200010B12046216B884770BD0000800002407E
:10E13000080402400146002209B9012070471E4B25
:10E14000086898420BD21D4B0868C01A1423B0FB14
:10E15000F3F08000086419480838C8630AE0164BD9
:10E160000868C01A1423B0FBF3F08000086412485A
:10E170000838C863022081F821000868026843F665
:10E18000F0708243D1E901031843CB6818430B694F
:10E1900018434B6918438B691843CB6918430243F2
:10E1A0000868026000208863012081F821000020B7
:10E1B00081F8200000BFC1E70804024008000240C7
:10E1C0002DE9F04104460D4616461F464FF0000863
:10E1D00000BF94F82000012802D10220BDE8F081A0
:10E1E000012084F8200000BF94F8210001282CD1E0
:10E1F000022084F821000020A0632068006820F03D
:10E200000100216808603B46324629462046FEF759
:10E2100013FEE06A30B12068006840F00E0021680B
:10E2200008600BE02068006820F0040021680860A6
:10E230002068006840F00A002168086020680068D3
:10E2400040F001002168086006E000BF002084F86B
:10E25000200000BF4FF002084046BFE770B50446FB
:10E2600000F012FA06462546681C10B104480078F2
:10E27000054400BF00F008FA801BA842FAD370BD25
:10E280005000002000B585B000200190029003905E
:10E2900004901C48006808B105B000BD0120194970
:10E2A000086000BF1848406940F480701649486112
:10E2B0000846406900F48070009000BF00BF41F242
:10E2C00001000190022002900320049001A90F4850
:10E2D00000F022F84FF68070019002200290032097
:10E2E000049001A90A4800F017F84CF2337001902D
:10E2F000022002900320049001A9064800F00CF8C7
:10E3000000BFC9E738000020001002400020014093
:10E3100000180140001401402DE9F847024600238F
:10E320009C467BE14FF0010808FA03F4D1F8008025
:10E3300008EA0400A0427DD1DFF8F4A2D1F80480FD
:10E34000A8EB0A09D0453AD014DCB8F1030F50D03D
:10E3500009DCB8F1000F31D0B8F1010F1CD0B8F1D1
:10E36000020F49D120E0B8F1110F18D0B8F1120F07
:10E3700042D11EE0B9F5881F25D006DCB9F5803FF3
:10E3800020D0B9F5801F37D11AE0B9F5001F18D099
:10E39000B9F5041F30D117E0D1F80CC02DE0D1F849
:10E3A0000C8008F1040C28E0D1F80C8008F1080C6E
:10E3B00023E0D1F80C8008F10C0C1EE000BF00BF78
:10E3C00000BF00BF00BF00BFD1F80880B8F1000F48
:10E3D00002D14FF0040C0BE0D1F80880B8F1010F26
:10E3E00003D14FF0080C146102E04FF0080C5461A7
:10E3F00003E04FF0000C00E000BF00BFFF2801D891
:10E40000904601E002F104084646FF2802D84FEA90
:10E41000830803E0A3F108084FEA88084746D6F8C6
:10E4200000804FF00F0909FA07F928EA09080CFAE9
:10E4300007F900E07AE048EA0908C6F80080D1F858
:10E44000048008F08058B8F1805F6FD100BFDFF81A
:10E45000E481D8F8188048F00108DFF8D891C9F8AD
:10E460001880C846D8F8188008F00108CDF8008058
:10E4700000BF00BF4FEAB9384FEA930958F8295056
:10E480004FEA83784FEA18794FF00F0808FA09F835
:10E4900025EA0805DFF8A081424502D14FF00008C7
:10E4A00024E0DFF89881424502D14FF001081DE0D9
:10E4B000DFF88C81424502D14FF0020816E0DFF808
:10E4C0008481424502D14FF003080FE0DFF87881E4
:10E4D000424502D14FF0040808E0DFF87081424560
:10E4E00002D14FF0050801E04FF006084FEA8379AA
:10E4F0004FEA197908FA09F848EA0505DFF850816A
:10E500004FEA930948F82950D1F8048008F480189C
:10E51000B8F5801F0BD1DFF83C81D8F8008048EABD
:10E520000008DFF83091C9F800800AE075E0DFF8F4
:10E530002481D8F8008028EA0008DFF81891C9F88B
:10E540000080D1F8048008F40018B8F5001F0ED13F
:10E55000DFF8008108F10408D8F8008048EA0008D4
:10E56000DFF8F09009F10409C9F800800DE0DFF848
:10E57000E48008F10408D8F8008028EA0008DFF8F1
:10E58000D49009F10409C9F80080D1F8048008F496
:10E590000038B8F5003F0ED1DFF8B880A8F10408C4
:10E5A000D8F8008048EA0008DFF8A890A9F104092B
:10E5B000C9F800800DE0DFF89C80A8F10408D8F8C5
:10E5C000008028EA0008DFF88C90A9F10409C9F856
:10E5D0000080D1F8048008F48038B8F5803F0ED16F
:10E5E000DFF87080A8F10808D8F8008048EA000831
:10E5F000DFF86090A9F10809C9F800800DE0DFF8A4
:10E600005480A8F10808D8F8008028EA0008DFF84C
:10E610004490A9F10809C9F800805B1CD1F800807A
:10E6200028FA03F8B8F1000F7FF47CAEBDE8F88754
:10E63000000011100010024000080140000C0140D1
:10E64000001001400014014000180140001C01406E
:10E650000800014008040140024693680B400BB1DA
:10E66000012000E00020704710B5C26821EA0203D3
:10E6700002EA010443EA0443036110BD0AB10161E7
:10E6800001E00B0403617047014800687047000017
:10E690004800002070B504460CB9012070BD94F804
:10E6A0003D0028B9002084F83C00204600F08CF999
:10E6B000242084F83D002068006820F001002168D3
:10E6C00008602068006840F4004021680860206805
:10E6D000006820F400402168086000F0CBFB05468C
:10E6E0005C496068884206D85B48854201D20120B7
:10E6F00007E0002005E05948854201D2012000E0F2
:10E700000020012800D1C9E75548B5FBF0F6206884
:10E71000406820F03F003043216848604D49606800
:10E72000884201D8701C07E04FF4967070434FF494
:10E730007A71B0FBF1F0401C2168096A21F03F01B9
:10E7400008432168086243496068884214D8681EFB
:10E7500061684900B0FBF1F0401CC0F30B000428D5
:10E7600001D204203DE0681E61684900B0FBF1F071
:10E77000401CC0F30B0034E0A06838B9681E616823
:10E7800001EB4101B0FBF1F0401C0AE0681E61683A
:10E7900001EBC10202EB0111B0FBF1F0401C40F4AF
:10E7A0008040C0F30B0008B901201AE0A06848B906
:10E7B000681E616801EB4101B0FBF1F0401CC0F341
:10E7C0000B000CE0681E616801EBC10202EB011155
:10E7D000B0FBF1F0401CC0F30B0040F4804040F46B
:10E7E00000402168C9694CF6FF72914308432168D3
:10E7F000C861D4E9070108432168096821F0C00114
:10E80000084321680860D4E9031008432168896837
:10E8100048F2FF329143084321688860D4E905013A
:10E8200008432168C96821F0FF0108432168C860D6
:10E830002068006840F00100216808600020206422
:10E84000202084F83D000020206384F83E0000BFB3
:10E8500024E70000A086010080841E0000093D001E
:10E8600040420F002DE9FC5F04460F469046994652
:10E87000DDE90CAB0E9EFFF707FF054694F83D005F
:10E8800020287DD1192301224D492046009501F011
:10E89000F0FF10B10220BDE8FC9F00BF94F83C00DF
:10E8A000012801D10220F6E7012084F83C0000BFD6
:10E8B0002068006800F0010028B92068006840F076
:10E8C0000100216808602068006820F40060216869
:10E8D0000860212084F83D00402084F83E0000209C
:10E8E0002064C4F824A0A4F82AB0608D208535489F
:10E8F000E0624B46424639462046CDE9006501F0CC
:10E9000015FF08B10120C6E731E02A46314620460E
:10E9100002F08BF850B1206C042805D12068006803
:10E9200040F40070216808600120B4E7606A007854
:10E9300021680861606A401C6062208D401E20854D
:10E94000608D401E608520684069C0F3800070B112
:10E95000208D60B1606A007821680861606A401C9F
:10E960006062208D401E2085608D401E6085208D58
:10E970000028CAD12A463146204601F047FF00E070
:10E980001CE050B1206C042805D12068006840F4D8
:10E9900000702168086001207DE72068006840F46D
:10E9A000007021680860202084F83D00002084F871
:10E9B0003E0000BF84F83C0000BF6CE702206AE71D
:10E9C000020010000000FFFF10B586B004460020D2
:10E9D000029003900490059015492068884225D143
:10E9E00000BF1448806940F0080012498861084659
:10E9F000806900F00800019000BF00BFC0200290B5
:10EA0000122003900320059002A90B48FFF784FC15
:10EA100000BF0848C06940F400100649C8610846B4
:10EA2000C06900F40010019000BF00BF06B010BD27
:10EA30000054004000100240000C014003480068F0
:10EA400003490978084401490860704748000020DC
:10EA50005000002010B50848006840F0100006493A
:10EA60000860032000F0E2F80F2000F007F800F043
:10EA70005FF8002010BD0000002002402DE9F041A9
:10EA800088B004460027B846002600BF2348C06966
:10EA900040F004002149C8610846C06900F0040044
:10EAA000019000BF00BF02A903A800F0BBF9069FB8
:10EAB0001FB900F0DFF9054602E000F0DBF9450080
:10EAC0001748B5FBF0F0A0F1010816481649086098
:10EAD00040F2E7311448C160C0F8048000210161B0
:10EAE0008160816100F0F2FF064696B90E4801F0A0
:10EAF00021F806466EB91E2000F04AF8102C07D205
:10EB0000002221461E2000F053F80848046000E06F
:10EB10000126304608B0BDE8F08100000010024038
:10EB200040420F0000080040D40500204C000020A7
:10EB300008B500BF1448806940F00100124988619F
:10EB40000846806900F00100009000BF00BF00BFD0
:10EB50000846C06940F08050C8610846C06900F0AE
:10EB60008050009000BF00BF00220F21901E00F0D7
:10EB70001FF800BF0549486820F0E06040F00070D1
:10EB8000486000BF08BD00000010024000000140C6
:10EB900001460846002809DB00F01F0301229A40C5
:10EBA00043099B0003F1E023C3F8002100BF704735
:10EBB0002DE9F05F80460D461646002704F0AEFAB8
:10EBC000074639462A46334601F00700C0F1070AD6
:10EBD000BAF1040F02D94FF0040A01E0C0F1070AAC
:10EBE000D14600F1040ABAF1070F02D24FF0000A31
:10EBF00001E0A0F1030AD4464FF0010A0AFA09FA2B
:10EC0000AAF1010A0AEA020A0AFA0CFA4FF0010B09
:10EC10000BFA0CFBABF1010B0BEA030B4AEA0B04FA
:10EC20002146404604F082FABDE8F09F00BF00F0A4
:10EC30000702064B19684FF6FF031940044B0B43BC
:10EC400043EA0221014B196000BF70470CED00E060
:10EC50000000FA0500BF00BF00BF00BF00BFBFF348
:10EC60004F8F00BF00BF00BF0948006800F4E0609C
:10EC700008490843001D0649086000BF00BF00BFE7
:10EC8000BFF34F8F00BF00BF00BF00BF00BFFDE755
:10EC90000CED00E00000FA0570B504460D460CB915
:10ECA000012070BD5A48006800F00700A8420ED24B
:10ECB0005748006820F00700284355490860084677
:10ECC000006800F00700A84201D00120E9E72078A1
:10ECD00000F0020002281DD1207800F00400042872
:10ECE00005D14C48406840F4E0604A4948602078CB
:10ECF00000F00800082805D14648406840F46050FC
:10ED0000444948604348406820F0F000A168084347
:10ED100040494860207800F0010078B3606801281D
:10ED200006D13C48006800F4003090B90120B8E7F3
:10ED30006068022806D13748006800F0007040B9CA
:10ED40000120AEE73348006800F0020008B9012056
:10ED5000A7E73048406820F00300616808432D4968
:10ED60004860FFF791FC064609E0FFF78DFC801B29
:10ED700041F28831884202D9032092E707E0254812
:10ED8000406800F00C006168B0EB810FEDD12048C5
:10ED9000006800F00700A8420ED91D48006820F066
:10EDA000070028431A4908600846006800F0070079
:10EDB000A84201D0012074E7207800F00400042864
:10EDC00007D11448406820F4E060E1680843114925
:10EDD0004860207800F00800082808D10D484068F5
:10EDE00020F46050216940EAC1000A49486000F0FF
:10EDF00061F808494968C1F30311074A515CC840EA
:10EE00000649086006480068FFF738FE002048E71A
:10EE10000020024000100240D0700608540000207C
:10EE20004C0000200F2202600D4A526802F00302DB
:10EE300042600B4A526802F0F0028260084A52684F
:10EE400002F4E062C260064A526802F46052D208DC
:10EE50000261044A126802F007020A60704700006B
:10EE60000010024000200240014800687047000086
:10EE70005400002000B5FFF7F7FF04494968C1F3CB
:10EE80000221034A515CC84000BD0000001002404E
:10EE9000E070060800B5FFF7E7FF04494968C1F3D1
:10EEA000C221034A515CC84000BD0000001002406E
:10EEB000E070060870B50021002200240023002025
:10EEC000134D696801F00C05F5B1042D02D0082D31
:10EED00019D101E00F4819E00F4DC1F38346AB5D36
:10EEE00001F4803555B10A4D6D68C5F340450B4EB0
:10EEF000725D084D5D43B5FBF2F402E0084D03FB83
:10EF000005F4204602E000BF024800BF00BF70BD0C
:10EF10000010024000127A00BE700608CE7006088B
:10EF200000093D00F8B504460CB90120F8BD207871
:10EF300000F00100002878D0F848406800F00C008C
:10EF400004280CD0F548406800F00C00082811D1C6
:10EF5000F248406800F48030B0F5803F0AD1EF48B5
:10EF6000006800F4003000285FD0606800285CD1A1
:10EF70000120DBE700BF6068B0F5803F06D1E748BD
:10EF8000006840F48030E549086028E0606858B9BE
:10EF9000E248006820F48030E049086008460068D4
:10EFA00020F4802008601AE06068B0F5A02F0BD133
:10EFB000DA48006840F48020D849086008460068B4
:10EFC00040F4803008600AE0D448006820F48030C3
:10EFD000D24908600846006820F48020086000BF1D
:10EFE000606888B1FFF750FB054606E0FFF74CFB71
:10EFF000401B642801D9032098E7C848006800F442
:10F0000000300028F2D010E0FFF73EFB054606E096
:10F01000FFF73AFB401B642801D9032086E7BF486D
:10F02000006800F400300028F2D1207800F00200DF
:10F03000022857D1B948406800F00C0050B1B748D9
:10F04000406800F00C00082818D1B448406800F46B
:10F05000803098B9B148006800F0020020B1206902
:10F06000012801D0012061E7AC48006820F0F800D9
:10F07000616940EAC100A949086033E02069E8B14C
:10F080000120A7490860FFF7FFFA054606E0FFF7F1
:10F09000FBFA401B022801D9032047E79F4800687C
:10F0A00000F002000028F2D09C48006820F0F80030
:10F0B000616940EAC1009949086013E0002098495D
:10F0C0000860FFF7E1FA054606E0FFF7DDFA401BAE
:10F0D000022801D9032029E79048006800F00200C7
:10F0E0000028F2D1207800F0080008282DD1A0696E
:10F0F000B8B101208B490860FFF7C6FA054606E063
:10F10000FFF7C2FA401B022801D903200EE783480B
:10F11000406A00F002000028F2D0012003F00EFA4D
:10F1200013E000207F490860FFF7AEFA054606E0CD
:10F13000FFF7AAFA401B022801D90320F6E6774818
:10F14000406A00F002000028F2D1207800F00400AC
:10F15000042873D100277148C06900F0805070B94D
:10F1600000BF6E48C06940F080506C49C8610846D5
:10F17000C06900F08050009000BF00BF01276A48BE
:10F18000006800F48070B0B96748006840F480708F
:10F1900065490860FFF778FA054606E0FFF774FA5C
:10F1A000401B642801D90320C0E65F48006800F4D2
:10F1B00080700028F2D000BFE068012806D15748CF
:10F1C000006A40F001005549086227E0E06858B93C
:10F1D0005248006A20F00100504908620846006A5F
:10F1E00020F00400086219E0E06805280BD14B48C4
:10F1F000006A40F00400494908620846006A40F08D
:10F20000010008620AE04548006A20F00100434915
:10F2100008620846006A20F00400086200BFE06847
:10F22000A0B1FFF731FA054609E0FFF72DFA401BC0
:10F2300041F28831884202D9032077E622E037483C
:10F24000006A00F002000028EFD012E0FFF71CFA7D
:10F25000054608E0FFF718FA401B41F28831884262
:10F2600001D9032062E62D48006A00F00200002860
:10F27000F0D1012F05D12948C06920F080502749DD
:10F28000C86100BFE069C8B32448406800F00C00C2
:10F29000082860D0E069022848D10020204908668B
:10F2A000FFF7F2F9054606E0FFF7EEF9401B0228EA
:10F2B00001D903203AE61948006800F000700028E0
:10F2C000F2D1206AB0F5803F07D11448406820F49D
:10F2D0000030A168084311494860D4E90801084397
:10F2E0000E49496821F4741108430C494860012013
:10F2F0000B490866FFF7C8F9054607E03DE0FFF750
:10F30000C3F9401B022801D903200FE60348006817
:10F3100000F000700028F2D02FE000000010024042
:10F320000000424280044242007000400020144924
:10F330000866FFF7A9F9054606E0FFF7A5F9401BA7
:10F34000022801D90320F1E50E48006800F00070A2
:10F350000028F2D111E0E069012800D1E6E5094872
:10F36000466806F48031206A814204D106F47011A7
:10F37000606A814201D00120D8E50020D6E5000076
:10F38000000042420010024010B504460CB90120B2
:10F3900010BD606A38B96068B0F5827F00D105E0C1
:10F3A0000021E16102E00021216161610021A1628F
:10F3B00094F8510028B9002084F85000204600F04D
:10F3C00043F8022084F851002068006820F04000D3
:10F3D00021680860A08800F48270218901F404414A
:10F3E0000843A18901F400610843217C01F0020176
:10F3F0000843217D01F001010843218B01F40071D4
:10F400000843217F01F0380108432021095D01F004
:10F4100080010843218D01F40051084321680860F0
:10F420000421A06901EA1040216848602068C06991
:10F4300020F400602168C86100206065012084F824
:10F4400051000020A4E7000010B586B0044600205B
:10F4500002900390049005901A49206888422FD1A9
:10F4600000BF1948C06940F480401749C861084688
:10F47000C06900F48040019000BF00BF00BF084693
:10F48000806940F0080088610846806900F0080043
:10F49000019000BF00BF4FF4204002900220039073
:10F4A0000320059002A90948FEF736FF4FF480407B
:10F4B000029000200390049002A90448FEF72CFF5C
:10F4C00006B010BD0038004000100240000C0140A2
:10F4D0002DE9F8430446884616461D4694F8510027
:10F4E000012802D00220BDE8F8836068B0F5827F71
:10F4F0000CD1A06850B9042084F85100334642462C
:10F5000041462046009500F083F9ECE7FFF7BCF890
:10F510000746B8F1000F00D00EB90120E3E700BFA5
:10F5200094F85000012801D10220DCE7012084F882
:10F53000500000BF042084F8510000206065C4F82A
:10F540003880A687E6872063A086E0862064606412
:10F55000A068B0F5004F0BD12068006820F0400093
:10F56000216808602068006820F4804021680860F5
:10F570002068006800F04000402805D0206800683E
:10F5800040F0400021680860E06830BB21E020685E
:10F59000806800F0010050B12068007BA16B08700A
:10F5A000A06B401CA063E08F401EE08711E0FFF7D6
:10F5B0006BF8C01BA84201D3681C00B94DB90120EB
:10F5C00084F8510000BF002084F8500000BF0320E1
:10F5D00089E7E08F0028DAD125E021E02068806803
:10F5E00000F0010050B12068C068A16B0880A06BDA
:10F5F000801CA063E08F401EE08711E0FFF744F815
:10F60000C01BA84201D3681C00B94DB9012084F881
:10F61000510000BF002084F8500000BF032062E7C3
:10F62000E08F0028DAD13A462946204602F09AFFB8
:10F6300008B120206065012084F8510000BF00203F
:10F6400084F8500000BF606D08B101204BE7002036
:10F6500049E72DE9F84304460F4616461D46FFF7D5
:10F6600013F88046B14694F85100012802D00220D8
:10F67000BDE8F88307B10EB90120F9E700BF94F89F
:10F680005000012801D10220F2E7012084F8500047
:10F6900000BF032084F85100002060652763A68620
:10F6A000E686A063A087E08760642064A068B0F568
:10F6B000004F0BD12068006820F0400021680860EE
:10F6C0002068006840F48040216808602068006875
:10F6D00000F04000402805D02068006840F040005D
:10F6E00021680860E068B0F5006F37D1606810B13C
:10F6F000B9F1010F09D1206B00882168C860206B27
:10F70000801C2063E08E401EE08623E02068806835
:10F7100000F0020002280AD1206B00882168C8602E
:10F72000206B801C2063E08E401EE08612E0FEF716
:10F73000ABFFA0EB0800A84201D3681C00B94DB98B
:10F74000012084F8510000BF002084F8500000BF61
:10F7500003208DE7E08E0028D8D136E0606810B134
:10F76000B9F1010F09D1206B007821680873206B73
:10F77000401C2063E08E401EE08623E02068806805
:10F7800000F0020002280AD1206B0078216808737B
:10F79000206B401C2063E08E401EE08612E0FEF7E6
:10F7A00073FFA0EB0800A84201D3681C00B94DB953
:10F7B000012084F8510000BF002084F8500000BFF1
:10F7C000032055E7E08E0028D8D14246294620463E
:10F7D00002F004FF08B120206065A06850B900BFA6
:10F7E000002000902068C068009020688068009029
:10F7F00000BF00BF012084F8510000BF002084F842
:10F80000500000BF606D08B1012031E700202FE7F4
:10F810002DE9FE4F04460F4690461D460C9E0120E2
:10F820000190FEF731FF814694F851B06068029074
:10F83000AA46BBF1010F0BD00298B0F5827F04D12C
:10F84000A06810B9BBF1040F02D00220BDE8FE8F02
:10F850001FB1B8F1000F00D00DB90120F6E700BFCD
:10F8600094F85000012801D10220EFE7012084F82C
:10F87000500000BF94F85100042802D0052084F8FD
:10F88000510000206065C4F83880E587A5872763AC
:10F89000E586A586206460642068006800F040006A
:10F8A000402805D02068006840F0400021680860CA
:10F8B000E068B0F5006F52D1606810B1BAF1010F85
:10F8C00009D1206B00882168C860206B801C2063F0
:10F8D000E08E401EE0863BE02068806800F0020079
:10F8E000022810D1E08E70B1019801280BD1206B55
:10F8F00000882168C860206B801C2063E08E401E59
:10F90000E086002001902068806800F0010068B166
:10F91000E08F58B12068C068A16B0880A06B801C84
:10F92000A063E08F401EE08701200190FEF7ACFE4F
:10F93000A0EB0900B0420BD3701C48B1012084F841
:10F94000510000BF002084F8500000BF03207DE775
:10F95000E08E0028C0D1E08F0028BDD152E0606861
:10F9600010B1BAF1010F09D1206B0078216808733A
:10F97000206B401C2063E08E401EE0863CE0206847
:10F98000806800F00200022810D1E08E70B101986A
:10F9900001280BD1206B007821680873206B401C74
:10F9A0002063E08E401EE086002001902068806881
:10F9B00000F0010068B1E08F58B12068C068A16B09
:10F9C0000870A06B401CA063E08F401EE087012000
:10F9D0000190FEF759FEA0EB0900B04201D3701C64
:10F9E00000B94EB9012084F8510000BF002084F80E
:10F9F000500000BF032029E7E08E0028BFD1E08F30
:10FA00000028BCD14A463146204602F0E7FD40B10D
:10FA10002020606500BF002084F8500000BF012056
:10FA200014E7A06850B900BF002000902068C068AB
:10FA3000009020688068009000BF00BF012084F81B
:10FA4000510000BF002084F8500000BF606D08B175
:10FA50000120FBE60020F9E670B504460E46154687
:10FA60001CB1A069B0F5807F01D1012070BD94F870
:10FA7000410028B9002084F84000204600F01FF81B
:10FA800004F108012068FDF713FA3146A2682068E6
:10FA9000FDF74AFA2946236BD4E90102FDF7E6F99E
:10FAA000A168206850F8210040F00100A268216898
:10FAB00041F82200012084F841000020D6E710B56B
:10FAC0000446FEF7DFFB10BD7047704710B50446D3
:10FAD0000CB9012010BD94F83D0028B9002084F82D
:10FAE0003C00204600F025F8022084F83D00211D4E
:10FAF000206802F06FFF012084F8460000BF84F800
:10FB00003E0001213F200155402001554120015573
:10FB100000BF00BF012084F842004320015544206B
:10FB200001554520015500BF012084F83D0000200B
:10FB3000D0E77047014691F83D00012801D001202F
:10FB40007047022081F83D000868C06840F001005D
:10FB50000B68D860164B0868984213D0154B08689C
:10FB600098420FD00868B0F1804F0BD0124B086854
:10FB7000984207D0114B0868984203D0104B086890
:10FB800098420CD10868806800F00702062A0CD061
:10FB90000868006840F001000B68186005E008681C
:10FBA000006840F001000B6818600020C8E7000002
:10FBB000002C0140003401400004004000080040D7
:10FBC000000C0040704770B504462068C568206886
:10FBD000066906F00200022819D105F00200022889
:10FBE00015D1401F216808610120207720688069B5
:10FBF00000F0030018B12046FFF7E4FF05E02046BF
:10FC000000F097F8204600F095F80020207706F0E5
:10FC10000400042819D105F00400042815D1C043BC
:10FC200021680861022020772068806900F4407014
:10FC300018B12046FFF7C6FF05E0204600F079F82E
:10FC4000204600F077F80020207706F0080008280A
:10FC500019D105F00800082815D1C04321680861B2
:10FC6000042020772068C06900F0030018B1204606
:10FC7000FFF7A8FF05E0204600F05BF8204600F003
:10FC800059F80020207706F01000102819D105F04F
:10FC90001000102815D1C043216808610820207782
:10FCA0002068C06900F4407018B12046FFF78AFF51
:10FCB00005E0204600F03DF8204600F03BF800202B
:10FCC000207706F0010048B105F0010030B16FF077
:10FCD000010021680861204600F02EF806F080003F
:10FCE000802809D105F08000802805D1C043216813
:10FCF00008612046FFF7E8FE06F04000402809D1E1
:10FD000005F04000402805D1C04321680861204625
:10FD100000F024F806F02000202809D105F020008A
:10FD2000202805D1C043216808612046FFF7CDFE99
:10FD300070BD70477047000010B504460649206842
:10FD4000884201D1FEF77AFE03492068884202D139
:10FD5000012042F0C3F810BD000800407047F8B51C
:10FD600004460E46174694F8420020282ED106B1CC
:10FD70000FB90120F8BD01202063002060633A46DE
:10FD80003146204603F0D4F80546EDB9206B012832
:10FD900019D100BF00200090206800680090206802
:10FDA0004068009000BF00BF00BF00BF21680C3159
:10FDB00051E8001F41F0100021680C3141E80002B9
:10FDC000002AF3D100E001252846D3E70220D1E73D
:10FDD00038B504460D461C49206888422DD1202D97
:10FDE00003D200201949485502E000201749C8777E
:10FDF000164A294616A003F053F91E480078B0B9F8
:10FE00001DA11248FCF7A6FA88B1002000906946AF
:10FE10001B48006856F03AFA009838B14FF080500D
:10FE200018490860BFF34F8FBFF36F8F00BF2022C8
:10FE300006491548FFF793FF04E0144920688842FB
:10FE400000D000BF38BD00000038014098040020F9
:10FE50005553415254312052583A2025642062793A
:10FE60007465732C20646174613A205B25735D0DA9
:10FE70000A00000080010020757064617465000054
:10FE80001800002004ED00E0B80400200044004009
:10FE9000704700002DE9F84F044620680568206887
:10FEA000C668206847694FF00009CA4605F00F0987
:10FEB000B9F1000F0AD105F0200038B106F020009A
:10FEC00020B1204602F0D3FEBDE8F88FB9F1000F53
:10FED0007BD007F0010018B906F49070002874D0A8
:10FEE00005F0010030B106F4807018B1606C40F08C
:10FEF0000100606405F0040030B107F0010018B1A2
:10FF0000606C40F00200606405F0020030B107F060
:10FF1000010018B1606C40F00400606405F0080056
:10FF200048B106F0200010B907F0010018B1606C6C
:10FF300040F008006064606C002845D005F02000A7
:10FF400028B106F0200010B1204602F090FE206893
:10FF50004069C0F3801A606C00F0080010B9BAF173
:10FF6000000F2CD0204602F029FE2068406900F0E6
:10FF7000400000B300BF00BF2168143151E8001FEA
:10FF800021F040002168143141E80002002AF3D139
:10FF900000BFE06B50B17748E16B4863E06BFDF761
:10FFA00029FE88B1E06B416B88470DE02046FFF7E2
:10FFB0006FFF09E009E02046FFF76AFF04E02046F2
:10FFC000FFF766FF002060647EE7206B012877D191
:10FFD00005F01000002873D006F010000028FAD0B9
:10FFE00000BF0020009020680068009020684068F2
:10FFF000009000BF00BF2068406900F0400000286A
:020000040801F1
:100000005FD0E06B006840681FFA80F8B8F1000F1D
:1000100055D0A08D404552DDA4F82E80E06B80695C
:10002000202843D000BF00BF21680C3151E8001FD9
:1000300021F4807021680C3141E80002002AF3D1DC
:1000400000BF00BF00BF2168143151E8001F21F03C
:1000500001002168143141E80002002AF3D100BFF9
:1000600000BF00BF2168143151E8001F21F040009B
:100070002168143141E80002002AF3D100BF20209A
:1000800084F842000020206300BF00BF21680C31CB
:1000900051E8001F21F0100021680C3141E80002F6
:1000A000002AF3D100BFE06BFDF778FD022060630A
:1000B000A08DE28D801A81B22046FFF789FE03E70A
:1000C00042E0A08DE18D401A1FFA80F8E08DD0B398
:1000D000B8F1000F37D000BF00BF21680C3151E8E4
:1000E000001F21F4907021680C3141E80002002AC1
:1000F000F3D100BF00BF00BF2168143151E8001FD9
:1001000021F001002168143141E80002002AF3D1F6
:1001100000BF202084F842000020206300BF00BF01
:1001200021680C3151E8001F21F0100021680C31CA
:1001300041E80002002AF3D100BF0220606341467B
:100140002046FFF745FEBFE605F0800030B106F01F
:10015000800018B1204602F00BFFB5E605F0400024
:1001600030B106F0400018B1204602F05DFDABE66C
:1001700000BFA9E6812A010810B504460CB9012088
:1001800010BDA06900B100E000BF94F8410028B99B
:10019000002084F84000204600F02AF8242084F84B
:1001A00041002068C06820F400502168C8602046E3
:1001B00002F0DCFD2068006920F4904021680861AD
:1001C0002068406920F02A00216848612068C068E2
:1001D00040F400502168C86000206064202084F84A
:1001E000410084F842000020606300BFC8E70000BF
:1001F00010B586B00446002002900390049005904C
:100200006B492068884237D100BF6A48806940F452
:100210008040684988610846806900F48040019008
:1002200000BF00BF00BF0846806940F0040088613D
:100230000846806900F00400019000BF00BF481527
:100240000290022003900320059002A95A48FEF76D
:1002500063F84FF48060029000200390049002A99C
:100260005548FEF759F8002208212520FEF7A0FC8A
:100270002520FEF78DFC99E050492068884236D150
:1002800000BF4C48C06940F400304A49C861084684
:10029000C06900F40030019000BF00BF00BF0846F5
:1002A000806940F0040088610846806900F004001D
:1002B000019000BF00BF04200290022003900320A1
:1002C000059002A93C48FEF727F80820029000207C
:1002D0000390049002A93848FEF71EF80022092175
:1002E0002620FEF765FC2620FEF752FC5EE034492E
:1002F000206888425AD100BF2E48C06940F480204F
:100300002C49C8610846C06900F48020019000BFF4
:1003100000BF00BF0846806940F0100088610846B1
:10032000806900F01000019000BF00BF0815029026
:10033000022003900320059002A92248FDF7ECFF5C
:100340004FF40060029000200390049002A91D4821
:10035000FDF7E2FF00BF1C49486820F0300040F084
:10036000E06040F01000486000BF1848184908607D
:10037000002048600021164881608021C160002172
:10038000016141618161C161FDF7D4FE08B1FCF7F3
:100390006AFD00BF0E48E063446200BF00220621F0
:1003A0002720FEF705FC2720FEF7F2FB06B010BD64
:1003B00000380140001002400008014000440040A5
:1003C00000480040001001400000014030000240A1
:1003D0009005002070B504460D46164694F842007C
:1003E00020280BD105B10EB9012070BD002020637B
:1003F00032462946204602F037FDF6E70220F4E7B0
:1004000070B504460D46164694F8420020280BD1DC
:1004100005B10EB9012070BD002020633246294687
:10042000204602F085FDF6E70220F4E71CB50446FD
:100430000120019024492068884226D12348007871
:100440004A281CD1214840785F2818D11F48C0781D
:100450008B2814D10020009000236A461B49891C78
:100460001B48006855F094FE009838B14FF080505A
:1004700018490860BFF34F8FBFF36F8F00BF04228E
:1004800012491548FFF7BCFF1CE014492068884258
:1004900018D11348017813480DF002FC01A9124845
:1004A000006854F09BFE019838B14FF08050094924
:1004B0000860BFF34F8FBFF36F8F012208490B48CD
:1004C000FFF788FF1CBD00000044004040000020F2
:1004D0002800002004ED00E0000500200048004056
:1004E00044000020880400200C0000204805002063
:1004F00070472DE9F84F04460E46174699464FF0CF
:10050000000A94F84100202850D106B117B9012003
:10051000BDE8F88F00206064212084F84100FEF7D8
:10052000B3F88246A784E784A068B0F5805F04D161
:10053000206910B90025B04602E035464FF00008AA
:100540001EE05346002280212046CDF8009002F0A4
:100550003FFD20B1202084F841000320D8E745B9B1
:10056000B8F80000C0F308002168486008F10208EC
:1005700003E02878216848606D1CE08C401EE08410
:10058000E08C0028DDD15346002240212046CDF8E2
:10059000009002F01DFD20B1202084F841000320CE
:1005A000B6E7202084F841000020B1E70220AFE741
:1005B0007047000086B01DA002F072FD2048006860
:1005C00000901F48001F03681D4810380268001D76
:1005D00001681CA002F064FD00BFEFF30880044630
:1005E000D4E90423D4E90610CDE90223CDE90410AF
:1005F000D4E90201CDE9000121462148D4E90023D4
:1006000002F04EFD1F4803681E4808380268001FAC
:1006100001681DA002F044FD274890F842102748C9
:10062000026827A002F03CFD00BFFEE70D0A5B4810
:10063000415244204641554C545D0D0A00000000D3
:1006400038ED00E02020484653523D3078253038C0
:100650006C582020434653523D30782530386C5832
:1006600020204D4D4641523D30782530386C582081
:1006700020424641523D30782530386C580D0A00F2
:1006800068FE06080C440040202055534152543265
:100690003A2053523D30782530386C582044523D32
:1006A00030782530386C58204352313D3078253031
:1006B000386C580D0A0000000005002028000020BA
:1006C00020206875617274322E527853746174659B
:1006D0003D25642C20766F6963655F72785F717564
:1006E0006575653D25700D0A00000000014608682B
:1006F0004069C0F38020B0B16FF480600A68506137
:1007000000200863202081F83D00002081F83E0091
:10071000086C40F00400086400BF002081F83C0031
:1007200000BF012070470020FCE700002DE9F843DE
:100730000446884615469946DDE908672068006842
:1007400040F4807021680860334600224FF00111A8
:100750002046009700F08DF860B12068006800F432
:100760008070B0F5807F02D14FF4007020640320C8
:10077000BDE8F88308F0FE00216808613B46324678
:100780002149204600F0D4F808B10120F0E700BF6D
:1007900000200090206840690090206880690090E7
:1007A00000BF00BF3A463146204600F03EF950B146
:1007B000206C042805D12068006840F4007021688E
:1007C00008600120D4E7B9F1010F03D1E8B2216834
:1007D000086117E0C5F30720216808613A463146F1
:1007E000204600F022F950B1206C042805D1206881
:1007F000006840F40070216808600120B8E7E8B2A2
:10080000216808610020B3E70200010070B50446CA
:100810000D46164625E02046FFF768FF08B1012087
:1008200070BD681CE8B1FDF72FFF801BA84200D8FF
:10083000BDB920684069C0F3800090B900202063F2
:10084000202084F83D00002084F83E00206C40F019
:100850002000206400BF002084F83C0000BF01207D
:10086000DEE720684069C0F380000028D3D0002074
:10087000D6E72DE9F04104460D4617461E46DDF841
:10088000188038E0701CA8B3FDF7FEFEA0EB08004E
:10089000B04200D876BBC5F3074001280AD12068D2
:1008A0004069A9B20840A9B2884201D101200BE0F9
:1008B000002009E020688069A9B20840A9B28842F6
:1008C00001D1012000E00020B84214D100202063B3
:1008D000202084F83D00002084F83E00206C40F089
:1008E0002000206400BF002084F83C0000BF0120ED
:1008F000BDE8F081FFE7C5F3074001280AD1206871
:100900004069A9B20840A9B2884201D101200BE098
:10091000002009E020688069A9B20840A9B2884295
:1009200001D1012000E00020B842ABD00020DFE779
:100930002DE9F04104460D4616461F4658E0206852
:100940004069C0F38020E8B12068006840F400707E
:10095000216808606FF4806021684861002020638E
:10096000202084F83D00002084F83E00206C40F0F8
:100970000400206400BF002084F83C0000BF012078
:10098000BDE8F081701C90B3FDF77EFEC01BB04245
:1009900000D866BBC5F3074001280AD1206840692A
:1009A000A9B20840A9B2884201D101200BE0002081
:1009B00009E020688069A9B20840A9B2884201D143
:1009C000012000E0002090B900202063202084F85E
:1009D0003D00002084F83E00206C40F020002064A0
:1009E00000BF002084F83C0000BF0120C8E7FFE7FB
:1009F000C5F3074001280AD120684069A9B2084020
:100A0000A9B2884201D101200BE0002009E0206852
:100A10008069A9B20840A9B2884201D1012000E052
:100A2000002000288BD00020AAE770B504460D46B0
:100A3000164625E02046FFF759FE08B1012070BD9B
:100A4000681CE8B1FDF720FE801BA84200D8BDB9A4
:100A500020684069C0F3C01090B9002020632020B6
:100A600084F83D00002084F83E00206C40F0200017
:100A7000206400BF002084F83C0000BF0120DEE7B6
:100A800020684069C0F3C0100028D3D00020D6E70A
:100A900010B58AB0044628216846FBF750FC0120B7
:100AA0000590002006900120079020200090002053
:100AB00001904FF6E0700290002003900494012012
:100AC000089069460248FCF785FB0AB010BD00009B
:100AD000B401002010B50120FFF7DAFF102106480D
:100AE000FCF7BEFA002206211520FEF761F815205A
:100AF000FEF74EF810BD0000B401002070B588B0BC
:100B000004460D46164600BF0B48FCF7C7FC0028FC
:100B1000FAD0182102A8FBF712FC029400200490DE
:100B200005900696019001AB2A4602A90248FCF7FF
:100B3000ACFA08B070BD0000B40100202DE9FE4FF2
:100B40000446884615466019FF2804DD34A002F0EB
:100B5000A7FABDE8FE8F2046E11704EB11710911D9
:100B6000A4EB0111C1F11001CEB2B54214DC4FF477
:100B70007A7001232246A021CDE9008502903048F9
:100B8000FDF770FE0746002F47D03B462A46214618
:100B90002CA002F085FA40E0A1464FF0000A23E0C5
:100BA0004FF47A7108EB0A0001234A46CDE901614E
:100BB0000090A0212248FDF755FE074637B13B467D
:100BC000324649461FA002F06BFAC2E70AEB060064
:100BD0001FFA80FA09EB060000F0FF09A81B85B296
:100BE00010260A20FDF73AFBB542D9DCA5B14FF437
:100BF0007A7108EB0A0001234A46CDE901510090C1
:100C0000A0210F48FDF72EFE07462FB13B462A468E
:100C100049460CA002F044FA00BF00BF99E700006B
:100C2000D0B4C8EBB5C4B5D8D6B7D6B5B3ACB9FD5A
:100C3000454550524F4DB5C4B5D8D6B7D6B50A00C4
:100C4000DC010020454550524F4D20777269746594
:100C5000206661696C65642061742061646472203F
:100C60003078253032582C206C656E2025642C207D
:100C70007374617475732025640D0A0070B506469F
:100C80000C4600F09DF800F045F8300400EB043508
:100C9000202000F067F8C5F3074000F063F8C5F3C3
:100CA000072000F05FF8E8B200F05CF800F03CF8D4
:100CB00070BD000008B56423012269460248FEF7B2
:100CC00007FC9DF8000008BD300200202DE9F0412E
:100CD00004460E46174600F031F800F01BF80320DA
:100CE00000F040F8C4F3074000F03CF8C4F30720DC
:100CF00000F038F8E0B200F035F8002504E0FFF726
:100D0000D9FF7055681C85B2BD42F8DB00F00CF8C5
:100D1000BDE8F08110B500224FF480510148FDF785
:100D2000ADFC10BD000C014010B5012211030248BA
:100D3000FDF7A4FC10BD0000000C014010B5FFF74A
:100D4000E9FF0AE0052000F00DF8FFF7B3FF0446C5
:100D500004F0010000B901E000BFF3E700BFFFF7B6
:100D6000E3FF10BD01B56423012269460148FEF787
:100D700070FC08BD300200202DE9F04104460E460B
:100D8000174600F01DF8FFF7C5FF0220FFF7EAFF46
:100D9000C4F30740FFF7E6FFC4F30720FFF7E2FFC5
:100DA000E0B2FFF7DFFF002504E0705DFFF7DAFF38
:100DB000681C85B2BD42F8DBFFF7B6FFBDE8F081E5
:100DC00010B5FFF7BBFFFFF7A5FF0620FFF7CAFF2F
:100DD000FFF7AAFF10BD2DE9FE4F04460D4616464B
:100DE0001F46DDF830A00020029001978046814622
:100DF00001A846F0BFFE8DF808000298C0F3C000BD
:100E000028700298C0F3031020706946019800F022
:100E100033F98146019908440190DDE9001000EBA7
:100E200001080198A8EB0000022800DA06E001A8FA
:100E300046F0A7FE30804FF0010900BF4846BDE8EC
:100E4000FE8F2DE9FF4704460D46164699460020C1
:100E50000390029600278046009002A846F08AFE82
:100E60008DF80C000398C0F30310022800D01FE097
:100E700001A9029800F000F9804602990844029006
:100E8000DDE9011047180298381A022800DA0FE04D
:100E900002A846F06FFE8DF80000009800F00100F7
:100EA000207002A846F066FE28704FF0010800BFCF
:100EB000404604B0BDE8F0872DE9FF5F06460C46CA
:100EC00017469846DDE90FABDDF838900020039017
:100ED00011980290002500200190009002A846F091
:100EE00049FE8DF80C000398C0F30310032800D0CE
:100EF00032E00398C0F3C00030700398C0F34100A3
:100F00002060039800F0010038706946029800F0F4
:100F1000B3F801900299084402900099029845188C
:100F20002A4602A9484646F039FE10B10298281A0E
:100F300000D511E02068002804DD02A846F021FE5B
:100F4000A8F800000298281ACBF800000298CAF806
:100F500000000120019000BF019804B0BDE8F09F9F
:100F60002DE9FE4F05460E4614461F46DDE90C9B53
:100F700000200290CDF804908046824601A846F0F9
:100F8000F9FD8DF808000298C0F30310092800D07D
:100F90002CE06946019800F06FF8824601990844F8
:100FA0000190DDE9001000EB01080198A8EB0000BA
:100FB000022800DA1AE001A846F0E3FD28800020AC
:100FC00020600DE02068B04202DD4FF0FF3A0DE0F6
:100FD00001A846F0CFFD2268511C216047F822008D
:100FE00001984045EED34FF0010A00BF5046BDE8DE
:100FF000FE8FFEB504460D46164600200290019075
:1010000000272B46224601A902A80096FFF7E3FE1F
:1010100007469DF808000B2800D101273846FEBD81
:101020002DE9F84305460C460126002700202060E4
:1010300000BF4FF0FF38781C0746042801DD00BFD1
:1010400017E001216846A8478046B8F1010F00D09B
:101050000FE09DF8001001F07F01206801FB060001
:101060002060F6019DF8000000F080000028E0D12B
:1010700000BF3846BDE8F88370B504460D46034806
:10108000046029460248FFF7CBFF70BDE400002052
:10109000F1C2010830B50246002300BF0846CD1753
:1010A00001EB5565ED11A1EBC515ECB2CD1701EBC8
:1010B0005565E911002901DD44F0800418465B1CE8
:1010C00014540029EADC184630BD2DE9F0410446ED
:1010D0000E460027B846206828B125682068FBF72F
:1010E0004BF9074601E0A56867683046FBF744F90D
:1010F0008046474508D13A4631462846FBF75AF91B
:1011000010B90120BDE8F0810020FBE7401C8028D9
:1011100001DA401C0AE0B0F5804F01DA801C05E0DE
:101120000349884201DAC01C00E0001D704700003E
:10113000FFFF1F002DE9FC4704460E4615461F46DB
:10114000DDF828800020019081460094042E02DA08
:101150006FF0010924E0019865F3071001900198F0
:1011600067F3C3000190062D01D1012100E00021A9
:10117000019861F3420001909DF80410684654F014
:1011800066FD02210098FFF785FF00990844009052
:101190004146684654F061FD0098A0EB040900BF89
:1011A0004846BDE8FC8700002DE9FE4305460E4693
:1011B0001446029500200190009000274FF0FF3860
:1011C000204600F0A5F807468146FFF79FFFB04292
:1011D00002DD6FF001088FE000208DF80400019817
:1011E00020F0F000103001909DF8041002A854F097
:1011F0002EFD39460298FFF74DFF029908440290F0
:10120000207A042808D13EA102A854F00CFD042144
:1012100002A854F01CFD07E03BA102A854F003FD16
:10122000032102A854F013FD00208DF80000A17ED8
:10123000009861F341000090E07E08B1012100E0D8
:101240000021009861F3820000900098C0F38000B4
:1012500058B194F83D10009861F3C400009094F8E0
:101260003C10009861F345100090206C08B9A06C08
:1012700020B1009820F0800080300090E06C08B928
:10128000606D20B1009820F04000403000909DF843
:10129000001002A854F0DBFC218B02A854F0DDFC06
:1012A00002A8D4E90423E16854F0EFFCE07E58B1D1
:1012B00002A8D4E90A23616A54F0E7FC02A8D4E941
:1012C0000D23216B54F0E1FC0098C0F3C01028B14D
:1012D00002A8D4E91123216C54F0D7FC0098C0F384
:1012E000801028B102A8D4E91423E16C54F0CDFC9D
:1012F0000298A0EB050800BF4046BDE8FE83000051
:101300004D515454000000004D5149736470000069
:1013100070B504460025207A032801D10C2503E08E
:10132000207A042800D10A25D4E90412E06800F0EC
:10133000D9FB801C0544E07E68B1D4E90A12606ADA
:1013400000F0D0FB861CD4E90D12206B00F0CAFB24
:101350003044801C0544206C08B9A06C30B1D4E93D
:101360001112206C00F0BEFB801C0544E06C08B933
:10137000606D30B1D4E91412E06C00F0B3FB801C56
:101380000544284670BD70B504460D460C2229461A
:10139000204600F0D9F870BD2DE9F04F87B0054622
:1013A0000F4690461C46DDE915B6DDE9109A069514
:1013B00000200590049003900096204612A90EC9C3
:1013C00000F042F804900290FFF7A0FEB84203DD5F
:1013D0006FF00100039033E0059820F0F00030300A
:1013E0000590059868F3C3000590059864F34200E2
:1013F0000590059869F3000005909DF8141006A863
:1014000054F025FC04990698FFF744FE0699084419
:10141000069006A812A90EC954F037FC002C03DD73
:10142000514606A854F019FC324659460698FAF778
:101430006DFF0698304406900698401B039000BF4D
:10144000039807B0BDE8F08F7FB50546089E0024DD
:1014500001A807C800F046FB801C30440444002D5E
:1014600000DDA41C204604B070BD2DE9FF5F0546D9
:101470000E4617469846DDE90E9A03950020029025
:101480000190009000245146484600F046F88346FB
:101490000190FFF73BFEB04202DDA01E009038E055
:1014A00000208DF80800029820F0F00080300290B3
:1014B000029867F3C3000290029820F00600801C97
:1014C00002909DF8081003A854F0C1FB01990398FD
:1014D000FFF7E0FD039908440390414603A854F048
:1014E000BCFB00240FE004EB44000AEB800C03A8D3
:1014F0009CE80E0054F0C9FB109810F8241003A8C3
:1015000054F0A5FB641C4C45EDDB0398401B009098
:1015100000BF009804B0BDE8F09F2DE9F0410546FA
:101520000E46022700240AE004EB440006EB800389
:1015300093E8070000F0D6FAC01C0744641CAC42D4
:10154000F2DB3846BDE8F0812DE9FC4104460D464A
:10155000164600200190471E0094022D01DA871ED6
:1015600015E000208DF80400019866F30710019043
:101570009DF80410684654F06AFB00210098FFF7BC
:1015800089FD0099084400900098071B00BF384669
:10159000BDE8FC812DE9FE4380460C4640F27F7594
:1015A00040F2BF765AA0006802905A4801F078FDD8
:1015B00059A001F075FD206CC068584B40F25712DD
:1015C00057A1CDE900405CA001F06AFD52A001F0F6
:1015D00067FD504801F064FD4FA001F061FD216CF2
:1015E000C8685EA1FAF7B6FE60B107208DF80A0060
:1015F00002A8FAF7C1FEC7B23A4602A93046FBF785
:10160000F1FB83E0216CC86858A1FAF7A3FE60B132
:1016100008208DF80A0002A8FAF7AEFEC7B23A46D3
:1016200002A93046FBF7DEFB70E0216CC86853A1CD
:10163000FAF790FE60B101208DF80A0002A8FAF7CF
:101640009BFEC7B23A4602A92846FBF7CBFB5DE0FA
:10165000216CC8684DA1FAF77DFE60B102208DF8BB
:101660000A0002A8FAF788FEC7B23A4602A928463D
:10167000FBF7B8FB4AE0216CC86848A1FAF76AFE9C
:1016800060B103208DF80A0002A8FAF775FEC7B210
:101690003A4602A92846FBF7A5FB37E0216CC8684B
:1016A00042A1FAF757FE60B104208DF80A0002A8A3
:1016B000FAF762FEC7B23A4602A92846FBF792FB48
:1016C00024E0216CC8683DA1FAF744FE60B1052012
:1016D0008DF80A0002A8FAF74FFEC7B23A4602A9EF
:1016E0002846FBF77FFB11E0216CC86837A1FAF7A9
:1016F00031FE58B106208DF80A0002A8FAF73CFE28
:10170000C7B23A4602A92846FBF76CFBBDE8FE8348
:10171000AA11000008FE06080A000000AC700608C6
:101720002E2E2F436F72652F5372632F667265657D
:1017300072746F732E63000025733A25642025733D
:1017400028292E2E2E0A746F7069633A2025730A99
:101750006D6573736167653A25730000E68993E5EB
:10176000BC80E8BDA6E997A800000000E585B3E9C4
:1017700097ADE8BDA6E997A800000000E68993E5CB
:10178000BC80E8BDA6E781AF00000000E585B3E9B5
:1017900097ADE8BDA6E781AF00000000E68993E5BC
:1017A000BC80E8BDA6E7AA9700000000E585B3E984
:1017B00097ADE8BDA6E7AA9700000000E68993E58B
:1017C000BC80E5A4A9E7AA9700000000E585B3E97D
:1017D00097ADE5A4A9E7AA970000000088B000250E
:1017E0006DA001F05DFC012274497548FEF7F2FD21
:1017F00042F01AFD054673A1284643F08BFA73A107
:10180000284643F003FA0A2045F066FF06463146B3
:10181000284643F0ABF90A2045F05EFF0646314604
:10182000284643F0DFFA0A2045F056FF06463146C7
:10183000284643F02DFA0121284643F04FF9284667
:1018400042F0E1F9044614B164A001F029FC6B4BAD
:1018500000226BA1284643F051FB044614B16BA053
:1018600001F01EFC00208DF8040094E000BF4FF052
:10187000FF3205A96F48006854F09CFD0128F6D19D
:10188000BDF8140040F2666188425FD19DF81900EE
:1018900001280BD168A004900498FAF76DFD03901D
:1018A00001AA6AA1284642F03FFE74E09DF81900A3
:1018B00002280BD168A004900498FAF75DFD03900C
:1018C00001AA62A1284642F02FFE64E09DF81900AB
:1018D00003280BD165A004900498FAF74DFD0390FE
:1018E00001AA5AA1284642F01FFE54E09DF81900B3
:1018F00004280BD162A004900498FAF73DFD0390F0
:1019000001AA52A1284642F00FFE44E09DF81900BA
:1019100005280BD15FA004900498FAF72DFD0390E1
:1019200001AA4AA1284642F0FFFD34E09DF81900C3
:10193000062830D15CA004900498FAF71DFD0390AE
:1019400001AA42A1284642F0EFFD24E0BDF81400B0
:1019500040F2555188421ED19DF8190007280BD13D
:1019600056A004900498FAF707FD039001AA37A146
:10197000284642F0D9FD0EE09DF8190008280AD14A
:1019800053A004900498FAF7F7FC039001AA2FA142
:10199000284642F0C9FD69E70A77656C636F6D659B
:1019A00020746F206D717474636C69656E7420743B
:1019B0006573742E2E2E0D0A0000000044000020D6
:1019C0004805002031383833000000003139322E0C
:1019D0003136382E3130312E333400004D515454CD
:1019E0002042726F6B657220636F6E6E6563742048
:1019F0006661696C65640D0A0000000095150108B8
:101A00004D515454536D6172740000004D51545443
:101A10002042726F6B6572207375627363726962C4
:101A20006520746F70696331206661696C65640D4F
:101A30000A00000024000020E8BDA6E781AFEFBC4B
:101A40009AE5BC80E590AF0D0A0000006D63755FFC
:101A50007465737400000000E8BDA6E781AFEFBCB9
:101A60009AE585B3E997AD0D0A000000E8BDA6E749
:101A7000AA97EFBC9AE5BC80E590AF0D0A00000084
:101A8000E8BDA6E7AA97EFBC9AE585B3E997AD0D47
:101A90000A000000E5A4A9E7AA97EFBC9AE5BC807C
:101AA000E590AF0D0A000000E5A4A9E7AA97EFBCF6
:101AB0009AE585B3E997AD0D0A000000E8BDA6E9F7
:101AC00097A8EFBC9AE5BC80E590AF0D0A00000036
