:020000040800F2
:10000000A0390020E1010008814200081F330008E8
:100010007D420008290A0008AD52000800000000D7
:10002000000000000000000000000000490100087E
:10003000310B0008000000008D010008654B00082E
:10004000FB010008FB010008FB010008FB010008A0
:10005000FB010008FB010008FB010008FB01000890
:10006000FB010008FB010008FB010008FB01000880
:10007000FB010008F50A0008FB010008FB0100086D
:10008000FB010008FB010008FB010008FB01000860
:100090009D520008FB010008FB010008FB0100085D
:1000A000FB010008FB010008FB010008FB01000840
:1000B000FB010008FB010008E54B0008FB010008FC
:1000C000FB010008FB010008FB010008FB01000820
:1000D000FB010008FB0100087D5200088D5200085A
:1000E000FB010008FB010008FB010008FB01000800
:1000F000FB010008FB010008FB010008FB010008F0
:10010000FB010008FB010008FB010008FB010008DF
:10011000FB010008FB010008FB010008FB010008CF
:10012000FB010008FB010008FB010008FB010008BF
:10013000DFF810D000F06AFB00480047795D000846
:10014000AFF30080A0390020224B19680868B0E89E
:10015000F00F80F30988BFF36F8F4FF0000080F33A
:1001600011884EF00D0E7047000000000648006830
:10017000006880F3088862B661B6BFF34F8FBFF3A3
:100180006F8F00DF00BF00BF08ED00E0EFF30980D4
:10019000BFF36F8F0F4B1A6820E9F00F106008B59E
:1001A0004FF0500080F31188BFF34F8FBFF36F8F74
:1001B00009F06AFC4FF0000080F31188BDE80840A8
:1001C00019680868B0E8F00F80F30988BFF36F8FF3
:1001D000704700BF38000020EFF305807047000033
:1001E0000648804706480047FEE7FEE7FEE7FEE7D1
:1001F000FEE7FEE7FEE7FEE7FEE7FEE7E14B00086D
:1002000031010008202A04DB203A21FA02F0002103
:10021000704721FA02F3D040C2F120029140084316
:10022000194670470649074A0868504343F23902A5
:10023000104408604008704701490860704700009A
:10024000D80000206D4EC64140EA01039B0703D051
:1002500009E008C9121F08C0042AFAD203E011F805
:10026000013B00F8013B521EF9D27047D2B201E0C7
:1002700000F8012B491EFBD270470022F6E710B5AB
:1002800013460A4604461946FFF7F0FF204610BD04
:1002900030B505462A460B4612F8010B13F8014B00
:1002A00008B1A042F8D01CB1002802D06D1CF1E7C3
:1002B000284630BD421C10F8011B0029FBD1801AD2
:1002C000704710B5002200E0521C835C8C5CA34296
:1002D00001D1002BF8D1D8B2E1B2401A10BD0346CB
:1002E00011F8012B00F8012B002AF9D118467047AC
:1002F00030B505460020034600E05B1C934205D262
:10030000EC5CC85C201A01D1002CF6D130BD2DE97F
:10031000FE4F804681EA0300C00F0C46009021F09A
:10032000004123F00045B8EB0200A94105D2404648
:10033000214690461C460B46024623F000401043DF
:1003400047D0270DC7F30A00C3F30A510290401AA1
:10035000019040286BDAC3F3130040F4801B00982F
:10036000924620B10023D2EB030A63EB0B0B0198FA
:100370005946C0F14002504600F0B1F906460D461C
:1003800050465946019A00F0B9F910EB0800614156
:10039000002487EA115284EAE7731A4340D0009A96
:1003A00062B3019A012A4FEA075215DC001B61EB88
:1003B00002014FF0004202EA0752CDE90042001C60
:1003C00041F5801132462B4600F0B9F903B0BDE883
:1003D000F08F40462146F9E7001B61EB0201001C4B
:1003E00041F5801300185B412018A2F5001747EB78
:1003F000030140EAD570B6196D4111E06D084FEA6E
:10040000360645EAC0754FEA0752001B61EB020150
:10041000001C41F5801149084FEA30000019514194
:1004200032462B4603B0BDE8F04F00F079B9009892
:10043000012240000023D0EB020263EBE07300983E
:1004400021464FEAE074B8EB000061EB0401E9E7F4
:1004500083F000435BE781F0004158E72DE9FE4F50
:1004600081EA030404F0004421F0004100944FF0BD
:10047000000B23F0004350EA01045ED052EA03046B
:100480005BD0C3F30A54C1F30A552C44A4F2F334ED
:100490000194A0FB0254C1F3130141F48011C3F392
:1004A000130343F4801301FB024400FB034E840A50
:1004B000970A44EA815447EA8357A4FB07680295E8
:1004C0008D0A05FB07854FEA932C04FB0C54270586
:1004D000029D4FEA065847EA1637B5EB08056EEB62
:1004E000070C870E920E47EA811742EA8312A7FB98
:1004F0000201B6EB0B0164EB00042B0D43EA0C3355
:100500005E1844EB1C50DA465146E7FB0201C5F386
:1005100013044FEA0B3343EA14534FEA0432019CAD
:1005200043EA0603A4F10C040294009CCDE900B454
:1005300000F005F903B0BDE8F08F00200146F9E7AF
:100540002DE9F04D81EA030404F0004B21F0004551
:1005500014464FF0000A23F0004150EA050220D073
:1005600054EA01021DD0C5F30A570246C5F313032E
:10057000C1F31300C1F30A5640F4801543F480130D
:10058000A7EB0608101BD64608F2FD3873EB0500F2
:1005900002D308F1010801E092185B41B8F1000FA5
:1005A00003DA00200146BDE8F08D00204FF48011F1
:1005B000064684460EE0171B73EB050705D3121B96
:1005C00063EB050306434CEA010C49084FEA30008F
:1005D00092185B4150EA0107EDD152EA030012D0B4
:1005E00082EA040083EA0501084305D0101BAB41F1
:1005F00006D20122002306E000224FF0004302E071
:100600006FF0010253101AEB06004CEB085110EB8F
:100610000A0041EB0B01BDE8F04D00F081B800008D
:1006200030B5041E71F1000404DB4FF00044404279
:1006300064EB0101141E73F1000405DB1C464FF04E
:100640000043524263EB0403994208BF904230BD1D
:1006500030B50B46014600202022012409E021FA92
:1006600002F59D4205D303FA02F5491B04FA02F58F
:100670002844151EA2F10102F1DC30BD2DE9F05F26
:100680000546002092469B46884606468146402401
:100690001BE02846414647462246FFF7B3FD534636
:1006A0005A46C01A914110D311461846224600F00E
:1006B00016F82D1A67EB01084F462246012000214B
:1006C00000F00DF817EB00094E41201EA4F10104C3
:1006D000DFDC484631462A464346BDE8F09F202AE3
:1006E00004DB203A00FA02F1002070479140C2F189
:1006F000200320FA03F3194390407047202A06DBB9
:10070000CB17203A41FA02F043EAE07306E041FADF
:1007100002F3D040C2F120029140084319467047CD
:1007200010B5141E73F1000408DA401C41F10001F9
:1007300092185B411A4301D120F0010010BD2DE950
:10074000F04D92469B4611B1B1FA81F202E0B0FA47
:1007500080F220329046FFF7C2FF04460F4640EA7F
:100760000A0041EA0B0153465A46084313D011468A
:1007700053EA010019D0C8F140025046FFF742FD8C
:1007800005460E46504659464246FFF7A8FF084325
:1007900005D0012004E020463946BDE8F08D002058
:1007A000054346EAE0762C4337430A986305E40A9A
:1007B000A0EB08000022FD0A44EA47540A3002D5A3
:1007C00000200146E9E7010510196941DDE9084506
:1007D00000196941BDE8F04DA2E7C1F30A52C1F327
:1007E000130140F2FF3341F480119A4202DA0020F3
:1007F0000146704740F233439A42A2F2334202DC90
:100800005242FFF7FFBCFFF76ABF0000064C074DDE
:1008100006E0E06840F0010394E8070098471034D0
:10082000AC42F6D3FFF788FC84BB0008A4BB0008E9
:1008300010B5012009F0C8FA09490860094807F015
:1008400094FB084807F0A1FB074807F08EFB064819
:1008500007F09BFB054A8021054805F013FA10BDFF
:10086000C8000020C0000020C4000020A0340020E8
:1008700090340020002463E0324908194FF0FF3122
:1008800000F0AEF900212F4A601C1154002C44D016
:100890001046005D0A2840D1601E1146085C0D28F4
:1008A0003BD129A11046FFF7F3FCF8B1254800F031
:1008B00049F903280ED1002425A004F0F9FC0020FA
:1008C00000F088F980211F48FFF7D7FC234807F084
:1008D0006CFB32E00024002000F07CF980211948F4
:1008E000FFF7CBFC1D4807F060FB26E01CA1154874
:1008F000FFF7CEFC58B10024601E00F06BF9802198
:100900001048FFF7BAFC154807F04FFB15E000242C
:1009100080210C48FFF7B1FC0FE00A4800F012F903
:10092000012808D1074803F0E7FF0024802105488B
:10093000FFF7A3FC01E0601CC4B2802C00DB0024A4
:100940009AE70000203500204F4B0D0A0000000000
:1009500073656E6420627573790D0A00C000002013
:100960004552524F520D0A0070B504460D460EE036
:100970002146074805F08CF908B9002070BD2946CA
:10098000044807F00AFB10B96FF00100F6E7EFE743
:1009900090340020C40000202DE9F04104460E46AA
:1009A00015462A463146204600F02CF94FF47A725B
:1009B00002210AA000F026F90948046029460948E6
:1009C00007F0EBFA07462FB100F0B6F88046404634
:1009D000BDE8F0816FF00100FAE700000D0A0000A9
:1009E000D0000020C00000202DE9F04104460E4652
:1009F00015462A463146204600F004F908480460AE
:100A00002946084807F0C9FA07462FB100F094F8C4
:100A100080464046BDE8F0816FF00100FAE7000033
:100A2000D0000020C000002000BFFEE700B58BB062
:100A3000002005900690079001200890002001906A
:100A40000290039004900120099001A9024800F04F
:100A5000ADF90BB000BD0000E000002070B588B01B
:100A600005460E460021114800F026FA3070002499
:100A700016E004EB440005EB8000831C01AA002172
:100A80000A4800F02DFA04EB4401019825F82100F2
:100A900004EB440105EB810105988872601CC4B227
:100AA0003078A042E5DC08B070BD0000E000002016
:100AB00070B588B004460D46164600BF0C4800F0DD
:100AC000D9FA0028FAD002940020049005900696E6
:100AD00001AB2A4602A9064800F0C3F800BF04484B
:100AE00000688068C0F340000028F8D008B070BDEE
:100AF000E000002010B5024800F08AFE10BD0000A2
:100B0000F003002030B590F840500124AC40C56B94
:100B10006C60046863604468102C04D10468A260AF
:100B20000468E16003E00468A1600468E26030BD2D
:100B3000704772B600BFFEE70148006870470000CA
:100B4000CC00002010B5044617A12046FFF7A0FBFB
:100B500028B10120164908700846007810BD1548D4
:100B6000006870B114A113480068FFF791FB40B111
:100B700020783E2805D102200D49087008460078EB
:100B8000ECE710A12046FFF783FB50B10FA12046F0
:100B9000FFF77EFB28B1032005490870084600785E
:100BA000DCE70020DAE700002B4950442C0000006D
:100BB000D4000020D000002041542B43495053451D
:100BC0004E443D00627573790000000053454E4469
:100BD000204F4B000149086070470000CC00002006
:100BE00070B504460D4609E02146054805F050F869
:100BF00000B970BD2946012008F0B4FAF4E70000FE
:100C00000803002070B505460C4616464FF0FF312C
:100C10000848006809F0D8FBA1B23246284608F01F
:100C200089FA00231A4619460248006809F0C6F9F5
:100C300070BD0000C800002010B5024692F82030B8
:100C4000012B01D0022B06D11068406908431468BB
:100C50006061002010BD506A40F480205062012085
:100C6000F8E7F0B504460D461E4694F8207020685B
:100C70008368A86800B900E000BF012F01D0022FEF
:100C80007DD103F0806030B903F0006018B903F043
:100C9000805000287ED0C3F301610120884030607D
:100CA000A86860B9B5F800C0E86840EA4C5C206804
:100CB00000F5C07000EB0110C0F800C00FE0D5E9EE
:100CC00001C040EACC00D5F80CC040EA0C00D4F8D2
:100CD00000C00CF5C07C0CEB011CCCF80000D5F872
:100CE00010C0206800F5C07000EB0110C0F804C00F
:100CF000287D01280ED1206800F5C07000EB01109E
:100D0000406840F4807C206800F5C07000EB011062
:100D1000C0F804C0D079000692F806C040EA0C4042
:100D200092F805C040EA0C2092F804C040EA0C009A
:100D3000D4F800C00CF5C07C0CEB011CCCF80C0006
:100D4000D078000692F802C040EA0C4092F801C048
:100D500040EA0C2092F800C040EA0C00D4F800C031
:100D60000CF5C07C0CEB011CCCF80800206800F5E9
:100D7000C07000EB0110006840F0010C01E00FE0D2
:100D800008E0206800F5C07000EB0110C0F800C05A
:100D90000020F0BD606A40F4001060620120F8E7B6
:100DA000606A40F4802060620120F2E7F0B50446FA
:100DB0000A46216894F82050012D01D0022D74D1EB
:100DC000D1F8000240F00100C1F80002107D00F0EF
:100DD0001F06012000FA06F3D1F81C029843C1F85F
:100DE0001C02D069C8B9D1F80C029843C1F80C02B2
:100DF000908880B2968940EA064601F510705769DE
:100E000040F83760108880B2168940EA064601F53E
:100E10001070576900EBC7004660D069012819D1EE
:100E2000D1F80C021843C1F80C02908880B21688E1
:100E300040EA064601F51070576940F8376090891E
:100E400080B2168940EA064601F51070576900EB3A
:100E5000C7004660906928B9D1F804029843C1F8E8
:100E6000040204E0D1F804021843C1F80402106936
:100E700028B9D1F814029843C1F8140204E0D1F85B
:100E800014021843C1F81402106A012804D1D1F8E1
:100E90001C021843C1F81C02D1F8000220F0010026
:100EA000C1F800020020F0BDFFE7606A40F4802036
:100EB00060620120F7E7704710B50246002092F803
:100EC0002030012B01D0022B09D121B91468E4682C
:100ED00004F0030003E01468246904F0030010BD6B
:100EE00070B5044694F82050012D01D0022D7DD11B
:100EF00051B92068C06800F0030080B9606A40F40E
:100F000000106062012070BD2068006900F00300DD
:100F100028B9606A40F4001060620120F3E720689D
:100F200000F5D87000EB0110006800F0040090603C
:100F3000906840B9206800F5D87000EB0110006897
:100F4000400D106007E0206800F5D87000EB01103C
:100F50000068C0085060206800F5D87000EB0110F0
:100F6000006800F00200D060206800F5D87000EB47
:100F70000110406800F00F00082802D3082010611B
:100F800008E0206800F5D87000EB0110406800F020
:100F90000F001061206800F5D87000EB0110406868
:100FA00000F47F40000A9061206800F5D87000EBE3
:100FB00001104068000C5061206800F5D87000EB0B
:100FC000011080681870206800F5D87000EB0110DF
:100FD000806800F47F40000A5870206800F5D870DF
:100FE00000EB0110806800F47F0000E03CE0000CA2
:100FF0009870206800F5D87000EB01108068000E32
:10100000D870206800F5D87000EB0110C068187126
:10101000206800F5D87000EB0110C06800F47F4034
:10102000000A5871206800F5D87000EB0110C06804
:1010300000F47F00000C9871206800F5D87000EB78
:101040000110C068000ED87131B92068C06840F046
:1010500020002668F06005E02068006940F020006C
:101060002668306100204EE7606A40F480206062AC
:10107000012048E70146002091F82020012A01D0F4
:10108000022A11D10B689B6803F0806303B1401CF6
:101090000B689B6803F0006303B1401C0B689B68FE
:1010A00003F0805303B1401C70472DE9F05F044604
:1010B0000025206846692068D0F804902068876879
:1010C0002068D0F80CA02068D0F810B02068D0F8C4
:1010D000188006F00100002855D007F00100C0B1CB
:1010E00001202168886007F0020018B1204600F056
:1010F0008AFA0EE007F0040010B145F4006508E03C
:1011000007F0080010B145F4805502E0204600F0D9
:1011100079FA07F48070C8B14FF480702168886054
:1011200007F4007018B1204600F06FFA0EE007F4E3
:10113000806010B145F4005508E007F4006010B17C
:1011400045F4804502E0204600F05EFA07F4803066
:10115000C8B14FF480302168886007F4003018B1BE
:10116000204600F054FA0EE007F4802010B145F458
:10117000004508E007F4002010B145F4803502E096
:10118000204600F043FA06F0080038B10AF01000DB
:1011900020B145F4007510202168C86006F00400F5
:1011A00040B10AF0080028B108202168C860204634
:1011B00000F0A8F906F0020038B12068C06800F01D
:1011C000030010B1204600F09FF906F0400038B14E
:1011D0000BF0100020B145F48065102021680861F3
:1011E00006F0200040B10BF0080028B1082021686B
:1011F0000861204600F0D4F906F0100038B12068EC
:10120000006900F0030010B1204600F0CAF906F4AE
:10121000003040B109F0100028B11020216848606A
:10122000204600F0BFF906F4803040B109F0080014
:1012300028B1082021684860204600F0E9F906F44A
:10124000004088B309F0040078B306F4807020B140
:1012500008F0010008B145F0010506F4007020B166
:1012600008F0020008B145F0020506F4806020B1E4
:1012700008F0040008B145F0040506F40060A0B1D0
:1012800008F0700088B108F07000402817D006DC24
:1012900010280BD020280CD0302819D10CE0502871
:1012A00010D0602814D110E01DE019E045F00805C9
:1012B0000FE045F010050CE045F0200509E045F091
:1012C000400506E045F0800503E045F4807500E048
:1012D00000BF00BF2068806920F07000216888612D
:1012E0000420216848602DB1606A2843606220466E
:1012F000FFF7E1FDBDE8F09F70B504460CB9012091
:1013000070BD94F8200010B9204600F0AFF82068B6
:10131000006840F001002168086000F09DFE05466D
:101320000DE000F099FE401B0A2808D9606A40F4DD
:1013300000306062052084F820000120E0E720688A
:10134000406800F001000028EBD02068006820F021
:1013500002002168086000F07FFE05460DE000F005
:101360007BFE401B0A2808D9606A40F400306062A6
:10137000052084F820000120C2E72068406800F0C2
:1013800002000028EBD1207E012806D120680068E9
:1013900040F080002168086005E02068006820F0C7
:1013A000800021680860607E012806D120680068FE
:1013B00040F040002168086005E02068006820F0E7
:1013C000400021680860A07E012806D120680068DE
:1013D00040F020002168086005E02068006820F0E7
:1013E000200021680860E07E012806D1206800689E
:1013F00020F010002168086005E02068006840F0D7
:10140000100021680860207F012806D1206800684C
:1014100040F008002168086005E02068006820F0BE
:10142000080021680860607F012806D120680068F4
:1014300040F004002168086005E02068006820F0A2
:10144000040021680860D4E90201084321690843C7
:10145000616908436168491E08432168C86100202A
:101460006062012084F82000002049E710B586B0B2
:101470000446002002900390049005901E492068C5
:10148000884236D100BF1D48C06940F000701B493A
:10149000C8610846C06900F00070019000BF00BF3D
:1014A00000BF0846806940F00400886108468069F2
:1014B00000F00400019000BF00BFC814029000209B
:1014C0000390049002A90E4800F016FC4FF48050DF
:1014D0000290022003900320059002A9084800F022
:1014E0000BFC00220521142000F076FE142000F0F1
:1014F00063FE06B010BD0000006400400010024012
:10150000000801407047000030B591B0054600204A
:10151000049004A905A8FFF7A1FA002434E004EB25
:10152000440005A931F82000ADF8040004EB4400A4
:1015300001EB8000807A8DF8060004EB440001EB9B
:10154000800050F8021FCDF807104068CDF80B005E
:101550000020009000236A4601A90E48006808F0A8
:1015600001FE00236A4601A90B48006808F0FAFD55
:10157000009838B14FF0805008490860BFF34F8F92
:10158000BFF36F8F601CC4B29DF810008442C6DBAD
:1015900011B030BD100000201400002004ED00E068
:1015A00070477047704770B5044694F820000128D2
:1015B00022D1022084F820002068006820F0010079
:1015C0002168086000F048FD05460DE000F044FD8C
:1015D000401B0A2808D9606A40F400306062052088
:1015E00084F82000012070BD2068406800F00100F0
:1015F0000028EBD16062F6E7606A40F40020606288
:101600000120F0E770477047704770477047704798
:1016100070470146002291F82100022808D00420DA
:10162000886300BF002081F8200000BF01207047C0
:101630000868006820F00E000B68186008680068F1
:1016400020F001000B68186091F8403001209840AC
:10165000CB6B5860012081F8210000BF002081F889
:10166000200000BF1046E2E770B50446002594F85C
:101670002100022803D00420A0630125C1E02068D6
:10168000006820F00E00216808602068006820F0E3
:101690000100216808605C492068884252D95A4993
:1016A00078392068884201D1012047E056496439E1
:1016B0002068884201D1102040E053495039206809
:1016C000884201D1801539E04F493C392068884271
:1016D00001D1801432E04C4928392068884202D177
:1016E0004FF480302AE0484914392068884202D1FA
:1016F0004FF4801022E044492068884201D1400420
:101700001CE042492068884201D1012016E03F498F
:1017100014312068884201D110200FE03B49283164
:101720002068884201D1801508E038493C312068A2
:10173000884201D1801401E04FF480303349091F01
:10174000086051E0304978392068884201D1012091
:1017500047E02D4964392068884201D1102040E0DB
:10176000294950392068884201D1801539E026493D
:101770003C392068884201D1801432E0224928395E
:101780002068884202D14FF480302AE01E49143983
:101790002068884202D14FF4801022E01A49206864
:1017A000884201D140041CE018492068884201D1D8
:1017B000012016E0154914312068884201D110201B
:1017C0000FE0124928312068884201D1801508E0D5
:1017D0000E493C312068884201D1801401E04FF469
:1017E0008030094980394860012084F8210000BF19
:1017F000002084F8200000BF606B10B12046616BB0
:101800008847284670BD000080000240080402405E
:1018100070B50446E06B05682068066894F84010CF
:10182000042088402840002875D006F004000028D5
:10183000FAD02068006800F0200028B9206800680D
:1018400020F0040021680860D5492068884254D9F6
:10185000D34978392068884201D1042049E0D04931
:1018600064392068884201D1402042E0CC49503997
:101870002068884201D100153BE0C9493C39206805
:10188000884202D14FF4804033E0C54928392068AE
:10189000884202D14FF480202BE0C14914392068DE
:1018A000884202D14FF4800023E0BD49206888427D
:1018B00001D1C0041DE0BB492068884201D1042049
:1018C00017E0B84914312068884201D1402010E067
:1018D000B44928312068884201D1001509E0B14996
:1018E0003C312068884202D14FF4804001E04FF43F
:1018F0008020AC49091F086054E0A9497839206864
:10190000884201D104204AE0A54964392068884210
:1019100002D1402043E04CE0A14950392068884280
:1019200001D100153BE09E493C392068884202D134
:101930004FF4804033E09A4928392068884202D128
:101940004FF480202BE0964914392068884202D158
:101950004FF4800023E092492068884201D1C004FE
:101960001DE090492068884201D1042017E08D498C
:1019700014312068884201D1402010E08949283183
:101980002068884201D1001509E086493C31206871
:10199000884202D14FF4804001E04FF4802080491A
:1019A00080394860E06A002802D02046E16A884712
:1019B000F4E094F84010022088402840002871D0BC
:1019C00006F002000028FAD02068006800F020002D
:1019D00040B92068006820F00A00216808600120F2
:1019E00084F821006E492068884254D96C497839BE
:1019F0002068884201D1022049E0694964392068A1
:101A0000884201D1202042E065495039206888424F
:101A100001D140153BE062493C392068884202D13F
:101A20004FF4005033E05E4928392068884202D1E3
:101A30004FF400302BE05A4914392068884202D113
:101A40004FF4001023E056492068884201D18004F9
:101A50001DE054492068884201D1022017E0514915
:101A600014312068884201D1202010E04D492831EE
:101A70002068884201D1401509E04A493C3120687C
:101A8000884202D14FF4005001E04FF40030454944
:101A9000091F086054E0424978392068884202D121
:101AA00002204AE057E03E4964392068884201D16B
:101AB000202042E03A4950392068884201D140153F
:101AC0003BE037493C392068884202D14FF400504E
:101AD00033E0334928392068884202D14FF400307E
:101AE0002BE02F4914392068884202D14FF40010AE
:101AF00023E02B492068884201D180041DE0294958
:101B00002068884201D1022017E02649143120685C
:101B1000884201D1202010E02249283120688842E3
:101B200001D1401509E01F493C312068884202D1AB
:101B30004FF4005001E04FF40030194980394860FB
:101B400000BF002084F8200000BFA06A30B3204608
:101B5000A16A884722E094F8401008208840284075
:101B6000E0B106F00800C8B12068006820F00E005F
:101B70002168086094F8401001208840E16B4860BB
:101B80000120A06384F8210000BF002084F8200019
:101B900000BF206B10B12046216B884770BD00004C
:101BA00080000240080402400146002209B90120D9
:101BB00070471E4B086898420BD21D4B0868C01A2C
:101BC0001423B0FBF3F08000086419480838C86398
:101BD0000AE0164B0868C01A1423B0FBF3F080002B
:101BE000086412480838C863022081F82100086898
:101BF000026843F6F0708243D1E901031843CB68D1
:101C000018430B6918434B6918438B691843CB6918
:101C1000184302430868026000208863012081F8AD
:101C20002100002081F8200000BFC1E70804024025
:101C3000080002402DE9F04104460D4616461F46B5
:101C40004FF0000800BF94F82000012802D10220C4
:101C5000BDE8F081012084F8200000BF94F8210045
:101C600001282CD1022084F821000020A0632068E4
:101C7000006820F00100216808603B463246294692
:101C80002046FEF73FFFE06A30B12068006840F070
:101C90000E00216808600BE02068006820F0040056
:101CA000216808602068006840F00A002168086028
:101CB0002068006840F001002168086006E000BF6D
:101CC000002084F8200000BF4FF002084046BFE724
:101CD00070B5044600F0C0F906462546681C10B1F0
:101CE00004480078054400BF00F0B6F9801BA84204
:101CF000FAD370BD300000202DE9F84702460023DA
:101D00009C467BE14FF0010808FA03F4D1F800800B
:101D100008EA0400A0427DD1DFF8F4A2D1F80480E3
:101D2000A8EB0A09D0453AD014DCB8F1030F50D023
:101D300009DCB8F1000F31D0B8F1010F1CD0B8F1B7
:101D4000020F49D120E0B8F1110F18D0B8F1120FED
:101D500042D11EE0B9F5881F25D006DCB9F5803FD9
:101D600020D0B9F5801F37D11AE0B9F5001F18D07F
:101D7000B9F5041F30D117E0D1F80CC02DE0D1F82F
:101D80000C8008F1040C28E0D1F80C8008F1080C54
:101D900023E0D1F80C8008F10C0C1EE000BF00BF5E
:101DA00000BF00BF00BF00BFD1F80880B8F1000F2E
:101DB00002D14FF0040C0BE0D1F80880B8F1010F0C
:101DC00003D14FF0080C146102E04FF0080C54618D
:101DD00003E04FF0000C00E000BF00BFFF2801D877
:101DE000904601E002F104084646FF2802D84FEA77
:101DF000830803E0A3F108084FEA88084746D6F8AD
:101E000000804FF00F0909FA07F928EA09080CFACF
:101E100007F900E07AE048EA0908C6F80080D1F83E
:101E2000048008F08058B8F1805F6FD100BFDFF800
:101E3000E481D8F8188048F00108DFF8D891C9F893
:101E40001880C846D8F8188008F00108CDF800803E
:101E500000BF00BF4FEAB9384FEA930958F829503C
:101E60004FEA83784FEA18794FF00F0808FA09F81B
:101E700025EA0805DFF8A081424502D14FF00008AD
:101E800024E0DFF89881424502D14FF001081DE0BF
:101E9000DFF88C81424502D14FF0020816E0DFF8EE
:101EA0008481424502D14FF003080FE0DFF87881CA
:101EB000424502D14FF0040808E0DFF87081424546
:101EC00002D14FF0050801E04FF006084FEA837990
:101ED0004FEA197908FA09F848EA0505DFF8508150
:101EE0004FEA930948F82950D1F8048008F4801883
:101EF000B8F5801F0BD1DFF83C81D8F8008048EAA4
:101F00000008DFF83091C9F800800AE075E0DFF8DA
:101F10002481D8F8008028EA0008DFF81891C9F871
:101F20000080D1F8048008F40018B8F5001F0ED125
:101F3000DFF8008108F10408D8F8008048EA0008BA
:101F4000DFF8F09009F10409C9F800800DE0DFF82E
:101F5000E48008F10408D8F8008028EA0008DFF8D7
:101F6000D49009F10409C9F80080D1F8048008F47C
:101F70000038B8F5003F0ED1DFF8B880A8F10408AA
:101F8000D8F8008048EA0008DFF8A890A9F1040911
:101F9000C9F800800DE0DFF89C80A8F10408D8F8AB
:101FA000008028EA0008DFF88C90A9F10409C9F83C
:101FB0000080D1F8048008F48038B8F5803F0ED155
:101FC000DFF87080A8F10808D8F8008048EA000817
:101FD000DFF86090A9F10809C9F800800DE0DFF88A
:101FE0005480A8F10808D8F8008028EA0008DFF833
:101FF0004490A9F10809C9F800805B1CD1F8008061
:1020000028FA03F8B8F1000F7FF47CAEBDE8F8873A
:10201000000011100010024000080140000C0140B7
:10202000001001400014014000180140001C014054
:10203000080001400804014010B5C26821EA02030B
:1020400002EA010443EA0443036110BD0AB10161DD
:1020500001E00B040361704701480068704700000D
:102060002800002003480068034909780844014912
:1020700008607047280000203000002010B5084894
:10208000006840F0100006490860032000F0E2F804
:102090000F2000F007F800F05FF8002010BD0000EE
:1020A000002002402DE9F04188B004460027B846E0
:1020B000002600BF2348C06940F004002149C861E0
:1020C0000846C06900F00400019000BF00BF02A9EB
:1020D00003A800F099F9069F1FB900F0BDF9054665
:1020E00002E000F0B9F945001748B5FBF0F0A0F1A7
:1020F000010816481649086040F2E7311448C160EB
:10210000C0F80480002101618160816100F030FC31
:10211000064696B90E4800F05FFC06466EB91E20D2
:1021200000F04AF8102C07D2002221461E2000F0B1
:1021300053F80848046000E00126304608B0BDE8C6
:10214000F08100000010024040420F0000080040F3
:10215000340400202C00002008B500BF144880691A
:1021600040F00100124988610846806900F00100D2
:10217000009000BF00BF00BF0846C06940F080501B
:10218000C8610846C06900F08050009000BF00BFE1
:1021900000220F21901E00F01FF800BF054948687B
:1021A00020F0E06040F00070486000BF08BD000013
:1021B000001002400000014001460846002809DBEB
:1021C00000F01F0301229A4043099B0003F1E02322
:1021D000C3F8002100BF70472DE9F05F80460D462F
:1021E0001646002703F09AF8074639462A46334632
:1021F00001F00700C0F1070ABAF1040F02D94FF04D
:10220000040A01E0C0F1070AD14600F1040ABAF15C
:10221000070F02D24FF0000A01E0A0F1030AD446F2
:102220004FF0010A0AFA09FAAAF1010A0AEA020AB7
:102230000AFA0CFA4FF0010B0BFA0CFBABF1010B95
:102240000BEA030B4AEA0B042146404603F06EF802
:10225000BDE8F09F00BF00F00702064B19684FF67B
:10226000FF031940044B0B4343EA0221014B196061
:1022700000BF70470CED00E00000FA0570B50446A1
:102280000D460CB9012070BD5A48006800F00700E7
:10229000A8420ED25748006820F00700284355494D
:1022A00008600846006800F00700A84201D001203D
:1022B000E9E7207800F0020002281DD1207800F024
:1022C0000400042805D14C48406840F4E0604A49C5
:1022D0004860207800F00800082805D1464840688A
:1022E00040F46050444948604348406820F0F000A2
:1022F000A168084340494860207800F0010078B3A5
:102300006068012806D13C48006800F4003090B9AC
:102310000120B8E76068022806D13748006800F05D
:10232000007040B90120AEE73348006800F00200B9
:1023300008B90120A7E73048406820F00300616831
:1023400008432D494860FFF787FE064609E0FFF77E
:1023500083FE801B41F28831884202D9032092E734
:1023600007E02548406800F00C006168B0EB810F81
:10237000EDD12048006800F00700A8420ED91D48A2
:10238000006820F0070028431A49086008460068E2
:1023900000F00700A84201D0012074E7207800F087
:1023A0000400042807D11448406820F4E060E16884
:1023B000084311494860207800F00800082808D137
:1023C0000D48406820F46050216940EAC1000A4984
:1023D000486000F061F808494968C1F30311074AF1
:1023E000515CC8400649086006480068FFF75AFE7D
:1023F000002048E70020024000100240C4AC000862
:10240000340000202C0000200F2202600D4A526888
:1024100002F0030242600B4A526802F0F00282604E
:10242000084A526802F4E062C260064A526802F446
:102430006052D2080261044A126802F007020A6080
:102440007047000000100240002002400148006870
:10245000704700003400002000B5FFF7F7FF044983
:102460004968C1F30221034A515CC84000BD000025
:1024700000100240D4AC000800B5FFF7E7FF0449A4
:102480004968C1F3C221034A515CC84000BD000045
:1024900000100240D4AC000870B5002100220024D6
:1024A00000230020134D696801F00C05F5B1042DDF
:1024B00002D0082D19D101E00F4819E00F4DC1F3EA
:1024C0008346AB5D01F4803555B10A4D6D68C5F3A7
:1024D00040450B4E725D084D5D43B5FBF2F402E0E2
:1024E000084D03FB05F4204602E000BF024800BF90
:1024F00000BF70BD0010024000127A00B2AC0008AC
:10250000C2AC000800093D00F8B504460CB9012032
:10251000F8BD207800F00100002878D0F848406825
:1025200000F00C0004280CD0F548406800F00C00C6
:10253000082811D1F248406800F48030B0F5803F9F
:102540000AD1EF48006800F4003000285FD06068CE
:1025500000285CD10120DBE700BF6068B0F5803F58
:1025600006D1E748006840F48030E549086028E07B
:10257000606858B9E248006820F48030E04908609B
:102580000846006820F4802008601AE06068B0F512
:10259000A02F0BD1DA48006840F48020D8490860A9
:1025A0000846006840F4803008600AE0D4480068BB
:1025B00020F48030D24908600846006820F480206A
:1025C000086000BF606888B1FFF746FD054606E079
:1025D000FFF742FD401B642801D9032098E7C84853
:1025E000006800F400300028F2D010E0FFF734FD5E
:1025F000054606E0FFF730FD401B642801D90320A3
:1026000086E7BF48006800F400300028F2D1207847
:1026100000F00200022857D1B948406800F00C00D1
:1026200050B1B748406800F00C00082818D1B448F1
:10263000406800F4803098B9B148006800F00200AA
:1026400020B12069012801D0012061E7AC48006871
:1026500020F0F800616940EAC100A949086033E050
:102660002069E8B10120A7490860FFF7F5FC05469D
:1026700006E0FFF7F1FC401B022801D9032047E7E1
:102680009F48006800F002000028F2D09C480068D3
:1026900020F0F800616940EAC1009949086013E040
:1026A000002098490860FFF7D7FC054606E0FFF7D1
:1026B000D3FC401B022801D9032029E79048006879
:1026C00000F002000028F2D1207800F0080008286D
:1026D0002DD1A069B8B101208B490860FFF7BCFC7F
:1026E000054606E0FFF7B8FC401B022801D903208D
:1026F0000EE78348406A00F002000028F2D0012073
:1027000002F042F913E000207F490860FFF7A4FCC3
:10271000054606E0FFF7A0FC401B022801D9032074
:10272000F6E67748406A00F002000028F2D12078EF
:1027300000F00400042873D100277148C06900F03C
:10274000805070B900BF6E48C06940F080506C493D
:10275000C8610846C06900F08050009000BF00BF0B
:1027600001276A48006800F48070B0B967480068C3
:1027700040F4807065490860FFF76EFC054606E08E
:10278000FFF76AFC401B642801D90320C0E65F48BC
:10279000006800F480700028F2D000BFE0680128D3
:1027A00006D15748006A40F001005549086227E009
:1027B000E06858B95248006A20F0010050490862A8
:1027C0000846006A20F00400086219E0E068052865
:1027D0000BD14B48006A40F00400494908620846A2
:1027E000006A40F0010008620AE04548006A20F0F3
:1027F0000100434908620846006A20F004000862AC
:1028000000BFE068A0B1FFF727FC054609E0FFF72D
:1028100023FC401B41F28831884202D9032077E62D
:1028200022E03748006A00F002000028EFD012E0F2
:10283000FFF712FC054608E0FFF70EFC401B41F2D3
:102840008831884201D9032062E62D48006A00F0F1
:1028500002000028F0D1012F05D12948C06920F0DD
:1028600080502749C86100BFE069C8B32448406868
:1028700000F00C00082860D0E069022848D1002050
:1028800020490866FFF7E8FB054606E0FFF7E4FB92
:10289000401B022801D903203AE61948006800F0DD
:1028A00000700028F2D1206AB0F5803F07D11448AB
:1028B000406820F40030A168084311494860D4E919
:1028C000080108430E49496821F4741108430C4972
:1028D000486001200B490866FFF7BEFB054607E08C
:1028E0003DE0FFF7B9FB401B022801D903200FE6AA
:1028F0000348006800F000700028F2D02FE00000CC
:102900000010024000004242800442420070004039
:10291000002014490866FFF79FFB054606E0FFF715
:102920009BFB401B022801D90320F1E50E480068FB
:1029300000F000700028F2D111E0E069012800D118
:10294000E6E50948466806F48031206A814204D1F0
:1029500006F47011606A814201D00120D8E50020A0
:10296000D6E5000000004242001002407047704768
:1029700010B504460CB9012010BD94F83D0028B9EB
:10298000002084F83C00204600F025F8022084F85E
:102990003D00211D206802F02DF9012084F8460039
:1029A00000BF84F83E0001213F2001554020015521
:1029B0004120015500BF00BF012084F842004320A0
:1029C0000155442001554520015500BF012084F8E0
:1029D0003D000020D0E77047014691F83D000128F6
:1029E00001D001207047022081F83D000868C068CE
:1029F00040F001000B68D860164B0868984213D06D
:102A0000154B086898420FD00868B0F1804F0BD082
:102A1000124B0868984207D0114B0868984203D0BF
:102A2000104B086898420CD10868806800F00702D3
:102A3000062A0CD00868006840F001000B68186096
:102A400005E00868006840F001000B68186000208D
:102A5000C8E70000002C01400034014000040040A1
:102A600000080040000C0040704770B50446206824
:102A7000C5682068066906F00200022819D105F031
:102A80000200022815D1401F21680861012020772B
:102A90002068806900F0030018B12046FFF7E4FFCA
:102AA00005E0204600F097F8204600F095F8002059
:102AB000207706F00400042819D105F0040004284A
:102AC00015D1C04321680861022020772068806901
:102AD00000F4407018B12046FFF7C6FF05E020461D
:102AE00000F079F8204600F077F80020207706F013
:102AF0000800082819D105F00800082815D1C0439E
:102B000021680861042020772068C06900F0030074
:102B100018B12046FFF7A8FF05E0204600F05BF85B
:102B2000204600F059F80020207706F01000102809
:102B300019D105F01000102815D1C0432168086193
:102B4000082020772068C06900F4407018B1204642
:102B5000FFF78AFF05E0204600F03DF8204600F030
:102B60003BF80020207706F0010048B105F0010095
:102B700030B16FF0010021680861204600F02EF8A6
:102B800006F08000802809D105F08000802805D15A
:102B9000C043216808612046FFF7E8FE06F04000C8
:102BA000402809D105F04000402805D1C0432168E4
:102BB0000861204600F01EF806F02000202809D108
:102BC00005F02000202805D1C04321680861204677
:102BD000FFF7CDFE70BD70477047000010B504468A
:102BE00003492068884201D1FFF73CFA10BD00007C
:102BF0000008004070477047704700002DE9F84F0B
:102C00000446206805682068C668206847694FF058
:102C10000009CA4605F00F09B9F1000F0AD105F005
:102C2000200038B106F0200020B1204602F02FF934
:102C3000BDE8F88FB9F1000F7BD007F0010018B99B
:102C400006F49070002874D005F0010030B106F44D
:102C5000807018B1606C40F00100606405F0040001
:102C600030B107F0010018B1606C40F00200606400
:102C700005F0020030B107F0010018B1606C40F0BF
:102C80000400606405F0080048B106F0200010B9A7
:102C900007F0010018B1606C40F008006064606CDF
:102CA000002845D005F0200028B106F0200010B122
:102CB000204602F0ECF820684069C0F3801A606C8E
:102CC00000F0080010B9BAF1000F2CD0204602F035
:102CD00085F82068406900F0400000B300BF00BFE5
:102CE0002168143151E8001F21F04000216814319F
:102CF00041E80002002AF3D100BFE06B50B17748F1
:102D0000E16B4863E06BFEF7AFFC88B1E06B416BB1
:102D100088470DE02046FFF76FFF09E009E02046F5
:102D2000FFF76AFF04E02046FFF766FF00206064BB
:102D30007EE7206B012877D105F01000002873D0C2
:102D400006F010000028FAD000BF00200090206894
:102D50000068009020684068009000BF00BF2068B5
:102D6000406900F0400000285FD0E06B00684068D8
:102D70001FFA80F8B8F1000F55D0A08D404552DD04
:102D8000A4F82E80E06B8069202843D000BF00BFEC
:102D900021680C3151E8001F21F4807021680C314A
:102DA00041E80002002AF3D100BF00BF00BF216844
:102DB000143151E8001F21F001002168143141E86D
:102DC0000002002AF3D100BF00BF00BF2168143108
:102DD00051E8001F21F040002168143141E8000251
:102DE000002AF3D100BF202084F842000020206395
:102DF00000BF00BF21680C3151E8001F21F0100016
:102E000021680C3141E80002002AF3D100BFE06BD9
:102E1000FEF7FFFB02206063A08DE28D801A81B275
:102E20002046FFF7E8FE03E742E0A08DE18D401A5F
:102E30001FFA80F8E08DD0B3B8F1000F37D000BF93
:102E400000BF21680C3151E8001F21F49070216807
:102E50000C3141E80002002AF3D100BF00BF00BFDF
:102E60002168143151E8001F21F00100216814315C
:102E700041E80002002AF3D100BF202084F842007C
:102E80000020206300BF00BF21680C3151E8001F03
:102E900021F0100021680C3141E80002002AF3D132
:102EA00000BF0220606341462046FFF7A4FEBFE654
:102EB00005F0800030B106F0800018B1204602F025
:102EC00067F9B5E605F0400030B106F0400018B1F2
:102ED000204601F0B9FFABE600BFA9E6A14C00080F
:102EE00010B504460CB9012010BDA06900B100E086
:102EF00000BF94F8410028B9002084F84000204623
:102F000000F02AF8242084F841002068C06820F4EA
:102F100000502168C860204602F038F82068006937
:102F200020F49040216808612068406920F02A0060
:102F3000216848612068C06840F400502168C8607A
:102F400000206064202084F8410084F842000020C2
:102F5000606300BFC8E7000010B586B004460020DB
:102F600002900390049005906C49206888422FD10C
:102F700000BF6B48806940F4804069498861084619
:102F8000806900F48040019000BF00BF00BF084688
:102F9000806940F0040088610846806900F0040000
:102FA000019000BF00BF481502900220039003204B
:102FB000059002A95B48FEF79FFE4FF480600290E7
:102FC00000200390049002A95648FEF795FEA2E067
:102FD0005549206888423FD100BF5148C06940F43C
:102FE00000304F49C8610846C06900F400300190C4
:102FF00000BF00BF00BF0846806940F02000886124
:103000000846806900F02000019000BF00BF20202A
:103010000290022003900320059002A94348FEF786
:103020006BFE4020029000200390049002A93F48CC
:10303000FEF762FE00BF3E49486840F0E06040F0A5
:103040000800486000BF002206212620FFF7C4F8D0
:103050002620FFF7B1F85EE03649206888425AD151
:1030600000BF2F48C06940F480202D49C861084640
:10307000C06900F48020019000BF00BF00BF084677
:10308000806940F0200088610846806900F02000D7
:10309000019000BF00BF881502900220039003201A
:1030A000059002A92148FEF727FE4FF40070029018
:1030B00000200390049002A91C48FEF71DFE00BFEB
:1030C0001B49486820F0300040F0E06040F03000DC
:1030D000486000BF18481949086000204860002176
:1030E000164881608021C1600021016141618161D8
:1030F000C161FEF759FD08B1FDF71BFD00BF0F4888
:10310000E063446200BF002205212720FFF764F836
:103110002720FFF751F806B010BD0000003801402D
:10312000001002400008014000440040001401402B
:10313000000001400048004030000240F003002041
:1031400070B504460D46164694F8420020280BD16F
:1031500005B10EB9012070BD00202063324629461A
:10316000204601F091FFF6E70220F4E770B504462F
:103170000D46164694F8420020280BD105B10EB931
:10318000012070BD0020206332462946204601F010
:10319000DFFFF6E70220F4E71CB5044601200190AA
:1031A00024492068884226D1234800784A281CD127
:1031B000214840785F2818D11F48C0788B2814D147
:1031C0000020009000236A461B49891C1B480068A8
:1031D00006F0C8FF009838B14FF0805018490860D9
:1031E000BFF34F8FBFF36F8F00BF04221249154802
:1031F000FFF7BCFF1CE014492068884218D113482F
:103200000178134802F05BFD01A91248006806F03E
:1032100011FA019838B14FF0805009490860BFF3A6
:103220004F8FBFF36F8F012208490B48FFF788FFCC
:103230001CBD0000004400402000002018000020B9
:1032400004ED00E06003002000480040240000205E
:10325000080300200C000020A803002070472DE97F
:10326000F84F04460E46174699464FF0000A94F868
:103270004100202850D106B117B90120BDE8F88FD0
:1032800000206064212084F84100FEF7E5FE8246BC
:10329000A784E784A068B0F5805F04D1206910B9E5
:1032A0000025B04602E035464FF000081EE05346C8
:1032B000002280212046CDF8009001F099FF20B136
:1032C000202084F841000320D8E745B9B8F8000071
:1032D000C0F308002168486008F1020803E028787C
:1032E000216848606D1CE08C401EE084E08C002862
:1032F000DDD15346002240212046CDF8009001F058
:1033000077FF20B1202084F841000320B6E7202079
:1033100084F841000020B1E70220AFE7704700BF0A
:10332000FEE72DE9FE4F04460D4616461F46DDF822
:1033300030A00020029001978046814601A805F048
:10334000C7FE8DF808000298C0F3C00028700298EC
:10335000C0F3031020706946019800F033F98146EC
:10336000019908440190DDE9001000EB0108019883
:10337000A8EB0000022800DA06E001A805F0AFFE85
:1033800030804FF0010900BF4846BDE8FE8F2DE9AF
:10339000FF4704460D4616469946002003900296C4
:1033A00000278046009002A805F092FE8DF80C00E0
:1033B0000398C0F30310022800D01FE001A902986F
:1033C00000F000F98046029908440290DDE90110FE
:1033D00047180298381A022800DA0FE002A805F010
:1033E00077FE8DF80000009800F00100207002A820
:1033F00005F06EFE28704FF0010800BF404604B093
:10340000BDE8F0872DE9FF5F06460C461746984653
:10341000DDE90FABDDF838900020039011980290A1
:10342000002500200190009002A805F051FE8DF8C3
:103430000C000398C0F30310032800D032E0039877
:10344000C0F3C00030700398C0F3410020600398BF
:1034500000F0010038706946029800F0B3F801905E
:103460000299084402900099029845182A4602A938
:10347000484605F041FE10B10298281A00D511E027
:103480002068002804DD02A805F029FEA8F8000045
:103490000298281ACBF800000298CAF80000012010
:1034A000019000BF019804B0BDE8F09F2DE9FE4FE8
:1034B00005460E4614461F46DDE90C9B002002908F
:1034C000CDF804908046824601A805F001FE8DF8F3
:1034D00008000298C0F30310092800D02CE06946C8
:1034E000019800F06FF88246019908440190DDE9E7
:1034F000001000EB01080198A8EB0000022800DA98
:103500001AE001A805F0EBFD2880002020600DE006
:103510002068B04202DD4FF0FF3A0DE001A805F04F
:10352000D7FD2268511C216047F8220001984045D0
:10353000EED34FF0010A00BF5046BDE8FE8FFEB546
:1035400004460D46164600200290019000272B46A7
:10355000224601A902A80096FFF7E3FE07469DF860
:1035600008000B2800D101273846FEBD2DE9F8439D
:1035700005460C46012600270020206000BF4FF0C2
:10358000FF38781C0746042801DD00BF17E0012141
:103590006846A8478046B8F1010F00D00FE09DF8BB
:1035A000001001F07F01206801FB06002060F60199
:1035B0009DF8000000F080000028E0D100BF3846F0
:1035C000BDE8F88370B504460D46034804602946FB
:1035D0000248FFF7CBFF70BDBC0000202D5C000847
:1035E00030B50246002300BF0846CD1701EB5565F4
:1035F000ED11A1EBC515ECB2CD1701EB5565E91145
:10360000002901DD44F0800418465B1C1454002995
:10361000EADC184630BD2DE9F04104460E4600278D
:10362000B846206828B125682068FCF743FE0746A5
:1036300001E0A56867683046FCF73CFE80464745D8
:1036400008D13A4631462846FCF752FE10B901200F
:10365000BDE8F0810020FBE7401C802801DA401C17
:103660000AE0B0F5804F01DA801C05E0034988428A
:1036700001DAC01C00E0001D70470000FFFF1F00C2
:103680002DE9FC4704460E4615461F46DDF8288006
:103690000020019081460094042E02DA6FF00109A7
:1036A00024E0019865F307100190019867F3C300C7
:1036B0000190062D01D1012100E00021019861F364
:1036C000420001909DF80410684606F0A9FA022114
:1036D0000098FFF785FF009908440090414668462E
:1036E00006F0A4FA0098A0EB040900BF4846BDE824
:1036F000FC8700002DE9FE4305460E461446029560
:1037000000200190009000274FF0FF38204600F085
:10371000A5F807468146FFF79FFFB04202DD6FF034
:1037200001088FE000208DF80400019820F0F000DF
:10373000103001909DF8041002A806F071FA394685
:103740000298FFF74DFF029908440290207A04285E
:1037500008D13EA102A806F04FFA042102A806F003
:103760005FFA07E03BA102A806F046FA032102A88F
:1037700006F056FA00208DF80000A17E009861F353
:1037800041000090E07E08B1012100E00021009896
:1037900061F3820000900098C0F3800058B194F863
:1037A0003D10009861F3C400009094F83C1000981C
:1037B00061F345100090206C08B9A06C20B100980E
:1037C00020F0800080300090E06C08B9606D20B17E
:1037D000009820F04000403000909DF8001002A8B2
:1037E00006F01EFA218B02A806F020FA02A8D4E9FE
:1037F0000423E16806F032FAE07E58B102A8D4E969
:103800000A23616A06F02AFA02A8D4E90D23216B83
:1038100006F024FA0098C0F3C01028B102A8D4E939
:103820001123216C06F01AFA0098C0F3801028B119
:1038300002A8D4E91423E16C06F010FA0298A0EB78
:10384000050800BF4046BDE8FE8300004D515454BA
:10385000000000004D5149736470000070B50446CB
:103860000025207A032801D10C2503E0207A0428C2
:1038700000D10A25D4E90412E06800F0D7FB801CCF
:103880000544E07E68B1D4E90A12606A00F0CEFB1C
:10389000861CD4E90D12206B00F0C8FB3044801C5C
:1038A0000544206C08B9A06C30B1D4E91112206C29
:1038B00000F0BCFB801C0544E06C08B9606D30B1C1
:1038C000D4E91412E06C00F0B1FB801C05442846DA
:1038D00070BD70B504460D460C222946204600F006
:1038E000D9F870BD2DE9F04F87B005460F469046D8
:1038F0001C46DDE915B6DDE9109A06950020059015
:10390000049003900096204612A90EC900F042F8D8
:1039100004900290FFF7A0FEB84203DD6FF00100B3
:10392000039033E0059820F0F000303005900598C2
:1039300068F3C3000590059864F34200059005986C
:1039400069F3000005909DF8141006A806F068F9C8
:1039500004990698FFF744FE06990844069006A8C5
:1039600012A90EC906F07AF9002C03DD514606A80B
:1039700006F05CF9324659460698FCF765FC069855
:10398000304406900698401B039000BF039807B090
:10399000BDE8F08F7FB50546089E002401A807C842
:1039A00000F044FB801C30440444002D00DDA41CC6
:1039B000204604B070BD2DE9FF5F05460E46174650
:1039C0009846DDE90E9A0395002002900190009040
:1039D00000245146484600F046F883460190FFF720
:1039E0003BFEB04202DDA01E009038E000208DF8C2
:1039F0000800029820F0F00080300290029867F3EF
:103A0000C3000290029820F00600801C02909DF8EE
:103A1000081003A806F004F901990398FFF7E0FDE8
:103A2000039908440390414603A806F0FFF80024D8
:103A30000FE004EB44000AEB800C03A89CE80E00A6
:103A400006F00CF9109810F8241003A806F0E8F816
:103A5000641C4C45EDDB0398401B009000BF0098B0
:103A600004B0BDE8F09F2DE9F04105460E4602275F
:103A700000240AE004EB440006EB800393E807000F
:103A800000F0D4FAC01C0744641CAC42F2DB384698
:103A9000BDE8F0812DE9FC4104460D4616460020A4
:103AA0000190471E0094022D01DA871E15E00020C8
:103AB0008DF80400019866F3071001909DF804103A
:103AC000684606F0ADF800210098FFF789FD0099DF
:103AD000084400900098071B00BF3846BDE8FC81F1
:103AE0002DE9FE4380460C4640F27F7540F2BF76DA
:103AF0005AA0006802905A4801F0DAFB59A001F080
:103B0000D7FB206CC068584B4FF4A07257A1CDE989
:103B100000405CA001F0CCFB52A001F0C9FB504872
:103B200001F0C6FB4FA001F0C3FB216CC8685EA189
:103B3000FCF7AEFB60B107208DF80A0002A8FCF785
:103B4000B9FBC7B23A4602A93046FCF7B1FF83E0A1
:103B5000216CC86858A1FCF79BFB60B108208DF868
:103B60000A0002A8FCF7A6FBC7B23A4602A93046F3
:103B7000FCF79EFF70E0216CC86853A1FCF788FB3E
:103B800060B101208DF80A0002A8FCF793FBC7B2D0
:103B90003A4602A92846FCF78BFF5DE0216CC86815
:103BA0004DA1FCF775FB60B102208DF80A0002A858
:103BB000FCF780FBC7B23A4602A92846FCF778FF1B
:103BC0004AE0216CC86848A1FCF762FB60B10320A1
:103BD0008DF80A0002A8FCF76DFBC7B23A4602A9AD
:103BE0002846FCF765FF37E0216CC86842A1FCF766
:103BF0004FFB60B104208DF80A0002A8FCF75AFBC5
:103C0000C7B23A4602A92846FCF752FF24E0216CCD
:103C1000C8683DA1FCF73CFB60B105208DF80A00A7
:103C200002A8FCF747FBC7B23A4602A92846FCF7B0
:103C30003FFF11E0216CC86837A1FCF729FB58B1A0
:103C400006208DF80A0002A8FCF734FBC7B23A46FA
:103C500002A92846FCF72CFFBDE8FE83AA1100004C
:103C600028BA00080A000000A0AC00082E2E2F433E
:103C70006F72652F5372632F6672656572746F730E
:103C80002E63000025733A256420257328292E2EE3
:103C90002E0A746F7069633A2025730A6D65737319
:103CA0006167653A25730000E68993E5BC80E8BD4D
:103CB000A6E997A800000000E585B3E997ADE8BD47
:103CC000A6E997A800000000E68993E5BC80E8BD5E
:103CD000A6E781AF00000000E585B3E997ADE8BD38
:103CE000A6E781AF00000000E68993E5BC80E8BD4F
:103CF000A6E7AA9700000000E585B3E997ADE8BD07
:103D0000A6E7AA9700000000E68993E5BC80E5A439
:103D1000A9E7AA9700000000E585B3E997ADE5A4FF
:103D2000A9E7AA970000000088B000256DA001F067
:103D3000BFFA012274497548FFF702FA02F00AFD42
:103D4000054673A1284603F07BFA73A1284603F0C9
:103D5000F3F90A2005F054F906463146284603F0E7
:103D60009BF90A2005F04CF906463146284603F037
:103D7000CFFA0A2005F044F906463146284603F0FA
:103D80001DFA0121284603F03FF9284602F0D1F937
:103D9000044614B163A001F08BFA6A4B00226AA1B9
:103DA000284603F041FB044614B16AA001F080FAF2
:103DB00000208DF8040094E000BF4FF0FF3205A909
:103DC0006E48006806F04CFA0128F6D1BDF81400E0
:103DD00040F2666188425FD19DF8190001280BD13D
:103DE00067A004900498FCF765FA039001AA69A102
:103DF000284602F02FFE74E09DF8190002280BD12E
:103E000067A004900498FCF755FA039001AA61A1F9
:103E1000284602F01FFE64E09DF8190003280BD12C
:103E200064A004900498FCF745FA039001AA59A1F4
:103E3000284602F00FFE54E09DF8190004280BD12B
:103E400061A004900498FCF735FA039001AA51A1EF
:103E5000284602F0FFFD44E09DF8190005280BD12B
:103E60005EA004900498FCF725FA039001AA49A1EA
:103E7000284602F0EFFD34E09DF81900062830D105
:103E80005BA004900498FCF715FA039001AA41A1E5
:103E9000284602F0DFFD24E0BDF8140040F2555141
:103EA00088421ED19DF8190007280BD155A0049017
:103EB0000498FCF7FFF9039001AA36A1284602F006
:103EC000C9FD0EE09DF8190008280AD152A00490FF
:103ED0000498FCF7EFF9039001AA2EA1284602F0FE
:103EE000B9FD69E70A77656C636F6D6520746F20B3
:103EF0006D717474636C69656E7420746573742E6F
:103F00002E2E0D0A0000000024000020A80300202F
:103F1000313838330000000031302E36302E313445
:103F20002E3736004D5154542042726F6B6572200B
:103F3000636F6E6E656374206661696C65640D0AFB
:103F400000000000E13A00084D515454536D617275
:103F5000740000004D5154542042726F6B65722002
:103F600073756273637269626520746F706963311F
:103F7000206661696C65640D0A0000001400002071
:103F8000E8BDA6E781AFEFBC9AE5BC80E590AF0D38
:103F90000A0000006D63755F7465737400000000B3
:103FA000E8BDA6E781AFEFBC9AE585B3E997AD0D13
:103FB0000A000000E8BDA6E7AA97EFBC9AE5BC801E
:103FC000E590AF0D0A000000E8BDA6E7AA97EFBC98
:103FD0009AE585B3E997AD0D0A000000E5A4A9E7CD
:103FE000AA97EFBC9AE5BC80E590AF0D0A000000EF
:103FF000E5A4A9E7AA97EFBC9AE585B3E997AD0DCB
:104000000A000000E8BDA6E997A8EFBC9AE5BC80CD
:10401000E590AF0D0A000000E8BDA6E997A8EFBC47
:104020009AE585B3E997AD0D0A00000037B5002485
:10403000009820B10098FCF73DF9044600E0019C8F
:1040400020463EBD10B51048104908602420486045
:1040500000210E488160C1604FF480310161490147
:104060004161002101760121417681760021C176EE
:1040700001774177FDF740F908B1FCF75AFD0221BD
:104080000248FCF7D9FD10BD00640040E0000020AC
:1040900008B500BF0A48406940F00100084948617E
:1040A0000846406900F00100009000BF00BF0022F8
:1040B00005210D20FEF790F80D20FEF77DF808BDD4
:1040C0000010024010B5FCF7B3FB044A002104487D
:1040D00003F0DCFE0349086010BD00007CAC000862
:1040E000B14900081C00002000B585B000200190F7
:1040F00002900390049000BF2C48806940F01000AB
:104100002A4988610846806900F01000009000BFCD
:1041100000BF00BF0846806940F00800886108467B
:10412000806900F00800009000BF00BF00BF084693
:10413000806940F0200088610846806900F0200016
:10414000009000BF00BF00BF0846806940F0040037
:1041500088610846806900F00400009000BF00BF3D
:1041600001224FF484611248FDF770FF00224FF4E2
:1041700000610F48FDF76AFF4FF440600190112085
:104180000290012003900320049001A90848FDF744
:10419000B3FD2020019001200290022003900490A2
:1041A00001A90348FDF7A8FD05B000BD00100240BD
:1041B000000C014010B50B480B4908604FF4E1308A
:1041C0004860002108488160C16001610C214161A3
:1041D00000218161C161FEF783FE08B1FCF7A9FCF3
:1041E00010BD0000003801401803002010B50D4834
:1041F0000D4908604FF4E130486000210A488160B1
:10420000C16001610C21416100218161C161FEF742
:1042100067FE08B1FCF78DFC042204490248FEF752
:10422000A5FF10BD004400406003002020000020D6
:1042300010B50E4A4FF400710D4801F023FD0D48F2
:104240000D4908604FF4E130486000210A48816060
:10425000C16001610C21416100218161C161FEF7F2
:104260003FFE08B1FCF765FC10BD0000080100200E
:104270000803002000480040A803002000BFFEE71C
:1042800000BFFEE700200CE0002106E00022064B04
:1042900003EBC0135A544A1CD1B28029F6DB421CEE
:1042A000D0B20828F0DB70477C0400202DE9F043F1
:1042B00004460D4616461F46284638E0224631E0A1
:1042C000002A2DDB7F2A2BDC002829DB3F2827DC76
:1042D0004FEAE07C00EB5C7C4FEAEC0CDFF85880A6
:1042E00008EBCC1C1CF802C003464FEAE07800EB58
:1042F00058784FEAE808A0EBC8094FF0010808FA1F
:1043000009F82CEA080C01464FEAE07800EB5878EF
:104310004FEAE808DFF8209009EBC81808F802C057
:10432000511C0AB2A1199142CADC411C08B2E91918
:104330008142C3DCBDE8F0837C04002070B50546F3
:10434000002411E080212141294009B1012100E030
:104350000021084600F096FA012000F081FA0020C2
:1043600000F07EFA601CC4B2082CEBDB012000F0E8
:1043700077FA002000F074FA70BD10B5012000F04B
:1043800081FA012000F06CFA002000F07BFA002096
:1043900000F066FA10BD10B5002000F073FA01209D
:1043A00000F05EFA012000F06DFA10BD10B5012298
:1043B0004FF440612648FDF749FEAE2000F074FA44
:1043C000D52000F071FA802000F06EFAA82000F0ED
:1043D0006BFA3F2000F068FAD32000F065FA002065
:1043E00000F062FA402000F05FFAA12000F05CFAD1
:1043F000C82000F059FADA2000F056FA122000F036
:1044000053FA812000F050FACF2000F04DFAD92065
:1044100000F04AFAF12000F047FADB2000F044FAFD
:10442000302000F041FAA42000F03EFAA62000F06F
:104430003BFA8D2000F038FA142000F035FAAF2056
:1044400000F032FAFFF71EFF00F0B8F910BD0000CF
:10445000000C01400FB470B5C2B005460E461446BC
:104460004AA8019002A8019A499900F045FF00204E
:104470000190234602AA3146284600F0BDF842B01A
:1044800070BC5DF814FB70B505460C4645F0B000F5
:1044900000F00AFA102141EA141000F005FA04F0C5
:1044A0000F0000F001FA70BDF8B506460F4614463D
:1044B0001D46082D0CD1A4F120000E4901EB00107F
:1044C0001023082239460090304600F017F80FE01C
:1044D000062D0DD1A4F1200000EB4000064901EBB0
:1044E00040000823062239460090304600F006F8C6
:1044F000F8BD0000DCAC0008CCB200082DE9FF4F8D
:1045000080460E469146DDF834B0002500244A4628
:1045100031464046039BFFF7C9FE00BF5EE0002521
:1045200058E008EB0500002852DB08EB05007F2867
:104530004EDC3046F11706EB5171C9100FB2F1177E
:1045400006EB5171C910A6EBC10A002E05DA781EE0
:1045500007B20AF108000FFA80FA3819002817DBB1
:104560003819072814DC3819224901EBC01008EB70
:104570000501405C04FB09511BF8011001FA0AF126
:10458000084339191B4A02EBC11108EB0502885494
:104590003819401C00281BDB3819401C072817DC81
:1045A0003819401C134901EBC01008EB0501405CB1
:1045B00004FB09511BF80110CAF10802114108431C
:1045C0003919491C0B4A02EBC11108EB050288544A
:1045D000681CC5B24D45A4DB601CC4B20399481EDB
:1045E000C11700EB5171012202EBE101A14296DCFF
:1045F000BDE8FF8F7C0400202DE9FE4F07468A4668
:10460000144698460025AB460026CBE0605D00F0DE
:10461000800058B94FF0010B2846691C8DB2205C10
:104620008DF8040000208DF805006BE0605D00F05F
:10463000E000C02814D14FF0020B2846691C8DB24F
:10464000205C8DF80400605D00B9AFE02846691C6D
:104650008DB2205C8DF8050000208DF8060051E039
:10466000605D00F0F000E0281DD14FF0030B2846FC
:10467000691C8DB2205C8DF80400605D00B995E086
:104680002846691C8DB2205C8DF80500605D00B97C
:104690008CE02846691C8DB2205C8DF80600002055
:1046A0008DF807002EE0605D00F0F800F02826D1BC
:1046B0004FF0040B2846691C8DB2205C8DF8040075
:1046C000605D00B972E02846691C8DB2205C8DF8EF
:1046D0000500605D00B969E02846691C8DB2205C68
:1046E0008DF80600605D00B960E02846691C8DB257
:1046F000205C8DF8070000208DF8080002E0681C9F
:1047000085B24FE0BBF1010F0BD19DF80420B91920
:1047100008B243465146FFF7C7FE06EB080086B2D3
:104720003FE04FF000090EE009EB890101EB491170
:10473000204A881801A9FBF7C4FD00B90EE009F171
:1047400001001FFA80F909EB890101EB4911194AAF
:10475000881819A1FBF7B5FD0028E5D100BFB8F115
:10476000080F12D109EB890000EB491011490844E8
:10477000401DB919009008B210231A465146FFF7A0
:10478000BDFE06F1100086B20BE0B8F1060F08D1AD
:10479000B91908B206233F225146FFF785FEB01D26
:1047A00086B200BF605D00287FF430AF00BFBDE877
:1047B000FE8F000006B500080000000010B50024C0
:1047C0000BE000212046FFF75EFE054901EBC41017
:1047D000802100F079F8601CC4B2082CF1DB10BD18
:1047E0007C0400202DE9F04706460D461746984602
:1047F0002846E91705EB5171C9100FFA81F905EB4D
:104800000801481EC11700EB5171C910491C0FFA6D
:1048100081FA002D07DAA9F101000FFA80F9AAF157
:1048200001000FFA80FA4C4614E0002E10DB7F2EB8
:104830000EDC002C0CDB072C0ADCF1B2E0B2FFF737
:1048400022FE064901EBC4118819394600F03CF8F4
:10485000601C04B25445E8DBBDE8F0877C0400200E
:1048600010B5044634B900224FF480610448FDF7C6
:10487000EDFB04E0012291020148FDF7E7FB10BDCA
:10488000000C014010B5044634B900224FF4006119
:104890000448FDF7DBFB04E00122D1020148FDF7EB
:1048A000D5FB10BD000C014010B50446FFF765FDB7
:1048B0007820FFF743FD0020FFF740FD2046FFF77B
:1048C0003DFDFFF768FD10BD70B505460E46FFF7CC
:1048D00054FD7820FFF732FD4020FFF72FFD002424
:1048E00004E0285DFFF72AFD601CC4B2B442F8DB87
:1048F000FFF751FD70BD000070B50546002400268D
:1049000010E028194FF0FF31FCF76AF91CB1285D5F
:104910003A2800D107E0285D303806EB860100EB2D
:104920004106641CEDE700BF0024802E08DB0DA0CB
:1049300000F0BEFC00202870401EFCF74BF970BD53
:104940000CE028194FF0FF31FCF74AF9295D0C48BB
:1049500001F0B5F90B4803F028FB641CB442F0DB0E
:1049600000BFECE70D0A52656365697665206461F6
:10497000746120746F6F206C61726765210D0A008D
:1049800090340020C400002008B508490968C9080F
:104990004FF47A72B1FBF2F14143009100BF00BFC6
:1049A00000994A1E00920029F9D108BD3400002068
:1049B0001CB504F075FC34480F210023C822CDE952
:1049C000001032A1344805F021FE0446012C02D02B
:1049D00032A000F06DFC38480D2100238022CDE983
:1049E000001036A1384805F011FE0446012C02D013
:1049F00036A000F05DFC3C480F2100234422CDE9A5
:104A000000103AA13C4805F001FE0446012C02D0FA
:104A10003AA000F04DFC00200F210346C822CDE94A
:104A200000103DA13F4805F0F1FD0446012C02D0E5
:104A30003DA000F03DFC43480E2100238022CDE93B
:104A4000001041A1434805F0E1FD00220C210520A2
:104A500005F0CBF94049086000220C21052005F043
:104A6000C4F93E49086000220121052005F0BDF986
:104A70003B49086004F03EFC002004F065FD00BFE7
:104A8000012003F0ADF9FBE7000000206F6C6564C6
:104A90005F7461736B000000D57B00086F6C656408
:104AA0005F7461736B206372656174652066616910
:104AB0006C6564210D0A00000400002063616E5FD4
:104AC0007461736B00000000555C000863616E5FE9
:104AD0007461736B20637265617465206661696CD3
:104AE0006564210D0A0000000C00002041545F7035
:104AF00061727365000000007508000841545F7022
:104B00006172736520637265617465206661696CAA
:104B10006564210D0A0000004D5154545F546173C7
:104B20006B000000293D00084D5154545F546173DF
:104B30006B20637265617465206661696C656421D0
:104B40000D0A000008000020766F6963655F7461DC
:104B5000736B0000199B0008100000201400002057
:104B60001800002010B54FF0E020006905F0DEFDD0
:104B7000012801D005F00EF910BD00B58FB0282135
:104B800005A8FBF77AFB14216846FBF776FB0120AA
:104B90000590000406900020079001200990022053
:104BA0000C90C1030D914FF4E0110E9105A8FDF793
:104BB000ABFC08B1FBF7BDFF0F2000900220019075
:104BC000002002904FF480600390002004900221A6
:104BD0006846FDF753FB08B1FBF7ABFF0FB000BD14
:104BE0007047000010B50248FDF73FFF10BD000000
:104BF0003404002010B50268244B98420ED0244B98
:104C000098420BD0B0F1804F08D0224B984205D08B
:104C1000214B984202D0214B984203D122F07002DE
:104C20004B681A43194B98420ED0194B98420BD03F
:104C3000B0F1804F08D0174B984205D0164B9842E0
:104C400002D0164B984203D122F44072CB681A432B
:104C500022F080034C6943EA040202608B68C3625D
:104C60000B688362094B984202D0094B984201D1EC
:104C70000B69036301234361036903F001031BB163
:104C8000036923F00103036110BD0000002C014003
:104C9000003401400004004000080040000C0040C7
:104CA00070B505466C6A0020E085E0842046FDF77B
:104CB000A3FF70BD70B506460025746A2068406980
:104CC000C0F3C01594F84100212805D125B100207A
:104CD000E084204600F0C8F820684069C0F38015E1
:104CE00094F84200222805D125B10020E085204615
:104CF00000F074F8606C40F0100060642046FDF72E
:104D00007BFF70BD70B505466C6A2868006800F0CE
:104D10002000002842D1E08500BF00BF21680C318F
:104D200051E8001F21F4807021680C3141E8000235
:104D3000002AF3D100BF00BF00BF2168143151E841
:104D4000001F21F001002168143141E80002002A0F
:104D5000F3D100BF00BF00BF2168143151E8001F2C
:104D600021F040002168143141E80002002AF3D10B
:104D700000BF202084F84200206B01280ED100BF24
:104D800000BF21680C3151E8001F21F0100021689C
:104D90000C3141E80002002AF3D100BF002060631B
:104DA000206B012804D1A18D2046FDF724FF02E0ED
:104DB0002046FEF7F1F970BD70B505466C6A01201A
:104DC0006063206B012805D1A08D41082046FDF7C6
:104DD00012FF02E02046FEF741FA70BD00BF00BF9F
:104DE00002680C3252E8002F22F4907102680C32F3
:104DF00042E80013002BF3D100BF00BF00BF0268E0
:104E0000143252E8002F22F001010268143242E805
:104E10000013002BF3D100BF016B01290ED100BF9D
:104E200000BF02680C3252E8002F22F01001026825
:104E30000C3242E80013002BF3D100BF202180F890
:104E4000421000210163704710B504462068C06815
:104E500020F040002168C860202084F841002046EE
:104E6000FEF75CFA002010BD00BF00BF02680C32E4
:104E700052E8002F22F0C00102680C3242E8001311
:104E8000002BF3D100BF202180F841107047F8B506
:104E9000044694F84200222875D1A068B0F5805FDE
:104EA0000CD1206950B90025A66A20684068C0F37B
:104EB00008003080A06A801CA06215E0A56A002668
:104EC000A068B0F5805F03D0A06828B9206918B940
:104ED00020684068287004E02068406800F07F0087
:104EE0002870A06A401CA062E08D401E80B2E08560
:104EF000002846D12068C06820F020002168C860E2
:104F00002068C06820F480702168C860206840690B
:104F100020F0010021684861202084F84200002030
:104F20006063206B012826D10020206300BF00BFF2
:104F300021680C3151E8001F21F0100021680C316C
:104F400041E80002002AF3D100BF2068006800F0A9
:104F5000100010280AD100BF0020009020680068CF
:104F6000009020684068009000BF00BFA18D2046DF
:104F7000FDF741FE02E02046FEF70EF90020F8BDE5
:104F800001E00020FBE70220F9E7000070B50446CD
:104F90002168096921F44051E268114322681161D6
:104FA0002269A1681143626941EA02052168C96862
:104FB00041F20C62914329432268D160216849691A
:104FC00021F44071A2691143226851612D4A216880
:104FD000914202D1FDF750FA01E0FDF73DFA00EBF6
:104FE000C00101EB001162689200B1FBF2F100EB2D
:104FF000C00202EB001263689B00B2FBF3F2642371
:10500000B2FBF3F202EBC20303EB0212A1EB82014B
:10501000322202EB01116422B1FBF2F101F0F00146
:1050200000EBC00202EB001263689B00B2FBF3F2DC
:105030006423B2FBF3F201EB021200EBC00101EBBF
:10504000001163689B00B1FBF3F100EBC00303EBBD
:1050500000136668B600B3FBF6F36426B3FBF6F301
:1050600003EBC30606EB0313A1EB8301322303EB2F
:1050700001116423B1FBF3F101F00F011144226827
:10508000916070BD0038014077B581B00446154687
:105090000298A062A58500206064222084F8420066
:1050A0002848E16B88622848E16BC8622748E16BB9
:1050B00008630020E16B486302AE32682368191D63
:1050C0002B46E06BFCF7B6FD00BF00200090206887
:1050D0000068009020684068009000BF00BF206911
:1050E00070B100BF00BF21680C3151E8001F41F4CE
:1050F000807021680C3141E80002002AF3D100BF22
:1051000000BF00BF2168143151E8001F41F00100C9
:105110002168143141E80002002AF3D100BF00BF2A
:1051200000BF2168143151E8001F41F040002168A0
:10513000143141E80002002AF3D100BF002004B07E
:1051400070BD0000054D0008B94D0008B54C0008C1
:1051500010B5034699629A85DA85002058642220AA
:1051600083F84200186928B11868C06840F480705C
:105170001C68E0601868406940F001001C686061CC
:105180001868C06840F020001C68E060002010BD76
:10519000014691F84100212828D18868B0F5805F48
:1051A0000BD1086948B90A6A1088C0F308000B6877
:1051B0005860086A801C086205E00B6A581C086287
:1051C00018780B685860C88C401E80B2C88458B9E3
:1051D0000868C06820F080000B68D8600868C06864
:1051E00040F040000B68D860002070470220FCE7C8
:1051F0002DE9F84304460D4617469846089E31E0CF
:10520000701C70B3FCF728FFA0EB0800B04200D878
:1052100016B90320BDE8F8832068C06800F00400D8
:10522000F8B1802D1ED0402D1CD020680068C0F33E
:10523000C000B0B100BF002000902068006800905E
:1052400020684068009000BF00BF2046FFF7C6FD01
:105250000820606400BF002084F8400000BF0120E7
:10526000D8E7FFE7206800682840A84201D1012064
:1052700000E00020B842C3D00020CBE710B50248C0
:10528000FDF7BCFC10BD00006003002010B5024813
:10529000FDF7B4FC10BD0000A803002010B50248C3
:1052A000FBF703FF10BD0000E000002000BFFEE799
:1052B0000FB4054B10B503A9044A029800F02EF96B
:1052C00010BC5DF814FB0000615D0008DC000020EC
:1052D0000FB4084B10B504A902AA039800F01EF9F8
:1052E000044602A9002000F09CFC204610BC5DF89A
:1052F00014FB0000235C000837B514460846064B33
:105300006A46214600F00AF904466946002000F08A
:1053100088FC20463EBD0000235C0008024800686F
:10532000C0F30220704700000CED00E010B500282B
:1053300004DB0A07130E054A135406E00A07140E8D
:10534000034A00F00F031B1FD45410BD00E400E01B
:1053500018ED00E0EFF30580704702E008C8121F67
:1053600008C1002AFAD170477047002001E001C14E
:10537000121F002AFBD170472DE9FF5F82B0002188
:10538000DDE90430020DDDF840B0034318D044F6E7
:105390001050A2F2FF3242431514119801281FD079
:1053A000A5EB0B00401C5FEA000A4FF000064E4FD1
:1053B000DFF83891B046504615D5CAF1000413E025
:1053C000119801244AA3012801D16FEA0B01029828
:1053D000119AC0E90031C0E9024206B0BDE8F09F71
:1053E000CBF10000DFE704460021404A491842EBB8
:1053F0000450CDE9001012E0E00707D032463B46EA
:1054000040464946FBF72AF88046894632463B46E5
:1054100010461946FBF722F806460F466410002C8A
:10542000EAD1DDE90401DDE90023BAF1000F06DA73
:10543000FBF714F842464B46FBF710F805E0FBF784
:105440007FF842464B46FBF77BF804460E460022A7
:10545000284BFBF7E5F803D84FF0FF30014607E093
:105460000022254B20463146FAF751FFFBF7B5F9EC
:10547000102409E0002C0ADB0A220023FBF7FEF8C7
:10548000039B30321A55641E50EA0102F2D1641CAB
:10549000039AC4F111031444119A012A03D0012282
:1054A00008430DD10AE0084304D000204FF0110B4F
:1054B000119072E7A3EB0B056D1E0DE05B4504DD5B
:1054C0004FF0000205F1010504E003DA4FF000029D
:1054D000A5F10105002AECD002981199C0E902312A
:1054E000C0E9004579E70000000014400000F03FEB
:1054F000300000000000F0430000E03F5060026018
:1055000041600860704748600160704710B504460C
:10551000D4E90010FFF7F7FF10BD00002DE9FF4FA1
:1055200095B09A46884606460025EEE1252877D1B3
:1055300000242746F94A0121039400E0044316F8A9
:10554000013F203B01FA03F01042F7D130782A28BE
:1055500011D06FF02F033078A0F13002092A16D84D
:10556000039A44F0020402EB820203EB420210446D
:10557000761C0390EFE758F8042B0392002A03DA15
:10558000504244F40054039044F00204761C3078F6
:105590002E2816D116F8010F44F004042A280DD045
:1055A0006FF02F023078A0F13003092B09D807EBF8
:1055B000870302EB4303C718761CF3E758F8047B14
:1055C000761C30786C280FD006DC4C2817D0682861
:1055D0000DD06A2814D104E0742810D07A280FD195
:1055E0000DE044F400140AE044F4801401E044F4B3
:1055F00040147278824202D104F58014761C761C25
:10560000307866280BD013DC582877D009DC0028C6
:1056100075D04528F6D04628F4D047281AD193E112
:1056200018E0632835D0642879D0652812D18BE141
:10563000702873D008DC6728F1D069286FD06E28F5
:105640000DD06F2806D1ACE073282CD0752874D00B
:10565000782853D05246179990476D1C54E1C4F3F3
:105660000250022809D003280DD0D8F800100428D1
:105670000DD00D6008F1040846E1D8F80010EA17D3
:10568000C1E90052F6E7D8F800100D80F2E70D707E
:10569000F0E718F8041B8DF8001000208DF80100C9
:1056A000EB46012003E058F804BB4FF0FF306107E0
:1056B0004FF0000102D40DE009F101018946B94221
:1056C0000FDA8145F8DB1BF809100029F4D108E056
:1056D00009F1010189468142FADB1BF80910002912
:1056E000F6D103985346A0EB090721463846179A8E
:1056F00000F080FA284400EB090507E044E008E1E7
:105700000DE01BF8010B524617999047B9F10109BA
:10571000F7D2534621463846179AF2E039E00A217B
:10572000C4F302524FF0000B0091022A06D058F841
:10573000040BC117032A09D00AE023E008F107008F
:1057400020F00702F2E80201904605E000B2C1171E
:10575000042A01D140B2C117002906DA0A46002105
:10576000404261EB02012D2202E0220504D52B22EA
:105770008DF80420012203E0E20701D02022F7E7A0
:10578000914657E00A2100E010214FF0000B0091F4
:105790000BE010214FF0000B44F0040408270091A7
:1057A00003E008204FF0000B0090C4F30252022ADD
:1057B00005D058F8040B0021032A08D008E008F1AE
:1057C000070020F00702F2E80201904603E080B2F1
:1057D000042A00D1C0B24FF0000922072AD532783E
:1057E000702A07D0DDF800C08CF0100C5CEA0B0CBE
:1057F00005D00EE040228DF80420012208E050EA96
:10580000010306D030238DF804308DF805200222E4
:105810009146009B83F0080353EA0B030AD150EA38
:10582000010201D1620705D530228DF804204FF026
:1058300001097F1E3278582A04D039A20C920CAA92
:1058400002920BE03BA2F9E75B46009AFAF716FFDB
:105850000C9B9B5C029A521E0292137050EA01024A
:10586000F2D1029804A9081A00F1200B600702D5B2
:1058700024F4803400E001275F4502DDA7EB0B0034
:1058800000E0002000EB0B01009003984944401A0F
:105890000390E00306D453462146179A039800F07C
:1058A000A9F90544002706E001A85246C05D1799F2
:1058B00090476D1C7F1C4F45F6DBE0030CD553462B
:1058C0002146179A039800F095F9054404E030202A
:1058D0005246179990476D1C0099481E0090002968
:1058E000F5DC08E00298029952460078491C0291C2
:1058F000179990476D1CBBF10001ABF1010BF1DC76
:105900005BE100F065F90544761C307800287FF4EF
:105910000DAE19B02846BDE8F08F0000092801003F
:105920003031323334353637383961626364656615
:1059300000000000303132333435363738394142D7
:105940004344454600000000600700D4062708F1E4
:10595000070020F00700F0E80223804603F0004C27
:105960005FEA0C0001D097A009E0200501D596A0C0
:1059700005E0E00701D095A001E0AFF24C001390E4
:10598000307823F0004365280CD006DC452809D088
:1059900046281DD047287FD13BE0662818D06728CD
:1059A0007AD136E00021112F01DB112000E0781CB4
:1059B000CDE9000104A90CA8FFF7DEFCDDE90D012B
:1059C0000C9A4FF0000B07F10109109200914EE084
:1059D0004FF000400097CDE9011004A90CA8FFF793
:1059E000CBFCDDE90D020C9B0F994FF0000B9146AB
:1059F0001093009211B9791C00EB0109B7EB090073
:105A000003D4C0F1FF3B07F10109A9EB07000190A6
:105A100042E0012F00DA01270021112F01DD1120C2
:105A200000E03846CDE9000104A90CA8FFF7A4FC6A
:105A3000DDE90D010C9A00914FF0000BB946109270
:105A400021070FD4009A4A4503DA914601E0A9F1F3
:105A50000109B9F1010F05DD109AA9F10101515CAD
:105A60003029F4D0B84202DA10F1040F03DA012130
:105A7000CDE9011010E0002803DC8344A9EB00010C
:105A800002E0411C494500DD8946A0EB0B00401CAB
:105A900001904FF000400290200705D4019848453E
:105AA00002DB4FF0FF30019000208DF84B00029890
:105AB0000DF14B07B0F1004F25D002200C902B20A8
:105AC0000D90029800280CDA404202902D200D9093
:105AD00007E00A210298FAF7BBFD3031029007F87F
