:020000040800F2
:10C00000D8F70020E1C1000875F2000869EF0008C8
:10C0100071F20008DDCA0008B1FF0008000000004E
:10C0200000000000000000000000000049C10008FE
:10C03000A9CB0008000000008DC1000881FA0008AB
:10C04000FBC10008FBC10008FBC10008FBC10008E0
:10C05000FBC10008FBC10008FBC10008FBC10008D0
:10C06000FBC10008FBC10008FBC10008FBC10008C0
:10C07000FBC10008FBC10008FBC10008FBC10008B0
:10C08000FBC10008FBC10008FBC10008FBC10008A0
:10C09000A1FF0008FBC10008FBC10008FBC10008AC
:10C0A000FBC10008FBC10008FBC10008FBC1000880
:10C0B000FBC10008FBC1000801FB0008FBC1000830
:10C0C000FBC10008FBC10008FBC10008FBC1000860
:10C0D000FBC10008FBC1000881FF000891FF0008B8
:10C0E000FBC10008FBC10008FBC10008FBC1000840
:10C0F000FBC10008FBC10008FBC10008FBC1000830
:10C10000FBC10008FBC10008FBC10008FBC100081F
:10C11000FBC10008FBC10008FBC10008FBC100080F
:10C12000FBC10008FBC10008FBC10008FBC10008FF
:10C13000DFF810D000F072FC004800473506050813
:10C14000AFF30080D8F70020224B19680868B0E8E8
:10C15000F00F80F30988BFF36F8F4FF0000080F37A
:10C1600011884EF00D0E7047000000000648006870
:10C17000006880F3088862B661B6BFF34F8FBFF3E3
:10C180006F8F00DF00BF00BF08ED00E0EFF3098014
:10C19000BFF36F8F0F4B1A6820E9F00F106008B5DE
:10C1A0004FF0500080F31188BFF34F8FBFF36F8FB4
:10C1B00053F06AFF4FF0000080F31188BDE808409B
:10C1C00019680868B0E8F00F80F30988BFF36F8F33
:10C1D000704700BF48000020EFF305807047000063
:10C1E0000648804706480047FEE7FEE7FEE7FEE711
:10C1F000FEE7FEE7FEE7FEE7FEE7FEE7FDFA0008E2
:10C2000031C100082DE9F05F0546002092469B46AB
:10C2100088460646814640241BE02846414647465C
:10C22000224600F051F853465A46C01A914110D3A5
:10C2300011461846224600F023FB2D1A67EB010831
:10C240004F4622460120002100F01AFB17EB00099F
:10C250004E41201EA4F10104DFDC484631462A4647
:10C260004346BDE8F09F2DE9F0410024061B25461A
:10C2700071F1000605DA01240027D0EB070067EB17
:10C280000101161E73F1000605DA0027D2EB070242
:10C29000012567EB0303FFF7B5FF86460E461746F9
:10C2A0009C46AC4204D00025D0EB050E65EB0106A0
:10C2B00024B10020D2EB000760EB030C704631463E
:10C2C0003A466346BDE8F081202A04DB203A21FA91
:10C2D00002F00021704721FA02F3D040C2F120029F
:10C2E000914008431946704740EA01039B0703D079
:10C2F00009E008C9121F08C0042AFAD203E011F8A5
:10C30000013B00F8013B521EF9D27047D2B201E066
:10C3100000F8012B491EFBD270470022F6E710B54A
:10C3200013460A4604461946FFF7F0FF204610BDA3
:10C33000421C10F8011B0029FBD1801A704710B570
:10C34000002200E0521C835C8C5CA34201D1002BD4
:10C35000F8D1D8B2E1B2401A10BDF0B480EA0102BF
:10C36000D40F4200B2EB410F02D2024608461146FA
:10C370004A0042D0C30DDDB2C1F3C752AD1A202D21
:10C3800035DAC1F3160141F4000204B15242C5F19D
:10C39000200602FA06F12A411044B3EBD05F23D005
:10C3A000C4B1012DA0EBC35009DCF0BC4FF000423A
:10C3B00002EAC352DBB200F5000000F08BBA400085
:10C3C00000F1807000EBC350A0F1807040EAD170A2
:10C3D000490009E0490841EAC071A0EBC35000F5EB
:10C3E0000000400800EBC350F0BC00F06ABA6142A4
:10C3F000012202EB4101001BF6E7F0BC704781F01F
:10C400000041AAE780F00040A7E730B480EA0102CB
:10C4100002F0004530F0004221F0004013D090B10E
:10C42000C30DD40DC2F31601C0F31600E41A41F493
:10C43000000140F400027D34914201D3641C00E00D
:10C440004900002C02DA30BC002070474FF4000095
:10C450000023914201D3891A034340084FEA410166
:10C46000F7D151B1914202D14FF0004105E002D223
:10C470004FF0010101E06FF0010103EBC4502844CB
:10C4800030BC00F01EBA2DE9FE4F804681EA030061
:10C49000C00F0C46009021F0004123F00045B8EB9E
:10C4A0000200A94105D24046214690461C460B4653
:10C4B000024623F00040104347D0270DC7F30A007F
:10C4C000C3F30A510290401A019040286BDAC3F37B
:10C4D000130040F4801B0098924620B10023D2EB59
:10C4E000030A63EB0B0B01985946C0F1400250461A
:10C4F00000F0C6F906460D4650465946019A00F02E
:10C50000CEF910EB08006141002487EA115284EA59
:10C51000E7731A4340D0009A62B3019A012A4FEAA6
:10C52000075215DC001B61EB02014FF0004202EAEA
:10C530000752CDE90042001C41F5801132462B46DE
:10C5400000F005FA03B0BDE8F08F40462146F9E758
:10C55000001B61EB0201001C41F5801300185B41D8
:10C560002018A2F5001747EB030140EAD570B61971
:10C570006D4111E06D084FEA360645EAC0754FEA95
:10C580000752001B61EB0201001C41F580114908B4
:10C590004FEA30000019514132462B4603B0BDE846
:10C5A000F04F00F0C5B90098012240000023D0EB05
:10C5B000020263EBE073009821464FEAE074B8EBA7
:10C5C000000061EB0401E9E783F000435BE781F0E1
:10C5D000004158E72DE9FE4F81EA030404F00044CE
:10C5E00021F0004100944FF0000B23F0004350EA8B
:10C5F00001045ED052EA03045BD0C3F30A54C1F3D2
:10C600000A552C44A4F2F3340194A0FB0254C1F364
:10C61000130141F48011C3F3130343F4801301FBAE
:10C62000024400FB034E840A970A44EA815447EA15
:10C630008357A4FB076802958D0A05FB07854FEA1F
:10C64000932C04FB0C542705029D4FEA065847EA39
:10C650001637B5EB08056EEB070C870E920E47EA0E
:10C66000811742EA8312A7FB0201B6EB0B0164EBD0
:10C6700000042B0D43EA0C335E1844EB1C50DA46E1
:10C680005146E7FB0201C5F313044FEA0B3343EABB
:10C6900014534FEA0432019C43EA0603A4F10C044C
:10C6A0000294009CCDE900B400F051F903B0BDE85C
:10C6B000F08F00200146F9E72DE9F04D81EA0304EF
:10C6C00004F0004B21F0004514464FF0000A23F01F
:10C6D000004150EA050220D054EA01021DD0C5F302
:10C6E0000A570246C5F31303C1F31300C1F30A56F8
:10C6F00040F4801543F48013A7EB0608101BD646C0
:10C7000008F2FD3873EB050002D308F1010801E0DF
:10C7100092185B41B8F1000F03DA00200146BDE832
:10C72000F08D00204FF48011064684460EE0171B62
:10C7300073EB050705D3121B63EB050306434CEAB5
:10C74000010C49084FEA300092185B4150EA01079A
:10C75000EDD152EA030012D082EA040083EA050117
:10C76000084305D0101BAB4106D20122002306E08E
:10C7700000224FF0004302E06FF0010253101AEB69
:10C7800006004CEB085110EB0A0041EB0B01BDE831
:10C79000F04D00F0CDB8C10F80EAE0700844CA0740
:10C7A0009623002100F096B80EB5C10F80EAE07024
:10C7B0000844CA07002140F233438DE80E000A46C0
:10C7C0000B4600F0C4F803B000BD20F00040C10DDE
:10C7D000C0F3160040F400007F2901DA0020704702
:10C7E000962903DCC1F19601C8407047963988400C
:10C7F0007047000030B5041E71F1000404DB4FF0F7
:10C800000044404264EB0101141E73F1000405DB97
:10C810001C464FF00043524263EB04038B4208BFB7
:10C82000824230BD30B5041E71F1000404DB4FF0CC
:10C830000044404264EB0101141E73F1000405DB67
:10C840001C464FF00043524263EB0403994208BF79
:10C85000904230BD30B50B46014600202022012415
:10C8600009E021FA02F59D4205D303FA02F5491BBE
:10C8700004FA02F52844151EA2F10102F1DC30BDD4
:10C88000202A04DB203A00FA02F100207047914090
:10C89000C2F1200320FA03F3194390407047202A85
:10C8A00006DBCB17203A41FA02F043EAE07306E0D8
:10C8B00041FA02F3D040C2F12002914008431946E8
:10C8C00070470029A8BF7047401C490008BF20F0EE
:10C8D0000100704710B4B0FA80FC00FA0CF050EA86
:10C8E000010404BF10BC704749B1CCF1200421FA07
:10C8F00004F411FA0CF118BF012121430843A3EB02
:10C900000C01CB1D4FEA00614FEA102042BF00200E
:10C9100010BC704700EBC35010440029A4BF10BCEA
:10C920007047401C490008BF20F0010010BC704750
:10C9300010B5141E73F1000408DA401C41F1000127
:10C9400092185B411A4301D120F0010010BD2DE97E
:10C95000F04D92469B4611B1B1FA81F202E0B0FA75
:10C9600080F220329046FFF78BFF04460F4640EAE4
:10C970000A0041EA0B0153465A46084313D01146B8
:10C9800053EA010019D0C8F140025046FFF79CFC61
:10C9900005460E46504659464246FFF771FF08438A
:10C9A00005D0012004E020463946BDE8F08D002086
:10C9B000054346EAE0762C4337430A986305E40AC8
:10C9C000A0EB08000022FD0A44EA47540A3002D5D1
:10C9D00000200146E9E7010510196941DDE9084534
:10C9E00000196941BDE8F04DA2E7C1F30A52C1F355
:10C9F000130140F2FF3341F480119A4202DA002021
:10CA00000146704740F233439A42A2F2334202DCBD
:10CA10005242FFF759BCFFF733BF0000064C074DE9
:10CA200006E0E06840F0010394E8070098471034FE
:10CA3000AC42F6D3FFF780FB08DE060828DE0608C6
:10CA400070B58C1810F8015B15F0070301D110F8D0
:10CA5000013B2A1106D110F8012B03E010F8016BFD
:10CA600001F8016B5B1EF9D12B0705D40023521E80
:10CA70000DD401F8013BFAE710F8013BCB1A921CE8
:10CA800003E013F8015B01F8015B521EF9D5A142E6
:10CA9000D8D3002070BD000010B5012053F07EFEF9
:10CAA00009490860094844F0ACFD084844F0B9FD64
:10CAB000074844F0A6FD064844F0B3FD054A80212E
:10CAC00005480EF0A4FB10BDD0000020C8000020D7
:10CAD000CC0000203C9300202C93002000BFFEE7F8
:10CAE00000B58BB0002005900690079001200890BB
:10CAF000002001900290039004900120099001A968
:10CB0000024800F088F90BB000BD0000640100206D
:10CB100070B588B005460E460021114800F001FAB4
:10CB20003070002416E004EB440005EB8000831C09
:10CB300001AA00210A4800F008FA04EB4401019818
:10CB400025F8210004EB440105EB8101059888726A
:10CB5000601CC4B23078A042E5DC08B070BD0000B3
:10CB60006401002070B588B004460D46164600BF2B
:10CB70000C4800F0B4FA0028FAD002940020049087
:10CB80000590069601AB2A4602A9064800F09EF8D9
:10CB900000BF044800688068C0F340000028F8D057
:10CBA00008B070BD64010020704772B600BFFEE798
:10CBB00070B50446B3F5804F13D1D1E9000540EAC2
:10CBC00005108D6840EA05208D6928438D8940EA6B
:10CBD000054054F82250064E3540284344F82200C0
:10CBE00003E06FF0704044F82200002070BD0000A8
:10CBF0000000F0CF70B50246086852F8200020F01F
:10CC000001000E6842F826008868082801D14023F8
:10CC100000E00023486818438E683043CE683043F4
:10CC20000E6930434E693043CE6930430E6A30435B
:10CC30004E6A30438E6A3043CE6A30430E6B40EA10
:10CC4000060488690443486B0443074D45F4806536
:10CC500045F4E025086852F82000A84320430E68F8
:10CC600042F82600002070BD7FFB080010B5034687
:10CC7000D1E9000440EA04108C6840EA04208C8961
:10CC800040EA0444088A401E44EA0054087D801E9D
:10CC900044EA00608C692043541C43F824000020BF
:10CCA00010BD10B5024692F82030012B01D0022BA6
:10CCB00006D110684069084314686061002010BD07
:10CCC000506A40F4802050620120F8E7F0B5044635
:10CCD0000D461E4694F8207020688368A86800B945
:10CCE00000E000BF012F01D0022F7DD103F0806052
:10CCF00030B903F0006018B903F0805000287ED0EE
:10CD0000C3F30161012088403060A86860B9B5F8BC
:10CD100000C0E86840EA4C5C206800F5C07000EB99
:10CD20000110C0F800C00FE0D5E901C040EACC0016
:10CD3000D5F80CC040EA0C00D4F800C00CF5C07C5B
:10CD40000CEB011CCCF80000D5F810C0206800F5F1
:10CD5000C07000EB0110C0F804C0287D01280ED17E
:10CD6000206800F5C07000EB0110406840F4807C42
:10CD7000206800F5C07000EB0110C0F804C0D07945
:10CD8000000692F806C040EA0C4092F805C040EA5E
:10CD90000C2092F804C040EA0C00D4F800C00CF556
:10CDA000C07C0CEB011CCCF80C00D078000692F88B
:10CDB00002C040EA0C4092F801C040EA0C2092F810
:10CDC00000C040EA0C00D4F800C00CF5C07C0CEBAD
:10CDD000011CCCF80800206800F5C07000EB0110C1
:10CDE000006840F0010C01E00FE008E0206800F569
:10CDF000C07000EB0110C0F800C00020F0BD606AF8
:10CE000040F4001060620120F8E7606A40F480207E
:10CE100060620120F2E7F0B504460A46216894F802
:10CE20002050012D01D0022D74D1D1F8000240F024
:10CE30000100C1F80002107D00F01F06012000FA79
:10CE400006F3D1F81C029843C1F81C02D069C8B996
:10CE5000D1F80C029843C1F80C02908880B29689F0
:10CE600040EA064601F51070576940F837601088AF
:10CE700080B2168940EA064601F51070576900EB4A
:10CE8000C7004660D069012819D1D1F80C021843B7
:10CE9000C1F80C02908880B2168840EA064601F577
:10CEA0001070576940F83760908980B2168940EA5F
:10CEB000064601F51070576900EBC700466090699F
:10CEC00028B9D1F804029843C1F8040204E0D1F86B
:10CED00004021843C1F80402106928B9D1F81402F9
:10CEE0009843C1F8140204E0D1F814021843C1F8C1
:10CEF0001402106A012804D1D1F81C021843C1F8A9
:10CF00001C02D1F8000220F00100C1F8000200204C
:10CF1000F0BDFFE7606A40F4802060620120F7E71F
:10CF2000704710B50246002092F82030012B01D046
:10CF3000022B09D121B91468E46804F0030003E06E
:10CF40001468246904F0030010BD70B5044694F819
:10CF50002050012D01D0022D7DD151B92068C0682B
:10CF600000F0030080B9606A40F4001060620120A4
:10CF700070BD2068006900F0030028B9606A40F4C1
:10CF8000001060620120F3E7206800F5D87000EB24
:10CF90000110006800F004009060906840B92068BB
:10CFA00000F5D87000EB01100068400D106007E03C
:10CFB000206800F5D87000EB01100068C0085060D0
:10CFC000206800F5D87000EB0110006800F0020046
:10CFD000D060206800F5D87000EB0110406800F0C8
:10CFE0000F00082802D30820106108E0206800F52F
:10CFF000D87000EB0110406800F00F00106120684D
:10D0000000F5D87000EB0110406800F47F40000A82
:10D010009061206800F5D87000EB01104068000CAA
:10D020005061206800F5D87000EB0110806818701E
:10D03000206800F5D87000EB0110806800F47F4094
:10D04000000A5870206800F5D87000EB0110806865
:10D0500000F47F0000E03CE0000C9870206800F5D0
:10D06000D87000EB01108068000ED870206800F5C1
:10D07000D87000EB0110C0681871206800F5D870F6
:10D0800000EB0110C06800F47F40000A587120686E
:10D0900000F5D87000EB0110C06800F47F00000CB0
:10D0A0009871206800F5D87000EB0110C068000E80
:10D0B000D87131B92068C06840F020002668F0605F
:10D0C00005E02068006940F02000266830610020FB
:10D0D0004EE7606A40F480206062012048E7014624
:10D0E000002091F82020012A01D0022A11D10B68DA
:10D0F0009B6803F0806303B1401C0B689B6803F0DE
:10D10000006303B1401C0B689B6803F0805303B1BC
:10D11000401C70472DE9F05F0446002520684669F1
:10D120002068D0F80490206887682068D0F80CA0A8
:10D130002068D0F810B02068D0F8188006F0010000
:10D14000002855D007F00100C0B101202168886097
:10D1500007F0020018B1204600F08BFA0EE007F04D
:10D16000040010B145F4006508E007F0080010B1B4
:10D1700045F4805502E0204600F07AFA07F480700A
:10D18000C8B14FF480702168886007F4007018B14E
:10D19000204600F070FA0EE007F4806010B145F40C
:10D1A000005508E007F4006010B145F4804502E046
:10D1B000204600F05FFA07F48030C8B14FF48030A9
:10D1C0002168886007F4003018B1204600F055FA55
:10D1D0000EE007F4802010B145F4004508E007F4A4
:10D1E000002010B145F4803502E0204600F044FAFA
:10D1F00006F0080038B10AF0100020B145F40075BF
:10D2000010202168C86006F0040040B10AF0080050
:10D2100028B108202168C860204600F0A9F906F06E
:10D22000020038B12068C06800F0030010B1204649
:10D2300000F0A0F906F0400038B10BF0100020B16A
:10D2400045F4806510202168086106F0200040B197
:10D250000BF0080028B1082021680861204600F082
:10D26000D5F906F0100038B12068006900F003001D
:10D2700010B1204600F0CBF906F4003040B109F0BF
:10D28000100028B1102021684860204600F0C0F945
:10D2900006F4803040B109F0080028B10820216868
:10D2A0004860204600F0EAF906F4004088B309F02F
:10D2B000040078B306F4807020B108F0010008B1D2
:10D2C00045F0010506F4007020B108F0020008B135
:10D2D00045F0020506F4806020B108F0040008B1B2
:10D2E00045F0040506F40060A0B108F0700088B1B4
:10D2F00008F07000402817D006DC10280BD020283A
:10D300000CD0302819D10CE0502810D0602814D14E
:10D3100010E01DE019E045F008050FE045F01005AC
:10D320000CE045F0200509E045F0400506E045F039
:10D33000800503E045F4807500E000BF00BF206871
:10D34000806920F0700021688861042021684860AD
:10D350002DB1606A284360622046FFF7E1FDBDE819
:10D36000F09F70B504460CB9012070BD94F8200000
:10D3700010B9204600F0B0F82068006840F00100C5
:10D380002168086000F090FC05460DE000F08CFC80
:10D39000401B0A2808D9606A40F40030606205200A
:10D3A00084F820000120E0E72068406800F00100D8
:10D3B0000028EBD02068006820F002002168086097
:10D3C00000F072FC05460DE000F06EFC401B0A28E0
:10D3D00008D9606A40F400306062052084F82000BB
:10D3E0000120C2E72068406800F002000028EBD16D
:10D3F000207E012806D12068006840F08000216866
:10D40000086005E02068006820F08000216808605E
:10D41000607E012806D12068006840F04000216845
:10D42000086005E02068006820F04000216808607E
:10D43000A07E012806D12068006840F02000216805
:10D44000086005E02068006820F02000216808607E
:10D45000E07E012806D12068006820F010002168D5
:10D46000086005E02068006840F01000216808604E
:10D47000207F012806D12068006840F0080021685C
:10D48000086005E02068006820F008002168086056
:10D49000607F012806D12068006840F00400216800
:10D4A000086005E02068006820F00400216808603A
:10D4B000D4E90201084321690843616908436168AE
:10D4C000491E08432168C86100206062012084F879
:10D4D0002000002049E7000010B586B00446002077
:10D4E00002900390049005901E492068884236D12E
:10D4F00000BF1D48C06940F000701B49C861084664
:10D50000C06900F00070019000BF00BF00BF084676
:10D51000806940F0040088610846806900F00400DA
:10D52000019000BF00BFC814029000200390049037
:10D5300002A90E4800F000FA4FF480500290022039
:10D5400003900320059002A9084800F0F5F9002295
:10D550000521142000F068FC142000F055FC06B0F2
:10D5600010BD0000006400400010024000080140AF
:10D570007047000030B591B005460020049004A922
:10D5800005A8FFF7C5FA002434E004EB440005A920
:10D5900031F82000ADF8040004EB440001EB8000FA
:10D5A000807A8DF8060004EB440001EB800050F80F
:10D5B000021FCDF807104068CDF80B000020009046
:10D5C00000236A4601A90E48006853F0B5FA00230B
:10D5D0006A4601A90B48006853F0AEFA009838B1CA
:10D5E0004FF0805008490860BFF34F8FBFF36F8F33
:10D5F000601CC4B29DF810008442C6DB11B030BD7F
:10D60000100000201400002004ED00E07047704777
:10D61000704770B5044694F82000012822D10220FA
:10D6200084F820002068006820F00100216808606C
:10D6300000F03AFB05460DE000F036FB401B0A28DF
:10D6400008D9606A40F400306062052084F8200048
:10D65000012070BD2068406800F001000028EBD177
:10D660006062F6E7606A40F4002060620120F0E743
:10D670007047704770477047704770477047014662
:10D68000002291F82100022808D00420886300BFFE
:10D69000002081F8200000BF012070470868006862
:10D6A00020F00E000B6818600868006820F0010088
:10D6B0000B68186091F8403001209840CB6B58609F
:10D6C000012081F8210000BF002081F8200000BF68
:10D6D0001046E2E770B50446002594F821000228C0
:10D6E00003D00420A0630125C1E02068006820F079
:10D6F0000E00216808602068006820F001002168A1
:10D7000008605C492068884252D95A4978392068B3
:10D71000884201D1012047E0564964392068884297
:10D7200001D1102040E0534950392068884201D18E
:10D73000801539E04F493C392068884201D1801476
:10D7400032E04C4928392068884202D14FF48030B9
:10D750002AE0484914392068884202D14FF48010E9
:10D7600022E044492068884201D140041CE042493B
:10D770002068884201D1012016E03F491431206819
:10D78000884201D110200FE03B49283120688842AF
:10D7900001D1801508E038493C312068884201D128
:10D7A000801401E04FF480303349091F086051E0D4
:10D7B000304978392068884201D1012047E02D495D
:10D7C00064392068884201D1102040E0294950394D
:10D7D0002068884201D1801539E026493C3920680B
:10D7E000884201D1801432E02249283920688842D9
:10D7F00002D14FF480302AE01E4914392068884253
:10D8000002D14FF4801022E01A492068884201D1E9
:10D8100040041CE018492068884201D1012016E02C
:10D82000154914312068884201D110200FE01249B7
:10D8300028312068884201D1801508E00E493C312A
:10D840002068884201D1801401E04FF480300949FA
:10D8500080394860012084F8210000BF002084F84E
:10D86000200000BF606B10B12046616B88472846DE
:10D8700070BD0000800002400804024070B50446FC
:10D8800000F012FA06462546681C10B104480078DC
:10D89000054400BF00F008FA801BA842FAD370BD0F
:10D8A0003800002000B585B0002001900290039060
:10D8B00004901C48006808B105B000BD012019495A
:10D8C000086000BF1848406940F4807016494861FC
:10D8D0000846406900F48070009000BF00BF41F22C
:10D8E00001000190022002900320049001A90F483A
:10D8F00000F022F84FF68070019002200290032081
:10D90000049001A90A4800F017F84CF23370019016
:10D91000022002900320049001A9064800F00CF8B0
:10D9200000BFC9E720000020001002400020014095
:10D9300000180140001401402DE9F8470246002379
:10D940009C467BE14FF0010808FA03F4D1F800800F
:10D9500008EA0400A0427DD1DFF8F4A2D1F80480E7
:10D96000A8EB0A09D0453AD014DCB8F1030F50D027
:10D9700009DCB8F1000F31D0B8F1010F1CD0B8F1BB
:10D98000020F49D120E0B8F1110F18D0B8F1120FF1
:10D9900042D11EE0B9F5881F25D006DCB9F5803FDD
:10D9A00020D0B9F5801F37D11AE0B9F5001F18D083
:10D9B000B9F5041F30D117E0D1F80CC02DE0D1F833
:10D9C0000C8008F1040C28E0D1F80C8008F1080C58
:10D9D00023E0D1F80C8008F10C0C1EE000BF00BF62
:10D9E00000BF00BF00BF00BFD1F80880B8F1000F32
:10D9F00002D14FF0040C0BE0D1F80880B8F1010F10
:10DA000003D14FF0080C146102E04FF0080C546190
:10DA100003E04FF0000C00E000BF00BFFF2801D87A
:10DA2000904601E002F104084646FF2802D84FEA7A
:10DA3000830803E0A3F108084FEA88084746D6F8B0
:10DA400000804FF00F0909FA07F928EA09080CFAD3
:10DA500007F900E07AE048EA0908C6F80080D1F842
:10DA6000048008F08058B8F1805F6FD100BFDFF804
:10DA7000E481D8F8188048F00108DFF8D891C9F897
:10DA80001880C846D8F8188008F00108CDF8008042
:10DA900000BF00BF4FEAB9384FEA930958F8295040
:10DAA0004FEA83784FEA18794FF00F0808FA09F81F
:10DAB00025EA0805DFF8A081424502D14FF00008B1
:10DAC00024E0DFF89881424502D14FF001081DE0C3
:10DAD000DFF88C81424502D14FF0020816E0DFF8F2
:10DAE0008481424502D14FF003080FE0DFF87881CE
:10DAF000424502D14FF0040808E0DFF8708142454A
:10DB000002D14FF0050801E04FF006084FEA837993
:10DB10004FEA197908FA09F848EA0505DFF8508153
:10DB20004FEA930948F82950D1F8048008F4801886
:10DB3000B8F5801F0BD1DFF83C81D8F8008048EAA7
:10DB40000008DFF83091C9F800800AE075E0DFF8DE
:10DB50002481D8F8008028EA0008DFF81891C9F875
:10DB60000080D1F8048008F40018B8F5001F0ED129
:10DB7000DFF8008108F10408D8F8008048EA0008BE
:10DB8000DFF8F09009F10409C9F800800DE0DFF832
:10DB9000E48008F10408D8F8008028EA0008DFF8DB
:10DBA000D49009F10409C9F80080D1F8048008F480
:10DBB0000038B8F5003F0ED1DFF8B880A8F10408AE
:10DBC000D8F8008048EA0008DFF8A890A9F1040915
:10DBD000C9F800800DE0DFF89C80A8F10408D8F8AF
:10DBE000008028EA0008DFF88C90A9F10409C9F840
:10DBF0000080D1F8048008F48038B8F5803F0ED159
:10DC0000DFF87080A8F10808D8F8008048EA00081A
:10DC1000DFF86090A9F10809C9F800800DE0DFF88D
:10DC20005480A8F10808D8F8008028EA0008DFF836
:10DC30004490A9F10809C9F800805B1CD1F8008064
:10DC400028FA03F8B8F1000F7FF47CAEBDE8F8873E
:10DC5000000011100010024000080140000C0140BB
:10DC6000001001400014014000180140001C014058
:10DC70000800014008040140024693680B400BB1C4
:10DC8000012000E00020704710B5C26821EA0203BD
:10DC900002EA010443EA0443036110BD0AB10161D1
:10DCA00001E00B0403617047014800687047000001
:10DCB00030000020034800680349097808440149FE
:10DCC00008607047300000203800002010B5084878
:10DCD000006840F0100006490860032000F0E2F8F8
:10DCE0000F2000F007F800F05FF8002010BD0000E2
:10DCF000002002402DE9F04188B004460027B846D4
:10DD0000002600BF2348C06940F004002149C861D3
:10DD10000846C06900F00400019000BF00BF02A9DE
:10DD200003A800F099F9069F1FB900F0BDF9054658
:10DD300002E000F0B9F945001748B5FBF0F0A0F19A
:10DD4000010816481649086040F2E7311448C160DE
:10DD5000C0F80480002101618160816100F068FCED
:10DD6000064696B90E4800F097FC06466EB91E208E
:10DD700000F04AF8102C07D2002221461E2000F0A5
:10DD800053F80848046000E00126304608B0BDE8BA
:10DD9000F08100000010024040420F0000080040E7
:10DDA000BC0400203400002008B500BF144880697E
:10DDB00040F00100124988610846806900F00100C6
:10DDC000009000BF00BF00BF0846C06940F080500F
:10DDD000C8610846C06900F08050009000BF00BFD5
:10DDE00000220F21901E00F01FF800BF054948686F
:10DDF00020F0E06040F00070486000BF08BD000007
:10DE0000001002400000014001460846002809DBDE
:10DE100000F01F0301229A4043099B0003F1E02315
:10DE2000C3F8002100BF70472DE9F05F80460D4622
:10DE30001646002702F0E8F8074639462A463346D8
:10DE400001F00700C0F1070ABAF1040F02D94FF040
:10DE5000040A01E0C0F1070AD14600F1040ABAF150
:10DE6000070F02D24FF0000A01E0A0F1030AD446E6
:10DE70004FF0010A0AFA09FAAAF1010A0AEA020AAB
:10DE80000AFA0CFA4FF0010B0BFA0CFBABF1010B89
:10DE90000BEA030B4AEA0B042146404602F0BCF8A9
:10DEA000BDE8F09F00BF00F00702064B19684FF66F
:10DEB000FF031940044B0B4343EA0221014B196055
:10DEC00000BF70470CED00E00000FA0570B5044695
:10DED0000D460CB9012070BD5A48006800F00700DB
:10DEE000A8420ED25748006820F007002843554941
:10DEF00008600846006800F00700A84201D0012031
:10DF0000E9E7207800F0020002281DD1207800F017
:10DF10000400042805D14C48406840F4E0604A49B8
:10DF20004860207800F00800082805D1464840687D
:10DF300040F46050444948604348406820F0F00095
:10DF4000A168084340494860207800F0010078B398
:10DF50006068012806D13C48006800F4003090B9A0
:10DF60000120B8E76068022806D13748006800F051
:10DF7000007040B90120AEE73348006800F00200AD
:10DF800008B90120A7E73048406820F00300616825
:10DF900008432D494860FFF787FE064609E0FFF772
:10DFA00083FE801B41F28831884202D9032092E728
:10DFB00007E02548406800F00C006168B0EB810F75
:10DFC000EDD12048006800F00700A8420ED91D4896
:10DFD000006820F0070028431A49086008460068D6
:10DFE00000F00700A84201D0012074E7207800F07B
:10DFF0000400042807D11448406820F4E060E16878
:10E00000084311494860207800F00800082808D12A
:10E010000D48406820F46050216940EAC1000A4977
:10E02000486000F061F808494968C1F30311074AE4
:10E03000515CC8400649086006480068FFF75AFE70
:10E04000002048E70020024000100240981906080E
:10E050003C000020340000200F2202600D4A52686C
:10E0600002F0030242600B4A526802F0F002826042
:10E07000084A526802F4E062C260064A526802F43A
:10E080006052D2080261044A126802F007020A6074
:10E090007047000000100240002002400148006864
:10E0A000704700003C00002000B5FFF7F7FF04496F
:10E0B0004968C1F30221034A515CC84000BD000019
:10E0C00000100240A819060800B5FFF7E7FF044951
:10E0D0004968C1F3C221034A515CC84000BD000039
:10E0E00000100240A819060870B500210022002483
:10E0F00000230020134D696801F00C05F5B1042DD3
:10E1000002D0082D19D101E00F4819E00F4DC1F3DD
:10E110008346AB5D01F4803555B10A4D6D68C5F39A
:10E1200040450B4E725D084D5D43B5FBF2F402E0D5
:10E13000084D03FB05F4204602E000BF024800BF83
:10E1400000BF70BD0010024000127A008619060858
:10E150009619060800093D00F8B504460CB90120DF
:10E16000F8BD207800F00100002878D0F848406819
:10E1700000F00C0004280CD0F548406800F00C00BA
:10E18000082811D1F248406800F48030B0F5803F93
:10E190000AD1EF48006800F4003000285FD06068C2
:10E1A00000285CD10120DBE700BF6068B0F5803F4C
:10E1B00006D1E748006840F48030E549086028E06F
:10E1C000606858B9E248006820F48030E04908608F
:10E1D0000846006820F4802008601AE06068B0F506
:10E1E000A02F0BD1DA48006840F48020D84908609D
:10E1F0000846006840F4803008600AE0D4480068AF
:10E2000020F48030D24908600846006820F480205D
:10E21000086000BF606888B1FFF746FD054606E06C
:10E22000FFF742FD401B642801D9032098E7C84846
:10E23000006800F400300028F2D010E0FFF734FD51
:10E24000054606E0FFF730FD401B642801D9032096
:10E2500086E7BF48006800F400300028F2D120783B
:10E2600000F00200022857D1B948406800F00C00C5
:10E2700050B1B748406800F00C00082818D1B448E5
:10E28000406800F4803098B9B148006800F002009E
:10E2900020B12069012801D0012061E7AC48006865
:10E2A00020F0F800616940EAC100A949086033E044
:10E2B0002069E8B10120A7490860FFF7F5FC054691
:10E2C00006E0FFF7F1FC401B022801D9032047E7D5
:10E2D0009F48006800F002000028F2D09C480068C7
:10E2E00020F0F800616940EAC1009949086013E034
:10E2F000002098490860FFF7D7FC054606E0FFF7C5
:10E30000D3FC401B022801D9032029E7904800686C
:10E3100000F002000028F2D1207800F00800082860
:10E320002DD1A069B8B101208B490860FFF7BCFC72
:10E33000054606E0FFF7B8FC401B022801D9032080
:10E340000EE78348406A00F002000028F2D0012066
:10E3500001F0CCFA13E000207F490860FFF7A4FC2D
:10E36000054606E0FFF7A0FC401B022801D9032068
:10E37000F6E67748406A00F002000028F2D12078E3
:10E3800000F00400042873D100277148C06900F030
:10E39000805070B900BF6E48C06940F080506C4931
:10E3A000C8610846C06900F08050009000BF00BFFF
:10E3B00001276A48006800F48070B0B967480068B7
:10E3C00040F4807065490860FFF76EFC054606E082
:10E3D000FFF76AFC401B642801D90320C0E65F48B0
:10E3E000006800F480700028F2D000BFE0680128C7
:10E3F00006D15748006A40F001005549086227E0FD
:10E40000E06858B95248006A20F00100504908629B
:10E410000846006A20F00400086219E0E068052858
:10E420000BD14B48006A40F0040049490862084695
:10E43000006A40F0010008620AE04548006A20F0E6
:10E440000100434908620846006A20F0040008629F
:10E4500000BFE068A0B1FFF727FC054609E0FFF721
:10E4600023FC401B41F28831884202D9032077E621
:10E4700022E03748006A00F002000028EFD012E0E6
:10E48000FFF712FC054608E0FFF70EFC401B41F2C7
:10E490008831884201D9032062E62D48006A00F0E5
:10E4A00002000028F0D1012F05D12948C06920F0D1
:10E4B00080502749C86100BFE069C8B3244840685C
:10E4C00000F00C00082860D0E069022848D1002044
:10E4D00020490866FFF7E8FB054606E0FFF7E4FB86
:10E4E000401B022801D903203AE61948006800F0D1
:10E4F00000700028F2D1206AB0F5803F07D114489F
:10E50000406820F40030A168084311494860D4E90C
:10E51000080108430E49496821F4741108430C4965
:10E52000486001200B490866FFF7BEFB054607E07F
:10E530003DE0FFF7B9FB401B022801D903200FE69D
:10E540000348006800F000700028F2D02FE00000BF
:10E55000001002400000424280044242007000402D
:10E56000002014490866FFF79FFB054606E0FFF709
:10E570009BFB401B022801D90320F1E50E480068EF
:10E5800000F000700028F2D111E0E069012800D10C
:10E59000E6E50948466806F48031206A814204D1E4
:10E5A00006F47011606A814201D00120D8E5002094
:10E5B000D6E50000000042420010024070B504465B
:10E5C0000E4615461CB1A069B0F5807F01D101202F
:10E5D00070BD94F8410028B9002084F8400020461E
:10E5E00000F01FF804F108012068FEF703FB314634
:10E5F000A2682068FEF73AFB2946236BD4E90102A2
:10E60000FEF7D6FAA168206850F8210040F001001A
:10E61000A268216841F82200012084F8410000200E
:10E62000D6E710B50446FFF73DF910BD70477047B7
:10E6300010B504460CB9012010BD94F83D0028B96E
:10E64000002084F83C00204600F025F8022084F8E1
:10E650003D00211D206801F05BFA012084F846008E
:10E6600000BF84F83E0001213F20015540200155A4
:10E670004120015500BF00BF012084F84200432023
:10E680000155442001554520015500BF012084F863
:10E690003D000020D0E77047014691F83D00012879
:10E6A00001D001207047022081F83D000868C06851
:10E6B00040F001000B68D860164B0868984213D0F0
:10E6C000154B086898420FD00868B0F1804F0BD006
:10E6D000124B0868984207D0114B0868984203D043
:10E6E000104B086898420CD10868806800F0070257
:10E6F000062A0CD00868006840F001000B6818601A
:10E7000005E00868006840F001000B681860002010
:10E71000C8E70000002C0140003401400004004024
:10E7200000080040000C0040704770B504462068A7
:10E73000C5682068066906F00200022819D105F0B4
:10E740000200022815D1401F2168086101202077AE
:10E750002068806900F0030018B12046FFF7E4FF4D
:10E7600005E0204600F097F8204600F095F80020DC
:10E77000207706F00400042819D105F004000428CD
:10E7800015D1C04321680861022020772068806984
:10E7900000F4407018B12046FFF7C6FF05E02046A0
:10E7A00000F079F8204600F077F80020207706F096
:10E7B0000800082819D105F00800082815D1C04321
:10E7C00021680861042020772068C06900F00300F8
:10E7D00018B12046FFF7A8FF05E0204600F05BF8DF
:10E7E000204600F059F80020207706F0100010288D
:10E7F00019D105F01000102815D1C0432168086117
:10E80000082020772068C06900F4407018B12046C5
:10E81000FFF78AFF05E0204600F03DF8204600F0B3
:10E820003BF80020207706F0010048B105F0010018
:10E8300030B16FF0010021680861204600F02EF829
:10E8400006F08000802809D105F08000802805D1DD
:10E85000C043216808612046FFF7E8FE06F040004B
:10E86000402809D105F04000402805D1C043216867
:10E870000861204600F020F806F02000202809D189
:10E8800005F02000202805D1C043216808612046FA
:10E89000FFF7CDFE70BD70477047000010B504460D
:10E8A00004492068884204D1FFF704FA012040F0AF
:10E8B00027FC10BD000800407047704770470000FB
:10E8C0002DE9F84F0446206805682068C66820686E
:10E8D00047694FF00009CA4605F00F09B9F1000F6A
:10E8E0000AD105F0200038B106F0200020B1204602
:10E8F00001F0B4F9BDE8F88FB9F1000F7BD007F053
:10E90000010018B906F49070002874D005F00100D9
:10E9100030B106F4807018B1606C40F001006064A2
:10E9200005F0040030B107F0010018B1606C40F050
:10E930000200606405F0020030B107F0010018B178
:10E94000606C40F00400606405F0080048B106F017
:10E95000200010B907F0010018B1606C40F0080009
:10E960006064606C002845D005F0200028B106F0F6
:10E97000200010B1204601F071F920684069C0F311
:10E98000801A606C00F0080010B9BAF1000F2CD0AA
:10E99000204601F01DF92068406900F0400000B3F6
:10E9A00000BF00BF2168143151E8001F21F0400072
:10E9B0002168143141E80002002AF3D100BFE06B66
:10E9C00050B17748E16B4863E06BFEF783FE88B196
:10E9D000E06B416B88470DE02046FFF76FFF09E0D1
:10E9E00009E02046FFF76AFF04E02046FFF766FFD4
:10E9F000002060647EE7206B012877D105F01000CD
:10EA0000002873D006F010000028FAD000BF0020C4
:10EA1000009020680068009020684068009000BF67
:10EA200000BF2068406900F0400000285FD0E06B24
:10EA3000006840681FFA80F8B8F1000F55D0A08D2B
:10EA4000404552DDA4F82E80E06B8069202843D039
:10EA500000BF00BF21680C3151E8001F21F4807015
:10EA600021680C3141E80002002AF3D100BF00BF49
:10EA700000BF2168143151E8001F21F00100216816
:10EA8000143141E80002002AF3D100BF00BF00BFEB
:10EA90002168143151E8001F21F040002168143131
:10EAA00041E80002002AF3D100BF202084F8420090
:10EAB0000020206300BF00BF21680C3151E8001F17
:10EAC00021F0100021680C3141E80002002AF3D146
:10EAD00000BFE06BFEF7D3FD02206063A08DE28DE6
:10EAE000801A81B22046FFF7E8FE03E742E0A08DDE
:10EAF000E18D401A1FFA80F8E08DD0B3B8F1000F15
:10EB000037D000BF00BF21680C3151E8001F21F44D
:10EB1000907021680C3141E80002002AF3D100BF57
:10EB200000BF00BF2168143151E8001F21F001002F
:10EB30002168143141E80002002AF3D100BF2020EF
:10EB400084F842000020206300BF00BF21680C3120
:10EB500051E8001F21F0100021680C3141E800024B
:10EB6000002AF3D100BF0220606341462046FFF730
:10EB7000A4FEBFE605F0800030B106F0800018B1B9
:10EB8000204601F087F9B5E605F0400030B106F007
:10EB9000400018B1204601F051F8ABE600BFA9E6ED
:10EBA000BDFB000810B504460CB9012010BDA069DA
:10EBB00000B100E000BF94F8410028B9002084F8BB
:10EBC0004000204600F02AF8242084F84100206804
:10EBD000C06820F400502168C860204601F0BCF8ED
:10EBE0002068006920F4904021680861206840692D
:10EBF00020F02A00216848612068C06840F4005075
:10EC00002168C86000206064202084F8410084F8F6
:10EC100042000020606300BFC8E7000010B586B066
:10EC20000446002002900390049005905B49206800
:10EC300088422FD100BF5A48806940F4804058492B
:10EC400088610846806900F48040019000BF00BFE1
:10EC500000BF0846806940F004008861084680696A
:10EC600000F00400019000BF00BF48150290022090
:10EC700003900320059002A94A48FEF75DFE4FF479
:10EC80008060029000200390049002A94548FEF79E
:10EC900053FE80E044492068884236D100BF404896
:10ECA000C06940F400303E49C8610846C06900F4BC
:10ECB0000030019000BF00BF00BF0846806940F0EF
:10ECC000040088610846806900F00400019000BFDC
:10ECD00000BF04200290022003900320059002A9A7
:10ECE0003048FEF729FE082002900020039004908F
:10ECF00002A92C48FEF720FE002205212620FFF75E
:10ED000093F82620FFF780F845E0284920688842DC
:10ED100041D100BF2248C06940F480202049C86129
:10ED20000846C06900F48020019000BF00BF00BF0A
:10ED30000846806940F0100088610846806900F04C
:10ED40001000019000BF00BF081502900220039040
:10ED50000320059002A91648FEF7EEFD4FF400606F
:10ED6000029000200390049002A91148FEF7E4FDF0
:10ED700000BF1049486820F0300040F0E06040F0EB
:10ED80001000486000BF002205212720FFF74CF843
:10ED90002720FFF739F806B010BD00000038014009
:10EDA00000100240000801400044004000480040BC
:10EDB000001001400000014070B504460D461646A3
:10EDC00094F8420020280BD105B10EB9012070BD86
:10EDD0000020206332462946204601F03BF8F6E742
:10EDE0000220F4E71CB50446012001902449206864
:10EDF000884226D1234800784A281CD121484078EF
:10EE00005F2818D11F48C0788B2814D100200090AB
:10EE100000236A461B49891C1B48006851F08CFE80
:10EE2000009838B14FF0805018490860BFF34F8FF9
:10EE3000BFF36F8F00BF042212491548FFF7BCFFD4
:10EE40001CE014492068884218D1134801781348FF
:10EE50000CF0E3F901A91248006850F08FFF019807
:10EE600038B14FF0805009490860BFF34F8FBFF3AE
:10EE70006F8F012208490B48FFF79EFF1CBD000061
:10EE800000440040280000201800002004ED00E0AD
:10EE90002C040020004800402C000020D403002057
:10EEA0000C000020740400202DE9F84F04460E46A3
:10EEB000174699464FF0000A94F84100202850D197
:10EEC00006B117B90120BDE8F88F00206064212049
:10EED00084F84100FEF7E8FE8246A784E784A06834
:10EEE000B0F5805F04D1206910B90025B04602E07A
:10EEF00035464FF000081EE0534600228021204690
:10EF0000CDF8009000F0F6FF20B1202084F84100F9
:10EF10000320D8E745B9B8F80000C0F3080021681D
:10EF2000486008F1020803E02878216848606D1CF9
:10EF3000E08C401EE084E08C0028DDD153460022A6
:10EF400040212046CDF8009000F0D4FF20B12020D1
:10EF500084F841000320B6E7202084F84100002017
:10EF6000B1E70220AFE7704700BFFEE710B51048D9
:10EF7000104908602420486000210E488160C1606B
:10EF80004FF4803101614901416100210176012185
:10EF9000417681760021C17601774177FEF7E1F96C
:10EFA00008B1FDF702FE02210248FDF77AFE10BD0E
:10EFB000006400406401002010B5FDF76DFD044AB7
:10EFC0000021044842F020F90349086010BD000008
:10EFD0005019060815F900081C00002000B58FB074
:10EFE0001C2108A8FDF799F91C2101A8FDF795F946
:10EFF0004FF020402349086023484860062088607D
:10F0000000212048C160016110214161002181611E
:10F01000C161016241624FF4805181620021C1628D
:10F020004FF4804101630021416381630020089017
:10F030000F2009901A200A9000200B9010200C90AD
:10F0400011200D9000200E9001900F2002900120C1
:10F0500003900020049010200590112006900020BD
:10F06000079001AA08A90748FFF7A8FA08B1FDF719
:10F070009CFD0648C06940F480600449C8610FB037
:10F0800000BD00008C010020040100A00000014030
:10F0900000B585B00020019002900390049000BF5D
:10F0A0003F48806940F010003D498861084680690A
:10F0B00000F01000009000BF00BF00BF084680694C
:10F0C00040F0040088610846806900F00400009068
:10F0D00000BF00BF00BF0846806940F0080088619B
:10F0E0000846806900F00800009000BF00BF00BF24
:10F0F0000846806940F4807088610846806900F4A1
:10F100008070009000BF00BF00BF0846806940F0DB
:10F11000400088610846806900F04000009000BF10
:10F1200000BF00BF0846806940F0200088610846A3
:10F13000806900F02000009000BF00BF002240F670
:10F1400001011848FEF7AAFD01224FF48461154819
:10F15000FEF7A4FD012001900290002003900320FF
:10F16000049001A90F48FEF7E7FB4FF440600190BF
:10F1700011200290012003900320049001A9094866
:10F18000FEF7DAFB2020019001200290022003907C
:10F19000049001A90348FEF7CFFB05B000BD0000B5
:10F1A00000100240000C014010B50B480B490860EC
:10F1B0004FF4E1304860002108488160C16001617E
:10F1C0000C21416100218161C161FFF7EBFC08B1B5
:10F1D000FDF7EBFC10BD000000380140E403002007
:10F1E00010B50D480D4908604FF4E130486000212A
:10F1F0000A488160C16001610C2141610021816187
:10F20000C161FFF7CFFC08B1FDF7CFFC0422044930
:10F210000248FFF7D1FD10BD004400402C0400203F
:10F220002800002010B50E4A4FF400710D480BF075
:10F23000EEFF0D480D4908604FF4E13048600021B1
:10F240000A488160C16001610C2141610021816136
:10F25000C161FFF7A7FC08B1FDF7A7FC10BD0000D6
:10F26000D4010020D4030020004800407404002092
:10F2700000BFFEE700BFFEE700200CE0002106E033
:10F280000022064B03EBC0135A544A1CD1B280290A
:10F29000F6DB421CD0B20828F0DB704704050020E2
:10F2A0002DE9F04304460D4616461F46284638E031
:10F2B000224631E0002A2DDB7F2A2BDC002829DBC7
:10F2C0003F2827DC4FEAE07C00EB5C7C4FEAEC0C4B
:10F2D000DFF8588008EBCC1C1CF802C003464FEA4C
:10F2E000E07800EB58784FEAE808A0EBC8094FF047
:10F2F000010808FA09F82CEA080C01464FEAE07800
:10F3000000EB58784FEAE808DFF8209009EBC818BE
:10F3100008F802C0511C0AB2A1199142CADC411C72
:10F3200008B2E9198142C3DCBDE8F083040500207E
:10F3300070B50546002411E080212141294009B122
:10F34000012100E00021084600F096FA012000F0BB
:10F3500081FA002000F07EFA601CC4B2082CEBDBBE
:10F36000012000F077FA002000F074FA70BD10B5AB
:10F37000012000F081FA012000F06CFA002000F07A
:10F380007BFA002000F066FA10BD10B5002000F0F6
:10F3900073FA012000F05EFA012000F06DFA10BD52
:10F3A00010B501224FF440612648FEF777FCAE20ED
:10F3B00000F074FAD52000F071FA802000F06EFAA7
:10F3C000A82000F06BFA3F2000F068FAD32000F08C
:10F3D00065FA002000F062FA402000F05FFAA120F8
:10F3E00000F05CFAC82000F059FADA2000F056FA72
:10F3F000122000F053FA812000F050FACF2000F0E4
:10F400004DFAD92000F04AFAF12000F047FADB204B
:10F4100000F044FA302000F041FAA42000F03EFA57
:10F42000A62000F03BFA8D2000F038FA142000F0FE
:10F4300035FAAF2000F032FAFFF71EFF00F0B8F9FE
:10F4400010BD0000000C01400FB470B5C2B00546FD
:10F450000E4614464AA8019002A8019A499900F064
:10F46000C1FD00200190234602AA3146284600F043
:10F47000BDF842B070BC5DF814FB70B505460C4693
:10F4800045F0B00000F00AFA102141EA141000F033
:10F4900005FA04F00F0000F001FA70BDF8B5064659
:10F4A0000F4614461D46082D0CD1A4F120000E492C
:10F4B00001EB00101023082239460090304600F07E
:10F4C00017F80FE0062D0DD1A4F1200000EB40004D
:10F4D000064901EB400008230622394600903046D9
:10F4E00000F006F8F8BD0000B0190608A01F0608D5
:10F4F0002DE9FF4F80460E469146DDF834B00025D9
:10F5000000244A4631464046039BFFF7C9FE00BF30
:10F510005EE0002558E008EB0500002852DB08EB10
:10F5200005007F284EDC3046F11706EB5171C910FB
:10F530000FB2F11706EB5171C910A6EBC10A002EEC
:10F5400005DA781E07B20AF108000FFA80FA3819B6
:10F55000002817DB3819072814DC3819224901EB79
:10F56000C01008EB0501405C04FB09511BF80110B9
:10F5700001FA0AF1084339191B4A02EBC11108EBE1
:10F58000050288543819401C00281BDB3819401C20
:10F59000072817DC3819401C134901EBC01008EB91
:10F5A0000501405C04FB09511BF80110CAF1080277
:10F5B000114108433919491C0B4A02EBC11108EBF0
:10F5C00005028854681CC5B24D45A4DB601CC4B25A
:10F5D0000399481EC11700EB5171012202EBE101B2
:10F5E000A14296DCBDE8FF8F040500202DE9FE4F07
:10F5F00007468A46144698460025AB460026CBE0CF
:10F60000605D00F0800058B94FF0010B2846691C7E
:10F610008DB2205C8DF8040000208DF805006BE0B1
:10F62000605D00F0E000C02814D14FF0020B2846C6
:10F63000691C8DB2205C8DF80400605D00B9AFE0FC
:10F640002846691C8DB2205C8DF8050000208DF8DD
:10F65000060051E0605D00F0F000E0281DD14FF0A1
:10F66000030B2846691C8DB2205C8DF80400605D98
:10F6700000B995E02846691C8DB2205C8DF8050024
:10F68000605D00B98CE02846691C8DB2205C8DF865
:10F69000060000208DF807002EE0605D00F0F80005
:10F6A000F02826D14FF0040B2846691C8DB2205C4F
:10F6B0008DF80400605D00B972E02846691C8DB2C7
:10F6C000205C8DF80500605D00B969E02846691C82
:10F6D0008DB2205C8DF80600605D00B960E02846C0
:10F6E000691C8DB2205C8DF8070000208DF80800A1
:10F6F00002E0681C85B24FE0BBF1010F0BD19DF811
:10F700000420B91908B243465146FFF7C7FE06EB7D
:10F71000080086B23FE04FF000090EE009EB8901D6
:10F7200001EB4911204A881801A9FCF708FE00B92D
:10F730000EE009F101001FFA80F909EB890101EBE4
:10F740004911194A881819A1FCF7F9FD0028E5D1DB
:10F7500000BFB8F1080F12D109EB890000EB491086
:10F7600011490844401DB919009008B210231A46E7
:10F770005146FFF7BDFE06F1100086B20BE0B8F16E
:10F78000060F08D1B91908B206233F225146FFF7E8
:10F7900085FEB01D86B200BF605D00287FF430AFEB
:10F7A00000BFBDE8FE8F0000DA210608000000005F
:10F7B00010B500240BE000212046FFF75EFE05494E
:10F7C00001EBC410802100F079F8601CC4B2082C51
:10F7D000F1DB10BD040500202DE9F04706460D467B
:10F7E000174698462846E91705EB5171C9100FFADC
:10F7F00081F905EB0801481EC11700EB5171C910D2
:10F80000491C0FFA81FA002D07DAA9F101000FFA5D
:10F8100080F9AAF101000FFA80FA4C4614E0002E9C
:10F8200010DB7F2E0EDC002C0CDB072C0ADCF1B287
:10F83000E0B2FFF722FE064901EBC41188193946F0
:10F8400000F03CF8601C04B25445E8DBBDE8F087EA
:10F850000405002010B5044634B900224FF480613D
:10F860000448FEF71BFA04E0012291020148FEF76A
:10F8700015FA10BD000C014010B5044634B9002241
:10F880004FF400610448FEF709FA04E00122D102B6
:10F890000148FEF703FA10BD000C014010B5044604
:10F8A000FFF765FD7820FFF743FD0020FFF740FDDF
:10F8B0002046FFF73DFDFFF768FD10BD70B505461A
:10F8C0000E46FFF754FD7820FFF732FD4020FFF78A
:10F8D0002FFD002404E0285DFFF72AFD601CC4B260
:10F8E000B442F8DBFFF751FD70BD000008B50849D0
:10F8F0000968C9084FF47A72B1FBF2F141430091F3
:10F9000000BF00BF00994A1E00920029F9D108BD2E
:10F910003C0000201CB550F067F82D480F21002353
:10F92000C822CDE900102BA12D4851F0A5FB0446BB
:10F93000012C02D02BA000F03DFB31480D2100230B
:10F940008022CDE900102FA1314851F095FB0446EB
:10F95000012C02D02FA000F02DFB00200E21034629
:10F960004FF48062CDE9001031A1344851F084FB9E
:10F970000446012C02D032A000F01CFB38480E21B6
:10F9800000238022CDE9001036A1394851F074FBE4
:10F9900000220C21052050F012FF36490860002299
:10F9A0000C21052050F00BFF334908600022012193
:10F9B000052050F004FF3149086050F03FF8002066
:10F9C00050F066F900BF012041F0C8FBFBE70000E2
:10F9D000000000206F6C65645F7461736B00000051
:10F9E000510F05086F6C65645F7461736B206372FF
:10F9F00065617465206661696C6564210D0A0000AB
:10FA00000400002063616E5F7461736B000000008E
:10FA1000B1A7010863616E5F7461736B20637265E7
:10FA2000617465206661696C6564210D0A000000DF
:10FA30006C76676C5F64656D6F000000A505050856
:10FA40006C76676C5F64656D6F5F7461736B206368
:10FA50007265617465206661696C6564210D0A00D8
:10FA600008000020766F6963655F7461736B000046
:10FA7000A90406081000002014000020180000202F
:10FA800010B54FF0E020006951F020FC012801D0B2
:10FA900050F06AFE10BD00B58FB0282105A8FCF714
:10FAA0003CFC14216846FCF738FC0120059000045A
:10FAB0000690002007900120099002200C90C103BD
:10FAC0000D914FF4E0110E9105A8FEF745FB08B12A
:10FAD000FDF76BF80F2000900220019000200290AB
:10FAE0004FF4806003900020049002216846FEF7E6
:10FAF000EDF908B1FDF759F80FB000BD70470000EF
:10FB000010B50248FEF711FE10BD0000BC04002035
:10FB100010B50268244B98420ED0244B98420BD06B
:10FB2000B0F1804F08D0224B984205D0214B98422B
:10FB300002D0214B984203D122F070024B681A4345
:10FB4000194B98420ED0194B98420BD0B0F1804F10
:10FB500008D0174B984205D0164B984202D0164B4E
:10FB6000984203D122F44072CB681A4322F08003FA
:10FB70004C6943EA040202608B68C3620B688362CB
:10FB8000094B984202D0094B984201D10B6903639B
:10FB900001234361036903F001031BB1036923F0EF
:10FBA0000103036110BD0000002C0140003401403E
:10FBB0000004004000080040000C004070B50546FD
:10FBC0006C6A0020E085E0842046FEF777FE70BD79
:10FBD00000BF00BF02680C3252E8002F22F490717F
:10FBE00002680C3242E80013002BF3D100BF00BFC3
:10FBF00000BF0268143252E8002F22F001010268AF
:10FC0000143242E80013002BF3D100BF016B01292D
:10FC10000ED100BF00BF02680C3252E8002F22F064
:10FC2000100102680C3242E80013002BF3D100BF30
:10FC3000202180F8421000210163704710B504466E
:10FC40002068C06820F040002168C860202084F847
:10FC500041002046FFF787F9002010BDF8B50446A3
:10FC600094F84200222875D1A068B0F5805F0CD1CD
:10FC7000206950B90025A66A20684068C0F30800D2
:10FC80003080A06A801CA06215E0A56A0026A068EA
:10FC9000B0F5805F03D0A06828B9206918B9206842
:10FCA0004068287004E02068406800F07F002870F9
:10FCB000A06A401CA062E08D401E80B2E085002852
:10FCC00046D12068C06820F020002168C860206804
:10FCD000C06820F480702168C8602068406920F006
:10FCE000010021684861202084F842000020606300
:10FCF000206B012826D10020206300BF00BF2168AF
:10FD00000C3151E8001F21F0100021680C3141E84E
:10FD10000002002AF3D100BF2068006800F0100044
:10FD200010280AD100BF00200090206800680090D1
:10FD300020684068009000BF00BFA18D2046FEF7FC
:10FD4000BCFD02E02046FFF74DF80020F8BD01E0C1
:10FD50000020FBE70220F9E770B504462168096935
:10FD600021F44051E2681143226811612269A168BF
:10FD70001143626941EA02052168C96841F20C62D7
:10FD8000914329432268D1602168496921F4407177
:10FD9000A2691143226851612D4A2168914202D122
:10FDA000FEF792F901E0FEF77FF900EBC00101EBED
:10FDB000001162689200B1FBF2F100EBC00202EBAD
:10FDC000001263689B00B2FBF3F26423B2FBF3F210
:10FDD00002EBC20303EB0212A1EB8201322202EB1F
:10FDE00001116422B1FBF2F101F0F00100EBC0025D
:10FDF00002EB001263689B00B2FBF3F26423B2FBD8
:10FE0000F3F201EB021200EBC00101EB0011636899
:10FE10009B00B1FBF3F100EBC00303EB001366683A
:10FE2000B600B3FBF6F36426B3FBF6F303EBC306AD
:10FE300006EB0313A1EB8301322303EB01116423CF
:10FE4000B1FBF3F101F00F0111442268916070BD24
:10FE50000038014010B5034699629A85DA85002082
:10FE60005864222083F84200186928B11868C068D5
:10FE700040F480701C68E0601868406940F0010040
:10FE80001C6860611868C06840F020001C68E06071
:10FE9000002010BD014691F84100212828D1886832
:10FEA000B0F5805F0BD1086948B90A6A1088C0F3C1
:10FEB00008000B685860086A801C086205E00B6A3D
:10FEC000581C086218780B685860C88C401E80B2B5
:10FED000C88458B90868C06820F080000B68D860F2
:10FEE0000868C06840F040000B68D8600020704788
:10FEF0000220FCE72DE9F84304460D4617469846D4
:10FF0000089E31E0701C70B3FDF7CEFEA0EB080038
:10FF1000B04200D816B90320BDE8F8832068C06855
:10FF200000F00400F8B1802D1ED0402D1CD02068B8
:10FF30000068C0F3C000B0B100BF0020009020688E
:10FF40000068009020684068009000BF00BF204615
:10FF5000FFF73EFE0820606400BF002084F84000E8
:10FF600000BF0120D8E7FFE7206800682840A842CA
:10FF700001D1012000E00020B842C3D00020CBE72F
:10FF800010B50248FEF79CFC10BD00002C040020B8
:10FF900010B50248FEF794FC10BD00007404002068
:10FFA00010B50248FDF7B6F810BD0000640100204E
:10FFB00000BFFEE70FB4054B10B503A9044A029831
:10FFC00000F0C6FA10BC5DF814FB0000DD0D02085D
:10FFD00060010020014B024A00F0BABADD0D0208B0
:10FFE0006001002037B514460846064B6A46214694
:10FFF00000F0AEFA04466946002000F02CFE2046D0
:020000040801F1
:100000003EBD0000570C010802480068C0F3022002
:10001000704700000CED00E010B5002804DB0A0773
:10002000130E054A135406E00A07140E034A00F0A3
:100030000F031B1FD45410BD00E400E018ED00E0D6
:10004000EFF30580704702E008C8121F08C1002ABC
:10005000FAD170477047002001E001C1121F002A49
:10006000FBD1704770B50446002508E02168481CA4
:1000700020600878303805EB850100EB41052168E8
:10008000087800F0F5F80028F0D1284670BD2DE979
:10009000F04180460F4614461D4625B9214640468C
:1000A00021F0D8FE054605FB07F6142C03D168089D
:1000B00000FB076617E0072C15DB0A2C13DC072C66
:1000C00001D102200DE0082C01D1042009E0092C07
:1000D00001D1102005E00A2C02D14FF4807000E01D
:1000E000002006EB80063046BDE8F0812DE9FF5F79
:1000F00082B00021DDE90430020DDDF840B0034399
:1001000018D044F61050A2F2FF3242431514119851
:1001100001281FD0A5EB0B00401C5FEA000A4FF03E
:1001200000064E4FDFF83891B046504615D5CAF15B
:10013000000413E0119801244AA3012801D16FEAB9
:100140000B010298119AC0E90031C0E9024206B0E1
:10015000BDE8F09FCBF10000DFE704460021404AF4
:10016000491842EB0450CDE9001012E0E00707D037
:1001700032463B4640464946FCF72CFA80468946C3
:1001800032463B4610461946FCF724FA06460F460F
:100190006410002CEAD1DDE90401DDE90023BAF1A5
:1001A000000F06DAFCF716FA42464B46FCF712FA45
:1001B00005E0FCF781FA42464B46FCF77DFA04461F
:1001C0000E460022284BFCF72DFB03D84FF0FF30E2
:1001D000014607E00022254B20463146FCF753F943
:1001E000FCF703FC102409E0002C0ADB0A220023A0
:1001F000FCF708F8039B30321A55641E50EA0102DE
:10020000F2D1641C039AC4F111031444119A012A17
:1002100003D0012208430DD10AE0084304D0002096
:100220004FF0110B119072E7A3EB0B056D1E0DE063
:100230005B4504DD4FF0000205F1010504E003DA3F
:100240004FF00002A5F10105002AECD002981199A7
:10025000C0E90231C0E9004579E700000000144020
:100260000000F03F300000000000F0430000E03FDD
:100270000146302903DB392901DC012070470020C9
:10028000FCE72DE9FF4F85B08346DDE9158ADDE9FE
:100290001349DDE91775129E05F00200F8B94FB158
:1002A00005F0010030B1B9F1000F02D105F00C00EA
:1002B00000B17F1E03E030222046641C32545445B6
:1002C00001D2202CF7D303E030222046641C3254A4
:1002D00005F0010018B1BC4201D2202CF4D305F086
:1002E0001000B0B305F4806050B94CB1544501D052
:1002F000BC4205D1641E1CB1B8F1100F00D1641EC0
:10030000B8F1100F09D105F0200030B9202C04D22B
:1003100078222046641C325415E0B8F1100F09D140
:1003200005F0200030B1202C04D258222046641C55
:10033000325408E0B8F1020F05D1202C03D262221A
:100340002046641C3254202C03D230222046641CE8
:100350003254202C16D2B9F1000F04D02D222046A1
:10036000641C32540EE005F0040020B12B2220461C
:10037000641C325406E005F0080018B12022204623
:10038000641C3254CDE90275CDE90064584606A9D3
:100390000EC900F0A2F809B0BDE8F08F2DE9FF4FBB
:1003A0008FB08046DDE91FABDDE91D96219D1C9CC9
:1003B00000270CB925F0100505F4806000B1E4B108
:1003C00000BFB4FBF6F106FB1141C8B20A2802DAFD
:1003D00000F1300107E005F0200109B1412100E002
:1003E000612101440A39CBB239467F1C07AA535414
:1003F000B4FBF6F40CB1202FE3D307A8CDE904AB8E
:100400008DE8810203960695404610A90EC9FFF7B4
:1004100038FF13B0BDE8F08F2DE9FF4F8FB0DDE955
:10042000217BDDF89080209EDDE91C454FF000091E
:10043000002184EA01006940084301D128F0100836
:1004400008F4806028B1002184EA01006940084373
:100450002DD000BF32463B4620462946FBF7D2FE50
:1004600002F0FF0ABAF10A0F02DA0AF1300007E0DF
:1004700008F0200008B1412000E0612050440A3813
:10048000C2B2484609F1010907A90A5432463B465F
:1004900020462946FBF7B6FE04460D46002184EAB5
:1004A00001006940084302D0B9F1200FD2D323984C
:1004B000CDE9036BCDE9050807A91E98CDE9001920
:1004C00002900FA80FC8FFF7DCFE13B0BDE8F08F55
:1004D0009A4200D28854704770472DE9FF5F054665
:1004E0001446DDE90EA6DDE91087A34607F00200F9
:1004F00078B907F0010060B9B14607E02246641CF4
:100500002020039B0199A84709F10109C145F5D3B2
:1005100000BF08E02246641C711E0E461AF8010056
:10052000039B0199A847002EF4D107F0020050B1B7
:1005300005E02246641C2020039B0199A847A4EBF8
:100540000B004045F5D3204604B0BDE8F09F000005
:100550002DE9FF4F95B09A46884606460025EEE104
:10056000252877D100242746F94A0121039400E089
:10057000044316F8013F203B01FA03F01042F7D183
:1005800030782A2811D06FF02F033078A0F1300294
:10059000092A16D8039A44F0020402EB820203EB04
:1005A00042021044761C0390EFE758F8042B0392A4
:1005B000002A03DA504244F40054039044F0020449
:1005C000761C30782E2816D116F8010F44F004045A
:1005D0002A280DD06FF02F023078A0F13003092BBC
:1005E00009D807EB870302EB4303C718761CF3E730
:1005F00058F8047B761C30786C280FD006DC4C2829
:1006000017D068280DD06A2814D104E0742810D0BF
:100610007A280FD10DE044F400140AE044F4801469
:1006200001E044F440147278824202D104F580144F
:10063000761C761C307866280BD013DC582877D0CF
:1006400009DC002875D04528F6D04628F4D0472884
:100650001AD193E118E0632835D0642879D0652851
:1006600012D18BE1702873D008DC6728F1D069289B
:100670006FD06E280DD06F2806D1ACE073282CD037
:10068000752874D0782853D05246179990476D1C1E
:1006900054E1C4F30250022809D003280DD0D8F841
:1006A000001004280DD00D6008F1040846E1D8F8C8
:1006B0000010EA17C1E90052F6E7D8F800100D80E3
:1006C000F2E70D70F0E718F8041B8DF80010002019
:1006D0008DF80100EB46012003E058F804BB4FF011
:1006E000FF3061074FF0000102D40DE009F1010174
:1006F0008946B9420FDA8145F8DB1BF80910002959
:10070000F4D108E009F1010189468142FADB1BF8C6
:1007100009100029F6D103985346A0EB090721469A
:100720003846179A00F080FA284400EB090507E0E4
:1007300044E008E10DE01BF8010B52461799904781
:10074000B9F10109F7D2534621463846179AF2E02B
:1007500039E00A21C4F302524FF0000B0091022A43
:1007600006D058F8040BC117032A09D00AE023E089
:1007700008F1070020F00702F2E80201904605E0C8
:1007800000B2C117042A01D140B2C117002906DA0C
:100790000A460021404261EB02012D2202E02205BF
:1007A00004D52B228DF80420012203E0E20701D0BA
:1007B0002022F7E7914657E00A2100E010214FF090
:1007C000000B00910BE010214FF0000B44F00404EB
:1007D0000827009103E008204FF0000B0090C4F3BD
:1007E0000252022A05D058F8040B0021032A08D02F
:1007F00008E008F1070020F00702F2E80201904645
:1008000003E080B2042A00D1C0B24FF000092207F1
:100810002AD53278702A07D0DDF800C08CF0100C91
:100820005CEA0B0C05D00EE040228DF8042001227A
:1008300008E050EA010306D030238DF804308DF82B
:10084000052002229146009B83F0080353EA0B0324
:100850000AD150EA010201D1620705D530228DF894
:1008600004204FF001097F1E3278582A04D039A2A3
:100870000C920CAA02920BE03BA2F9E75B46009AAD
:10088000FBF7C0FC0C9B9B5C029A521E02921370F9
:1008900050EA0102F2D1029804A9081A00F1200BD3
:1008A000600702D524F4803400E001275F4502DDB3
:1008B000A7EB0B0000E0002000EB0B010090039879
:1008C0004944401A0390E00306D453462146179A40
:1008D000039800F0A9F90544002706E001A8524654
:1008E000C05D179990476D1C7F1C4F45F6DBE003F8
:1008F0000CD553462146179A039800F095F9054404
:1009000004E030205246179990476D1C0099481E0C
:1009100000900029F5DC08E0029802995246007820
:10092000491C0291179990476D1CBBF10001ABF176
:10093000010BF1DC5BE100F065F90544761C3078D1
:1009400000287FF40DAE19B02846BDE8F08F0000F6
:100950000928010030313233343536373839616295
:100960006364656600000000303132333435363759
:10097000383941424344454600000000600700D436
:10098000062708F1070020F00700F0E80223804660
:1009900003F0004C5FEA0C0001D097A009E02005AD
:1009A00001D596A005E0E00701D095A001E0AFF2E7
:1009B0004C001390307823F0004365280CD006DCFF
:1009C000452809D046281DD047287FD13BE066281E
:1009D00018D067287AD136E00021112F01DB1120D1
:1009E00000E0781CCDE9000104A90CA8FFF77EFB0C
:1009F000DDE90D010C9A4FF0000B07F1010910928F
:100A000000914EE04FF000400097CDE9011004A99D
:100A10000CA8FFF76BFBDDE90D020C9B0F994FF063
:100A2000000B91461093009211B9791C00EB01095B
:100A3000B7EB090003D4C0F1FF3B07F10109A9EBB3
:100A40000700019042E0012F00DA01270021112F59
:100A500001DD112000E03846CDE9000104A90CA811
:100A6000FFF744FBDDE90D010C9A00914FF0000BFC
:100A7000B946109221070FD4009A4A4503DA9146ED
:100A800001E0A9F10109B9F1010F05DD109AA9F101
:100A90000101515C3029F4D0B84202DA10F1040FA0
:100AA00003DA0121CDE9011010E0002803DC8344C2
:100AB000A9EB000102E0411C494500DD8946A0EB9D
:100AC0000B00401C01904FF000400290200705D41D
:100AD0000198484502DB4FF0FF30019000208DF86F
:100AE0004B0002980DF14B07B0F1004F25D00220CA
:100AF0000C902B200D90029800280CDA40420290B6
:100B00002D200D9007E00A210298FBF7A3FE30315B
:100B1000029007F8011D0C99481E0C900029F2DC88
:100B200002980028EFD1791E0D980870307800F0F7
:100B3000200040F0450007F8020D11A8C01BC01DA1
:100B400002901398007800B1012000EB0901019890
:100B500001EBE071029801440398401A401E039093
:100B6000E00306D453462146179A039800F05CF838
:100B700005441398007818B15246179990476D1C98
:100B8000E00323D553462146179A039800F04CF80A
:100B900005441BE0BBF1000F07DB0098584504DD5E
:100BA0001098179910F80B0001E017993020524661
:100BB000904701980BF1010B401E05F101050190D2
:100BC00004D12E205246179990476D1CB9F10001AF
:100BD000A9F10109DEDC05E017F8010B524617996F
:100BE00090476D1C0299481E02900029F4DC534680
:100BF0002146179A03989EE62D0000002B00000066
:100C0000200000002DE9F041044600251E4617464D
:100C1000880404D405E039462020B0476D1C641ECA
:100C2000F9D52846BDE8F0812DE9F04104460025BC
:100C30001E469046C80301D5302700E020278804CF
:100C400004D505E041463846B0476D1C641EF9D511
:100C50002846BDE8F0810A68531C0B60107070478D
:100C60002DE9F04F85B0074678680490B868039086
:100C700097F821B0D7F80090F8680290D7F818A03C
:100C8000F8690190D7F8108078690090B8F1000FEA
:100C900025D1BBF1FD0F22DB00261CE0002500243E
:100CA0000BE019F805001AF80410884203DA1AF864
:100CB000040009F805006D1C641C04988442F0DBF4
:100CC000484602990EF060FF8146504601990EF0A9
:100CD0005BFF8246761C03988642DFDB97E0B8F123
:100CE000000F2BD1BBF1FD0F28DA002622E00025F2
:100CF000002411E019F805101AF8040000FB0BF0AD
:100D0000B1EB202F06DA1AF8040000FB0BF00012FA
:100D100009F805006D1C641C04988442EADB48460F
:100D200002990EF031FF8146504601990EF02CFFDA
:100D30008246761C03988642D9DB68E0B8F1000F42
:100D40002FD0BBF1FD0F2CDB002626E00025002470
:100D500013E018F804001AF80410484319F80510B5
:100D6000B1EB202F07DA18F804001AF804104843F2
:100D7000001209F805006D1C641C04988442E8DB2D
:100D8000484602990EF000FF8146504601990EF048
:100D9000FBFE824600988044761C03988642D5DB91
:100DA00035E0B8F1000F32D0BBF1FD0F2FDA00268D
:100DB0002AE00025002417E018F8040000FB0BF0DF
:100DC0001AF80410484319F80510B1EB204F09DA5E
:100DD00018F8040000FB0BF01AF804104843001444
:100DE00009F805006D1C641C04988442E4DB484645
:100DF00002990EF0C9FE8146504601990EF0C4FEDC
:100E0000824600988044761C03988642D1DB05B068
:100E1000BDE8F08F2DE9FE4304460D469046264678
:100E200000BF002E0ED11FA022A125A22C4BCDE980
:100E3000002102904FF499722AA1032030F046FC61
:100E400000BFFEE700BF00BF002D0ED115A031A1ED
:100E50001BA2234BCDE90021029040F2331221A1C5
:100E6000032030F033FC00BFFEE700BF06B115B928
:100E70000020BDE8FE8342462946304601F010FEC0
:100E800007460FB90020F4E7616838691BF03AFFA4
:100E900081462846316C8847E1680844E06048464E
:100EA000E7E700004E554C4C20706F696E74657218
:100EB000000000006C727520213D204E554C4C0006
:100EC0004173736572746564206174206578707213
:100ED000657373696F6E3A20257320282573290086
:100EE00063A606082E2E2F6C76676C2F7372632F05
:100EF0006D6973632F63616368652F636C617373DE
:100F00002F6C765F63616368655F6C72755F726298
:100F10002E6300006B657920213D204E554C4C001E
:100F20002DE9FF5F07460E4615469846324629468C
:100F3000684619F00BFA20B301986968411A0E98B7
:100F400000FB017900982968401A814400984044C8
:100F50003168A0EB010A684619F0E5F983460024E0
:100F60000CE01AF8041019F804208818FF2801D999
:100F7000FF2100E001460AF80410641C5C45F0D330
:100F800000BFBDE8FF9F2DE9F04104460E46002753
:100F900074B13146204601F0B7FC0546B5F5804FE7
:100FA00005D20C2D01D9284600E00C20074600BFD1
:100FB0003846BDE8F0812DE9F04F85B007467868E6
:100FC0000490B868039097F821B0D7F80090F868BB
:100FD0000290D7F818A0F8690190D7F810807869C6
:100FE0000090B8F1000F27D1BBF1FD0F24DB0026E4
:100FF0001EE0002500240DE019F805000AEB44016D
:101000004978884204DA0AEB4400407809F8050080
:101010006D1C641C04988442EEDB484602990EF075
:10102000B3FD8146504601990EF0AEFD8246761C16
:1010300003988642DDDB9DE0B8F1000F2DD1BBF1B6
:10104000FD0F2ADA002624E00025002413E019F819
:1010500005100AEB4400407800FB0BF0B1EB202FA9
:1010600007DA0AEB4400407800FB0BF0001209F8A5
:1010700005006D1C641C04988442E8DB4846029914
:101080000EF082FD8146504601990EF07DFD8246AC
:10109000761C03988642D7DB6CE0B8F1000F31D0A4
:1010A000BBF1FD0F2EDB002628E00025002415E013
:1010B0000AEB4400407818F80410484319F805106A
:1010C000B1EB202F08DA0AEB4400407818F804103E
:1010D0004843001209F805006D1C641C0498844202
:1010E000E6DB484602990EF04FFD814650460199D5
:1010F0000EF04AFD824600988044761C0398864292
:10110000D3DB37E0B8F1000F34D0BBF1FD0F31DA9B
:1011100000262CE00025002419E00AEB440040786A
:1011200018F80410484300FB0BF019F80510B1EB58
:10113000204F0ADA0AEB4400407818F804104843BC
:1011400000FB0BF0001409F805006D1C641C0498EA
:101150008442E2DB484602990EF016FD8146504675
:1011600001990EF011FD824600988044761C039888
:101170008642CFDB05B0BDE8F08F2DE9F04F87B098
:101180000646D6F804B0B068069096F82180D6F8E6
:101190000090F0680590D6F818A0F06904903769BF
:1011A0007069039001A81DF0EBFE96F8220000285C
:1011B0007AD10FBBB8F1FD0F1EDB002518E000242B
:1011C00009E009EB44010AEB4400008801AA009001
:1011D0001DF012F9641C5C45F3DB484605990EF0DE
:1011E000D6FC8146504604990EF0D1FC82466D1C17
:1011F00006988542E3DBBFE04FBBB8F1FD0F26DA6E
:10120000002520E0002411E00AEB44000088009053
:101210009DF8010000FB08F000128DF8010009EBB9
:10122000440101AA00981DF0E7F8641C5C45EBDB63
:10123000484605990EF0ABFC8146504604990EF0E5
:10124000A6FC82466D1C06988542DBDB94E067B302
:10125000B8F1FD0F2ADB002522E0002411E00AEBA3
:101260004400008800909DF80100395D4843001259
:101270008DF8010009EB440101AA00981DF0BCF8AB
:10128000641C5C45EBDB484605990EF080FC81460A
:10129000504604990EF07BFC8246039807446D1C6F
:1012A00006988542D9DB67E030E0FFE7002F63D086
:1012B000B8F1FD0F60DA002524E0002413E00AEB0A
:1012C0004400008800909DF80100395D484300FB10
:1012D00008F000148DF8010009EB440101AA009800
:1012E0001DF08AF8641C5C45E9DB484605990EF060
:1012F0004EFC8146504604990EF049FC8246039804
:1013000007446D1C06988542D7DB35E0002530E0A8
:1013100000241EE00AEB4400008800903FB99DF8CD
:10132000010000FB08F000128DF8010008E09DF8B4
:101330000100395D484300FB08F000148DF80100FE
:1013400096F8222009EB440001AB009906F012FE4A
:10135000641C5C45DEDB0FB10398074448460599E1
:101360000EF015FC8146504604990EF010FC8246A2
:101370006D1C06988542CBDB07B0BDE8F08F2DE9E8
:10138000F04F8BB0074678680A90B868099097F8D4
:1013900021A0D7F800B0F8680890BE69F8690790F6
:1013A000D7F810807869069097F8220000287ED13F
:1013B000B8F1000F26D1BAF1FD0F23DB00251DE0A7
:1013C0004FF0000900240BE006EB44035A780BEBC6
:1013D000890116F814001DF0B4FB09F10109641C21
:1013E0000A988442F0DB584608990EF0D3FB8346F6
:1013F000304607990EF0CEFB06466D1C09988542D3
:10140000DEDBE0E0B8F1000F29D1BAF1FD0F26DAFA
:10141000002520E04FF0000900240EE006EB440315
:101420005B7803FB0AF31A120BEB890116F8140020
:101430001DF087FB09F10109641C0A988442EDDB69
:10144000584608990EF0A6FB8346304607990EF0E1
:10145000A1FB06466D1C09988542DBDBB3E0B8F1C1
:10146000000F2FD0BAF1FD0F2CDB002526E04FF046
:101470000009002410E006EB44035B7818F804C070
:1014800003FB0CF31A120BEB890116F814001DF084
:1014900058FB09F10109641C0A988442EBDB5846A9
:1014A00008990EF077FB83463046079900E03CE050
:1014B0000EF070FB0646069880446D1C0998854224
:1014C000D5DB80E0B8F1000F7DD0BAF1FD0F7ADAFC
:1014D000002526E04FF00009002412E006EB44034B
:1014E0005B7818F804C003FB0CF303FB0AF31A142F
:1014F0000BEB890116F814001DF023FB09F101091B
:10150000641C0A988442E9DB584608990EF042FBB5
:101510008346304607990EF03DFB06460698804408
:101520006D1C09988542D5DB4DE001A81DF03AFD00
:10153000002544E04FF0000900242DE016F81400C7
:101540008DF8160016F814008DF8150016F8140022
:101550008DF81400B8F1000F08D106EB4400407874
:1015600000FB0AF000128DF817000AE006EB4400B9
:10157000407818F80910484300FB0AF000148DF871
:10158000170097F822200BEB890001AB059906F0B4
:1015900081FD09F10109641C0A988442CEDBB8F18F
:1015A000000F01D006988044584608990EF0F2FAD0
:1015B0008346304607990EF0EDFA06466D1C0998F1
:1015C0008542B7DB00BF0BB0BDE8F08F2DE9F04FCF
:1015D00087B08046D8F804000690D8F80800059037
:1015E00098F821B0D8F800000490D8F80C000390C7
:1015F000D8F81870D8F81C000290D8F810A0D8F8C5
:1016000014000190D8F82400C11700EB5171C910E3
:10161000A0EBC10998F8220000287DD1BAF1000F93
:101620003BD1BBF1FD0F38DB002632E00025002462
:1016300021E005EB090104980FF0B0FCC0EB00209D
:10164000C0B2009007EB44014A7817F814006946CD
:101650001DF09CFA9DF800007F2805DD05EB0901CF
:10166000049848F037FC04E005EB0901049809F000
:10167000D1FE6D1C641C06988442DADBDDE90310A0
:101680000EF08EFA0490384602990EF089FA074659
:10169000761C05988642C9DB18E1BAF1000F40D1EB
:1016A000BBF1FD0F3DDA002635E00025002424E0E3
:1016B00005EB090104980FF071FCC0EB0020C0B2EB
:1016C000009007EB4401497801FB0BF10A1217F86F
:1016D000140069461DF05AFA9DF800007F2805DDC8
:1016E00005EB0901049848F0F5FB04E005EB09015E
:1016F000049809F08FFE6D1C641C06988442D7DBA9
:10170000DDE903100EF04CFA0490384602990EF011
:1017100047FA0746761C00E08FE005988642C4DB56
:10172000D4E0BAF1000F41D0BBF1FD0F3EDB002643
:1017300038E00025002425E005EB090104980FF0AE
:101740002DFCC0EB0020C0B2009007EB44014978AB
:101750001AF8043059430A1217F8140069461DF0AC
:1017600015FA9DF800007F2805DD05EB09010498B6
:1017700048F0B0FB04E005EB0901049809F04AFECB
:101780006D1C641C06988442D6DBDDE903100EF064
:1017900007FA0490384602990EF002FA07460198BB
:1017A0008244761C05988642C3DB8FE0BAF1000FB5
:1017B000B6D0BBF1FD0FB3DA00263AE000250024D5
:1017C00027E005EB090104980FF0E8FBC0EB0020CF
:1017D000C0B2009007EB440149781AF8043059432D
:1017E00001FB0BF10A1417F8140069461DF0CEF93D
:1017F0009DF800007F2805DD05EB0901049848F0FD
:1018000069FB04E005EB0901049809F003FE6D1C77
:10181000641C06988442D4DBDDE903100EF0C0F9A5
:101820000490384602990EF0BBF9074601988244AD
:10183000761C05988642C1DB48E0002642E0002580
:1018400000242CE017F814008DF8020017F814009B
:101850008DF8010017F814008DF80000BAF1000FA0
:1018600008D107EB4400407800FB0BF000128DF824
:1018700003000AE007EB440040781AF804104843DC
:1018800000FB0BF000148DF8030098F8223005EBF4
:101890000901009A049806F001FD6D1C641C06986D
:1018A0008442CFDBBAF1000F01D001988244DDE918
:1018B00003100EF075F90490384602990EF070F995
:1018C0000746761C05988642B9DB00BF07B0BDE825
:1018D000F08F2DE9F04F87B0064670680690B0682B
:1018E000059096F821A0D6F800B0F0680490B7698A
:1018F000F0690390D6F810807069029096F8220083
:1019000000287ED1B8F1000F26D1BAF1FD0F23DBFC
:1019100000251DE04FF0000900240BE007EB440315
:101920005A780BEB090117F814001DF042F909F180
:101930000109641C06988442F0DB584604990EF0B5
:1019400032F98346384603990EF02DF907466D1C8F
:1019500005988542DEDBD2E0B8F1000F29D1BAF15B
:10196000FD0F26DA002520E04FF0000900240EE0EC
:1019700007EB44035B7803FB0AF31A120BEB090134
:1019800017F814001DF015F909F10109641C0698F7
:101990008442EDDB584604990EF005F9834638463B
:1019A00003990EF000F907466D1C05988542DBDBB4
:1019B000A5E0B8F1000F2FD0BAF1FD0F2CDB002508
:1019C00026E04FF00009002410E007EB44035B78A9
:1019D00018F804C003FB0CF31A120BEB090117F8FB
:1019E00014001DF0E6F809F10109641C0698844210
:1019F000EBDB584604990EF0D6F883463846039937
:101A000000E03CE00EF0CFF80746029880446D1CE1
:101A100005988542D5DB72E0B8F1000F6FD0BAF1BE
:101A2000FD0F6CDA002526E04FF00009002412E0DB
:101A300007EB44035B7818F804C003FB0CF303FBCB
:101A40000AF31A140BEB090117F814001DF0B1F892
:101A500009F10109641C06988442E9DB584604999F
:101A60000EF0A1F88346384603990EF09CF807461D
:101A7000029880446D1C05988542D5DB3FE0002527
:101A800039E04FF00009002422E017F814008DF827
:101A9000060017F814008DF8050017F814008DF8EB
:101AA0000400B8F1000F02D18DF807A006E018F885
:101AB000090000FB0AF000128DF8070096F82220BA
:101AC0000BEB0900019906F07FFC09F10109641C88
