:020000040800F2
:10000000480D002045010008593400082F2A000837
:100010005534000839060008253A000800000000A1
:100020000000000000000000000000001D36000875
:100030003D060008000000005D3400081F3600087F
:100040005F0100085F0100085F0100085F01000810
:100050005F0100085F0100085F0100085F01000800
:100060005F0100083F0600085F0100085F0100080B
:100070005F0100085F0100085F0100085F010008E0
:100080005F0100085F0100085F0100085F010008D0
:100090005F0100085F0100085F0100085F010008C0
:1000A0005F0100085F0100085F0100085F010008B0
:1000B0005F0100085F0100085F0100085F010008A0
:1000C0005F0100085F0100085F0100085F01000890
:1000D0005F010008153A00085F0100085F01000891
:1000E0005F0100085F0100085F0100085F01000870
:1000F0005F0100085F0100085F0100085F01000860
:100100005F0100085F0100085F0100085F0100084F
:100110005F0100085F0100085F0100085F0100083F
:100120005F0100085F0100085F0100085F0100082F
:10013000DFF80CD000F06CF8004800475D3F000885
:10014000480D00200648804706480047FEE7FEE7C6
:10015000FEE7FEE7FEE7FEE7FEE7FEE7FEE7FEE777
:100160008D36000831010008202A04DB203A21FAEC
:1001700002F00021704721FA02F3D040C2F12002C0
:100180009140084319467047D2B201E000F8012BB4
:10019000491EFBD270470022F6E710B513460A4607
:1001A00004461946FFF7F0FF204610BD2DE9F05F29
:1001B0000546002092469B468846064681464024D6
:1001C0001BE02846414647462246FFF7CDFF5346EF
:1001D0005A46C01A914110D311461846224600F0E3
:1001E00029F82D1A67EB01084F462246012000210D
:1001F00000F020F817EB00094E41201EA4F1010485
:10020000DFDC484631462A464346BDE8F09F000001
:10021000064C074D06E0E06840F0010394E8070053
:1002200098471034AC42F6D3FFF786FFB43F00087E
:10023000D43F0008202A04DB203A00FA02F1002013
:1002400070479140C2F1200320FA03F31943904014
:10025000704710B540F6B83000F0ACFB10BD0000A0
:100260007CB508203F4900231A46CDE90010194605
:10027000184602F087FF3B4800783A49497840EA3F
:1002800001203849897840EA01403649C97840EA76
:10029000016035490860334800793249497940EABC
:1002A00001203049897940EA01402E49C97940EA64
:1002B00001602E4908602C480068B0F5805F03D2C9
:1002C0002BA003F0B1FB7CBD28480068B0F5FA7F95
:1002D00004D326480068B0F5F02F03D92AA003F014
:1002E000A3FBF0E708221F491F48006802F079FFCE
:1002F0001C4800781B49497840EA0120194989784F
:1003000040EA01401749C97840EA0165154800797B
:100310001449497940EA01201249897940EA0140AB
:100320001049C97940EA0164280C0004B0F1005F6B
:1003300007D0294618A003F077FB1EA003F074FB3A
:10034000C1E72148844202D32048844207D921468C
:100350001FA003F069FB24A003F066FBB3E700BF16
:10036000B1E7000038010020140000201800002030
:1003700061707020737461727420616464722065AE
:1003800072726F720A0000006170702073697A6582
:10039000206572726F720A006170705F73746163BE
:1003A0006B5F707472203D203078253038580D0A0C
:1003B00000000000737461636B20616464722065E7
:1003C00072726F720A00000000C000080000080886
:1003D0006170705F72657365745F68616E646C658F
:1003E0003A25780A00000000726573657420686120
:1003F0006E646C65206572726F720A0038B516A063
:1004000003F012FB19A003F00FFB03226946102032
:1004100002F020FE9DF802009DF8011040EA012440
:1004200045F66B20844211D002208DF80000002098
:100430008DF801006B208DF8020003226946102020
:1004400002F02EFE0A2000F0B5FA03E09DF800004D
:100450000A49087038BD0000626F6F746C6F616488
:1004600065722073746172740D0A000063686563BD
:100470006B207570646174650D0A00001000002027
:1004800010B506480078032803D1054802F098FD0E
:1004900002E0044802F094FD10BD000010000020AE
:1004A0000080000800C0000810B50F48007801283F
:1004B00009D10221102002F0DFFD0CA003F0B4FAF4
:1004C00000F024F80EE008480078022803D10AA0C2
:1004D00003F0AAFA06E004480078032802D109A034
:1004E00003F0A2FA10BD00001000002075706461D6
:1004F00074650D0A000000006E6F207570646174F1
:10050000650D0A0072657365740D0A002DE9F041EE
:10051000FFF7A6FE00F01CFB31490968012202EB3F
:10052000D121C8B200F074F82D480468002726E0F5
:100530002B480068061B2B49096888194FF4006294
:10054000294902F04EFEA4F50064002514E0681C61
:10055000B0F5006F0ED22448415D0246681C105C65
:1005600041EA00272148304441193A46002301203E
:1005700000F096FAA81C85B2B5F5006FE7D3B4F584
:10058000006FD5D20CB316480068061BA2B21549FD
:1005900009688819144902F024FE002513E0681C3C
:1005A000A0420ED21048415D0246681C105C41EA30
:1005B00000270E48304441193A460023012000F03C
:1005C0006FFAA81C85B2A542E9D322460448016807
:1005D00007A003F029FA00F059FABDE8F081000005
:1005E00018000020140000204101002000C0000875
:1005F00077726974652061707020666C6173682021
:10060000737563636573733A25642C25640A00006F
:1006100010B586B0044600200290012003900548E2
:10062000049005940020019001A902A800F0D6F9D9
:1006300006B010BD00C0000800BFFEE7704710B54F
:10064000082000F0A5FA10BD72B600BFFEE700005A
:100650000021074AD1610749096941F00401054AAF
:1006600011611146096941F04001116170470000B4
:1006700018010020002002400021074AD1610749EB
:10068000096941F00201054A116111464861096991
:1006900041F0400111617047180100200020024024
:1006A0000022054BDA61054A126942F00102034B50
:1006B0001A610180704700001801002000200240EC
:1006C00000201E49C96801F0100139B11C49C969EF
:1006D00041F002011A4AD16140F010001749C9687F
:1006E00001F0040139B11649C96941F00101144A08
:1006F000D16140F004001149C96901F0010169B1FB
:100700000F49C96941F004010D4AD16100BF0B498D
:10071000C96921F00101094AD16100BF00BF40F25F
:100720000111884206D10549C96921F00101034A36
:10073000D16101E00149C86000BF7047002002405C
:100740001801002070B5044600F0D6FB054609E00C
:10075000601C38B124B100F0CFFB401BA04201D98E
:10076000032070BD1248C06800F001000028EFD1DE
:100770000F48C06800F0200020B100BF20200C49C5
:10078000C86000BF0A48C06800F0100048B90848B7
:10079000C06900F0010020B90548C06800F00400FD
:1007A00018B1FFF78DFF0120DBE70020D9E700003B
:1007B000002002400146002291F82100022808D0C2
:1007C0000420886300BF002081F8200000BF0120C2
:1007D00070470868006820F00E000B681860086811
:1007E000006820F001000B68186091F8403001208B
:1007F0009840CB6B5860012081F8210000BF002099
:1008000081F8200000BF1046E2E7000070B5044602
:10081000002594F82100022803D00420A0630125BC
:10082000C1E02068006820F00E00216808602068A0
:10083000006820F00100216808605C492068884257
:1008400052D95A4978392068884201D1012047E0BD
:10085000564964392068884201D1102040E053494C
:1008600050392068884201D1801539E04F493C3920
:100870002068884201D1801432E04C492839206830
:10088000884202D14FF480302AE048491439206868
:10089000884202D14FF4801022E044492068884207
:1008A00001D140041CE042492068884201D1012066
:1008B00016E03F4914312068884201D110200FE032
:1008C0003B4928312068884201D1801508E0384929
:1008D0003C312068884201D1801401E04FF480301F
:1008E0003349091F086051E030497839206888424F
:1008F00001D1012047E02D4964392068884201D1A7
:10090000102040E0294950392068884201D18015E3
:1009100039E026493C392068884201D1801432E010
:10092000224928392068884202D14FF480302AE0D9
:100930001E4914392068884202D14FF4801022E009
:100940001A492068884201D140041CE018492068F7
:10095000884201D1012016E01549143120688842EF
:1009600001D110200FE0124928312068884201D1BE
:10097000801508E00E493C312068884201D180147E
:1009800001E04FF48030094980394860012084F843
:10099000210000BF002084F8200000BF606B10B170
:1009A0002046616B8847284670BD000080000240E9
:1009B0000804024070B5044600F09EFA064625463B
:1009C000681C10B104480078054400BF00F094FA98
:1009D000801BA842FAD370BD080000202DE9F04129
:1009E00004460E460127002500BF2648007E012848
:1009F00002D10220BDE8F08101202249087600BF23
:100A00002068022813D14CF25030FFF79BFE90BBB8
:100A10000120FFF71DFE4CF25030FFF793FE074612
:100A20001948006920F004001749086123E04CF2DE
:100A30005030FFF787FEF0B94FF0FF303060A56807
:100A400012E02846FFF718FE4CF25030FFF77AFE0E
:100A500007460D48006920F002000B4908610FB1FC
:100A6000356007E005F50065D4E9021001EBC02010
:100A7000A842E6D800BF00BF00200249087600BFA8
:100A80003846B7E7180100200020024003480069FB
:100A900040F08000014908610020704700200240BA
:100AA0002DE9FE4F05468B46174698460126002441
:100AB0000020029000BF2448007E012802D10220BD
:100AC000BDE8FE8F01202049087600BF4CF250306F
:100AD000FFF738FE064686BB012D02D101200290A9
:100AE00006E0022D02D10220029001E004200290D3
:100AF00000241EE02201B946C24648465146FFF78F
:100B000033FB80B20190022000FB04B000900199F9
:100B1000FFF7C6FD4CF25030FFF714FE06460B48B7
:100B2000006920F001000949086106B104E0601C79
:100B3000C4B202988442DDDB00BF00BF002002493E
:100B4000087600BF3046BBE71801002000200240B5
:100B500000200849096901F0800151B10649054AA0
:100B60005160064951601146096901F0800101B1E7
:100B7000012070470020024023016745AB89EFCD7B
:100B8000082802D10321014A11707047100000208B
:100B900010B5044604480068204020B102480460B3
:100BA0002046FFF7EDFF10BD140401402DE9F84782
:100BB000024600239C467BE14FF0010808FA03F44B
:100BC000D1F8008008EA0400A0427DD1DFF8F4A249
:100BD000D1F80480A8EB0A09D0453AD014DCB8F16A
:100BE000030F50D009DCB8F1000F31D0B8F1010F7C
:100BF0001CD0B8F1020F49D120E0B8F1110F18D084
:100C0000B8F1120F42D11EE0B9F5881F25D006DCDD
:100C1000B9F5803F20D0B9F5801F37D11AE0B9F57A
:100C2000001F18D0B9F5041F30D117E0D1F80CC05F
:100C30002DE0D1F80C8008F1040C28E0D1F80C80EC
:100C400008F1080C23E0D1F80C8008F10C0C1EE030
:100C500000BF00BF00BF00BF00BF00BFD1F80880C9
:100C6000B8F1000F02D14FF0040C0BE0D1F808806E
:100C7000B8F1010F03D14FF0080C146102E04FF0FE
:100C8000080C546103E04FF0000C00E000BF00BF0F
:100C9000FF2801D8904601E002F104084646FF28EB
:100CA00002D84FEA830803E0A3F108084FEA880856
:100CB0004746D6F800804FF00F0909FA07F928EAED
:100CC00009080CFA07F900E07AE048EA0908C6F8D2
:100CD0000080D1F8048008F08058B8F1805F6FD1AF
:100CE00000BFDFF8E481D8F8188048F00108DFF889
:100CF000D891C9F81880C846D8F8188008F00108BB
:100D0000CDF8008000BF00BF4FEAB9384FEA930921
:100D100058F829504FEA83784FEA18794FF00F08B6
:100D200008FA09F825EA0805DFF8A081424502D152
:100D30004FF0000824E0DFF89881424502D14FF0DF
:100D400001081DE0DFF88C81424502D14FF0020816
:100D500016E0DFF88481424502D14FF003080FE02E
:100D6000DFF87881424502D14FF0040808E0DFF84F
:100D70007081424502D14FF0050801E04FF00608AE
:100D80004FEA83794FEA197908FA09F848EA050524
:100D9000DFF850814FEA930948F82950D1F80480D0
:100DA00008F48018B8F5801F0BD1DFF83C81D8F823
:100DB000008048EA0008DFF83091C9F800800AE0B6
:100DC00075E0DFF82481D8F8008028EA0008DFF811
:100DD0001891C9F80080D1F8048008F40018B8F51B
:100DE000001F0ED1DFF8008108F10408D8F8008058
:100DF00048EA0008DFF8F09009F10409C9F800801A
:100E00000DE0DFF8E48008F10408D8F8008028EA53
:100E10000008DFF8D49009F10409C9F80080D1F87E
:100E2000048008F40038B8F5003F0ED1DFF8B88030
:100E3000A8F10408D8F8008048EA0008DFF8A89074
:100E4000A9F10409C9F800800DE0DFF89C80A8F141
:100E50000408D8F8008028EA0008DFF88C90A9F18F
:100E60000409C9F80080D1F8048008F48038B8F586
:100E7000803F0ED1DFF87080A8F10808D8F8008014
:100E800048EA0008DFF86090A9F10809C9F8008075
:100E90000DE0DFF85480A8F10808D8F8008028EAAF
:100EA0000008DFF84490A9F10809C9F800805B1C2C
:100EB000D1F8008028FA03F8B8F1000F7FF47CAE77
:100EC000BDE8F88700001110001002400008014042
:100ED000000C0140001001400014014000180140C6
:100EE000001C014008000140080401400AB10161F2
:100EF00001E00B040361704701480068704700007F
:100F00000000002070B504460CB9012070BD94F8B3
:100F10003D0028B9002084F83C00204600F046FB44
:100F2000242084F83D002068006820F0010021683A
:100F300008602068006840F400402168086020686C
:100F4000006820F400402168086000F007FD0546B5
:100F50005C496068884206D85B48854201D201201E
:100F600007E0002005E05948854201D2012000E059
:100F70000020012800D1C9E75548B5FBF0F62068EC
:100F8000406820F03F003043216848604D49606868
:100F9000884201D8701C07E04FF4967070434FF4FC
:100FA0007A71B0FBF1F0401C2168096A21F03F0121
:100FB00008432168086243496068884214D8681E63
:100FC00061684900B0FBF1F0401CC0F30B0004283D
:100FD00001D204203DE0681E61684900B0FBF1F0D9
:100FE000401CC0F30B0034E0A06838B9681E61688B
:100FF00001EB4101B0FBF1F0401C0AE0681E6168A2
:1010000001EBC10202EB0111B0FBF1F0401C40F416
:101010008040C0F30B0008B901201AE0A06848B96D
:10102000681E616801EB4101B0FBF1F0401CC0F3A8
:101030000B000CE0681E616801EBC10202EB0111BC
:10104000B0FBF1F0401CC0F30B0040F4804040F4D2
:1010500000402168C9694CF6FF729143084321683A
:10106000C861D4E9070108432168096821F0C0017B
:10107000084321680860D4E903100843216889689F
:1010800048F2FF329143084321688860D4E90501A2
:1010900008432168C96821F0FF0108432168C8603E
:1010A0002068006840F0010021680860002020648A
:1010B000202084F83D000020206384F83E0000BF1B
:1010C00024E70000A086010080841E0000093D0086
:1010D00040420F002DE9FE4F04460F4690469946C8
:1010E000DDE90CAB0E9E00200290FFF705FF0546E0
:1010F00094F83D00202872D119230122CE492046C0
:10110000009501F008FE10B10220BDE8FE8F00BF7F
:1011100094F83C00012801D10220F6E7012084F870
:101120003C0000BF2068006800F0010028B920687A
:10113000006840F00100216808602068006820F421
:10114000006021680860222084F83D00402084F877
:101150003E0000202064C4F824A0A4F82AB0608DCA
:101160002085B648E0624B46424639462046CDE9E6
:10117000006501F07DFC08B10120C6E7208D88B92B
:1011800000BF0020019020684069019020688069BC
:10119000019000BF00BF2068006840F40070216823
:1011A00008604BE0208D01281AD12068006820F4E7
:1011B00080602168086072B600BF0020019020683E
:1011C0004069019020688069019000BF00BF2068DD
:1011D000006840F400702168086062B62EE029E1E2
:1011E000208D022819D12068006840F40060216831
:1011F000086072B600BF002001902068406901902D
:1012000020688069019000BF00BF2068006820F45A
:1012100080602168086062B610E02068006840F4D1
:1012200080602168086000BF00200190206840694C
:10123000019020688069019000BF00BFEBE0208D25
:1012400003287DD8208D012815D12A463146204615
:1012500001F03DFE08B1012057E720680069616A8E
:101260000870606A401C6062208D401E2085608D81
:10127000401E6085CFE0208D02282CD1334600220D
:101280006F492046009501F046FD08B101203CE77A
:1012900072B62068006840F4007021680860206819
:1012A0000069616A0870606A401C6062208D401E9F
:1012B0002085608D401E608562B620680069616A85
:1012C0000870606A401C6062208D401E2085608D21
:1012D000401E60859FE03346002259492046009514
:1012E00001F019FD08B101200FE72068006820F423
:1012F00080602168086072B620680069616A0870C1
:10130000606A401C6062208D401E2085608D401EFA
:1013100060854C4800681921B0FBF1F04FF47A71F8
:10132000B0FBF1F0C0EBC00000EB8000029000BF0A
:101330000298401E02900298A8B90020206300E0A5
:1013400039E0202084F83D00002084F83E00206C25
:1013500040F02000206462B600BF002084F83C000A
:1013600000BF0120D1E620684069C0F3800000285A
:10137000DED02068006840F40070216808602068B2
:101380000069616A0870606A401C6062208D401EBE
:101390002085608D401E608562B620680069616AA4
:1013A0000870606A401C6062208D401E2085608D40
:1013B000401E60852FE02A463146204601F087FD19
:1013C00008B10120A1E620680069616A0870606ABE
:1013D000401C6062208D401E2085608D401E60850F
:1013E00020684069C0F38000A8B1208D032805D192
:1013F0002068006820F48060216808602068006927
:10140000616A0870606A401C6062208D401E208501
:10141000608D401E6085208D00287FF410AF202055
:1014200084F83D00002084F83E0000BF84F83C00B2
:1014300000BF6AE6022068E6020010000000FFFF1D
:10144000040001000C0000202DE9FC5F04460F465B
:1014500090469946DDE90CAB0E9EFFF74DFD054623
:1014600094F83D0020287DD1192301224D492046C2
:10147000009501F050FC10B10220BDE8FC9F00BFB8
:1014800094F83C00012801D10220F6E7012084F8FD
:101490003C0000BF2068006800F0010028B9206807
:1014A000006840F00100216808602068006820F4AE
:1014B000006021680860212084F83D00402084F805
:1014C0003E0000202064C4F824A0A4F82AB0608D57
:1014D00020853548E0624B46424639462046CDE9F4
:1014E000006501F075FB08B10120C6E731E02A462E
:1014F0003146204601F030FD50B1206C042805D162
:101500002068006840F40070216808600120B4E79A
:10151000606A007821680861606A401C6062208D02
:10152000401E2085608D401E608520684069C0F3A4
:10153000800070B1208D60B1606A00782168086118
:10154000606A401C6062208D401E2085608D401EB8
:101550006085208D0028CAD12A463146204601F0F8
:10156000A7FB00E01CE050B1206C042805D12068E6
:10157000006840F400702168086001207DE7206861
:10158000006840F4007021680860202084F83D0065
:10159000002084F83E0000BF84F83C0000BF6CE7E8
:1015A00002206AE7020010000000FFFF10B586B0BD
:1015B000044600200290039004900590154920688D
:1015C000884225D100BF1448806940F008001249C4
:1015D00088610846806900F00800019000BF00BFE4
:1015E000C0200290122003900320059002A90B480E
:1015F000FFF7DCFA00BF0848C06940F40010064954
:10160000C8610846C06900F40010019000BF00BF27
:1016100006B010BD0054004000100240000C014014
:101620000348006803490978084401490860704785
:10163000000000200800002010B50848006840F0B5
:10164000100006490860032000F0A8F80F2000F001
:1016500007F800F02BF8002010BD00000020024029
:1016600070B504460E4800784FF47A71B1FBF0F083
:101670000C490968B1FBF0F5284600F061FF08B19C
:10168000012070BD102C07D200222146501E00F010
:1016900047F80548046001E00120F2E70020F0E788
:1016A000080000200C0000200400002008B500BF46
:1016B0001148806940F001000F498861084680693F
:1016C00000F00100009000BF00BF00BF0846C069E5
:1016D00040F08050C8610846C06900F0805000901A
:1016E00000BF00BF00BF0549486820F0E06040F03F
:1016F0000070486000BF08BD0010024000000140BB
:1017000001460846002809DB00F01F0301229A4029
:1017100043099B0003F1E023C3F8002100BF704799
:101720002DE9F05F80460D461646002702F0AAF923
:10173000074639462A46334601F00700C0F1070A3A
:10174000BAF1040F02D94FF0040A01E0C0F1070A10
:10175000D14600F1040ABAF1070F02D24FF0000A95
:1017600001E0A0F1030AD4464FF0010A0AFA09FA8F
:10177000AAF1010A0AEA020A0AFA0CFA4FF0010B6E
:101780000BFA0CFBABF1010B0BEA030B4AEA0B045F
:101790002146404602F07EF9BDE8F09F00BF00F010
:1017A0000702064B19684FF6FF031940044B0B4321
:1017B00043EA0221014B196000BF70470CED00E0C5
:1017C0000000FA0570B504460D460CB9012070BD45
:1017D0005A48006800F00700A8420ED25748006837
:1017E00020F007002843554908600846006800F0CB
:1017F0000700A84201D00120E9E7207800F00200AC
:1018000002281DD1207800F00400042805D14C489E
:10181000406840F4E0604A494860207800F00800E1
:10182000082805D14648406840F460504449486063
:101830004348406820F0F000A168084340494860F0
:10184000207800F0010078B36068012806D13C4898
:10185000006800F4003090B90120B8E76068022801
:1018600006D13748006800F0007040B90120AEE7AB
:101870003348006800F0020008B90120A7E73048AB
:10188000406820F00300616808432D494860FFF775
:1018900033FB064609E0FFF72FFB801B41F288313E
:1018A000884202D9032092E707E02548406800F00B
:1018B0000C006168B0EB810FEDD12048006800F0AA
:1018C0000700A8420ED91D48006820F007002843F1
:1018D0001A4908600846006800F00700A84201D0D5
:1018E000012074E7207800F00400042807D1144890
:1018F000406820F4E060E1680843114948602078BE
:1019000000F00800082808D10D48406820F4605015
:10191000216940EAC1000A49486000F03FF80849DF
:101920004968C1F30311074A515CC8400649086081
:1019300006480068FFF794FE002048E700200240B8
:10194000001002409A3F00080C0000200400002014
:1019500001480068704700000C00002000B5FFF748
:10196000F7FF04494968C1F30221034A515CC840AA
:1019700000BD000000100240AA3F000800B5FFF7BC
:10198000E7FF04494968C1F3C221034A515CC840DA
:1019900000BD000000100240AA3F000870B5002101
:1019A0000022002400230020134D696801F00C057B
:1019B000F5B1042D02D0082D19D101E00F4819E02E
:1019C0000F4DC1F38346AB5D01F4803555B10A4D2F
:1019D0006D68C5F340450B4E725D084D5D43B5FB28
:1019E000F2F402E0084D03FB05F4204602E000BFDC
:1019F000024800BF00BF70BD0010024000127A0014
:101A0000883F0008983F000800093D00F8B50446EB
:101A10000CB90120F8BD207800F00100002878D032
:101A2000F848406800F00C0004280CD0F5484068E5
:101A300000F00C00082811D1F248406800F4803012
:101A4000B0F5803F0AD1EF48006800F4003000286C
:101A50005FD0606800285CD10120DBE700BF6068D0
:101A6000B0F5803F06D1E748006840F48030E54992
:101A7000086028E0606858B9E248006820F48030C7
:101A8000E04908600846006820F4802008601AE0F9
:101A90006068B0F5A02F0BD1DA48006840F48020D0
:101AA000D84908600846006840F4803008600AE0C1
:101AB000D448006820F48030D249086008460068A5
:101AC00020F48020086000BF606888B1FFF714FA36
:101AD000054606E0FFF710FA401B642801D90320F1
:101AE00098E7C848006800F400300028F2D010E001
:101AF000FFF702FA054606E0FFF7FEF9401B6428EF
:101B000001D9032086E7BF48006800F400300028B0
:101B1000F2D1207800F00200022857D1B94840687D
:101B200000F00C0050B1B748406800F00C000828E5
:101B300018D1B448406800F4803098B9B1480068C2
:101B400000F0020020B12069012801D0012061E7E6
:101B5000AC48006820F0F800616940EAC100A9497A
:101B6000086033E02069E8B10120A7490860FFF769
:101B7000C3F9054606E0FFF7BFF9401B022801D96B
:101B8000032047E79F48006800F002000028F2D0D9
:101B90009C48006820F0F800616940EAC10099495A
:101BA000086013E0002098490860FFF7A5F9054692
:101BB00006E0FFF7A1F9401B022801D9032029E71D
:101BC0009048006800F002000028F2D1207800F070
:101BD000080008282DD1A069B8B101208B49086000
:101BE000FFF78AF9054606E0FFF786F9401B022851
:101BF00001D903200EE78348406A00F00200002864
:101C0000F2D0012001F02CFC13E000207F49086095
:101C1000FFF772F9054606E0FFF76EF9401B022850
:101C200001D90320F6E67748406A00F00200002858
:101C3000F2D1207800F00400042873D10027714805
:101C4000C06900F0805070B900BF6E48C06940F0B4
:101C500080506C49C8610846C06900F0805000900F
:101C600000BF00BF01276A48006800F48070B0B967
:101C70006748006840F4807065490860FFF73CF9E8
:101C8000054606E0FFF738F9401B642801D9032018
:101C9000C0E65F48006800F480700028F2D000BF02
:101CA000E068012806D15748006A40F00100554914
:101CB000086227E0E06858B95248006A20F0010045
:101CC000504908620846006A20F00400086219E0E2
:101CD000E06805280BD14B48006A40F004004949F0
:101CE00008620846006A40F0010008620AE04548C0
:101CF000006A20F00100434908620846006A20F0AB
:101D00000400086200BFE068A0B1FFF7F5F80546DF
:101D100009E0FFF7F1F8401B41F28831884202D90F
:101D2000032077E622E03748006A00F0020000282E
:101D3000EFD012E0FFF7E0F8054608E0FFF7DCF827
:101D4000401B41F28831884201D9032062E62D48C8
:101D5000006A00F002000028F0D1012F05D12948C7
:101D6000C06920F080502749C86100BFE069C8B34E
:101D70002448406800F00C00082860D0E069022880
:101D800048D1002020490866FFF7B6F8054606E06E
:101D9000FFF7B2F8401B022801D903203AE61948A0
:101DA000006800F000700028F2D1206AB0F5803F92
:101DB00007D11448406820F40030A1680843114955
:101DC0004860D4E9080108430E49496821F47411B8
:101DD00008430C49486001200B490866FFF78CF85E
:101DE000054607E03DE0FFF787F8401B022801D9D0
:101DF00003200FE60348006800F000700028F2D0CE
:101E00002FE00000001002400000424280044242E5
:101E100000700040002014490866FFF76DF8054681
:101E200006E0FFF769F8401B022801D90320F1E51D
:101E30000E48006800F000700028F2D111E0E0695F
:101E4000012800D1E6E50948466806F48031206A99
:101E5000814204D106F47011606A814201D00120F0
:101E6000D8E50020D6E50000000042420010024004
:101E700010B504460CB9012010BD606A38B960681D
:101E8000B0F5827F00D105E00021E16102E0002190
:101E9000216161610021A16294F8510028B90020FC
:101EA00084F85000204600F043F8022084F85100E6
:101EB0002068006820F0400021680860A08800F4D5
:101EC0008270218901F404410843A18901F4006171
:101ED0000843217C01F002010843217D01F001014A
:101EE0000843218B01F400710843217F01F0380180
:101EF00008432021095D01F080010843218D01F490
:101F000000510843216808600421A06901EA1040DB
:101F1000216848602068C06920F400602168C861B9
:101F200000206065012084F851000020A4E7000033
:101F300010B586B0044600200290039004900590EE
:101F40001A49206888422FD100BF1948C06940F45F
:101F500080401749C8610846C06900F4804001907C
:101F600000BF00BF00BF0846806940F008008861DC
:101F70000846806900F00800019000BF00BF4FF4E0
:101F800020400290022003900320059002A90948F6
:101F9000FEF70CFE4FF48040029000200390049066
:101FA00002A90448FEF702FE06B010BD003800404A
:101FB00000100240000C01402DE9F8430446884619
:101FC00016461D4694F85100012802D00220BDE8B3
:101FD000F8836068B0F5827F0CD1A06850B9042006
:101FE00084F851003346424641462046009500F0B1
:101FF00083F9ECE7FEF780FF0746B8F1000F00D049
:102000000EB90120E3E700BF94F85000012801D188
:102010000220DCE7012084F8500000BF042084F88F
:10202000510000206065C4F83880A687E6872063E9
:10203000A086E08620646064A068B0F5004F0BD1F4
:102040002068006820F0400021680860206800686F
:1020500020F48040216808602068006800F040009B
:10206000402805D02068006840F0400021680860E2
:10207000E06830BB21E02068806800F0010050B1CA
:102080002068007BA16B0870A06B401CA063E08FF0
:10209000401EE08711E0FEF72FFFC01BA84201D3CE
:1020A000681C00B94DB9012084F8510000BF002020
:1020B00084F8500000BF032089E7E08F0028DAD1C0
:1020C00025E021E02068806800F0010050B1206820
:1020D000C068A16B0880A06B801CA063E08F401ECD
:1020E000E08711E0FEF708FFC01BA84201D3681C7F
:1020F00000B94DB9012084F8510000BF002084F8D8
:10210000500000BF032062E7E08F0028DAD13A4692
:102110002946204601F0B8F908B120206065012069
:1021200084F8510000BF002084F8500000BF606DAB
:1021300008B101204BE7002049E72DE9F8430446A8
:102140000F4616461D46FEF7D7FE8046B14694F868
:102150005100012802D00220BDE8F88307B10EB972
:102160000120F9E700BF94F85000012801D10220B6
:10217000F2E7012084F8500000BF032084F85100EA
:10218000002060652763A686E686A063A087E087B7
:1021900060642064A068B0F5004F0BD1206800682F
:1021A00020F04000216808602068006840F480400A
:1021B000216808602068006800F04000402805D0D1
:1021C0002068006840F0400021680860E068B0F5D1
:1021D000006F37D1606810B1B9F1010F09D1206BE0
:1021E00000882168C860206B801C2063E08E401E40
:1021F000E08623E02068806800F0020002280AD10F
:10220000206B00882168C860206B801C2063E08EF2
:10221000401EE08612E0FEF76FFEA0EB0800A84229
:1022200001D3681C00B94DB9012084F8510000BFEA
:10223000002084F8500000BF03208DE7E08E0028C6
:10224000D8D136E0606810B1B9F1010F09D1206B27
:10225000007821680873206B401C2063E08E401ECC
:10226000E08623E02068806800F0020002280AD19E
:10227000206B007821680873206B401C2063E08E7F
:10228000401EE08612E0FEF737FEA0EB0800A842F1
:1022900001D3681C00B94DB9012084F8510000BF7A
:1022A000002084F8500000BF032055E7E08E00288E
:1022B000D8D142462946204601F022F908B1202013
:1022C0006065A06850B900BF002000902068C06819
:1022D000009020688068009000BF00BF012084F853
:1022E000510000BF002084F8500000BF606D08B1AD
:1022F000012031E700202FE72DE9FE4F04460F466D
:1023000090461D460C9E01200190FEF7F5FD81468A
:1023100094F851B060680290AA46BBF1010F0BD04F
:102320000298B0F5827F04D1A06810B9BBF1040F08
:1023300002D00220BDE8FE8F1FB1B8F1000F00D01F
:102340000DB90120F6E700BF94F85000012801D133
:102350000220EFE7012084F8500000BF94F85100FC
:10236000042802D0052084F8510000206065C4F8DC
:102370003880E587A5872763E586A58620646064A5
:102380002068006800F04000402805D02068006800
:1023900040F0400021680860E068B0F5006F52D15D
:1023A000606810B1BAF1010F09D1206B0088216873
:1023B000C860206B801C2063E08E401EE0863BE0FE
:1023C0002068806800F00200022810D1E08E70B111
:1023D000019801280BD1206B00882168C860206B10
:1023E000801C2063E08E401EE08600200190206863
:1023F000806800F0010068B1E08F58B12068C068C3
:10240000A16B0880A06B801CA063E08F401EE0875A
:1024100001200190FEF770FDA0EB0900B0420BD344
:10242000701C48B1012084F8510000BF002084F8DE
:10243000500000BF03207DE7E08E0028C0D1E08F70
:102440000028BDD152E0606810B1BAF1010F09D186
:10245000206B007821680873206B401C2063E08E9D
:10246000401EE0863CE02068806800F00200022800
:1024700010D1E08E70B1019801280BD1206B00784B
:1024800021680873206B401C2063E08E401EE086AC
:10249000002001902068806800F0010068B1E08FA2
:1024A00058B12068C068A16B0870A06B401CA06385
:1024B000E08F401EE08701200190FEF71DFDA0EB9C
:1024C0000900B04201D3701C00B94EB9012084F854
:1024D000510000BF002084F8500000BF032029E70E
:1024E000E08E0028BFD1E08F0028BCD14A4631469B
:1024F000204601F005F840B12020606500BF0020B3
:1025000084F8500000BF012014E7A06850B900BF54
:10251000002000902068C0680090206880680090CB
:1025200000BF00BF012084F8510000BF002084F8E4
:10253000500000BF606D08B10120FBE60020F9E605
:1025400070B504462546681EB0F1807F01D3012096
:102550000FE0681E4FF0E02148610F214FF0FF307F
:1025600001F098FA00204FF0E0218861072008610F
:10257000002070BD704770472DE9F84F0446206871
:1025800005682068C668206847694FF00009CA4698
:1025900005F00F09B9F1000F0AD105F0200038B19C
:1025A00006F0200020B1204601F0C1F8BDE8F88F08
:1025B000B9F1000F7BD007F0010018B906F4907054
:1025C000002874D005F0010030B106F4807018B115
:1025D000606C40F00100606405F0040030B107F069
:1025E000010018B1606C40F00200606405F0020068
:1025F00030B107F0010018B1606C40F00400606475
:1026000005F0080048B106F0200010B907F00100FD
:1026100018B1606C40F008006064606C002845D020
:1026200005F0200028B106F0200010B1204601F08E
:102630007EF820684069C0F3801A606C00F00800E2
:1026400010B9BAF1000F2CD0204601F02AF820680A
:10265000406900F0400000B300BF00BF21681431A2
:1026600051E8001F21F040002168143141E80002C8
:10267000002AF3D100BFE06B50B17748E16B4863AB
:10268000E06BFEF7C3F888B1E06B416B88470DE063
:102690002046FFF770FF09E009E02046FFF76BFFD7
:1026A00004E02046FFF767FF002060647EE7206BB0
:1026B000012877D105F01000002873D006F0100033
:1026C0000028FAD000BF0020009020680068009029
:1026D00020684068009000BF00BF2068406900F09B
:1026E000400000285FD0E06B006840681FFA80F867
:1026F000B8F1000F55D0A08D404552DDA4F82E80D2
:10270000E06B8069202843D000BF00BF21680C31F6
:1027100051E8001F21F4807021680C3141E800026B
:10272000002AF3D100BF00BF00BF2168143151E877
:10273000001F21F001002168143141E80002002A45
:10274000F3D100BF00BF00BF2168143151E8001F62
:1027500021F040002168143141E80002002AF3D141
:1027600000BF202084F842000020206300BF00BF8B
:1027700021680C3151E8001F21F0100021680C3154
:1027800041E80002002AF3D100BFE06BFEF712F827
:1027900002206063A08DE28D801A81B22046FFF78F
:1027A000E9FE03E742E0A08DE18D401A1FFA80F8B0
:1027B000E08DD0B3B8F1000F37D000BF00BF216863
:1027C0000C3151E8001F21F4907021680C3141E870
:1027D0000002002AF3D100BF00BF00BF21681431FE
:1027E00051E8001F21F001002168143141E8000286
:1027F000002AF3D100BF202084F84200002020638B
:1028000000BF00BF21680C3151E8001F21F010000B
:1028100021680C3141E80002002AF3D100BF0220F8
:10282000606341462046FFF7A5FEBFE605F0800045
:1028300030B106F0800018B1204601F075F8B5E619
:1028400005F0400030B106F0400018B1204600F01D
:102850005EFFABE600BFA9E68F36000810B5044660
:102860000CB9012010BDA06900B100E000BF94F8D0
:10287000410028B9002084F84000204600F02AF8E2
:10288000242084F841002068C06820F400502168AA
:10289000C860204600F0CAFF2068006920F490401C
:1028A000216808612068406920F02A002168486199
:1028B0002068C06840F400502168C860002060644F
:1028C000202084F8410084F842000020606300BFAB
:1028D000C8E7000010B586B00446002002900390BF
:1028E000049005901E492068884236D100BF1D48DB
:1028F000806940F480401B4988610846806900F483
:102900008040019000BF00BF00BF0846806940F0D2
:10291000040088610846806900F00400019000BF4F
:1029200000BF48150290022003900320059002A9E1
:102930000D48FEF73BF94FF48060029000200390B1
:10294000049002A90848FEF731F90022052125204C
:10295000FEF7E6FE2520FEF7D3FE06B010BD000010
:1029600000380140001002400008014070472DE986
:10297000F84F04460E46174699464FF0000A94F861
:102980004100202850D106B117B90120BDE8F88FC9
:1029900000206064212084F84100FEF7ADFA8246F1
:1029A000A784E784A068B0F5805F04D1206910B9DE
:1029B0000025B04602E035464FF000081EE05346C1
:1029C000002280212046CDF8009000F0DDFF20B1EC
:1029D000202084F841000320D8E745B9B8F800006A
:1029E000C0F308002168486008F1020803E0287875
:1029F000216848606D1CE08C401EE084E08C00285B
:102A0000DDD15346002240212046CDF8009000F051
:102A1000BBFF20B1202084F841000320B6E720202E
:102A200084F841000020B1E70220AFE7704700BF03
:102A3000FEE7014608684069C0F38020B0B16FF43A
:102A400080600A68506100200863202081F83D0002
:102A5000002081F83E00086C40F00400086400BFCC
:102A6000002081F83C0000BF012070470020FCE7F7
:102A70002DE9F84304460F4615469946DDE90886D8
:102A80002068006840F48060216808602068006861
:102A900040F4807021680860434600224FF0011125
:102AA0002046009600F037F960B12068006800F415
:102AB0008070B0F5807F02D14FF400702064032055
:102AC000BDE8F88307F0FE002168086133464246FE
:102AD0003E49204600F07EF908B10120F0E700BF32
:102AE0000020009020684069009020688069009074
:102AF00000BF00BF32464146204600F02DFA50B1DB
:102B0000206C042805D12068006840F4007021681A
:102B100008600120D4E7B9F1010F03D1E8B22168C0
:102B2000086117E0C5F30720216808613246414675
:102B3000204600F011FA50B1206C042805D120681D
:102B4000006840F40070216808600120B8E7E8B22E
:102B50002168086132464146204600F0FDF950B137
:102B6000206C042805D12068006840F400702168BA
:102B700008600120A4E72068006840F480702168A4
:102B80000860434600224FF001112046009600F0F5
:102B9000C2F858B12068006800F48070B0F5807FFA
:102BA00002D14FF400702064032089E7F8B240F0AE
:102BB000010021680861334642460449204600F07E
:102BC00009F908B101207BE7002079E70200010044
:102BD0002DE9F8430446884615469946DDE908671D
:102BE0002068006840F48070216808603346002245
:102BF0004FF001112046009700F08DF860B1206879
:102C0000006800F48070B0F5807F02D14FF400704E
:102C100020640320BDE8F88308F0FE002168086105
:102C20003B4632462149204600F0D4F808B1012045
:102C3000F0E700BF00200090206840690090206805
:102C40008069009000BF00BF3A463146204600F040
:102C500083F950B1206C042805D12068006840F445
:102C60000070216808600120D4E7B9F1010F03D199
:102C7000E8B22168086117E0C5F307202168086100
:102C80003A463146204600F067F950B1206C0428DE
:102C900005D12068006840F40070216808600120B8
:102CA000B8E7E8B2216808610020B3E7020001003C
:102CB00070B504460D46164625E02046FFF7B9FEDE
:102CC00008B1012070BD681CE8B1FEF715F9801B42
:102CD000A84200D8BDB920684069C0F3800090B90F
:102CE00000202063202084F83D00002084F83E006E
:102CF000206C40F02000206400BF002084F83C00DD
:102D000000BF0120DEE720684069C0F38000002892
:102D1000D3D00020D6E72DE9F04104460D461746F2
:102D20001E46DDF8188038E0701CA8B3FEF7E4F802
:102D3000A0EB0800B04200D876BBC5F307400128DD
:102D40000AD120684069A9B20840A9B2884201D1DD
:102D500001200BE0002009E020688069A9B208404A
:102D6000A9B2884201D1012000E00020B84214D16C
:102D700000202063202084F83D00002084F83E00DD
:102D8000206C40F02000206400BF002084F83C004C
:102D900000BF0120BDE8F081FFE7C5F3074001282F
:102DA0000AD120684069A9B20840A9B2884201D17D
:102DB00001200BE0002009E020688069A9B20840EA
:102DC000A9B2884201D1012000E00020B842ABD076
:102DD0000020DFE72DE9F04104460D4616461F4668
:102DE00058E020684069C0F38020E8B1206800689E
:102DF00040F40070216808606FF4806021684861C9
:102E000000202063202084F83D00002084F83E004C
:102E1000206C40F00400206400BF002084F83C00D7
:102E200000BF0120BDE8F081701C90B3FEF764F88C
:102E3000C01BB04200D866BBC5F3074001280AD1C9
:102E400020684069A9B20840A9B2884201D1012096
:102E50000BE0002009E020688069A9B20840A9B20F
:102E6000884201D1012000E0002090B900202063B9
:102E7000202084F83D00002084F83E00206C40F0C3
:102E80002000206400BF002084F83C0000BF012027
:102E9000C8E7FFE7C5F3074001280AD12068406969
:102EA000A9B20840A9B2884201D101200BE000205C
:102EB00009E020688069A9B20840A9B2884201D11E
:102EC000012000E0002000288BD00020AAE770B588
:102ED00004460D46164637E020684069C0F30010EE
:102EE000A0B16FF01000216848610020206320200D
:102EF00084F83D00002084F83E00206C206400BF70
:102F0000002084F83C0000BF012070BDFDF7F4FFF5
:102F1000801BA84200D8BDB920684069C0F380106A
:102F200090B900202063202084F83D00002084F820
:102F30003E00206C40F02000206400BF002084F898
:102F40003C0000BF0120E0E720684069C0F380102A
:102F50000028C1D00020D8E770B504460D461646BB
:102F600025E02046FFF765FD08B1012070BD681C13
:102F7000E8B1FDF7C1FF801BA84200D8BDB92068A9
:102F80004069C0F3C01090B900202063202084F86D
:102F90003D00002084F83E00206C40F020002064BA
:102FA00000BF002084F83C0000BF0120DEE720685D
:102FB0004069C0F3C0100028D3D00020D6E700003D
:102FC0002DE9F041044626686568300C0004B0F134
:102FD000005F05D013A000F027FD0120BDE8F081BF
:102FE000A54202D31448854204D914A000F01CFD68
:102FF0000120F3E7172000F027FD252000F024FD35
:1030000000204FF0E02108614861886172B600BF7E
:1030100086F3088800BF0E4804602F46B84700209A
:10302000DCE70000737461636B2061646472206587
:1030300072726F720A000000000008087265736502
:10304000742068616E646C65206572726F720A002C
:1030500008ED00E0FEB504460D4616464FF47A70C2
:1030600001232246A121CDE9005602900148FEF736
:1030700031F8FEBD2000002013B584B00446642062
:10308000012105AA0B46CDE9002102902246A0218C
:103090000248FEF7D9F906B010BD0000200000205C
:1030A0002DE9FE430446884615466019FF2804DDD5
:1030B00025A000F0B9FCBDE8FE832046E11704EB33
:1030C00011710911A4EB0111C1F11001CEB2B54289
:1030D0000BDC4FF47A7001232246A021CDE9008554
:1030E00002902148FEF7B0F92CE0A146002718E035
:1030F0004FF47A7108EB071001234A46CDE90161CC
:103100000090A0211848FEF79FF9781CC7B209EB80
:10311000060000F0FF09A81B85B210260A20FDF763
:1031200049FCB542E4DC65B14FF47A7108EB071055
:1031300001234A46CDE901510090A0210A48FEF73B
:1031400083F900BF00BFB6E7D0B4C8EBB5C4B5D8AB
:10315000D6B7D6B5B3ACB9FD454550524F4DB5C401
:10316000B5D8D6B7D6B50A002000002008B564232C
:10317000012269460248FEF71FFF9DF8000008BDC6
:10318000740000202DE9F05F06460F4690469946F0
:10319000DDE90AAB00F05EF800F048F8032000F02B
:1031A0006DF8300440EA073040EA082040EA09049C
:1031B000C4F3074000F062F8C4F3072000F05EF8A3
:1031C000E0B200F05BF8002505E0FFF7CFFF0AF85A
:1031D0000500681C85B25D45F7DB00F031F8BDE8FD
:1031E000F09F2DE9F04104460E46174600F032F8F4
:1031F00000F01CF8032000F041F8C4F3074000F091
:103200003DF8C4F3072000F039F8E0B200F036F8DA
:10321000002504E0FFF7AAFF7055681C85B2BD4287
:10322000F8DB00F00DF8BDE8F081000010B50022D9
:103230004FF480510148FDF759FE10BD000C0140CC
:1032400010B5012211030248FDF750FE10BD000029
:10325000000C014010B5FFF7E9FF0AE0052000F07F
:103260000DF8FFF783FF044604F0010000B901E008
:1032700000BFF3E700BFFFF7E3FF10BD01B5642314
:10328000012269460148FEF758FF08BD740000207E
:1032900000B585B00020019002900390049000BF1B
:1032A0003A48806940F040003849886108468069A2
:1032B00000F04000009000BF00BF00BF08468069DA
:1032C00040F0100088610846806900F0100000900E
:1032D00000BF00BF00BF0846806940F00800886159
:1032E0000846806900F00800009000BF00BF00BFE2
:1032F0000846806940F0040088610846806900F053
:103300000400009000BF00BF012220212048FDF7EB
:10331000EDFD01224FF481511E48FDF7E7FD082025
:1033200001901D4802900120039001A91848FDF763
:103330003DFC202001900120029003900220049087
:1033400001A91348FDF732FC4FF480500190012091
:103350000290002003900320049001A90D48FDF77E
:1033600025FC20200190012002900390022004906F
:1033700001A90848FDF71AFC002204210920FEF7E4
:10338000CFF90920FEF7BCF905B000BD00100240DE
:1033900000180140000C01400000211010B50B483E
:1033A0000B4908600B484860002109488160C160F2
:1033B0004FF480410161002141618161C16101627D
:1033C000FDF7A0FD08B1FDF73FF910BD0054004026
:1033D00020000020A086010010B50E480E490860AC
:1033E0004FF48270486000210B488160C160016128
:1033F00041614FF4007181610821C16100210162C6
:10340000416281620A21C162FEF732FD08B1FDF717
:103410001BF910BD003800407400002010B50B48A7
:103420000B4908604FF4165048600021084881603D
:10343000C16001610C21416100218161C161FFF71F
:103440000DFA08B1FDF700F910BD00000038014089
:10345000CC00002000BFFEE700BFFEE77047000081
:1034600008B508490968C9084FF47A72B1FBF2F14E
:103470004143009100BF00BF00994A1E00920029FD
:10348000F9D108BD0C000020F8B504460E461546DB
:103490006068B0F5827F0DD1A068B0F5004F03D011
:1034A000A068B0F5806F05D12068006820F040006A
:1034B000216808606068B0F5827F11D1A068B0F51E
:1034C000806F0DD13346002201212046009500F087
:1034D00039F898B1606D40F0200060650320F8BDB8
:1034E0003346002280212046009500F02BF828B1B9
:1034F000606D40F0200060650320F0E70020EEE7FB
:10350000F8B504460E4615463346012202212046F0
:10351000009500F017F828B1606D40F0200060655C
:103520000320F8BD3346002280212046009500F09C
:1035300009F828B1606D40F0200060650320F0E7D5
:103540000020EEE72DE9F84F04460D4690461E4652
:10355000DDF82890FDF7D0FCA0EB0900371AFDF745
:10356000CBFC82462C480068C0F3CB3078430090F7
:1035700045E0701C002842D0FDF7BEFCA0EB0A001D
:10358000B84200D2A7BB2068406820F0E000216864
:1035900048606068B0F5827F0DD1A068B0F5004F3B
:1035A00003D0A068B0F5806F05D12068006820F0D6
:1035B000400021680860A06AB0F5005F0DD100BF2F
:1035C0002068006820F400502168086020680068C6
:1035D00040F400502168086000BF012084F85100C9
:1035E00000BF002084F8500000BF0320BDE8F88F22
:1035F000FFE7009800B900270098401E009020685F
:1036000080682840A84201D1012000E00020404508
:10361000AFD10020EAE700000C000020704710B591
:10362000FDF7FEFF10BD00B58FB0282105A8FCF7FF
:10363000B2FD14216846FCF7AEFD012005900004A0
:103640000690002007900120099002200C90C103F1
:103650000D914FF4E0110E9105A8FEF7D7F908B1CE
:10366000FCF7F2FF0F200090022001900020029052
:103670004FF4806003900020049002216846FEF71A
:10368000A1F808B1FCF7E0FF0FB000BD704770B5BE
:1036900005466C6A0020E085E0842046FEF76BFF5B
:1036A00070BD00BF00BF02680C3252E8002F22F448
:1036B000907102680C3242E80013002BF3D100BF76
:1036C00000BF00BF0268143252E8002F22F001014F
:1036D0000268143242E80013002BF3D100BF016BE3
:1036E00001290ED100BF00BF02680C3252E8002F42
:1036F00022F0100102680C3242E80013002BF3D1D3
:1037000000BF202180F8421000210163704710B5EE
:1037100004462068C06820F040002168C86020206E
:1037200084F841002046FFF781F9002010BDF8B56C
:10373000044694F84200222875D1A068B0F5805F55
:103740000CD1206950B90025A66A20684068C0F3F2
:1037500008003080A06A801CA06215E0A56A0026DF
:10376000A068B0F5805F03D0A06828B9206918B9B7
:1037700020684068287004E02068406800F07F00FE
:103780002870A06A401CA062E08D401E80B2E085D7
:10379000002846D12068C06820F020002168C86059
:1037A0002068C06820F480702168C8602068406983
:1037B00020F0010021684861202084F842000020A8
:1037C0006063206B012826D10020206300BF00BF6A
:1037D00021680C3151E8001F21F0100021680C31E4
:1037E00041E80002002AF3D100BF2068006800F021
:1037F000100010280AD100BF002000902068006847
:10380000009020684068009000BF00BFA18D204656
:10381000FEF7B0FE02E02046FFF7A8F80020F8BD52
:1038200001E00020FBE70220F9E7000070B5044644
:103830002168096921F44051E2681143226811614D
:103840002269A1681143626941EA02052168C968D9
:1038500041F20C62914329432268D1602168496991
:1038600021F44071A2691143226851612D4A2168F7
:10387000914202D1FEF782F801E0FEF76FF800EB0B
:10388000C00101EB001162689200B1FBF2F100EBA4
:10389000C00202EB001263689B00B2FBF3F26423E8
:1038A000B2FBF3F202EBC20303EB0212A1EB8201C3
:1038B000322202EB01116422B1FBF2F101F0F001BE
:1038C00000EBC00202EB001263689B00B2FBF3F254
:1038D0006423B2FBF3F201EB021200EBC00101EB37
:1038E000001163689B00B1FBF3F100EBC00303EB35
:1038F00000136668B600B3FBF6F36426B3FBF6F379
:1039000003EBC30606EB0313A1EB8301322303EBA6
:1039100001116423B1FBF3F101F00F01114422689E
:10392000916070BD00380140014691F841002128A6
:1039300028D18868B0F5805F0BD1086948B90A6A58
:103940001088C0F308000B685860086A801C086281
:1039500005E00B6A581C086218780B685860C88C20
:10396000401E80B2C88458B90868C06820F0800042
:103970000B68D8600868C06840F040000B68D860E9
:10398000002070470220FCE72DE9F84304460D466D
:1039900017469846089E31E0701C70B3FDF7ACFAEC
:1039A000A0EB0800B04200D816B90320BDE8F883A8
:1039B0002068C06800F00400F8B1802D1ED0402DB2
:1039C0001CD020680068C0F3C000B0B100BF002068
:1039D000009020680068009020684068009000BF58
:1039E00000BF2046FFF75DFE0820606400BF002096
:1039F00084F8400000BF0120D8E7FFE72068006896
:103A00002840A84201D1012000E00020B842C3D0E4
:103A10000020CBE710B50248FEF7AEFD10BD000058
:103A2000CC00002000BFFEE70FB4054B10B503A982
:103A3000044A029800F052F810BC5DF814FB000034
:103A4000413F00081C000020002817DB00F01F0287
:103A5000012191400A4A430942F8231000BF00BFE8
:103A600000BFBFF34F8F00BF00BF00BF00BF00BF4C
:103A700000BFBFF36F8F00BF00BF00BF70470000E3
:103A800080E100E002480068C0F3022070470000B7
:103A90000CED00E010B5002804DB0A07130E054A00
:103AA000135406E00A07140E034A00F00F031B1F0D
:103AB000D45410BD00E400E018ED00E002E008C8B6
:103AC000121F08C1002AFAD170477047002001E098
:103AD00001C1121F002AFBD1704700002DE9FF4FE2
:103AE0008DB00F460546002606E025280BD0DDE9FF
:103AF0000F1290476D1C761C28780028F5D111B064
:103B00003046BDE8F08F0024A246A1460122EC49D0
:103B100000E0044315F8013F203B02FA03F008429D
:103B2000F7D128782A2810D06FF02F022878A0F13A
:103B30003001092914D80AEB8A0102EB410144F053
:103B4000020400EB010A6D1CF0E701CF5FEA000AF6
:103B500003D544F40054CAF1000A44F002046D1C79
:103B600028782E2817D115F8010F44F004042A28CC
:103B70000ED06FF02F022878A0F1300109290AD861
:103B800009EB890102EB410100EB01096D1CF2E731
:103B900057F8049B6D1C28786C280FD006DC4C2845
:103BA00017D068280DD06A2814D104E0742810D0EA
:103BB0007A280FD10DE044F400140AE044F4801494
:103BC00001E044F440146978814202D104F5801484
:103BD0006D1C6D1C2A786E2A1FD00CDC632A31D034
:103BE00004DC002A8BD0582A11D1A3E0642A68D0C3
:103BF000692A0CD165E0732A2ED004DC6F2A73D0B9
:103C0000702A04D19BE0752A6FD0782A6ED01046B6
:103C1000DDE90F129047761C50E1C4F302500228F0
:103C200006D0032809D0042801CF09D0066045E159
:103C300001CFF117C0E9006140E101CF06803DE10D
:103C400006703BE117F8040B8DF8000000208DF89A
:103C50000100EB46012003E057F804BB4FF0FF30B2
:103C600061074FF0000102D40DE008F10101884620
:103C700049450FDA8045F8DB1BF808100029F4D11C
:103C800008E008F1010188468142FADB1BF80810C0
:103C90000029F6D1DDE90F23AAEB08008146214671
:103CA00000F036F9304400EB080604E0DDE90F12BD
:103CB0001BF8010B9047B8F10108F7D2214648469E
:103CC000F7E00A21C4F302534FF0000B0891022BD6
:103CD00004D001CFC117032B09D00AE0FF1D27F044
:103CE0000707F7E8020108E032E01FE020E000B239
:103CF000C117042B01D140B2C117031E71F100039B
:103D000007DA4FF0000CD0EB0C006CEB01012D2317
:103D100002E0230504D52B238DF82430012303E092
:103D2000E30701D02023F7E7984658E00A2110E086
:103D300010210EE010204FF0000B08900CE0102135
:103D40004FF0000B44F004044FF00809089103E021
:103D500008214FF0000B0891C4F30253022B04D04A
:103D600001CF0021032B06D006E0FF1D27F0070737
:103D7000F7E8020103E080B2042B00D1C0B24FF09B
:103D8000000823072BD5702A07D0DDF820C08CF05F
:103D9000100C5CEA0B0C05D00EE040238DF82430AB
:103DA000012308E050EA010306D030238DF82430C7
:103DB0008DF8252002239846DDF820C08CF0080CF1
:103DC0005CEA0B0C0BD150EA010301D1630706D565
:103DD00030238DF824304FF00108A9F10109582A49
:103DE00004D038A20B9208AA0A920BE03AA2F9E793
:103DF0005B46089AFCF7DAF90B9B9B5C0A9A521E09
:103E00000A92137050EA0102F2D10A98ADEB000059
:103E100000F1200B600702D524F4803401E04FF05C
:103E20000109D94502DDA9EB0B0000E0002000EB01
:103E30000B0141440890AAEB010AE00306D4DDE936
:103E40000F232146504600F063F806444FF0000966
:103E500008E009A911F80900DDE90F12904709F1FE
:103E60000109761CC145F4DBE0030CD5DDE90F2325
:103E70002146504600F04CF8064404E0DDE90F12FC
:103E800030209047761C0899481E08900029F5DCE0
:103E900008E00A980A990078491C0A91DDE90F1296
:103EA0009047761CBBF10001ABF1010BF1DC214620
:103EB0005046DDE90F2300F019F806446D1C1BE69F
:103EC00009280100303132333435363738396162F0
:103ED00063646566000000003031323334353637B4
:103EE0003839414243444546000000002DE9F04185
:103EF000044600251E461746880404D405E03946CA
:103F00002020B0476D1C641EF9D52846BDE8F0811D
:103F10002DE9F041044600251E469046C80301D510
:103F2000302700E02027880404D505E041463846C4
:103F3000B0476D1C641EF9D52846BDE8F08100002D
:103F400013B50C464FF6FF73012269460248FEF78F
:103F50000EFD00981CBD0000CC000020FDF76CFB9E
:103F6000FFF761FBFFF794F9FFF758FAFFF716FA2E
:103F7000FFF732FAFCF742FAFCF76BF9FCF794FA18
:103F8000FCF77EFA00BFFEE70203040506070809F6
:103F90000A0B0C0D0E0F10100102000000000000B3
:103FA00000000102030406070809000000000102E6
:103FB00003040000D43F000800000020200000009F
:103FC000BC3A0008F43F000820000020280D000043
:103FD000CC3A0008000000001000000001000000C2
:103FE00000127A0002000000000000000000000043
:043FF00000000000CD
:0400000508000131BD
:00000001FF
