:020000040800F2
:108000003809002045810008E9A3000823A00008E2
:10801000E5A30008FD85000861A800080000000035
:1080200000000000000000000000000019A400088B
:108030000186000800000000EDA300081BA4000852
:108040005F8100085F8100085F8100085F81000890
:108050005F8100085F8100085F8100085F81000880
:108060005F8100085F8100085F8100085F81000870
:108070005F8100085F8100085F8100085F81000860
:108080005F8100085F8100085F8100085F81000850
:108090005F8100085F8100085F8100085F81000840
:1080A0005F8100085F8100085F8100085F81000830
:1080B0005F8100085F8100085F8100085F81000820
:1080C0005F8100085F8100085F8100085F81000810
:1080D0005F81000851A800085F8100085F810008E7
:1080E0005F8100085F8100085F8100085F810008F0
:1080F0005F8100085F8100085F8100085F810008E0
:108100005F8100085F8100085F8100085F810008CF
:108110005F8100085F8100085F8100085F810008BF
:108120005F8100085F8100085F8100085F810008AF
:10813000DFF80CD000F0A8F800480047E1AA0008DA
:10814000380900200648804706480047FEE7FEE75A
:10815000FEE7FEE7FEE7FEE7FEE7FEE7FEE7FEE7F7
:1081600089A4000831810008202A04DB203A21FA82
:1081700002F00021704721FA02F3D040C2F1200240
:108180009140084319467047D2B201E000F8012B34
:10819000491EFBD270470022F6E710B513460A4687
:1081A00004461946FFF7F0FF204610BD30B50546DE
:1081B0002A460B4612F8010B13F8014B08B1A042F6
:1081C000F8D01CB1002802D06D1CF1E7284630BD64
:1081D00070B5064602F092FB046805460A220021AB
:1081E000304600F018F82C6070BD30B50B460146E3
:1081F00000202022012409E021FA02F59D4205D346
:1082000003FA02F5491B04FA02F52844151EA2F1EF
:108210000102F1DC30BD2DE9F04791460F46804662
:108220000446002614F8015B2DB100F03FF8006809
:10823000405DC007F6D12B2D02D02D2D18D0641E25
:108240004A463946204600F035F827B13968A14240
:1082500001D1C7F8008071054FF002040BD54042F0
:10826000002803DD02F04AFB0460A007BDE8F087A8
:1082700046F48066E4E70028F8DA02F03FFB046089
:108280006FF00040F2E70000064C074D06E0E068A2
:1082900040F0010394E8070098471034AC42F6D34D
:1082A000FFF74AFFC0AB0008E0AB0008004870478A
:1082B000BCAB00082DE9F05F824600780027154628
:1082C0008B460AF10104B946302801D09DB113E074
:1082D00014F8010B0127782803D0582801D045B1A4
:1082E0000AE00DB1102D07D10027102514F8010B5D
:1082F00002E0082500E00A250026B0460EE005FB56
:10830000080005FB06F1012701EB10461FFA80F873
:10831000B6F5803F00D3B94614F8010B294600F0AA
:1083200018F80028EBDABBF1000F05D00FB1641E7E
:1083300000E05446CBF80040B9F1000F06D002F03F
:10834000DDFA02210160C81EBDE8F09F48EA064040
:10835000FAE73A2800D2303820F02002412A01D32F
:10836000A2F13700884201D34FF0FF307047000080
:1083700010B50948006809490968884207D108A072
:1083800002F070FA04200A490870002010BD09A00C
:1083900002F068FA0120F9E714000020280000200C
:1083A00061707020726563206F6B0D0A0000000021
:1083B0002C00002061707020726563206572726FFE
:1083C00072206F722074696D656F75740D0A0000FC
:1083D00010B506A002F046FA08A002F043FA0DA07C
:1083E00002F040FA00201249087010BD72657365F2
:1083F000742073746172740D0A00000077616974EF
:1084000020757365722073656E6420646174610DFC
:108410000A00000073656E64202773746172743AF9
:108420006C656E2720746F2073746172740D0A007E
:108430002C00002010B504A002F014FA01F00AFE8E
:108440000446204610BD00006A756D7020746F20D0
:108450006170700D0A00000010B50748006850B147
:1084600000F0FCFC04490968401AB0F5FA6F02D923
:1084700003200249087010BD200000202C000020BD
:1084800038B56FF07F40154B4022154900901548D4
:1084900001F04EFA1148008800281EDD12A1104894
:1084A000FFF784FE0446A4B1A01DFFF791FE10491A
:1084B00008600846006840B1084601680DA002F057
:1084C000D1F901200F49087006E00FA002F0CAF9A7
:1084D00002E010A002F0C6F900BF38BD2400002061
:1084E000F80400208C00002073746172743A00005C
:1084F00028000020617070206C656E3A2025640DA4
:108500000A0000002C0000206C656E206572726FFE
:10851000720D0A0064617461206572726F720D0AD7
:108520000000000010B51A48007805282CD2DFE8BA
:1085300000F0030616192200FFF7A2FF25E00A212A
:10854000144801F070FD14A002F08CF916A002F09E
:1085500089F902200E49087002F09CFA15E0FFF735
:108560007BFF12E0FFF704FF20B115A002F07AF9BB
:1085700002F0A4F909E0FFF75DFF20B117A002F0B7
:1085800071F902F09BF900E000BF00BF10BD0000D0
:108590002C00002000C00008666C617368206572C2
:1085A000617365206F6B0A00726561647920746F76
:1085B0002072656365697665206170700A0000004D
:1085C00061707020726563206572726F722C7379AE
:1085D0007374656D2072657365740A006A756D70D9
:1085E00020617070206572726F722C73797374657C
:1085F0006D2072657365740A0000000000BFFEE71D
:10860000704772B600BFFEE70021074AD1610749F3
:10861000096941F00401054A11611146096941F0F7
:108620004001116170470000D80000200020024086
:108630000021074AD1610749096941F00201054A51
:10864000116111464861096941F0400111617047AB
:10865000D8000020002002400022054BDA61054AC4
:10866000126942F00102034B1A6101807047000059
:10867000D80000200020024000201E49C96801F0F7
:10868000100139B11C49C96941F002011A4AD1618E
:1086900040F010001749C96801F0040139B11649CA
:1086A000C96941F00101144AD16140F00400114947
:1086B000C96901F0010169B10F49C96941F00401BB
:1086C0000D4AD16100BF0B49C96921F00101094A76
:1086D000D16100BF00BF40F20111884206D10549B7
:1086E000C96921F00101034AD16101E00149C86073
:1086F00000BF704700200240D800002070B504463B
:1087000000F0ACFB054609E0601C38B124B100F074
:10871000A5FB401BA04201D9032070BD1248C068D0
:1087200000F001000028EFD10F48C06800F02000E1
:1087300020B100BF20200C49C86000BF0A48C068B3
:1087400000F0100048B90848C06900F0010020B9E5
:108750000548C06800F0040018B1FFF78DFF012044
:10876000DBE70020D9E7000000200240014600229C
:1087700091F82100022808D00420886300BF00205F
:1087800081F8200000BF012070470868006820F0D1
:108790000E000B6818600868006820F001000B6884
:1087A000186091F8403001209840CB6B5860012050
:1087B00081F8210000BF002081F8200000BF104692
:1087C000E2E7000070B50446002594F82100022875
:1087D00003D00420A0630125C1E02068006820F0D8
:1087E0000E00216808602068006820F00100216800
:1087F00008605C492068884252D95A497839206813
:10880000884201D1012047E05649643920688842F6
:1088100001D1102040E0534950392068884201D1ED
:10882000801539E04F493C392068884201D18014D5
:1088300032E04C4928392068884202D14FF4803018
:108840002AE0484914392068884202D14FF4801048
:1088500022E044492068884201D140041CE042499A
:108860002068884201D1012016E03F491431206878
:10887000884201D110200FE03B492831206888420E
:1088800001D1801508E038493C312068884201D187
:10889000801401E04FF480303349091F086051E033
:1088A000304978392068884201D1012047E02D49BC
:1088B00064392068884201D1102040E029495039AC
:1088C0002068884201D1801539E026493C3920686A
:1088D000884201D1801432E0224928392068884238
:1088E00002D14FF480302AE01E49143920688842B2
:1088F00002D14FF4801022E01A492068884201D149
:1089000040041CE018492068884201D1012016E08B
:10891000154914312068884201D110200FE0124916
:1089200028312068884201D1801508E00E493C3189
:108930002068884201D1801401E04FF48030094959
:1089400080394860012084F8210000BF002084F8AD
:10895000200000BF606B10B12046616B884728463D
:1089600070BD000080000240080402402DE9F04183
:1089700004460E460127002500BF2648007E012838
:1089800002D10220BDE8F08101202249087600BF13
:108990002068022813D14CF25030FFF7AFFE90BB95
:1089A0000120FFF731FE4CF25030FFF7A7FE0746DB
:1089B0001948006920F004001749086123E04CF2CF
:1089C0005030FFF79BFEF0B94FF0FF303060A568E4
:1089D00012E02846FFF72CFE4CF25030FFF78EFED7
:1089E00007460D48006920F002000B4908610FB1ED
:1089F000356007E005F50065D4E9021001EBC02001
:108A0000A842E6D800BF00BF00200249087600BF98
:108A10003846B7E7D800002000200240034800692C
:108A200040F08000014908610020704700200240AA
:108A30002DE9FE4F05468B46174698460126002431
:108A40000020029000BF2448007E012802D10220AD
:108A5000BDE8FE8F01202049087600BF4CF250305F
:108A6000FFF74CFE064686BB012D02D10120029085
:108A700006E0022D02D10220029001E004200290C3
:108A800000241EE02201B946C24648465146FFF77F
:108A90006BFB80B20190022000FB04B000900199B2
:108AA000FFF7DAFD4CF25030FFF728FE06460B4880
:108AB000006920F001000949086106B104E0601C6A
:108AC000C4B202988442DDDB00BF00BF002002492F
:108AD000087600BF3046BBE7D800002000200240E7
:108AE00000200849096901F0800151B10649054A91
:108AF0005160064951601146096901F0800101B1D8
:108B0000012070470020024023016745AB89EFCD6B
:108B10002DE9F847024600239C467BE14FF001080F
:108B200008FA03F4D1F8008008EA0400A0427DD1DD
:108B3000DFF8F4A2D1F80480A8EB0A09D0453AD0B6
:108B400014DCB8F1030F50D009DCB8F1000F31D0BC
:108B5000B8F1010F1CD0B8F1020F49D120E0B8F1F3
:108B6000110F18D0B8F1120F42D11EE0B9F5881FCD
:108B700025D006DCB9F5803F20D0B9F5801F37D16C
:108B80001AE0B9F5001F18D0B9F5041F30D117E06D
:108B9000D1F80CC02DE0D1F80C8008F1040C28E0CD
:108BA000D1F80C8008F1080C23E0D1F80C8008F112
:108BB0000C0C1EE000BF00BF00BF00BF00BF00BF25
:108BC000D1F80880B8F1000F02D14FF0040C0BE08F
:108BD000D1F80880B8F1010F03D14FF0080C1461EF
:108BE00002E04FF0080C546103E04FF0000C00E08D
:108BF00000BF00BFFF2801D8904601E002F1040841
:108C00004646FF2802D84FEA830803E0A3F108088C
:108C10004FEA88084746D6F800804FF00F0909FA56
:108C200007F928EA09080CFA07F900E07AE048EAAF
:108C30000908C6F80080D1F8048008F08058B8F11F
:108C4000805F6FD100BFDFF8E481D8F8188048F06A
:108C50000108DFF8D891C9F81880C846D8F81880FC
:108C600008F00108CDF8008000BF00BF4FEAB93816
:108C70004FEA930958F829504FEA83784FEA187958
:108C80004FF00F0808FA09F825EA0805DFF8A08177
:108C9000424502D14FF0000824E0DFF898814245B8
:108CA00002D14FF001081DE0DFF88C81424502D16E
:108CB0004FF0020816E0DFF88481424502D14FF000
:108CC00003080FE0DFF87881424502D14FF0040835
:108CD00008E0DFF87081424502D14FF0050801E05D
:108CE0004FF006084FEA83794FEA197908FA09F834
:108CF00048EA0505DFF850814FEA930948F8295002
:108D0000D1F8048008F48018B8F5801F0BD1DFF883
:108D10003C81D8F8008048EA0008DFF83091C9F8B3
:108D200000800AE075E0DFF82481D8F8008028EAA6
:108D30000008DFF81891C9F80080D1F8048008F421
:108D40000018B8F5001F0ED1DFF8008108F1040803
:108D5000D8F8008048EA0008DFF8F09009F104092B
:108D6000C9F800800DE0DFF8E48008F10408D8F8C5
:108D7000008028EA0008DFF8D49009F10409C9F856
:108D80000080D1F8048008F40038B8F5003F0ED117
:108D9000DFF8B880A8F10408D8F8008048EA000895
:108DA000DFF8A890A9F10409C9F800800DE0DFF808
:108DB0009C80A8F10408D8F8008028EA0008DFF8B1
:108DC0008C90A9F10409C9F80080D1F8048008F456
:108DD0008038B8F5803F0ED1DFF87080A8F1080820
:108DE000D8F8008048EA0008DFF86090A9F1080987
:108DF000C9F800800DE0DFF85480A8F10808D8F821
:108E0000008028EA0008DFF84490A9F10809C9F8B1
:108E100000805B1CD1F8008028FA03F8B8F1000F3D
:108E20007FF47CAEBDE8F88700001110001002400E
:108E300000080140000C01400010014000140140F6
:108E400000180140001C01400800014008040140D6
:108E50000AB1016101E00B04036170470148006839
:108E6000704700000000002070B504460CB90120D6
:108E700070BD94F83D0028B9002084F83C002046DD
:108E800000F0DAF8242084F83D002068006820F023
:108E90000100216808602068006840F400402168F3
:108EA00008602068006820F400402168086000F035
:108EB0009BFA05465C496068884206D85B48854253
:108EC00001D2012007E0002005E05948854201D287
:108ED000012000E00020012800D1C9E75548B5FB7A
:108EE000F0F62068406820F03F0030432168486079
:108EF0004D496068884201D8701C07E04FF49670B5
:108F000070434FF47A71B0FBF1F0401C2168096A9C
:108F100021F03F01084321680862434960688842A4
:108F200014D8681E61684900B0FBF1F0401CC0F322
:108F30000B00042801D204203DE0681E616849004E
:108F4000B0FBF1F0401CC0F30B0034E0A06838B96E
:108F5000681E616801EB4101B0FBF1F0401C0AE0C2
:108F6000681E616801EBC10202EB0111B0FBF1F078
:108F7000401C40F48040C0F30B0008B901201AE007
:108F8000A06848B9681E616801EB4101B0FBF1F0CF
:108F9000401CC0F30B000CE0681E616801EBC102CD
:108FA00002EB0111B0FBF1F0401CC0F30B0040F4E8
:108FB000804040F400402168C9694CF6FF7291433B
:108FC00008432168C861D4E907010843216809689A
:108FD00021F0C001084321680860D4E90310084368
:108FE0002168896848F2FF3291430843216888600C
:108FF000D4E9050108432168C96821F0FF0108434D
:109000002168C8602068006840F00100216808609D
:1090100000202064202084F83D000020206384F894
:109020003E0000BF24E70000A086010080841E00EF
:1090300000093D0040420F0010B586B004460020F4
:10904000029003900490059015492068884225D12C
:1090500000BF1448806940F0080012498861084642
:10906000806900F00800019000BF00BFC02002909E
:10907000122003900320059002A90B48FFF748FD3A
:1090800000BF0848C06940F400100649C86108469E
:10909000C06900F40010019000BF00BF06B010BD11
:1090A0000054004000100240000C014003480068DA
:1090B000034909780844014908607047000000200E
:1090C0000800002010B50848006840F0100006496C
:1090D0000860032000F0A8F80F2000F007F800F067
:1090E0002BF8002010BD00000020024070B504469F
:1090F0000E4800784FF47A71B1FBF0F00C49096822
:10910000B1FBF0F5284600F0F9FB08B1012070BD75
:10911000102C07D200222146501E00F047F80548C7
:10912000046001E00120F2E70020F0E708000020E1
:109130000C0000200400002008B500BF1148806921
:1091400040F001000F4988610846806900F0010085
:10915000009000BF00BF00BF0846C06940F08050CB
:10916000C8610846C06900F08050009000BF00BF91
:1091700000BF0549486820F0E06040F0007048609A
:1091800000BF08BD00100240000001400146084633
:10919000002809DB00F01F0301229A4043099B00CD
:1091A00003F1E023C3F8002100BF70472DE9F05F11
:1091B00080460D461646002701F064FB07463946F7
:1091C0002A46334601F00700C0F1070ABAF1040F3E
:1091D00002D94FF0040A01E0C0F1070AD14600F1BC
:1091E000040ABAF1070F02D24FF0000A01E0A0F121
:1091F000030AD4464FF0010A0AFA09FAAAF1010A51
:109200000AEA020A0AFA0CFA4FF0010B0BFA0CFBFD
:10921000ABF1010B0BEA030B4AEA0B042146404673
:1092200001F038FBBDE8F09F00BF00F00702064BDD
:1092300019684FF6FF031940044B0B4343EA022120
:10924000014B196000BF70470CED00E00000FA050B
:1092500070B504460D460CB9012070BD5A4800682F
:1092600000F00700A8420ED25748006820F007001F
:109270002843554908600846006800F00700A842E6
:1092800001D00120E9E7207800F0020002281DD17A
:10929000207800F00400042805D14C48406840F4D0
:1092A000E0604A494860207800F00800082805D1AD
:1092B0004648406840F4605044494860434840682C
:1092C00020F0F000A168084340494860207800F091
:1092D000010078B36068012806D13C48006800F4BA
:1092E000003090B90120B8E76068022806D13748FD
:1092F000006800F0007040B90120AEE73348006814
:1093000000F0020008B90120A7E73048406820F0CB
:109310000300616808432D494860FFF79FFD06463A
:1093200009E0FFF79BFD801B41F28831884202D99A
:10933000032092E707E02548406800F00C006168D0
:10934000B0EB810FEDD12048006800F00700A84283
:109350000ED91D48006820F0070028431A4908600C
:109360000846006800F00700A84201D0012074E719
:10937000207800F00400042807D11448406820F445
:10938000E060E168084311494860207800F0080077
:10939000082808D10D48406820F46050216940EA4F
:1093A000C1000A49486000F03FF808494968C1F324
:1093B0000311074A515CC840064908600648006826
:1093C000FFF794FE002048E7002002400010024012
:1093D00022AB00080C0000200400002001480068B7
:1093E000704700000C00002000B5FFF7F7FF0449AC
:1093F0004968C1F30221034A515CC84000BD000026
:109400000010024032AB000800B5FFF7E7FF044947
:109410004968C1F3C221034A515CC84000BD000045
:109420000010024032AB000870B500210022002479
:1094300000230020134D696801F00C05F5B1042DDF
:1094400002D0082D19D101E00F4819E00F4DC1F3EA
:109450008346AB5D01F4803555B10A4D6D68C5F3A7
:1094600040450B4E725D084D5D43B5FBF2F402E0E2
:10947000084D03FB05F4204602E000BF024800BF90
:1094800000BF70BD0010024000127A0010AB00084F
:1094900020AB000800093D00F8B504460CB90120D6
:1094A000F8BD207800F00100002878D0F848406826
:1094B00000F00C0004280CD0F548406800F00C00C7
:1094C000082811D1F248406800F48030B0F5803FA0
:1094D0000AD1EF48006800F4003000285FD06068CF
:1094E00000285CD10120DBE700BF6068B0F5803F59
:1094F00006D1E748006840F48030E549086028E07C
:10950000606858B9E248006820F48030E04908609B
:109510000846006820F4802008601AE06068B0F512
:10952000A02F0BD1DA48006840F48020D8490860A9
:109530000846006840F4803008600AE0D4480068BB
:1095400020F48030D24908600846006820F480206A
:10955000086000BF606888B1FFF780FC054606E040
:10956000FFF77CFC401B642801D9032098E7C8481A
:10957000006800F400300028F2D010E0FFF76EFC25
:10958000054606E0FFF76AFC401B642801D903206A
:1095900086E7BF48006800F400300028F2D1207848
:1095A00000F00200022857D1B948406800F00C00D2
:1095B00050B1B748406800F00C00082818D1B448F2
:1095C000406800F4803098B9B148006800F00200AB
:1095D00020B12069012801D0012061E7AC48006872
:1095E00020F0F800616940EAC100A949086033E051
:1095F0002069E8B10120A7490860FFF72FFC054664
:1096000006E0FFF72BFC401B022801D9032047E7A7
:109610009F48006800F002000028F2D09C480068D3
:1096200020F0F800616940EAC1009949086013E040
:10963000002098490860FFF711FC054606E0FFF797
:109640000DFC401B022801D9032029E7904800683F
:1096500000F002000028F2D1207800F0080008286D
:109660002DD1A069B8B101208B490860FFF7F6FB46
:10967000054606E0FFF7F2FB401B022801D9032054
:109680000EE78348406A00F002000028F2D0012073
:1096900000F0AEFE13E000207F490860FFF7DEFB1C
:1096A000054606E0FFF7DAFB401B022801D903203C
:1096B000F6E67748406A00F002000028F2D12078F0
:1096C00000F00400042873D100277148C06900F03D
:1096D000805070B900BF6E48C06940F080506C493E
:1096E000C8610846C06900F08050009000BF00BF0C
:1096F00001276A48006800F48070B0B967480068C4
:1097000040F4807065490860FFF7A8FB054606E055
:10971000FFF7A4FB401B642801D90320C0E65F4883
:10972000006800F480700028F2D000BFE0680128D3
:1097300006D15748006A40F001005549086227E009
:10974000E06858B95248006A20F0010050490862A8
:109750000846006A20F00400086219E0E068052865
:109760000BD14B48006A40F00400494908620846A2
:10977000006A40F0010008620AE04548006A20F0F3
:109780000100434908620846006A20F004000862AC
:1097900000BFE068A0B1FFF761FB054609E0FFF7F5
:1097A0005DFB401B41F28831884202D9032077E6F5
:1097B00022E03748006A00F002000028EFD012E0F3
:1097C000FFF74CFB054608E0FFF748FB401B41F262
:1097D0008831884201D9032062E62D48006A00F0F2
:1097E00002000028F0D1012F05D12948C06920F0DE
:1097F00080502749C86100BFE069C8B32448406869
:1098000000F00C00082860D0E069022848D1002050
:1098100020490866FFF722FB054606E0FFF71EFB1E
:10982000401B022801D903203AE61948006800F0DD
:1098300000700028F2D1206AB0F5803F07D11448AB
:10984000406820F40030A168084311494860D4E919
:10985000080108430E49496821F4741108430C4972
:10986000486001200B490866FFF7F8FA054607E053
:109870003DE0FFF7F3FA401B022801D903200FE671
:109880000348006800F000700028F2D02FE00000CC
:10989000001002400000424280044242007000403A
:1098A000002014490866FFF7D9FA054606E0FFF7DD
:1098B000D5FA401B022801D90320F1E50E480068C3
:1098C00000F000700028F2D111E0E069012800D119
:1098D000E6E50948466806F48031206A814204D1F1
:1098E00006F47011606A814201D00120D8E50020A1
:1098F000D6E50000000042420010024070B5044668
:109900002546681EB0F1807F01D301200FE0681E5C
:109910004FF0E02148610F214FF0FF3000F0BAFF17
:1099200000204FF0E021886107200861002070BD11
:109930002DE9F84F04460F4690461D46DDF828A055
:1099400094F84200202878D117B1B8F1000F02D165
:109950000120BDE8F88F00206064222084F84200D6
:109960000120206300206063FFF778FA8346A4F8A3
:109970002C80A4F82E80A068B0F5805F04D1206907
:1099800010B90026B94602E03E464FF0000900201B
:10999000288053E02068006800F01000102813D1E0
:1099A00000BF002000902068006800902068406898
:1099B000009000BF00BF288830B1022060632020E3
:1099C00084F842000020C4E72068006800F020000E
:1099D000202821D146B920684068C0F30800A9F8C2
:1099E000000009F1020911E0A068B0F5805F03D022
:1099F000A06828B9206918B920684068307004E070
:109A00002068406800F07F003070761C2888401C79
:109A10002880E08D401EE0850AF1010070B1FFF75B
:109A20001DFAA0EB0B00504502D8BAF1000F05D18A
:109A3000202084F8420003208BE70BE0E08D002813
:109A4000A8D1A08DE18D401A2880202084F8420002
:109A500000207EE702207CE7F8B504460E46174654
:109A600094F8420020282ED106B10FB90120F8BD8C
:109A700001202063002060633A463146204600F012
:109A800051FE0546EDB9206B012819D100BF002019
:109A9000009020680068009020684068009000BF37
:109AA00000BF00BF00BF21680C3151E8001F41F02A
:109AB000100021680C3141E80002002AF3D100E0D7
:109AC00001252846D3E70220D1E7000038B5044637
:109AD0000D461F492068884239D1FFF7BFF91D495B
:109AE00008601D4805801D4800681B490988084416
:109AF0001A490860FEF7F4FF00F0ECFA00F022FBD0
:109B0000FEF78CFF4FF480611548FEF744FB00BF61
:109B10000020009013480068006800901148006819
:109B20004068009000BF00BF00BF002000900D48BB
:109B30000068006800900B4800684068009000BF13
:109B400000BF4FF4806206490648FFF785FF38BD25
:109B500000380140200000201000002014000020E8
:109B6000F80000208C000020704700002DE9F84F1D
:109B70000446206805682068C668206847694FF079
:109B80000009CA4605F00F09B9F1000F0AD105F026
:109B9000200038B106F0200020B1204600F0C5FCBE
:109BA000BDE8F88FB9F1000F7BD007F0010018B9BC
:109BB00006F49070002874D005F0010030B106F46E
:109BC000807018B1606C40F00100606405F0040022
:109BD00030B107F0010018B1606C40F00200606421
:109BE00005F0020030B107F0010018B1606C40F0E0
:109BF0000400606405F0080048B106F0200010B9C8
:109C000007F0010018B1606C40F008006064606CFF
:109C1000002845D005F0200028B106F0200010B142
:109C2000204600F082FC20684069C0F3801A606C16
:109C300000F0080010B9BAF1000F2CD0204600F057
:109C40002EFC2068406900F0400000B300BF00BF58
:109C50002168143151E8001F21F0400021681431BF
:109C600041E80002002AF3D100BFE06B50B1774811
:109C7000E16B4863E06BFEF7A5FD88B1E06B416BDB
:109C800088470DE02046FFF76FFF09E009E0204616
:109C9000FFF76AFF04E02046FFF766FF00206064DC
:109CA0007EE7206B012877D105F01000002873D0E3
:109CB00006F010000028FAD000BF002000902068B5
:109CC0000068009020684068009000BF00BF2068D6
:109CD000406900F0400000285FD0E06B00684068F9
:109CE0001FFA80F8B8F1000F55D0A08D404552DD25
:109CF000A4F82E80E06B8069202843D000BF00BF0D
:109D000021680C3151E8001F21F4807021680C316A
:109D100041E80002002AF3D100BF00BF00BF216864
:109D2000143151E8001F21F001002168143141E88D
:109D30000002002AF3D100BF00BF00BF2168143128
:109D400051E8001F21F040002168143141E8000271
:109D5000002AF3D100BF202084F8420000202063B5
:109D600000BF00BF21680C3151E8001F21F0100036
:109D700021680C3141E80002002AF3D100BFE06BFA
:109D8000FEF7F4FC02206063A08DE28D801A81B2A0
:109D90002046FFF79BFE03E742E0A08DE18D401ACD
:109DA0001FFA80F8E08DD0B3B8F1000F37D000BFB4
:109DB00000BF21680C3151E8001F21F49070216828
:109DC0000C3141E80002002AF3D100BF00BF00BF00
:109DD0002168143151E8001F21F00100216814317D
:109DE00041E80002002AF3D100BF202084F842009D
:109DF0000020206300BF00BF21680C3151E8001F24
:109E000021F0100021680C3141E80002002AF3D152
:109E100000BF0220606341462046FFF757FEBFE6C1
:109E200005F0800030B106F0800018B1204600F047
:109E300099FCB5E605F0400030B106F0400018B1DD
:109E4000204600F062FBABE600BFA9E68BA4000849
:109E500010B504460CB9012010BDA06900B100E0A6
:109E600000BF94F8410028B9002084F84000204643
:109E700000F02AF8242084F841002068C06820F40B
:109E800000502168C860204600F0CEFB20680069C1
:109E900020F49040216808612068406920F02A0081
:109EA000216848612068C06840F400502168C8609B
:109EB00000206064202084F8410084F842000020E3
:109EC000606300BFC8E7000010B586B004460020FC
:109ED00002900390049005901E492068884236D174
:109EE00000BF1D48806940F480401B4988610846D6
:109EF000806900F48040019000BF00BF00BF0846A9
:109F0000806940F0040088610846806900F0040020
:109F1000019000BF00BF481502900220039003206B
:109F2000059002A90D48FEF7F3FD4FF48060029002
:109F300000200390049002A90848FEF7E9FD0022E2
:109F400005212520FFF732F92520FFF71FF906B07C
:109F500010BD000000380140001002400008014020
:109F600070472DE9F84F04460E46174699464FF0C4
:109F7000000A94F84100202850D106B117B90120F9
:109F8000BDE8F88F00206064212084F84100FEF7CE
:109F900065FF8246A784E784A068B0F5805F04D19E
:109FA000206910B90025B04602E035464FF00008A0
:109FB0001EE05346002280212046CDF8009000F09C
:109FC00001FC20B1202084F841000320D8E745B9E6
:109FD000B8F80000C0F308002168486008F10208E2
:109FE00003E02878216848606D1CE08C401EE08406
:109FF000E08C0028DDD15346002240212046CDF8D8
:10A00000009000F0DFFB20B1202084F84100032005
:10A01000B6E7202084F841000020B1E70220AFE736
:10A02000704700BFFEE730B585B005460C46FEF729
:10A0300057FD002001900120029003950494002018
:10A040000090694601A8FEF791FCFEF7E7FC05B019
:10A0500030BD000070B5124805684468280C000443
:10A06000B0F1005F04D00FA000F0FCFB012070BD38
:10A070000B48844202D31048844204D90FA000F058
:10A08000F1FB0120F3E772B600BF85F3088800BF3B
:10A0900003480F4908602646B0470020E7E7000064
:10A0A00000C00008737461636B2061646472206592
:10A0B00072726F720A000000000008087265736512
:10A0C000742068616E646C65206572726F720A003C
:10A0D00008ED00E070B586B000240025002015E0F2
:10A0E000154A0244154B1B68D15CFF290CD0012492
:10A0F000114A0244114B1B681A44104E36888319CA
:10A10000C3F30A03D51A05E0411C88B20C4909883B
:10A110008842E5DB00BF64B100200290012003907B
:10A12000049505900020019001A902A8FEF71EFCED
:10A1300000BF06B070BD000000C00008180000207D
:10A140001000002010B527490988274A127888187E
:10A1500000EBD0714910A0EB4101D1B92248007841
:10A1600050B100F073F8214801681E480088401C77
:10A1700008441E49086008E000F03EF81B480068EB
:10A1800018490988084419490860002016490870D0
:10A1900027E01548007880B100F058F81148008891
:10A1A000401E1349085C13490870104800680D49A7
:10A1B000098808440D49086010E000F01DF80948BE
:10A1C0000088401E0A49085C0A4908700548008852
:10A1D000401E0649096808440449086001200249F4
:10A1E000087010BD100000201C0000201800002086
:10A1F000F80000201D00002070B5002418E00F4872
:10A2000020440F4909684618601C0E490988884295
:10A210000CDA0D48015D0246601C105C41EA002525
:10A220002A46002331460120FEF702FCA01C84B21E
:10A23000044800888442E2DB70BD000000C00008D2
:10A240001800002010000020F800002070B5002445
:10A250001AE01048204410490968461834B90F48DC
:10A26000005D0F49097841EA002505E0601E0B49B1
:10A27000085C095D40EA01252A4600233146012099
:10A28000FEF7D6FBA01C84B2064800888442E0DBBF
:10A2900070BD000000C0000818000020F800002079
:10A2A0001D0000201000002000B585B000200190A6
:10A2B00002900390049000BF2A48806940F040005B
:10A2C000284988610846806900F04000009000BF7E
:10A2D00000BF00BF0846806940F010008861084652
:10A2E000806900F01000009000BF00BF00BF08466A
:10A2F000806940F0040088610846806900F004002D
:10A30000009000BF00BF00BF0846806940F0080011
:10A3100088610846806900F00800009000BF00BF17
:10A32000012220211048FEF793FD012220210F4831
:10A33000FEF78EFD20200190012002900390022064
:10A34000049001A90848FEF7E3FB202001900120BA
:10A35000029003900220049001A90448FEF7D8FB64
:10A3600005B000BD0010024000180140000C014083
:10A3700010B50B480B4908600B484860002109489C
:10A380008160C1604FF480410161002141618161C0
:10A39000C1610162FEF768FD08B1FEF732F910BD38
:10A3A0000054004038000020A086010010B50B4882
:10A3B0000B4908604FF4165048600021084881603E
:10A3C000C16001610C21416100218161C161FFF720
:10A3D0003FFD08B1FEF715F910BD0000003801403F
:10A3E0008C00002000BFFEE700BFFEE770470000C2
:10A3F00008B508490968C9084FF47A72B1FBF2F14F
:10A400004143009100BF00BF00994A1E00920029FD
:10A41000F9D108BD0C000020704710B5FEF746FECC
:10A4200010BD00B58FB0282105A8FDF7B4FE14219A
:10A430006846FDF7B0FE012005900004069000205C
:10A4400007900120099002200C90C1030D914FF458
:10A45000E0110E9105A8FFF71FF808B1FEF7D1F83B
:10A460000F20009002200190002002904FF48060A5
:10A4700003900020049002216846FEF7E9FE08B12F
:10A48000FEF7BFF80FB000BD704770B505466C6AA7
:10A490000020E085E0842046FFF766FB70BD00BF2A
:10A4A00000BF02680C3252E8002F22F4907102685B
:10A4B0000C3242E80013002BF3D100BF00BF00BFF5
:10A4C0000268143252E8002F22F0010102681432AF
:10A4D00042E80013002BF3D100BF016B01290ED11C
:10A4E00000BF00BF02680C3252E8002F22F01001BA
:10A4F00002680C3242E80013002BF3D100BF202188
:10A5000080F8421000210163704710B504462068AE
:10A51000C06820F040002168C860202084F8410015
:10A520002046FFF77DFD002010BDF8B5044694F8E5
:10A530004200222875D1A068B0F5805F0CD1206957
:10A5400050B90025A66A20684068C0F30800308032
:10A55000A06A801CA06215E0A56A0026A068B0F57C
:10A56000805F03D0A06828B9206918B920684068C6
:10A57000287004E02068406800F07F002870A06A1E
:10A58000401CA062E08D401E80B2E085002846D1CC
:10A590002068C06820F020002168C8602068C0687A
:10A5A00020F480702168C8602068406920F00100B4
:10A5B00021684861202084F8420000206063206BFD
:10A5C000012826D10020206300BF00BF21680C3184
:10A5D00051E8001F21F0100021680C3141E8000211
:10A5E000002AF3D100BF2068006800F01000102896
:10A5F0000AD100BF00200090206800680090206809
:10A600004068009000BF00BFA18D2046FFF75EFAB2
:10A6100002E02046FFF7A4FC0020F8BD01E0002086
:10A62000FBE70220F9E7000070B5044621680969DC
:10A6300021F44051E2681143226811612269A16846
:10A640001143626941EA02052168C96841F20C625E
:10A65000914329432268D1602168496921F44071FE
:10A66000A2691143226851612D4A2168914202D1A9
:10A67000FEF7CAFE01E0FEF7B7FE00EBC00101EBFA
:10A68000001162689200B1FBF2F100EBC00202EB34
:10A69000001263689B00B2FBF3F26423B2FBF3F297
:10A6A00002EBC20303EB0212A1EB8201322202EBA6
:10A6B00001116422B1FBF2F101F0F00100EBC002E4
:10A6C00002EB001263689B00B2FBF3F26423B2FB5F
:10A6D000F3F201EB021200EBC00101EB0011636821
:10A6E0009B00B1FBF3F100EBC00303EB00136668C2
:10A6F000B600B3FBF6F36426B3FBF6F303EBC30635
:10A7000006EB0313A1EB8301322303EB0111642356
:10A71000B1FBF3F101F00F0111442268916070BDAB
:10A720000038014010B5034699629A85DA85002009
:10A730005864222083F84200186928B11868C0685C
:10A7400040F480701C68E0601868406940F00100C7
:10A750001C6860611868C06840F020001C68E060F8
:10A76000002010BD014691F84100212828D18868B9
:10A77000B0F5805F0BD1086948B90A6A1088C0F348
:10A7800008000B685860086A801C086205E00B6AC4
:10A79000581C086218780B685860C88C401E80B23C
:10A7A000C88458B90868C06820F080000B68D86079
:10A7B0000868C06840F040000B68D860002070470F
:10A7C0000220FCE72DE9F84304460D46174698465B
:10A7D000089E31E0701C70B3FEF740FBA0EB080050
:10A7E000B04200D816B90320BDE8F8832068C068DD
:10A7F00000F00400F8B1802D1ED0402D1CD0206840
:10A800000068C0F3C000B0B100BF00200090206815
:10A810000068009020684068009000BF00BF20469C
:10A82000FFF73DFE0820606400BF002084F8400070
:10A8300000BF0120D8E7FFE7206800682840A84251
:10A8400001D1012000E00020B842C3D00020CBE7B6
:10A8500010B50248FFF78AF910BD00008C000020F7
:10A8600000BFFEE70FB4054B10B503A9044A0298D8
:10A8700000F058F810BC5DF814FB000079AA00083D
:10A880003000002002480068C0F30220704700003A
:10A890000CED00E010B5002804DB0A07130E054A92
:10A8A000135406E00A07140E034A00F00F031B1F9F
:10A8B000D45410BD00E400E018ED00E000BF00BF7C
:10A8C00000BFBFF34F8F00BF00BF00BF0948006843
:10A8D00000F4E06008490843001D0649086000BF15
:10A8E00000BF00BFBFF34F8F00BF00BF00BF00BF5E
:10A8F00000BFFDE70CED00E00000FA0500487047DE
:10A900003400002002E008C8121F08C1002AFAD152
:10A9100070477047002001E001C1121F002AFBD1DF
:10A92000704700002DE9FF4F89B09B460446002583
:10A9300006E025280BD05A460B999047641C6D1CE5
:10A9400020780028F5D10DB02846BDE8F08F00270B
:10A95000B8460122474900E0074314F8013F203B75
:10A9600002FA03F00842F7D120782E2819D114F802
:10A97000010F47F004072A280ED06FF02F0220782D
:10A98000A0F1300109290CD808EB880102EB410144
:10A9900000EB0108641CF2E70A98641C50F8048B71
:10A9A0000A9020780028CED0642808D0692806D0E4
:10A9B00075281ED05A460B9990476D1C58E00A998D
:10A9C0004FF00A0901C90A91002802DA40422D21FC
:10A9D00002E0390504D52B218DF82010012103E078
:10A9E000F90704D02021F7E78A4608AE0DE00021E0
:10A9F000FAE70A994FF00A0901C90A91F7E74946AF
:10AA0000FDF7F3FB303106F8011D0028F7D1ADEB5F
:10AA1000060000F12009780701D44FF00108C8456D
:10AA200002DDA8EB090000E000208046002706E0D8
:10AA300008A85A46C05D0B9990476D1C7F1C57456E
:10AA4000F6DB04E030205A460B9990476D1CB8F1B4
:10AA50000001A8F10108F5DC05E016F8010B5A46E3
:10AA60000B9990476D1CB9F10001A9F10109F4DCC3
:10AA7000641C65E70928010013B50C464FF6FF7307
:10AA8000012269460248FFF76CFA00981CBD0000DD
:10AA90008C00002008B500BF002000900E48006820
:10AAA000006800900C4800684068009000BF00BF3C
:10AAB00000BF002000900848006800680090064829
:10AAC00000684068009000BF00BF4FF480620349F7
:10AAD0000148FEF7C1FF08BD8C000020F8000020EF
:10AAE00009480A49086062B6FEF7ECFAFFF799FCDC
:10AAF000FFF7DAFBFFF75AFCFFF73AFCFDF768FCBB
:10AB000001E0FDF70FFDFCE70080000808ED00E024
:10AB100002030405060708090A0B0C0D0E0F10109E
:10AB2000010200000000000000000102030406070B
:10AB300008090000000001020304004040404040BA
:10AB40004040404041414141414040404040404000
:10AB50004040404040404040404040050202020228
:10AB6000020202020202020202020220202020202F
:10AB700020202020200202020202020290909090E7
:10AB800090901010101010101010101010101010C5
:10AB90001010101010100202020202028888888829
:10ABA0008888080808080808080808080808080825
:10ABB0000808080808080202020240003BAB00082F
:10ABC000E0AB0008000000203800000004A90008E5
:10ABD00018AC0008380000200009000014A9000883
:10ABE00000000000100000000100000000127A00C8
:10ABF0000000000000000000000000000000000055
:10AC00000000000000000000000000000000000044
:08AC100000000000000000003C
:04000005080081313D
:00000001FF
