:020000040800F2
:100000008805002005010008A91D0008AF1A000896
:10001000A51D000871010008CD24000800000000A3
:10002000000000000000000000000000C5200008E3
:10003000510200080000000099200008C7200008B5
:100040001F0100081F0100081F0100081F01000810
:100050001F0100081F0100081F0100081F01000800
:100060001F0100081F0100081F0100081F010008F0
:100070001F0100081F0100081F0100081F010008E0
:100080001F0100081F0100081F0100081F010008D0
:100090001F0100081F0100081F0100081F010008C0
:1000A0001F0100081F0100081F0100081F010008B0
:1000B0001F0100081F0100081F0100081F010008A0
:1000C0001F0100081F0100081F0100081F01000890
:1000D0001F010008BD2400081F0100081F010008BF
:1000E0001F0100081F0100081F010008DFF810D0E1
:1000F00000F02CF80048004775250008AFF3008099
:10010000880500200648804706480047FEE7FEE7CE
:10011000FEE7FEE7FEE7FEE7FEE7FEE7FEE7FEE7B7
:1001200035210008ED000008D2B201E000F8012BF3
:10013000491EFBD270470022F6E710B513460A4667
:1001400004461946FFF7F0FF204610BD064C074D48
:1001500006E0E06840F0010394E807009847103497
:10016000AC42F6D3FFF7C6FFC02D0008E02D000813
:1001700000BFFEE700B58BB0002005900690079009
:10018000012008904EF6E0700190002002904FF69A
:10019000E0700390002004900120099001A902481A
:1001A00000F0FFF80BB000BD1401002010B50021D5
:1001B000034800F07BF908B1012010BD0020FCE7E6
:1001C0001401002010B5044604F11C03224600214E
:1001D000014800F07FF910BD1401002070B50446FD
:1001E0006FF07F4500BF144800F03EFA18B9281E92
:1001F000A5F10105F7D11DB910A002F069F970BD94
:1002000004F118031A1D21460B4800F025F86FF081
:100210007F4500BF084800688068C0F3400018B9F7
:10022000281EA5F10105F5D11DB904A002F050F971
:10023000E5E700BFE3E700001401002043414E2042
:1002400053656E642054696D656F7574210D0A00E5
:10025000704772B600BFFEE7F0B504460D461E4675
:1002600094F8207020688368A86800B900E000BF97
:10027000012F01D0022F7DD103F0806030B903F04F
:10028000006018B903F0805000287ED0C3F30161EC
:10029000012088403060A86860B9B5F800C0E868FF
:1002A00040EA4C5C206800F5C07000EB0110C0F81B
:1002B00000C00FE0D5E901C040EACC00D5F80CC081
:1002C00040EA0C00D4F800C00CF5C07C0CEB011C1B
:1002D000CCF80000D5F810C0206800F5C07000EB25
:1002E0000110C0F804C0287D01280ED1206800F557
:1002F000C07000EB0110406840F4807C206800F57D
:10030000C07000EB0110C0F804C0D079000692F86C
:1003100006C040EA0C4092F805C040EA0C2092F872
:1003200004C040EA0C00D4F800C00CF5C07C0CEB13
:10033000011CCCF80C00D078000692F802C040EA0C
:100340000C4092F801C040EA0C2092F800C040EA4C
:100350000C00D4F800C00CF5C07C0CEB011CCCF8F0
:100360000800206800F5C07000EB0110006840F044
:10037000010C01E00FE008E0206800F5C07000EB20
:100380000110C0F800C00020F0BD606A40F4001009
:1003900060620120F8E7606A40F48020606201201A
:1003A000F2E7F0B504460A46216894F82050012D82
:1003B00001D0022D74D1D1F8000240F00100C1F843
:1003C0000002107D00F01F06012000FA06F3D1F8AC
:1003D0001C029843C1F81C02D069C8B9D1F80C02BC
:1003E0009843C1F80C02908880B2968940EA06468C
:1003F00001F51070576940F83760108880B216898F
:1004000040EA064601F51070576900EBC7004660E8
:10041000D069012819D1D1F80C021843C1F80C0297
:10042000908880B2168840EA064601F51070576938
:1004300040F83760908980B2168940EA064601F597
:100440001070576900EBC7004660906928B9D1F871
:1004500004029843C1F8040204E0D1F804021843EE
:10046000C1F80402106928B9D1F814029843C1F800
:10047000140204E0D1F814021843C1F81402106AFF
:10048000012804D1D1F81C021843C1F81C02D1F88C
:10049000000220F00100C1F800020020F0BDFFE7DB
:1004A000606A40F4802060620120F7E710B50246E0
:1004B000002092F82030012B01D0022B09D121B964
:1004C0001468E46804F0030003E01468246904F08D
:1004D000030010BD70B5044694F82050012D01D0E2
:1004E000022D7DD151B92068C06800F0030080B9A9
:1004F000606A40F400106062012070BD20680069ED
:1005000000F0030028B9606A40F400106062012026
:10051000F3E7206800F5D87000EB0110006800F0E8
:1005200004009060906840B9206800F5D87000EB36
:1005300001100068400D106007E0206800F5D870D9
:1005400000EB01100068C0085060206800F5D8700A
:1005500000EB0110006800F00200D060206800F598
:10056000D87000EB0110406800F00F00082802D39B
:100570000820106108E0206800F5D87000EB011039
:10058000406800F00F001061206800F5D87000EBA3
:100590000110406800F47F40000A9061206800F577
:1005A000D87000EB01104068000C5061206800F525
:1005B000D87000EB011080681870206800F5D870C2
:1005C00000EB0110806800F47F40000A587020683A
:1005D00000F5D87000EB0110806800F47F0000E0A7
:1005E0003CE0000C9870206800F5D87000EB01101A
:1005F0008068000ED870206800F5D87000EB0110FC
:10060000C0681871206800F5D87000EB0110C06850
:1006100000F47F40000A5871206800F5D87000EBA4
:100620000110C06800F47F00000C9871206800F58C
:10063000D87000EB0110C068000ED87131B9206885
:10064000C06840F020002668F06005E0206800697E
:1006500040F020002668306100204EE7606A40F4D8
:1006600080206062012048E70146002091F82020A8
:10067000012A01D0022A11D10B689B6803F0806324
:1006800003B1401C0B689B6803F0006303B1401C7E
:100690000B689B6803F0805303B1401C704770B532
:1006A00004460CB9012070BD94F8200010B9204612
:1006B00000F0B0F82068006840F001002168086090
:1006C00000F050FB05460DE000F04CFB401B0A28F3
:1006D00008D9606A40F400306062052084F8200088
:1006E0000120E0E72068406800F001000028EBD01E
:1006F0002068006820F002002168086000F032FBEA
:1007000005460DE000F02EFB401B0A2808D9606A60
:1007100040F400306062052084F820000120C2E728
:100720002068406800F002000028EBD1207E0128FC
:1007300006D12068006840F080002168086005E06C
:100740002068006820F0800021680860607E012831
:1007500006D12068006840F040002168086005E08C
:100760002068006820F0400021680860A07E012811
:1007700006D12068006840F020002168086005E08C
:100780002068006820F0200021680860E07E0128D1
:1007900006D12068006820F010002168086005E09C
:1007A0002068006840F0100021680860207F012860
:1007B00006D12068006840F008002168086005E064
:1007C0002068006820F0080021680860607F012828
:1007D00006D12068006840F004002168086005E048
:1007E0002068006820F0040021680860D4E9020154
:1007F000084321690843616908436168491E084349
:100800002168C86100206062012084F82000002077
:1008100049E7000010B586B004460020029003901E
:10082000049005901A49206888422ED100BF1948CB
:10083000C06940F000701749C8610846C06900F0FF
:100840000070019000BF00BF00BF0846806940F003
:10085000040088610846806900F00400019000BF30
:1008600000BFC814029000200390049002A90A4817
:1008700000F0DAF84FF48050029002200390032039
:10088000059002A9044800F0CFF806B010BD0000A2
:1008900000640040001002400008014070B50446AA
:1008A00094F82000012822D1022084F8200020683A
:1008B000006820F001002168086000F053FA054646
:1008C0000DE000F04FFA401B0A2808D9606A40F496
:1008D00000306062052084F82000012070BD20688F
:1008E000406800F001000028EBD16062F6E7606A22
:1008F00040F4002060620120F0E70146002291F8F8
:100900002100022808D00420886300BF002081F85D
:10091000200000BF012070470868006820F00E002A
:100920000B6818600868006820F001000B68186008
:1009300091F8403001209840CB6B5860012081F83D
:10094000210000BF002081F8200000BF1046E2E730
:1009500070B50446002594F82100022803D0042035
:10096000A063012548E02068006820F00E0021689F
:1009700008602068006820F00100216808601F49B5
:100980002068884201D1012026E01C4914312068EA
:10099000884201D110201FE0184928312068884280
:1009A00001D1801518E015493C312068884201D1F9
:1009B000801411E0114950312068884202D14FF46F
:1009C000803009E00D4964312068884202D14FF43B
:1009D000801001E04FF0807008490839486001201C
:1009E00084F8210000BF002084F8200000BF606B65
:1009F00010B12046616B8847284670BD0800024050
:100A000070B5044600F0AEF906462546681C10B1E4
:100A100004480078054400BF00F0A4F9801BA842F8
:100A2000FAD370BDE40000202DE9F8470346002208
:100A300094466EE14FF0010808FA02F4D1F8008004
:100A400008EA0400A0427DD1DFF8DCA2D1F80480DE
:100A5000A8EB0A09D0453AD014DCB8F1030F50D006
:100A600009DCB8F1000F31D0B8F1010F1CD0B8F19A
:100A7000020F49D120E0B8F1110F18D0B8F1120FD0
:100A800042D11EE0B9F5881F25D006DCB9F5803FBC
:100A900020D0B9F5801F37D11AE0B9F5001F18D062
:100AA000B9F5041F30D117E0D1F80CC02DE0D1F812
:100AB0000C8008F1040C28E0D1F80C8008F1080C37
:100AC00023E0D1F80C8008F10C0C1EE000BF00BF41
:100AD00000BF00BF00BF00BFD1F80880B8F1000F11
:100AE00002D14FF0040C0BE0D1F80880B8F1010FEF
:100AF00003D14FF0080C1C6102E04FF0080C5C6160
:100B000003E04FF0000C00E000BF00BFFF2801D859
:100B1000984601E003F104084646FF2802D84FEA50
:100B2000820803E0A2F108084FEA88084746D6F891
:100B300000804FF00F0909FA07F928EA09080CFAB2
:100B400007F900E088E048EA0908C6F80080D1F813
:100B5000048008F08058B8F1805F7DD100BFDFF8D5
:100B6000CC81D8F8188048F00108DFF8C091C9F8A6
:100B70001880C846D8F8188008F00108CDF8008021
:100B800000BF00BF4FEAB9384FEA920958F8295020
:100B90004FEA82784FEA18794FF00F0808FA09F8FF
:100BA00025EA0805DFF88881434502D14FF00008A7
:100BB00016E0DFF88081434502D14FF001080FE0D5
:100BC000DFF87481434502D14FF0020808E0DFF8F6
:100BD0006C81434502D14FF0030801E04FF0040857
:100BE0004FEA82794FEA197908FA09F848EA0505C7
:100BF000DFF84C814FEA920948F82950D1F8048077
:100C000008F48018B8F5801F0AD1DFF83881D8F8C9
:100C1000008048EA0008DFF82C91C9F8008009E05C
:100C2000DFF82081D8F8008028EA0008DFF8149166
:100C3000C9F80080D1F8048008F40018B8F5001F46
:100C400010D1DFF8008108F10408D8F8008048EAE4
:100C50000008DFF8F09000E05AE009F10409C9F853
:100C600000800DE0DFF8DC8008F10408D8F800808F
:100C700028EA0008DFF8CC9009F10409C9F80080DF
:100C8000D1F8048008F40038B8F5003F0ED1DFF841
:100C9000B480A8F10408D8F8008048EA0008DFF81A
:100CA000A490A9F10409C9F800800DE0DFF8948050
:100CB000A8F10408D8F8008028EA0008DFF884903A
:100CC000A9F10409C9F80080D1F8048008F480383B
:100CD000B8F5803F0ED1DFF86C80A8F10808D8F88D
:100CE000008048EA0008DFF85C90A9F10809C9F81B
:100CF00000800DE0DFF84C80A8F10808D8F80080EB
:100D000028EA0008DFF83C90A9F10809C9F800803A
:100D1000521CD1F8008028FA02F8B8F1000F7FF4D5
:100D200089AEBDE8F88700000000111000100240F5
:100D300000080140000C0140001001400014014077
:100D40000800014008040140024693680B400BB1C3
:100D5000012000E0002070470AB1016101E00B04AE
:100D6000036170470148006870470000DC00002004
:100D7000034800680349097808440149086070473E
:100D8000DC000020E400002010B50848006840F0B6
:100D9000100006490860032000F0A8F80F2000F0BA
:100DA00007F800F02BF8002010BD000000200240E2
:100DB00070B504460E4800784FF47A71B1FBF0F03C
:100DC0000C490968B1FBF0F5284600F0F9FB08B1C1
:100DD000012070BD102C07D200222146501E00F0C9
:100DE00047F80548046001E00120F2E70020F0E741
:100DF000E4000020E8000020E000002008B500BF6B
:100E00001148806940F001000F49886108468069F7
:100E100000F00100009000BF00BF00BF0846C0699D
:100E200040F08050C8610846C06900F080500090D2
:100E300000BF00BF00BF0549486820F0E06040F0F7
:100E40000070486000BF08BD001002400000014073
:100E500001460846002809DB00F01F0301229A40E2
:100E600043099B0003F1E023C3F8002100BF704752
:100E70002DE9F05F80460D461646002701F030FB55
:100E8000074639462A46334601F00700C0F1070AF3
:100E9000BAF1040F02D94FF0040A01E0C0F1070AC9
:100EA000D14600F1040ABAF1070F02D24FF0000A4E
:100EB00001E0A0F1030AD4464FF0010A0AFA09FA48
:100EC000AAF1010A0AEA020A0AFA0CFA4FF0010B27
:100ED0000BFA0CFBABF1010B0BEA030B4AEA0B0418
:100EE0002146404601F004FBBDE8F09F00BF00F042
:100EF0000702064B19684FF6FF031940044B0B43DA
:100F000043EA0221014B196000BF70470CED00E07D
:100F10000000FA0570B504460D460CB9012070BDFD
:100F20005A48006800F00700A8420ED257480068EF
:100F300020F007002843554908600846006800F083
:100F40000700A84201D00120E9E7207800F0020064
:100F500002281DD1207800F00400042805D14C4857
:100F6000406840F4E0604A494860207800F008009A
:100F7000082805D14648406840F46050444948601C
:100F80004348406820F0F000A168084340494860A9
:100F9000207800F0010078B36068012806D13C4851
:100FA000006800F4003090B90120B8E760680228BA
:100FB00006D13748006800F0007040B90120AEE764
:100FC0003348006800F0020008B90120A7E7304864
:100FD000406820F00300616808432D494860FFF72E
:100FE000C1FE064609E0FFF7BDFE801B41F28831D5
:100FF000884202D9032092E707E02548406800F0C4
:101000000C006168B0EB810FEDD12048006800F062
:101010000700A8420ED91D48006820F007002843A9
:101020001A4908600846006800F00700A84201D08D
:10103000012074E7207800F00400042807D1144848
:10104000406820F4E060E168084311494860207876
:1010500000F00800082808D10D48406820F46050CE
:10106000216940EAC1000A49486000F03FF8084998
:101070004968C1F30311074A515CC840064908603A
:1010800006480068FFF794FE002048E70020024071
:1010900000100240B6270008E8000020E000002011
:1010A0000148006870470000E800002000B5FFF725
:1010B000F7FF04494968C1F30221034A515CC84063
:1010C00000BD000000100240C627000800B5FFF771
:1010D000E7FF04494968C1F3C221034A515CC84093
:1010E00000BD000000100240C627000870B50021B6
:1010F0000022002400230020134D696801F00C0534
:10110000F5B1042D02D0082D19D101E00F4819E0E6
:101110000F4DC1F38346AB5D01F4803555B10A4DE7
:101120006D68C5F340450B4E725D084D5D43B5FBE0
:10113000F2F402E0084D03FB05F4204602E000BF94
:10114000024800BF00BF70BD0010024000127A00CC
:10115000A4270008B427000800093D00F8B504469C
:101160000CB90120F8BD207800F00100002878D0EB
:10117000F848406800F00C0004280CD0F54840689E
:1011800000F00C00082811D1F248406800F48030CB
:10119000B0F5803F0AD1EF48006800F40030002825
:1011A0005FD0606800285CD10120DBE700BF606889
:1011B000B0F5803F06D1E748006840F48030E5494B
:1011C000086028E0606858B9E248006820F4803080
:1011D000E04908600846006820F4802008601AE0B2
:1011E0006068B0F5A02F0BD1DA48006840F4802089
:1011F000D84908600846006840F4803008600AE07A
:10120000D448006820F48030D2490860084600685D
:1012100020F48020086000BF606888B1FFF7A2FD5D
:10122000054606E0FFF79EFD401B642801D9032018
:1012300098E7C848006800F400300028F2D010E0B9
:10124000FFF790FD054606E0FFF78CFD401B642884
:1012500001D9032086E7BF48006800F40030002869
:10126000F2D1207800F00200022857D1B948406836
:1012700000F00C0050B1B748406800F00C0008289E
:1012800018D1B448406800F4803098B9B14800687B
:1012900000F0020020B12069012801D0012061E79F
:1012A000AC48006820F0F800616940EAC100A94933
:1012B000086033E02069E8B10120A7490860FFF722
:1012C00051FD054606E0FFF74DFD401B022801D900
:1012D000032047E79F48006800F002000028F2D092
:1012E0009C48006820F0F800616940EAC100994913
:1012F000086013E0002098490860FFF733FD0546B9
:1013000006E0FFF72FFD401B022801D9032029E743
:101310009048006800F002000028F2D1207800F028
:10132000080008282DD1A069B8B101208B490860B8
:10133000FFF718FD054606E0FFF714FD401B0228E5
:1013400001D903200EE78348406A00F0020000281C
:10135000F2D0012000F0A2FE13E000207F490860D7
:10136000FFF700FD054606E0FFF7FCFC401B0228E6
:1013700001D90320F6E67748406A00F00200002811
:10138000F2D1207800F00400042873D100277148BE
:10139000C06900F0805070B900BF6E48C06940F06D
:1013A00080506C49C8610846C06900F080500090C8
:1013B00000BF00BF01276A48006800F48070B0B920
:1013C0006748006840F4807065490860FFF7CAFC10
:1013D000054606E0FFF7C6FC401B642801D9032040
:1013E000C0E65F48006800F480700028F2D000BFBB
:1013F000E068012806D15748006A40F001005549CD
:10140000086227E0E06858B95248006A20F00100FD
:10141000504908620846006A20F00400086219E09A
:10142000E06805280BD14B48006A40F004004949A8
:1014300008620846006A40F0010008620AE0454878
:10144000006A20F00100434908620846006A20F063
:101450000400086200BFE068A0B1FFF783FC054606
:1014600009E0FFF77FFC401B41F28831884202D936
:10147000032077E622E03748006A00F002000028E7
:10148000EFD012E0FFF76EFC054608E0FFF76AFCBC
:10149000401B41F28831884201D9032062E62D4881
:1014A000006A00F002000028F0D1012F05D1294880
:1014B000C06920F080502749C86100BFE069C8B307
:1014C0002448406800F00C00082860D0E069022839
:1014D00048D1002020490866FFF744FC054606E095
:1014E000FFF740FC401B022801D903203AE61948C7
:1014F000006800F000700028F2D1206AB0F5803F4B
:1015000007D11448406820F40030A168084311490D
:101510004860D4E9080108430E49496821F4741170
:1015200008430C49486001200B490866FFF71AFC84
:10153000054607E03DE0FFF715FC401B022801D9F6
:1015400003200FE60348006800F000700028F2D086
:101550002FE000000010024000004242800442429E
:1015600000700040002014490866FFF7FBFB0546A9
:1015700006E0FFF7F7FB401B022801D90320F1E545
:101580000E48006800F000700028F2D111E0E06918
:10159000012800D1E6E50948466806F48031206A52
:1015A000814204D106F47011606A814201D00120A9
:1015B000D8E50020D6E500000000424200100240BD
:1015C00070B504462546681EB0F1807F01D3012026
:1015D0000FE0681E4FF0E02148610F214FF0FF300F
:1015E00000F086FF00204FF0E021886107200861AD
:1015F000002070BD704770472DE9F84F0446206801
:1016000005682068C668206847694FF00009CA4627
:1016100005F00F09B9F1000F0AD105F0200038B12B
:1016200006F0200020B1204600F0D5FDBDE8F88F7F
:10163000B9F1000F7BD007F0010018B906F49070E3
:10164000002874D005F0010030B106F4807018B1A4
:10165000606C40F00100606405F0040030B107F0F8
:10166000010018B1606C40F00200606405F00200F7
:1016700030B107F0010018B1606C40F00400606404
:1016800005F0080048B106F0200010B907F001008D
:1016900018B1606C40F008006064606C002845D0B0
:1016A00005F0200028B106F0200010B1204600F01F
:1016B00092FD20684069C0F3801A606C00F0080059
:1016C00010B9BAF1000F2CD0204600F03EFD206882
:1016D000406900F0400000B300BF00BF2168143132
:1016E00051E8001F21F040002168143141E8000258
:1016F000002AF3D100BFE06B50B17748E16B48633B
:10170000E06BFFF725F988B1E06B416B88470DE08E
:101710002046FFF770FF09E009E02046FFF76BFF66
:1017200004E02046FFF767FF002060647EE7206B3F
:10173000012877D105F01000002873D006F01000C2
:101740000028FAD000BF00200090206800680090B8
:1017500020684068009000BF00BF2068406900F02A
:10176000400000285FD0E06B006840681FFA80F8F6
:10177000B8F1000F55D0A08D404552DDA4F82E8061
:10178000E06B8069202843D000BF00BF21680C3186
:1017900051E8001F21F4807021680C3141E80002FB
:1017A000002AF3D100BF00BF00BF2168143151E807
:1017B000001F21F001002168143141E80002002AD5
:1017C000F3D100BF00BF00BF2168143151E8001FF2
:1017D00021F040002168143141E80002002AF3D1D1
:1017E00000BF202084F842000020206300BF00BF1B
:1017F00021680C3151E8001F21F0100021680C31E4
:1018000041E80002002AF3D100BFE06BFFF775F852
:1018100002206063A08DE28D801A81B22046FFF71E
:10182000E9FE03E742E0A08DE18D401A1FFA80F83F
:10183000E08DD0B3B8F1000F37D000BF00BF2168F2
:101840000C3151E8001F21F4907021680C3141E8FF
:101850000002002AF3D100BF00BF00BF216814318D
:1018600051E8001F21F001002168143141E8000215
:10187000002AF3D100BF202084F84200002020631A
:1018800000BF00BF21680C3151E8001F21F010009B
:1018900021680C3141E80002002AF3D100BF022088
:1018A000606341462046FFF7A5FEBFE605F08000D5
:1018B00030B106F0800018B1204600F089FDB5E691
:1018C00005F0400030B106F0400018B1204600F0AD
:1018D00072FCABE600BFA9E63721000810B504464C
:1018E0000CB9012010BDA06900B100E000BF94F860
:1018F000410028B9002084F84000204600F02AF872
:10190000242084F841002068C06820F40050216839
:10191000C860204600F0DEFC2068006920F490409A
:10192000216808612068406920F02A002168486128
:101930002068C06840F400502168C86000206064DE
:10194000202084F8410084F842000020606300BF3A
:10195000C8E7000010B586B004460020029003904E
:10196000049005901E492068884236D100BF1D486A
:10197000806940F480401B4988610846806900F412
:101980008040019000BF00BF00BF0846806940F062
:10199000040088610846806900F00400019000BFDF
:1019A00000BF48150290022003900320059002A971
:1019B0000D48FFF739F84FF4806002900020039043
:1019C000049002A90848FFF72FF8002211462520AD
:1019D000FFF74EFA2520FFF73BFA06B010BD0000D6
:1019E00000380140001002400008014070472DE916
:1019F000F84F04460E46174699464FF0000A94F8F1
:101A00004100202850D106B117B90120BDE8F88F58
:101A100000206064212084F84100FFF7A3F982468A
:101A2000A784E784A068B0F5805F04D1206910B96D
:101A30000025B04602E035464FF000081EE0534650
:101A4000002280212046CDF8009000F0F1FC20B16A
:101A5000202084F841000320D8E745B9B8F80000F9
:101A6000C0F308002168486008F1020803E0287804
:101A7000216848606D1CE08C401EE084E08C0028EA
:101A8000DDD15346002240212046CDF8009000F0E1
:101A9000CFFC20B1202084F841000320B6E72020AD
:101AA00084F841000020B1E70220AFE7704700BF93
:101AB000FEE7000010B5002480212748FFF744F915
:101AC00068B90A20FEF79CFF00BF80212248FFF77B
:101AD0003BF90028F9D00A20FEF792FF01244FF4C9
:101AE00080611E48FFF730F970B90A20FEF788FFC1
:101AF00000BF4FF480611948FFF726F90028F8D09D
:101B00000A20FEF77DFF022402211448FFF71CF98A
:101B100068B90A20FEF774FF00BF02210F48FFF7E3
:101B200013F90028F9D00A20FEF76AFF03240121E7
:101B30000A48FFF709F968B90A20FEF761FF00BFFC
:101B400001210648FFF700F90028F9D00A20FEF726
:101B500057FF0424204610BD00080140000C01403E
:101B600070B504460D462DB3012C06D0022C0AD0C8
:101B7000032C0ED0042C18D111E00122042121489D
:101B8000FFF7EAF815E0012208211E48FFF7E4F804
:101B90000FE0012210211B48FFF7DEF809E00122C7
:101BA00020211848FFF7D8F803E017A000F090FCB8
:101BB00000BF25E0012C06D0022C0AD0032C0ED049
:101BC000042C18D111E0002204210E48FFF7C4F8BC
:101BD00015E0002208210B48FFF7BEF80FE00022B5
:101BE00010210848FFF7B8F809E000222021054835
:101BF000FFF7B2F803E004A000F06AFC00BF00BFEA
:101C0000002070BD000801404C45445F436F6E7476
:101C1000726F6C3A20696E76616C6964204C454441
:101C200020696E6465780A0010B511481149086092
:101C30002420486000210F488160C1604FF480314A
:101C400001614901416100210176012141768176DE
:101C50000021C17601774177FEF721FD08B1FEF73B
:101C6000F8FA0448FEF71AFEFEF784FA10BD0000E9
:101C7000006400401401002000B585B000200190F0
:101C800002900390049000BF3548806940F0100036
:101C9000334988610846806900F01000009000BF59
:101CA00000BF00BF0846806940F0200088610846F8
:101CB000806900F02000009000BF00BF00BF084610
:101CC000806940F0040088610846806900F00400E3
:101CD000009000BF00BF00BF0846806940F00800C8
:101CE00088610846806900F00800009000BF00BFCE
:101CF00000223C211B48FFF72FF80022C0211A4880
:101D0000FFF72AF83C200190012002900390022066
:101D1000049001A91348FEF787FE8020019000205F
:101D200002900120039001A90E48FEF77DFE40F2CB
:101D300003400190002002900120039001A90A486D
:101D4000FEF772FEC0200190012002900020039057
:101D50000220049001A90448FEF766FE05B000BD0C
:101D60000010024000080140000C014010B50B4873
:101D70000B4908604FF4E130486000210848816059
:101D8000C16001610C21416100218161C161FFF7E6
:101D9000A5FD08B1FEF75DFA10BD00000038014056
:101DA0003C01002000BFFEE700BFFEE770B5002445
:101DB0000EE00021204600F0C6F8002504E00020D7
:101DC00000F05AF9681CC5B2802DF8DB601CC4B263
:101DD000082CEEDB70BD000070B50546002417E04E
:101DE00080202041284008B1012000E00020024668
:101DF00080210E48FEF7B0FF012240210B48FEF77C
:101E0000ABFF002240210948FEF7A6FF601CC4B2C8
:101E1000082CE5DB012240210448FEF79DFF00224B
:101E200040210248FEF798FF70BD0000000C014001
:101E300010B5012280210948FEF78EFF01224021C2
:101E40000648FEF789FF002280210448FEF784FF40
:101E5000002240210148FEF77FFF10BD000C014029
:101E600010B5002280210748FEF776FF01224021AD
:101E70000448FEF771FF012280210248FEF76CFF43
:101E800010BD0000000C014070B5002406E00025E4
:101E900000E06D1CB5F57A7FFBD3641CB4F57A7F46
:101EA000F5D3AE2000F0D8F8D52000F0D5F880208A
:101EB00000F0D2F8A82000F0CFF83F2000F0CCF8D6
:101EC000D32000F0C9F8002000F0C6F8402000F050
:101ED000C3F8A12000F0C0F8C82000F0BDF8DA2057
:101EE00000F0BAF8122000F0B7F8812000F0B4F842
:101EF000CF2000F0B1F8D92000F0AEF8F12000F0CA
:101F0000ABF8DB2000F0A8F8302000F0A5F8A42002
:101F100000F0A2F8A62000F09FF88D2000F09CF8B9
:101F2000142000F099F8AF2000F096F8FFF73EFF7C
:101F300070BD10B50246012000E050430B1EA1F118
:101F40000101FAD110BD70B505460C4645F0B00050
:101F500000F082F8102141EA141000F07DF804F03E
:101F60000F0000F079F870BD2DE9F04105460E46EE
:101F70001746721ED206110E6A1E5206100EFFF789
:101F8000E2FF002409E0A7F12001134A02EB01114E
:101F9000085D00F071F8601CC4B2082CF3DB721EFF
:101FA000D206110E6A1E012303EB4202D0B2FFF7E4
:101FB000CAFF00240BE0A7F12001074A02EB01123F
:101FC00004F10801505C00F057F8601CC4B2082C02
:101FD000F1DBBDE8F0810000CE2700082DE9F047D5
:101FE00081460E4690461F4600241DE0381B411EC8
:101FF0001020FFF79EFFB8FBF0F000F00F050A2D50
:1020000008DA05F13000C2B23019C1B24846FFF714
:10201000ABFF07E005F13700C2B23019C1B2484644
:10202000FFF7A2FF601CC4B2BC42DFDBBDE8F08753
:102030002DE9F04107460E461546002407E02A5DCB
:102040003019C1B23846FFF78FFF601CC4B2285D5B
:102050000028F4D1BDE8F08110B50446FFF7E8FE92
:102060007820FFF7B9FE0020FFF7B6FE2046FFF705
:10207000B3FEFFF7F5FE10BD10B50446FFF7D8FE1E
:102080007820FFF7A9FE4020FFF7A6FE2046FFF7C5
:10209000A3FEFFF7E5FE10BD7047000008B5084934
:1020A0000968C9084FF47A72B1FBF2F1414300911B
:1020B00000BF00BF00994A1E00920029F9D108BD57
:1020C000E8000020704710B5FEF752FE10BD00B5C5
:1020D0008FB0282105A8FEF72EF814216846FEF7D8
:1020E0002AF80120059000040690002007900120A6
:1020F000099002200C90C1030D914FF4E0110E9154
:1021000005A8FFF72BF808B1FEF7A3F80F20009001
:1021100002200190002002904FF480600390002084
:10212000049002216846FEF7F5FE08B1FEF791F82B
:102130000FB000BD704770B505466C6A0020E085A1
:10214000E0842046FFF757FA70BD00BF00BF026869
:102150000C3252E8002F22F4907102680C3242E8EF
:102160000013002BF3D100BF00BF00BF0268143280
:1021700052E8002F22F001010268143242E80013F5
:10218000002BF3D100BF016B01290ED100BF00BFAE
:1021900002680C3252E8002F22F0100102680C3263
:1021A00042E80013002BF3D100BF202180F8421039
:1021B00000210163704710B504462068C06820F014
:1021C00040002168C860202084F841002046FFF7C5
:1021D0006DFC002010BDF8B5044694F8420022289A
:1021E00075D1A068B0F5805F0CD1206950B9002589
:1021F000A66A20684068C0F308003080A06A801C8E
:10220000A06215E0A56A0026A068B0F5805F03D043
:10221000A06828B9206918B920684068287004E0CF
:102220002068406800F07F002870A06A401CA0620F
:10223000E08D401E80B2E085002846D12068C0684D
:1022400020F020002168C8602068C06820F48070F9
:102250002168C8602068406920F001002168486159
:10226000202084F8420000206063206B012826D1E2
:102270000020206300BF00BF21680C3151E8001F1F
:1022800021F0100021680C3141E80002002AF3D14E
:1022900000BF2068006800F0100010280AD100BFBD
:1022A000002000902068006800902068406800903E
:1022B00000BF00BFA18D2046FFF79CF902E0204639
:1022C000FFF794FB0020F8BD01E00020FBE70220AF
:1022D000F9E7000070B504462168096921F440510E
:1022E000E2681143226811612269A16811436269A1
:1022F00041EA02052168C96841F20C629143294311
:102300002268D1602168496921F44071A2691143B2
:10231000226851612D4A2168914202D1FEF7D6FE12
:1023200001E0FEF7C3FE00EBC00101EB00116268A3
:102330009200B1FBF2F100EBC00202EB0012636805
:102340009B00B2FBF3F26423B2FBF3F202EBC20395
:1023500003EB0212A1EB8201322202EB0111642293
:10236000B1FBF2F101F0F00100EBC00202EB001250
:1023700063689B00B2FBF3F26423B2FBF3F201EB60
:10238000021200EBC00101EB001163689B00B1FB7E
:10239000F3F100EBC00303EB00136668B600B3FB78
:1023A000F6F36426B3FBF6F303EBC30606EB031365
:1023B000A1EB8301322303EB01116423B1FBF3F1A1
:1023C00001F00F0111442268916070BD0038014096
:1023D000014691F84100212828D18868B0F5805F36
:1023E0000BD1086948B90A6A1088C0F308000B6865
:1023F0005860086A801C086205E00B6A581C086275
:1024000018780B685860C88C401E80B2C88458B9D0
:102410000868C06820F080000B68D8600868C06851
:1024200040F040000B68D860002070470220FCE7B5
:102430002DE9F84304460D4617469846089E31E0BC
:10244000701C70B3FEF78EFCA0EB0800B04200D801
:1024500016B90320BDE8F8832068C06800F00400C6
:10246000F8B1802D1ED0402D1CD020680068C0F32C
:10247000C000B0B100BF002000902068006800904C
:1024800020684068009000BF00BF2046FFF75DFE57
:102490000820606400BF002084F8400000BF0120D5
:1024A000D8E7FFE7206800682840A84201D1012052
:1024B00000E00020B842C3D00020CBE710B50248AE
:1024C000FFF79AF810BD00003C01002000BFFEE7B6
:1024D000014A024900F02FB859250008EC000020FD
:1024E00002480068C0F30220704700000CED00E0D5
:1024F00010B5002804DB0A07130E054A135406E042
:102500000A07140E034A00F00F031B1FD45410BD1A
:1025100000E400E018ED00E002E008C8121F08C166
:10252000002AFAD170477047002001E001C1121F54
:10253000002AFBD170472DE9F04116460F460446AC
:10254000002503E03946B047641C6D1C2078002844
:10255000F8D12846BDE8F08113B50C464FF0FF33A3
:10256000012269460248FFF742FA00981CBD0000AC
:102570003C010020FEF708FCFFF7A9FDFFF77CFBFC
:10258000FFF752FBFFF7F2FB0024FFF77DFC80A270
:1025900001210846FFF74CFDF9E0FFF78BFA0446EE
:1025A000012C06D0022C16D0032C27D0042C3FD1AE
:1025B00037E07948007880F00100774908700846D4
:1025C000007818B97548FDF709FE03E07348243810
:1025D000FDF704FE2DE07048407880F001006E4960
:1025E00048700846407820B96C484830FDF7F6FD41
:1025F00003E06A482430FDF7F1FD1AE06648807870
:1026000080F00100644988700846807820B96348EA
:102610009030FDF7E3FD03E060486C30FDF7DEFD30
:1026200007E05D48C07880F001005B49C87000E0B9
:1026300000BF00BFFDF7BAFD00287CD05848FDF769
:10264000C1FD5748007FAA2863D15548407F112813
:102650005FD15348807F092859D2DFE800F0580540
:10266000111B27323E4951004B480078012806D003
:1026700001204949087049482438FDF7AFFD47E07B
:102680004548007828B10020434908704348FDF7C9
:10269000A5FD3DE040484078012806D001203E4994
:1026A00048703E482430FDF799FD31E03A484078C3
:1026B00030B100203849487038484830FDF78EFD69
:1026C00026E035488078012806D0012032498870FC
:1026D00032486C30FDF782FD1AE02F48807830B127
:1026E00000202D4988702D489030FDF777FD0FE0D0
:1026F0002948C078012802D001202749C87007E086
:102700002548C07810B100202349C87000E000BF00
:1027100000BF1FA201210846FFF78AFC20480323BF
:10272000082102680120FFF759FC1D48027F02239F
:102730000121184600E016E0FFF750FC1848427FE0
:10274000022305211846FFF749FC1548827F022322
:1027500009211846FFF742FC1148C27F02230D21D0
:102760001846FFF73BFC0C4801780120FFF7F8F909
:10277000094841780220FFF7F3F9074881780320E0
:10278000FFF7EEF90448C1780420FFF7E9F904E700
:10279000535449443A000000000000202800002063
:1027A000F000002002030405060708090A0B0C0DBF
:1027B0000E0F1010010200000000000000000102D6
:1027C00003040607080900000000010203040000DA
:1027D00000000000000000000000000000000000F9
:1027E00000F800000000000000333000000000107E
:1027F0000C06100C0600000000000000000040C0A5
:102800007840C0784000043F04043F040400007096
:1028100088FC08300000001820FF211E0000F0088E
:10282000F000E018000000211C031E211E0000F033
:102830000888700000001E2123241927211010167B
:102840000E0000000000000000000000000000007A
:1028500000E01804020000000007182040000002F9
:102860000418E0000000004020180700000040406D
:1028700080F0804040000202010F010202000000CF
:1028800000F0000000000101011F01010100000033
:1028900000000000000080B0700000000000000098
:1028A0000000000000000001010101010101000021
:1028B00000000000000000303000000000000000B8
:1028C000000080601804006018060100000000E0AD
:1028D00010080810E000000F102020100F0000105A
:1028E00010F8000000000020203F202000000070B1
:1028F00008080888700000302824222130000030A9
:102900000888884830000018202020110E000000A0
:10291000C02010F8000000070424243F240000F821
:102920000888880808000019212020110E0000E006
:10293000108888180000000F112020110E000038A8
:102940000808C83808000000003F000000000070C0
:10295000880808887000001C222121221C0000E049
:1029600010080810E0000000312222110F000000C2
:1029700000C0C00000000000003030000000000077
:1029800000800000000000008060000000000000E7
:102990008040201008000001020408102000404080
:1029A00040404040400004040404040404000008C3
:1029B0001020408000000020100804020100007078
:1029C00048080808F0000000003036010000C03060
:1029D000C828E810E0000718272423140B00000083
:1029E000C038E0000000203C23020227382008F80D
:1029F000888888700000203F202020110E00C03001
:102A0000080808083800071820202010080008F8D7
:102A100008080810E000203F202020100F0008F8D0
:102A20008888E8081000203F20202320180008F89C
:102A30008888E8081000203F200003000000C03014
:102A400008080838000007182020221E020008F895
:102A500008000008F808203F210101213F2000085C
:102A600008F8080800000020203F20200000000097
:102A70000808F8080800C08080807F00000008F87F
:102A800088C028180800203F20012638200008F8B8
:102A9000080000000000203F20202020300008F81F
:102AA000F800F8F80800203F003F003F200008F839
:102AB00030C00008F808203F200007183F00E01051
:102AC00008080810E0000F10202020100F0008F860
:102AD00008080808F000203F210101010000E01073
:102AE00008080810E0000F18242438504F0008F898
:102AF000888888887000203F2000030C30200070F8
:102B00008808080838000038202121221C001808F5
:102B100008F8080818000000203F2000000008F80E
:102B200008000008F808001F202020201F00087857
:102B3000880000C83808000007380E010000F808B7
:102B400000F80008F800033C0700073C03000818E1
:102B500068808068180820302C03032C3020083847
:102B6000C800C83808000000203F200000001008FE
:102B70000808C83808002038262120201800000046
:102B800000FE020202000000007F40404000000CF6
:102B900030C000000000000000010638C000000244
:102BA0000202FE000000004040407F0000000000E4
:102BB0000402020204000000000000000000000007
:102BC0000000000000008080808080808080000203
:102BD00002040000000000000000000000000000EF
:102BE0008080808000000019242222223F2008F8E3
:102BF000008080000000003F112020110E00000026
:102C0000008080800000000E1120202011000000B4
:102C100000808088F800000E112020103F20000066
:102C2000808080800000001F22222222130000806A
:102C300080F0888888180020203F202000000000B5
:102C4000808080808000006B94949493600008F8EA
:102C5000008080800000203F210000203F20008075
:102C60009898000000000020203F20200000000075
:102C700000809898000000C08080807F000008F8E5
:102C8000000080808000203F24022D3020000008BA
:102C900008F8000000000020203F20200000808075
:102CA000808080808000203F20003F20003F808087
:102CB000008080800000203F210000203F20000095
:102CC000808080800000001F202020201F00808046
:102CD00000808000000080FFA12020110E00000075
:102CE000008080808000000E112020A0FF80808066
:102CF00080008080800020203F2120000100000013
:102D000080808080800000332424242419000080E7
:102D100080E0808000000000001F202000008080F4
:102D2000000000808000001F202020103F208080B5
:102D300080000080808000010E3008060100808045
:102D40000080008080800F300C030C300F0000806A
:102D50008000808080000020312E0E312000808095
:102D600080000080808080818E70180601000080C5
:102D70008080808080000021302C222130000000E3
:102D80000000807C020200000000003F4040000084
:102D90000000FF00000000000000FF000000000233
:102DA000027C800000000040403F00000000000660
:102DB0000101020204040000000000000000000005
:102DC000E02D000800000020F00000001825000899
:102DD000D02E0008F00000209804000028250008EC
:102DE0000000000066060000000000000000000077
:102DF00000000000040000000000000000000000CF
:102E000013240140000000006606000000000000DE
:102E100000000000000000000400000000000000AE
:102E200000000000132402440000000066060000B9
:102E3000000000000000000000000000040000008E
:102E40000000000000000000132403450000000003
:102E50006606000000000000000000000000000006
:102E600004000000000000000000000013240446DD
:102E700000000000660600000000000000000000E6
:102E8000000000000400000000000000000000003E
:102E90001324054600000000660600000000000044
:102EA000000000000000000004000000000000001E
:102EB000000000001324064600000000000000008F
:102EC000100000000100000000127A000000000065
:04000005080000ED02
:00000001FF
